:020000040800F2
:10000000588100209D010008A5010008A7010008F3
:10001000A9010008AB010008AD01000800000000C4
:10002000000000000000000000000000AF01000818
:10003000B101000800000000B30100088F4400086F
:10004000B7010008B7010008B7010008B7010008B0
:10005000B7010008B7010008B7010008B7010008A0
:10006000B7010008B7010008B7010008B701000890
:10007000B7010008B7010008570400087104000820
:10008000B7010008B7010008B7010008B701000870
:10009000B7010008B7010008B7010008B701000860
:1000A000B7010008B7010008B7010008B701000850
:1000B000B7010008B7010008B7010008B701000840
:1000C000B7010008B7010008B7010008B701000830
:1000D000E33D0008B7010008B7010008B7010008B8
:1000E000B7010008B7010008B7010008B701000810
:1000F000B7010008B7010008B7010008B701000800
:10010000B7010008B7010008B7010008B7010008EF
:10011000B7010008B7010008B7010008B7010008DF
:10012000B7010008B7010008B7010008B7010008CF
:10013000B7010008B7010008B7010008B7010008BF
:10014000B7010008B7010008B7010008C11900088D
:10015000B7010008B7010008B7010008B70100089F
:10016000B7010008B7010008B7010008B70100088F
:10017000B7010008B7010008B7010008000000003F
:10018000B7010008B7010008DFF80CD000F070F8E4
:100190000048004709580008588100200648804759
:1001A00006480047FEE7FEE7FEE7FEE7FEE7FEE75C
:1001B000FEE7FEE7FEE7FEE79F440008890100082E
:1001C000421C10F8011B0029FBD1801A704730B582
:1001D00004460020034600E05B1C934203D2E05C2F
:1001E000CD5C401BF8D030BD2DE9F05F0546002006
:1001F00092469B4688460646814640241BE0284698
:1002000041464746224600F054F853465A46C01A23
:10021000914110D311461846224600F03BF82D1AA2
:1002200067EB01084F4622460120002100F032F81A
:1002300017EB00094E41201EA4F10104DFDC484603
:1002400031462A464346BDE8F09F40EA01039B073A
:1002500003D009E008C9121F08C0042AFAD203E03B
:1002600011F8013B00F8013B521EF9D27047000023
:10027000064C074D06E0E06840F0010394E80700F3
:1002800098471034AC42F6D3FFF782FF1C68010890
:100290003C680108202A04DB203A00FA02F1002021
:1002A00070479140C2F1200320FA03F319439040B4
:1002B0007047202A04DB203A21FA02F0002170471F
:1002C00021FA02F3D040C2F12002914008431946BE
:1002D0007047D2B201E000F8012B491EFBD27047F3
:1002E0000022F6E710B513460A4604461946FFF702
:1002F000F0FF204610BD70B58C1810F8015B15F0AA
:10030000070301D110F8013B2A1106D110F8012B87
:1003100003E010F8016B01F8016B5B1EF9D12B07AC
:1003200005D40023521E0DD401F8013BFAE710F862
:10033000013BCB1A921C03E013F8015B01F8015B4F
:10034000521EF9D5A142D8D3002070BDB0B586B0F9
:10035000032812D8DFE800F0020202020021019116
:1003600043F63001C4F202010A6842F008020A6052
:10037000096801F00801019101990221049101210C
:10038000CDE9021107A131F8105008A151F8204021
:1003900001A90195204600F0FBFA2804A06106B0EF
:1003A000B0BD00BF0010002000400080000C0240E3
:1003B000000C0240000C0240000C024010B581B05D
:1003C0004FF0000E43F2000CCDF800E0C4F2020C36
:1003D000BEEB910FDCF8303843F48053CCF8303862
:1003E000DCF8303803F480530093009B4FF0010396
:1003F000CCF8083000BF00BF00BF0ED08B08C3F19F
:10040000000E00BF50F8043B1EF1010E83EA020308
:1004100093FAA3F3CCF80030F4D111F0030EDCF81A
:10042000001091FAA1F313D048F2203CCEF6B85C4C
:10043000017883EA010208218CEA5203D40708BF3D
:10044000530801391A46F7D10130BEF1010EEFD140
:10045000D84301B010BD4EF280204FF48041CEF25F
:100460000000016043F67C40C2F2000000F054B886
:100470004EF280204FF40041CEF20000016043F6BE
:10048000DC40C2F2000000F047B8000080B544F242
:10049000501ED0F858C0C2F2000EDEF8003090F8BE
:1004A0003510022925D101680A6822F016020A6077
:1004B0004A6922F080024A61026C0AB9826C1AB160
:1004C0000A6822F008020A600A6822F001020A6043
:1004D0000A68D20713D0DEF80020D21A052AF7D90D
:1004E00020214165002180F83410032180F8351067
:1004F00080BD002180F834108021416580BDC16D30
:100500003F2202FA01F1CCF80810012180F83510E1
:10051000002180F8341080BDF0B581B00446002081
:1005200048F2B5130821009040F24800C1F64E335E
:10053000C2F200000268D4E9166037688140A2FB6D
:10054000032539420CD0226813685B0708D513686D
:1005500023F004031360B160616D41F00101616536
:1005600001218140394208D022685269120604D51F
:10057000B160616D41F00201616504218140394241
:1005800008D022681268920704D5B160616D41F00D
:100590000401616510218140394217D0206802684A
:1005A000120713D5B16002680168520306D4C90569
:1005B0005EBF016821F00801016001E0080301D479
:1005C000216C00E0A16C09B120468847E16D202034
:1005D00000FA01F23A423BD020680368DB0637D5C7
:1005E000B26094F835300268052B19D122F016025A
:1005F0000260426922F080024261226C0AB9A26C58
:100600001AB1026822F0080202603F208840B06000
:10061000012084F83500002084F83400216D34E096
:10062000016852030CD4C9050ED4016821F01001F1
:100630000160012084F83500002084F8340003E0D4
:10064000080301D4616C00E0E16B09B120468847E2
:10065000606DE8B1606DC00716D00521A80A84F866
:10066000351021680A6822F001020A60009A0132FE
:100670008242009202D80A68D207F7D1012084F89A
:100680003500002084F83400E16C09B12046884729
:1006900001B0F0BD44F250110028C2F200010B6815
:1006A00054D02DE9F041022280F83520002280F854
:1006B00034200268156825F0010515601568ED07FE
:1006C00007D00D68ED1A052DF8D903232025032145
:1006D0006EE048F23F031168D0E9015400F10C08C4
:1006E000CFF2100301EA030C98E8C201D0E9073EFB
:1006F00045EA0C0525432943456A31433943042D16
:1007000041EA080141EA030141EA0E0320D1D0E9A0
:100710000BE143EA0E03BEF1000F41EA0301116051
:100720005169846A21F0030141EA040141F0040C9B
:1007300014D0B8F5005F32D0B8F1000F44D1022CCC
:1007400045D0012C3AD0002C41D007E0012124E013
:100750001360516921F0070141EA050C6FF00F01A8
:1007600040F2FF33C2F814C0002551FA82F19A43D7
:100770004AF6AB23CAF6AA235F2988BF04328265F2
:10078000A1FB0313190916A3595C3F23C16503FAA2
:1007900001F10123916000210AE008467047032C13
:1007A000DCD8012340250121DFE804F00211020812
:1007B000456580F83530BDE8F041EEE7AEF1C07137
:1007C000B1FA81F1490904E0032C04D3C6D1CEF378
:1007D00000610029C2D0012340250121E8E700BFC4
:1007E000000610160006101610B590F834C0BCF1C3
:1007F000010F4CD04FF0010CD0F858E080F834C015
:1008000090F835C0BCF1010F3ED14FF0020C80F8DA
:1008100035C04FF0000CC0F854C0D0F800C0DCF870
:10082000004024F48024CCF80040CCF804308368E5
:10083000402B0B4608BF1346CCF8083008BF0A46C9
:10084000CCF80C20C16D3F2202FA01F1CEF808105D
:10085000DCF8001041F01601CCF80010DCF81410A0
:1008600041F08001CCF81410006C28B1DCF80000D5
:1008700040F00800CCF80000DCF8000040F0010077
:10088000CCF80000002010BD002180F834100220B8
:1008900010BD00002DE9F04F81B041F6004208275D
:1008A00043F6004B4FF001090024C4F20202C4F2E7
:1008B000010B904200F13E4208BF0727ABF57E7C5A
:1008C00002F1FF724FEAB223072B38BF4FEAB2277B
:1008D00000970023002700BF09FA04F60E424ED00D
:1008E0004FEA940E03F00C0A0F225CF82E90009D44
:1008F00002FA0AF809EA080205FA0AF5AA421CD126
:100900005CF82E2022EA08024CF82E20DBF80020AA
:10091000B243CBF80020DBF80420B243CBF804202C
:10092000DBF80820B243CBF8082043F60C42C4F2AF
:10093000010215461268B2432A60032205686FEA75
:10094000060E0F264FF00109BA409543056003F0EB
:100950001C0506FA05F86FF0030505EA540606447F
:10096000356A25EA080535628568954385604568DE
:1009700005EA0E064660C66826EA0202C260013435
:1009800002370433102C04BF01B0BDE8F08FA3E799
:100990002DE9F04F82B041F6004343F6004B0822A8
:1009A0004FF0010A00264FF0000CC4F20203C4F21B
:1009B000010B984200F13E4308BF072203F1FF7389
:1009C0004FEAB327072F4FF0000738BF4FEAB32293
:1009D000009200BF0A680AFA0CF812EA080F00F049
:1009E0009A80D1F804E04EF01002122A12D106F0DB
:1009F0001C020F2303FA02F46FF0030303EA5C0501
:100A000005442B6AA3430C6904FA02F21A432A62D2
:100A1000D1F804E0032304680EF00302BEF1120FC4
:100A200003FA07F302FA07F224EA03046FEA030960
:100A300042EA0402026014D80AFA0EF212F0061F0B
:100A40000FD08268CB6802EA0902BB401A43826079
:100A5000CEF30012436802FA0CF223EA08031A43A9
:100A60004260C2688B6802EA0902BB401A43C26056
:100A70005FEACE024FD5002206F00C050F2401924A
:100A800043F64402AC40C4F202021346126842F438
:100A900080421A601A6802F4804201922CF003022C
:100AA000019B5A444FF60843CFF6FF739E46D35836
:100AB000A343009C04FA05F52B4342F80E30DBF803
:100AC00000204D6842EA0803EC0358BF22EA0803FD
:100AD000CBF80030AC03DBF8042042EA080358BF2F
:100AE00022EA0803CBF80430EC02DBF8082042EAE3
:100AF000080358BF22EA080343F60C42CBF808303B
:100B0000AD02C4F201021446126842EA080358BF5B
:100B100022EA080323600CF1010C02370436BCF111
:100B2000100F04BF02B0BDE8F08F53E740F2480059
:100B300044F6D351C2F20000C1F262010068A0FB8A
:100B400001014FF0FF3000EB91120021B1EB126F69
:100B500018BF70474EF210034EF60C5CCEF2000345
:100B6000CEF2000C5A60F0228CF817209960072111
:100B70001960DCF80010C1F30221CA1E81F00701E0
:100B800038BF0022042928BF042188400F2121EA10
:100B90000000904000018CF81700704710B5014626
:100BA00043F63C50C2F200000029D0F804440BD0B8
:100BB000D4F8140282691AB394F8FC0103281FD1F7
:100BC0002046BDE810401047D4F8F421032A17D17D
:100BD000D4E943C39C4514D9C1EBC10100EB8100AA
:100BE0000021D0F80822ACEB0300C4F80C019842B5
:100BF00038BF034620469BB2BDE8104003F022BE3A
:100C000010BDD4F81402016929B194F8FC0103283D
:100C100001D1204688470420002100220023C4F887
:100C2000F4012046BDE8104003F07FBE2DE9F043FB
:100C300081B043F63C520120C2F20002D2F8049483
:100C400092F8C46389F8086209F5027892F8C5330E
:100C500089F8093292F8C6C392F8C7534CEA052EB8
:100C6000A9F80AE292F8C81392F8C97341EA072773
:100C7000A9F80C72B2F8CA4306F01F02022AC9E9A9
:100C80007D04A9F80E4221D0012A2CD0002A38D1A7
:100C9000092B2FD8DFE803F005622E6E2E83B72EC6
:100CA000CBE199F8FC0100F0FE00022822D10220DD
:100CB00003214A46C9F8F401C9E90600D9F804023B
:100CC000002808BF012142F80C1F23E106F0600054
:100CD00020281ED1D9F8140241468268484601B046
:100CE000BDE8F043104799F8FC01032808BF11F054
:100CF000FE0F27D04846802103F0CCFD4846002156
:100D000002E006F08001484601B0BDE8F04303F080
:100D1000C1BD002B00F0C580012B00F0CD80032B5E
:100D200040F0948199F8FC21032A40F0C980BEF17B
:100D3000000F26D141F08000802822D0484603F0E1
:100D4000A9FD1EE0D9F81402414682684846904742
:100D5000B9F80E02002840F0798118E099F8FC01FA
:100D600000F0FE000228C5D1BEF1010F40F06E81F7
:100D7000002004E0BEF1010F40F068810120C9F8B5
:100D80000402D9F81402414682684846904704207C
:100D9000002100220023C9F8F401484617E147EA80
:100DA00004000004A6D199F8FC010328A2D00CF09D
:100DB0007F0489F8FE41D9F8200290F8BC1301297C
:100DC00011D080F838400168D1F8002822F4FE6282
:100DD000C1F80028D1F8002842EA0412C1F800281E
:100DE000002180F8BC130420002100220023C9F850
:100DF000F401484603F099FD002C0CBF01200220AD
:100E000089F8FC0122E1681E062800F2CC80DFE8A8
:100E100000F004A1AFCACABDC700D9F8101299F8F2
:100E200010000A680DF1020190470246FAE0012C19
:100E30007FF460AF99F8FC01032800F0BD80022820
:100E40007FF458AF02204A46C9F8F4010120C9E9ED
:100E50000600002042F8080FB6E043F23864BCF107
:100E6000020FC2F2000484F800C0BFF443AF99F847
:100E7000FC01032800F0B08002287FF43BAFBCF1F6
:100E8000000F3FF484AF032089F8FC01C9F804C0C7
:100E9000D9F8140200283FF42DAF02684846614695
:100EA000B2E099F8FC01032813D002287FF422AFA6
:100EB00048067FF428AFC9E099F8FC21032A2DD019
:100EC000022A7FF417AF41F08000802800F0BE8036
:100ED00019E701F07F0011F0800109EB0013C0EB6E
:100EE000C00003F1140208BF03F58272D9F8203262
:100EF000002903EB800000F13E0308BF00F5FF73FB
:100F00001878002818BF012010600220C9E90600E7
:100F1000C9F8F40148460021022358E0BEF1000F51
:100F200040F0948048063FF432AFD9F8200201F037
:100F30000F0243689A423FF624AF090600F1B280DF
:100F4000C2EBC201002300EB810181F8FD3101F504
:100F5000FE71AFE099F81010D9F8140200290CBF07
:100F6000816AC16A0DF1020088470246022058E0FA
:100F7000BCF1050F17D8DFE80CF003777D83898F6C
:100F8000D9F8101299F810004A684BE799F8100048
:100F900048B9D9F81402416B0DF10200884744E7C3
:100FA00099F81000A8B34846802103F073FC484626
:100FB000002103F06FFC49E0012009F10402C9E9B6
:100FC00006000220C9F8F40148460021012301B0BF
:100FD000BDE8F04303F0A9BCBCF1000F39D0D9F84B
:100FE000040060453FF4D3AED9F814124A68C1B288
:100FF000484690472178C9F80410D9F8140200280F
:101000003FF478AE02684846904700287FF472AEFD
:10101000BDE6D9F81402016B0DF1020088470246C3
:1010200007205070BDF8020080B1B9F80E326BB1E4
:10103000984238BF03460220ADF80230C9E90633B2
:101040000021C9F8F401484603F06FFC01B0BDE887
:10105000F08300206146C9F80400022089F8FC01F1
:10106000D9F81402426890E6D9F8101299F81000E5
:101070008A68D7E6D9F8101299F81000CA68D1E644
:10108000D9F8101299F810000A69CBE6D9F81012B5
:1010900099F810004A69C5E6D9F8101299F81000BD
:1010A0008A69BFE6C2EBC201012300EB810181F82E
:1010B0003D303C3100230A708B7090F8BC33012B1B
:1010C0003FF45FAE0123520180F8BC334F780368D0
:1010D000012F14BF03F5306303F510639F5827F405
:1010E00000179F50C97801F0FE01022902BFD158B4
:1010F00041F08051D150002180F8BC1341E600003E
:1011000090F8BC13012901D1022153E001214FF6CF
:101110007F3380F8BC13D0F800C0DCF8082022F040
:101120000102CCF808204FF62062CFF6FF7200BF14
:101130000CEB02012032C1F8E83AC1F8E83CF7D1E3
:1011400040F63F5200214FF0FF33CCF81018CCF896
:101150001418CCF81C181021C0F20302CCF810109F
:101160000133934222D8DCF81010C906F8D44FF4AA
:1011700084614FF0FF33CCF8101000BF013393426D
:1011800014D8DCF810108906F8D4DCF8041841F003
:101190000201CCF8041844F25011C2F200010A68AE
:1011A0000B689B1A042BFBD3002100E001210022D5
:1011B00080F8BC2308467047B0B5D0F818520446F2
:1011C00095F8180280B12046812103F063FB687A0C
:1011D000022818BFB0BD05F50372204601211F2368
:1011E000BDE8B04003F02EBBD5F814020028EAD0C9
:1011F000687A0028E7D12046012103F04BFBE2E7A3
:1012000010B5D0F81842627A022A05D1812103F084
:1012100041FB0020607210BD49B2B1F1FF3FFADC22
:10122000012A08BF10BD0121BDE8104000F0BDB883
:1012300010B50446D0F81802017ACA1E022A05D257
:1012400020460021BDE8104000F0AFB8022910D1BF
:1012500090F8191200F21B22204602F041F9B0F179
:10126000FF3FC8BF10BD20460121BDE8104000F07F
:101270009CB810BDB0B5D0F818520446287A0128A1
:1012800034D0E8BBD5E98401C5E98C01D4F820024B
:10129000D0F830021F2810D145F25531D5F80C0294
:1012A000C4F24231884208D195F81912012904D8B4
:1012B00095F81A020138102823D395F85D024FF4EF
:1012C000005205EBC0010130C1F84022052281F82F
:1012D0003C2202216972C1B2043918BF014685F867
:1012E0005D122046BDE8B040FFF766BF95F81912C1
:1012F00005F21B22204602F0F3F8B0F1FF3F2ADD91
:10130000B0BD05F21B22204602F0EAF8297AB0F1BE
:10131000FF3F1EDD481E0328F2D3688908B3D4F8C6
:101320001812002281F8382204220A72D1F81422FD
:10133000D1F83432824238BF10461A1A83B2C1F84B
:10134000342205F10C0220468121BDE8B04003F0B3
:10135000ECBA0529C5D120460121BDE8B04000F016
:1013600024B820460021BDE8B04000F01EB8B0B55A
:10137000D0F81852044600202881A5F85C02D4F861
:101380001C020168002088472046012103F0BAF9B9
:101390002046812103F0B6F905F5037220460121AC
:1013A0001F23BDE8B04003F04DBAB0B5D0F81852D5
:1013B000044645F255300D23C5F2423085F8381207
:1013C000C5F82C02002005F50B72812128722046F9
:1013D00003F0ABFA05F50372204601211F23BDE897
:1013E000B04003F02FBA10B543F65824C2F20004FF
:1013F000D4F814022179426820469047D4F820029C
:10140000FFF77EFE012084F8FC01D4F81402217954
:10141000426820469047D4F82002FFF771FED4F8C6
:1014200020422CB3032084F8BD032046FFF768FE5A
:101430002068B0F1A04F18D143F63400C4F2020086
:10144000016821F08001016000204FF4F051C4F2E6
:101450000200FFF71FFA4EF288100821CEF20000BA
:101460000160BFF34F8FBFF36F8F002084F8BD037F
:1014700010BD00002DE9F04F87B043F65821C2F2AD
:101480000001D1F8140210B10020C1F8140240F29A
:101490000C0043F63C584FF0010B002502260424B3
:1014A000C2F2000081F8FCB1C2F20008C1F81002DB
:1014B0004FF0A0400D70C8F80414C1F82082C8E9AC
:1014C0000BB5C8E90365C8E90556C8E90755C8F86A
:1014D0002450C8E9000498F8BD03002859D140F20F
:1014E00000090DF1080A4FF4007088F8BC53CDE9EB
:1014F0000355C4F20209029051464846FFF748FAE4
:101500000A205146CDE905504FF4E050CDE903657E
:1015100002904846FFF73CFA43F634004FF6FF02CC
:10152000C4F20200016841F0800101600195016987
:1015300041F480410161006900F48040019001980C
:101540004EF60C50CEF200000168114040F20062ED
:10155000C0F2FA52114301600068C0F30220C11EBC
:1015600080F0070038BF0021042838BF04464FF040
:10157000FF30A0402BEA000088404EF243410001BA
:10158000CEF2000108704EF208100821CEF20000E1
:101590000160032040F63F5B88F8BD033C20C0F2A9
:1015A000030BC5F200000068C0055CBF0020C8F84E
:1015B0001000D8F80000816821F001018160D8F89E
:1015C0001830D8F81010012B30D1D8F83430876B90
:1015D0004FF6BF76CFF6BD7627F48037012B8763B1
:1015E000C76807EA0607C760C76827F44017C760DF
:1015F00002BFC36843F48013C3604FF0FF3300BFE2
:1016000001335B4530D80769B7F1FF3FF8DC036968
:1016100043F0010303614FF0FF3300BF01335B452B
:1016200022D80769FF07F9D1002628E0D8F828302A
:10163000C7684FF0FF3647F04007C76001365E4588
:1016400014D80769B7F1FF3FF8DC07694FF0FF36A0
:1016500047F00107076100BF01365E4506D80769FC
:10166000FF07F9D1002602E0032608E00326876B76
:10167000002B14BF27F4803347F4803383630129A0
:1016800007D1816841F006018160816841F0200145
:101690008160002E40F08381C16844F2501CC2F288
:1016A000000C21F0C041C160C16841F08041C160BF
:1016B000DCF80030DCF80070FF1A332FFAD3D8F8CA
:1016C000043000266BB3012500270024C7EBC707B1
:1016D000E2B208EB8707A7F8422087F83C400134C4
:1016E00087F83D503E65C7E9116687F83F60E7B26D
:1016F000BB42EBD800250027002400BFC7EBC70280
:1017000008EB8202C2F81052C2E9815582F8FF51FB
:1017100082F8FC41013482F8FD51E7B2BB42EDD8BA
:1017200000E00023D8F82C90D8E903AED8E90651A0
:1017300000F58274002700BF44F8276001370F2F9F
:10174000FAD1B9F1000F07D0026822F4001202604A
:10175000826B42F400220AE0826B42F40012826340
:10176000826B22F400228263826B22F480228263E5
:101770000022012DC0F8002ED0F80028C0F8002863
:1017800007D1D0F80048BAF1000F18BF44F00104A7
:1017900003E0D0F8002842F00304C0F800484FF4FA
:1017A00084624FF0FF34026101345C4505D8026960
:1017B0009206F9D44FF0000A01E04FF0010A10221E
:1017C0004FF0FF34026100BF01345C4504D8026968
:1017D000D206F9D48B4602E08B464FF0010A002274
:1017E000002BC0F81028C0F81428C0F81C282FD0EF
:1017F00000F510644FF67F35002600BF4FF090478C
:10180000002E06F1010608BF4FF000672168B342C1
:1018100007EAE17121602261A56004F12004EDD1A5
:1018200000F5306200244FF67F3500264FF09041DE
:10183000002E06F1010608BF4FF000611768B342A1
:1018400001EAE77111601461956002F12002EDD1A7
:10185000D0F81018BEF1010F21F48071C0F81018F3
:1018600016D140F200110246C0F28001C0F83018D3
:10187000D0F8301841F4803141F00301C0F830183D
:10188000002142F8181F6FF0804142F8041C0EE05E
:1018900000210246BEF1000F42F8181F6FF0804190
:1018A00042F8041C03D1116841F01001116043F6A5
:1018B0000003116843F65827BBF1000FC8F23C0340
:1018C000C2F2000741EA030111601EBF116841F036
:1018D00008011160B9F1010F05D1116841F0804193
:1018E00041F004011160BAF1000F58D1002188F8CD
:1018F0003810012188F8BD13D0F8041841F0020116
:10190000C0F80418DCF80020DCF80010891A04295B
:10191000FAD380214162416A41F480018162416AC7
:10192000826A01EB124141F40001C0F8041140F257
:101930000810C2F20000C7F81C0240F26400C2F2B4
:101940000000C7F81402D7F8200290F8BC13012950
:1019500022D00121026880F8BC13816A012906D1D6
:10196000816901291EBF916B41F480319163D2F8E6
:10197000041821F00201C2F80418DCF8003000BF9E
:10198000DCF80010C91A0429FAD3916841F001016A
:101990009160002180F8BC1307B0BDE8F08F0220F1
:1019A0004FF4AA7188F8BD0301A003F00FFB00BF3C
:1019B0005372632F757362645F636F6E662E63008C
:1019C0002DE9F04F85B043F63C56C2F20006D6F83A
:1019D00000E0DEF81400C00740F02384DEF81400B5
:1019E000DEF81810014200F01C84DEF81400DEF866
:1019F00018100840800742BFDEF8140000F0020013
:101A0000CEF81400DEF81400DEF81810CDF810E05F
:101A100008400003704640F1F180DEF81808DEF857
:101A20001C184FF000080840B8EB104F00F0E5809C
:101A3000000C06F505774FF430644FF0000A00BF44
:101A40008346C00700F0CD8030682518A968D0F81B
:101A5000142802EA01095FEAC97167D00EEB04019C
:101A600001228A60016CA8683269012A2CD1020720
:101A70003DD4820658D410F0280F57D143F20A0201
:101A8000C4F654720132914202D310F4004048D19E
:101A900057E904012A696FF3DF42821A08443A6069
:101AA00047F80C0C5FFA8AF0FFF778F8D6F81002C6
:101AB000DDF810E050EA0A0038D1306806F571729E
:101AC000012103F0B5F829E043F20A02C4F654728A
:101AD00002F58072914205D1010422D4800644BFF0
:101AE0002020A8605FFA8AF0FFF758F816E043F26A
:101AF0000A02C4F654720132914205D310F4004038
:101B00001CBF4FF40040A860FFF790F8306806F55E
:101B10007172012103F08CF80820A860DDF810E054
:101B200004E04FF4004000E02020A8605FEA097064
:101B300036D5316860180D6C81683269012A08D188
:101B400043F20A02C4F6547295420AD8FFF76EF8BF
:101B500020E043F20A03C4F6547303F58072954201
:101B600010D1090444BF4FF400418160FFF75EF8D3
:101B7000306901280ED1306806F57172012103F039
:101B800057F807E09846FFF751F845454FF0000831
:101B9000EED800BFDDF810E008210EEB04008160F4
:101BA0005FEAC96042BF0EEB0400102181605FEA6A
:101BB00089600ED53069012807D1306806F5717249
:101BC000012103F035F8DDF810E00EEB04002021D0
:101BD00081605FEA894042BF0EEB04004FF4005180
:101BE00081601C3720344FEA5B000AF1010AB8EB30
:101BF0005B0F7FF425AF306800E070464169826971
:101C00001140490340F13A81D0F81818D0F81C2847
:101C1000114089B2002900F031810EF510674FF0B4
:101C2000000B00978A46C80700F01E8130680BF051
:101C30000F034FEA4B18D0F81018D0F8342802934D
:101C400000EB4B10D0F80809DA40D201D2B21143B0
:101C500001EA0005E80700F0838002980122DEF81F
:101C6000341802FA00F021EA0000CEF8340807EB3D
:101C7000080082603069012807D1CBEBCB0006EB6E
:101C80008000D0E9111211448164D6F804445FEA5F
:101C90000B600FD0D4F814024269002A51D094F896
:101CA000FC0103284DD15FFA8BF120469047DDF807
:101CB00010E046E0D4F8F40102283BD1D4E9071043
:101CC00081420CD9CBEBCB02081A002106EB820231
:101CD00083B2926CE061204602F027FE22E0A16907
:101CE000814212D3B1FBF0F202FB101068B9D4F8B4
:101CF000F801814209D2204600210022002302F08F
:101D000014FE0020C4F8F8010CE0D4F81402C168F5
:101D100029B194F8FC01032801D120468847052009
:101D2000C4F8F401204600210022002302F08AFDBD
:101D3000DDF810E094F80002012804BF002084F8C8
:101D40000002306D50EA0B000AD13069012807D13A
:101D5000306806F57172012102F06AFFDDF810E0CB
:101D6000280742BF07EB080008218160E80642BF50
:101D700007EB080010218160680642BF07EB0800EE
:101D800040218160A80742BF07EB08000221816063
:101D9000280669D5CBEBCB0006EB8000024652F853
:101DA000503F019252F8044FA3425DD386463568F6
:101DB000191B5EF8447FB94288BF3946CF1C08EB37
:101DC0000501D1F81869B6B2B6EB970F39D301F512
:101DD000106100F148074FEA0B36039105F5805179
:101DE000A3422ED9A846DEF80050181BA84288BF8F
:101DF000284643F63C55D7F800C0C2F200052D7CBA
:101E000095B9032515FA80F90025B5EB990F0BD08C
:101E10004FEA9903644600BF54F8045B013B7550D8
:101E2000FAD1019B14681B680CEB000504440330D5
:101E30003D60039D1460AD69ADB2B5EB900F4546B2
:101E4000CED243F63C56DDF810E0009FA342C2F22A
:101E5000000609D8029901208840D5F8341821EAF3
:101E60000000C5F8340800BF00204FEA5A010BF10A
:101E7000010BB0EB5A0F7FF4D5AE3068416982692F
:101E80001140B1F1FF3F17DCDEF8041821F0010129
:101E9000CEF8041896F8F413012903D1002186F82E
:101EA000F41305E0D6F8041491F8FD2181F8FC2123
:101EB000416901F0004141614169826911400905B0
:101EC00020D5DEF80818C90718D0D6F80414042362
:101ED00091F8FC2181F8FC3181F8FD21D0F8001E39
:101EE00041F00101C0F8001E316A39B14EF61051BF
:101EF000CEF200010A6842F006020A60416901F46C
:101F000000614161416982691140C90460D5DEF810
:101F1000041840F63F534FF0FF32C0F2030321F0A4
:101F20000101CEF804184FF4846101610EF50061DF
:101F300001329A4202D80769BF06F9D47268B446E2
:101F4000D2B14FF608674FF600650EF530634FF6D5
:101F50007F36CFF6FF77CFF6FF7500BFDE51013A2F
:101F60005C5924F400145C519E601C6824F4001435
:101F70001C6003F12003F1D1CA69664642F00112E8
:101F8000CA61DCF8302042B1D1F8842042F00B0263
:101F9000C1F8842001F1440206E04A6942F22B03B1
:101FA0001A434A6101F11002136843F00B031360F6
:101FB0000A6822F4FE620A6006F57172317C02F052
:101FC00037FE3068416901F480514161DDF810E06D
:101FD000416982691140890471D5D0F8001940F235
:101FE000FF729143C0F80019D0F8081801F00601FB
:101FF000042902BFD0F8001941F00301C0F800190C
:10200000D0F8041841F48071C0F80418D0F808180A
:1020100011F0060119D041F00401062917D140F250
:10202000480245F2403343F200570221C2F2000257
:10203000CFF62773C0F20C07F16012681344BB425D
:1020400080F08A804FF4705205E0002100E00F21FB
:10205000F1604FF41052C36800294FF0400523F49B
:102060007053C360C36842EA03024FF04003C2608A
:102070004FF00002D6F8044418BF01212174204615
:10208000002102F075FB2046802100224023C4F885
:10209000105102F06DFB012084F8FC012562D4F898
:1020A000180228B1D4F814022179426820469047DA
:1020B0003068416901F400514161DDF810E0416987
:1020C00082691140C90665D5816921F010018161DD
:1020D000DEF82020C2F3434302F00F01062B23D089
:1020E000022B53D147F6F0731A404FD0C1EBC10118
:1020F0000323B6464FEA121C06EB810103EB1217CD
:10210000002601F50278B6EB970F33D0D8F80040DF
:10211000049BBE084FF48055274600BF5A59013E24
:1021200047F8042BFAD127E000234FF480573446B8
:1021300004EB83055EF807600133022BC5F8C46326
:10214000F6D1C1EBC101264604EB8101D1F814326E
:10215000C2F30A121A4417E041F6406144F24023E8
:10216000CFF61B71C0F20F03114499425CD24FF4B9
:102170006052B9E0D8F8004004EB0C027646C8F88B
:102180000020D1F814226244C1F81422816941F080
:1021900010018161416982691140090710D5D6F8A3
:1021A000041491F8FC21032A06D1D1F81422D26933
:1021B00012B1084690473068416901F00801416159
:1021C000416982691140C90242BF416901F480112D
:1021D0004161416982691140890242BF416901F44C
:1021E00000114161416982691140490042BF416962
:1021F00001F080414161416982691140490710D570
:10220000446861070AD5D6F80404012180F8FC115E
:10221000D0F8142201795268904730684168214310
:10222000416005B0BDE8F08FA2F5740144F68073FB
:10223000A1F51051C0F21203994202D24FF450524C
:1022400052E0A2F183714DF22063A1F5E741C0F2A3
:102250001303994202D24FF4405245E04BF26061C1
:102260004EF26033CFF6E561C0F216031144994295
:1022700002D24FF4305237E04DF2003147F2407352
:10228000CFF6CE61C0F21B031144994202D24FF443
:10229000205229E045F6C03149F2C013CFF6B361B0
:1022A000C0F221031144994202D24FF410521BE0B4
:1022B000A2F1B77147F22053A1F55851C0F238038B
:1022C000994202D24FF400520EE045F2E04149F645
:1022D000E043CFF65961C0F2410311444FF4C052BC
:1022E000994238BF4FF4E0520221B4E62DE9F04F95
:1022F000ADF52B7D40F2801A4FF45051C2F2000A26
:102300005046FDF7EDFF40F22C1550463E22C2F23A
:102310000005294602F0B6FD06460AF5FE7005F1F5
:102320004201042202F0AEFD3E3540EA06040AF501
:1023300000700422294602F0A5FD04430AF58050EE
:102340002946042202F09EFD40F228010AF5F055CC
:1023500004432022C2F20001284602F093FD44EA21
:10236000000243F64100C2F200000078012840F06C
:10237000AE8441F6086045F255014CF2FF38CDE9D4
:1023800004254FF00F0E4FF0000940F6FF7B2AF8AE
:10239000001044F24211CFF67F5841F60460C4F6B3
:1023A00043314AF8001000BF9AF80D00DAF8201007
:1023B000B1FBF0F4A0B2022873D340F28011C9EB54
:1023C000C9004FF0000AC2F2000101EB402000F208
:1023D000032500BF28685FFA8AFCA3B2A9884FF6DC
:1023E000FF72022B20EA0B0040EA8C0000F1030090
:1023F000286032D001EA020640F2FF31032BCFF60B
:102400000071AE8000EA01000CF1010140EA813167
:10241000296030D018F140774FEA8C006EF11F022E
:102420003940471D042B02EA060241EA076142EAED
:1024300017262960AE802BD001EA08010630043C43
:102440000AF1010A296006EA0E0141EA0010A8809B
:10245000A0B206350128BDD823E01140A98040F282
:10246000FF31CFF6007108404FF20001C0F2FF01CA
:102470000843286015E018F1407000EA010040F0C0
:102480007F4028606EF11F00304040F00F0007E0F1
:1024900001EA08004FF6F071286006EA0E000843D2
:1024A000A88040F2801A09F10109B9F1020FC2F2C5
:1024B000000A7FF479AF4FF40D7005F067F943F629
:1024C000542B064606AD1E21C2F2000BCBF80000CD
:1024D00043F63020C0F22F000E902846FDF700FF93
:1024E00043F65028C2F20008D8F800004768384682
:1024F000FDF766FE024628463946FDF7A6FE284649
:10250000FDF75EFE46F22E210DF13809C6F669612F
:10251000CDF86492295028440021017199A803F054
:1025200015F900280FDB43F28051C2F2000151F887
:1025300020200AB1002313700EB10022327041F83E
:102540002060002000E00B2043F64204A595C2F273
:1025500000042070A5A803F0F9F8002836DB43F248
:102560008051C2F2000151F820708FB3397889B3DD
:1025700003979997A59F99AA01E000BF0137387882
:102580005C2818BF2F28F9D000209B90397820298B
:1025900051D2802000218DF88F0299A802F0AAFF65
:1025A0000546002D00F0B281042D99A840F0EC8181
:1025B0009DF88F1211F0A00F00F05F82062543F600
:1025C0005028C2F200080DF138092FE00B25DBE19D
:1025D0000C25D9E178700025384600213D7002F0C5
:1025E00027FD02281ED199AC002021463A18103050
:1025F00092F8F631002B14BFD2F8FA21002241F8EC
:10260000042B4028F2D1002654F8265035B1384624
:10261000294602F00DFD022801D284E10320013693
:10262000042EF1D3042840F06A81012543F64204C8
:10263000C2F20004A8E146F2654E039802F1200CB4
:10264000C0F6010EC0680137002932D000224BB21B
:10265000B3F1FF3F01DDCBB208E046F21C73C0F6D8
:10266000010303EB41016FF0FF03CB5A202B1ED374
:102670005C2B4FF0000118BF2F2B1ED07F2B0CD8E6
:10268000764600BF16F8011B09B18B42FAD1062528
:102690003F2A00F2798119B176E13F2A00F22D81BB
:1026A00020F81230013217F8011B0029CFD1042184
:1026B00003E00421002200E001373B785C2B18BFC7
:1026C0002F2BF9D0002A00F0168100EB4203524272
:1026D00033F8026C2E2E18BF202E03D1023B01329C
:1026E000F6D108E1002652421E8000BF30F81630B5
:1026F0000136202BFAD02E2B41F0030508BF2946C6
:10270000831E012E18BF2946751E00BF3AB133F84B
:102710001260013A2E2EF9D102F1010E01E04FF0C4
:10272000000E4FF02032CDF808C0AEF101080823AA
:102730004FF00009CCF80720CCF80020CCF804209A
:102740004FF0000C30F815602C460135202E03D0D8
:102750002E2E04D1A0451AD041F00301F2E7002E3D
:1027600068D09C4560D2A0455ED0802E36D3002430
:102770000022019346F21C73C0F6010333F81430B3
:10278000B3421CD001340132802CF3D318E0012273
:10279000754643F6420441F003060B2BC2F20004D7
:1027A00000F0A580002A08BF3146754500F2A180DF
:1027B0004FEA89090B234FF0080C7546C2E7224601
:1027C000803241F00201D6B2120606D547F61C034C
:1027D00006F07F02C0F600039E5C019B56B146F2F4
:1027E0009132C0F6010200BF12F8014B0CB1A642B3
:1027F000FAD14CB141F003015F2699AA62440CF171
:10280000010C82F820609DE7412EF6D35A2E02D8A3
:1028100049F00209F1E7A6F1610292B2192A9CBFC0
:10282000203E49F00109E8E7A8EB0402B2FA82F27F
:102830005209AEE743F642040E46C2F200049DF888
:10284000840243F65028C2F20008E52804BF05219F
:102850008DF8841299A8082B08BF4FEA890909F05E
:10286000030246F00201032A09F00C0208BF0E46DB
:102870000C2A08BF0E46B10707D4102101EA09123D
:1028800009F0040142EA41010E438DF88F6202F023
:1028900017FC05469DF88F02002D40F00B83410781
:1028A0000DF1380934D49DF86A02C00640F10B835B
:1028B0009D98039B6FF35F20191891F84E0091F8D3
:1028C0004F2040EA02201A78032A06D134310A7DCB
:1028D000497D42EA012140EA01409B9046F2654E63
:1028E000DDF808C039789998C0F6010EAAE60B23E6
:1028F000A5E70E46A3E700210180062544E043F644
:1029000042040128C2F200043DD810E09DF88F0275
:1029100040B20028F1DB9DF86A0210F0110F00F0C0
:10292000E182072530E043F64204C2F2000497F842
:102930003F0097F8401040EA0120B0F5007F22D117
:1029400097F84A0097F84B1040EA012000B9B86D9B
:10295000F86197F84430591EBB70012913D897F8D5
:102960004120002A7A810ED0511E11420BD1BC4663
:1029700097F845709CF8461047EA01213F07ACF8EC
:10298000081000F00B830D2500260F96DBF80000E1
:102990008022257000F134010598FDF756FC002EC9
:1029A00000F04C813078002800F04881F088BDF8B4
:1029B00040103546814218BF002540F03F819DF808
:1029C0004C0041060CD43078002800F03781F088A4
:1029D000BDF84010814240F0318100260F962EE173
:1029E000000611D50FA8169A0123012600F128012F
:1029F000002001F00FFC002840F021819DF84C00E0
:102A000000F07F008DF84C001799284603F0B2FDC6
:102A10000646002840F013811898C17A41F0200141
:102A2000C17211990F9A0B0A8176C3761278032A24
:102A300003D10A0E090C427501754BF2C03212998E
:102A4000C4F6A962C0F81620002242820A0E01775D
:102A5000C2770A0C090A827741770120E87028467C
:102A600004F0F2FB002800F09C8006469DF84C0024
:102A700000F0BF008DF84C00E1E099994FF000099B
:102A8000CA68029132F8191009F101090029F9D137
:102A90000022A6AF811891F82010B95401320C2AF7
:102AA000F8D19DF8A322D10700F0268141F2210A36
:102AB000402100F1200C01264FF0030E0DF5297B7B
:102AC0004FF00008C0F2010A8DF88F120299CC680D
:102AD000002100BF7A5C431801310B2983F82020C4
:102AE000F8D1052E354615D92288354692B100BF5A
:102AF0001023294602F00105520845EA4105090460
:102B000048BF85EA0A05013B2946F3D134F8022F74
:102B1000002AEDD1072400BF29466EF31F11392981
:102B200088BF07310BF80410013C2909B8EB151FC9
:102B30000D46F1D17E21002C0BF804104FF000015E
:102B400008D000BF1CF80120202A03D00131A14287
:102B5000F8D300BF072C00EB010301F101019ABF7C
:102B60001BF8042001342022082983F82020F1D307
:102B7000644602F0A5FA002840F0AE80013699A81C
:102B8000A4464FF0030E642EA0D340F2801A43F601
:102B9000542BC2F2000AC2F2000B40F080810725DC
:102BA0000DE5287803283FD1287901283CD105F18B
:102BB00038004FF4FD71FDF793FB45F25220264695
:102BC0000024C4F2611045F8340F4AF65520A5F8E8
:102BD000FE0147F27220C6F24110C5F8E40155E942
:102BE000090155F8142C0B0E85F8E81185F8EC0155
:102BF000013285F8EB310B0C090A85F8EA3185F8CA
:102C0000E911010E012385F8EF11010C000A85F886
:102C1000EE1185F8ED010020294645F8042C01F05D
:102C2000F9FA05F8304C34469DF84C0000F0BF002E
:102C30008DF84C000F9E002E7FF4C5AE092699A892
:102C40002670CDF8649202F081FD00280CDB43F27F
:102C50008051C2F2000151F820200AB10023137004
:102C6000002241F8202000E00B22DBF80000227057
:102C700004F064FD207808B1FF2228E0D8F8004075
:102C80006068FDF79DFA082808D8606941F63C6144
:102C900080024AF8010041F6386013E01928EBD8A9
:102CA00041F65C6061695AF80020890232B141F650
:102CB0007C604AF8001041F6786003E04AF80010A2
:102CC00041F65860049A50444FF40031016050B20C
:102CD0000DF52B7DBDE8F08F40F2801A43F6542BA2
:102CE00005460428C2F2000AC2F2000B40F0ED8053
:102CF0009DF8A3228DF88F2290074FF0010609D589
:102D00004EF64F4109F10B00C4F6C461A0FB01016E
:102D100006EB9106999F99A8002102F0EBFB40F287
:102D2000801A43F6542BDDF80880054600280DF183
:102D30003809C2F2000AC2F2000B16D100249F9992
:102D4000384603F017FC78B9A0980078E52800D041
:102D500018B90134B44201D10DE0002499A8012131
:102D600002F082FA0028EAD00546042D08BF0725A4
:102D7000002D40F0AC80B6F101096AD09D9899AC65
:102D8000A0EB4911204602F0B5FB40F2801A43F651
:102D9000542B05460028C2F2000AC2F2000B7FF451
:102DA0000EAC4FF0000B20205FFA8BF2215C01305B
:102DB00053082B2843EAC21202EB010BF4D147F669
:102DC0009C0A4FF6FF76C0F6000A9F99404603F032
:102DD000D1FB002840F03581A09800220F23D8F8BD
:102DE0000C100D2700254283A0F80B305FFA89F301
:102DF00080F80DB07B430D3B1AF80240B5421ABF74
:102E000031F8135001334FF6FF752F0A0132002DB0
:102E100005550444677008BF35460D2AECD1B5420C
:102E200002D149F0400106E031F81310002949466B
:102E300008BF49F0400101700120002188F803001B
:102E400099A802F011FA002840F0FB80B9F10109BD
:102E5000BBD19F99404603F08DFB40F2801A43F6A8
:102E6000542B05460028C2F2000AC2F2000B7FF480
:102E7000A6ABA0982021FDF733FA99A8A09A0021CB
:102E80002030435C535401310B29FAD19DF88F0255
:102E9000A09900F018000873012088F8030043F699
:102EA000502843F642040DF13809C2F20008C2F27C
:102EB000000417E0042D0DF138097FF472AB4007D0
:102EC00099A83FF575AB05255EE50DF1380943F688
:102ED000502843F64204002DC2F20008C2F200045A
:102EE0007FF452ADA098039F3978827EC37E42EA78
:102EF0000326032905D1017D427D41EA022146EAEC
:102F000001464BF2C0312022C4F6A961C0F80E1070
:102F100000214183C2723A78032A08BF8182C161CD
:102F20000120002EF87066D0012E01D102252BE57C
:102F3000DDF864A2DAF81800B04229D903983546C2
:102F4000006B0290504611E0DAE90510821E9142B2
:102F500008D20131CAF814109AF8041041F00101A6
:102F60008AF80410874237D299983D46294602F0E4
:102F700086FB074601306FD077B3012F08D050464B
:102F80002946002203F012FB0028DDD0054600E0B0
:102F9000022540F2801AC2F2000AF5E49CF847705C
:102FA0009CF8486047EA06260EB9DCF854609CF8A5
:102FB00042709CF84340CDF80CC047EA042747B163
:102FC000434303EB11143C44A64202D3361B964202
:102FD00044D20D25FFF72ABB039F0299384603F020
:102FE000C9FA054640F2801A701E002DC2F2000A8E
:102FF00038617FF4C9AC039EA098316BCDE91710FE
:103000003278817EC37E41EA0321032A05D1027D05
:10301000437D42EA032241EA024111910025482101
:10302000C0690F961290F0881695ADF84C10149563
:103030004FF40071ADF840000FA82830FDF750F9AB
:10304000A4E440F2801A43F6542B0546C2F2000A6B
:10305000C2F2000BFFF7B3BA01259AE74FF6F67CF0
:10306000B6FBF2F2C1464FF000084FF6F676C0F616
:10307000FF7C624538BF4FF00308B24240F6F67657
:1030800038BF4FF00208B24238BF4FF00108B8F124
:10309000000F18D06619039C2F440232B8F1030FB9
:1030A000E662C4E90857A2610FD1039F97F85E302A
:1030B00097F85F70194341EA0721C9B9039B196E5C
:1030C000996291000FE00D2517E089B1F918039B73
:1030D000B8F1020F99620FBF510002EB420102F0FA
:1030E000010202EB510101F2FF11B0EB512F07D2A7
:1030F00040F2801A0D25C2F2000AC846FFF763BAF3
:1031000003994FF0FF30B8F1030FC1E904004FF00D
:103110008000087132D1039991F8640091F865102C
:1031200040EA0120012829D10398691C03F022FA02
:1031300020BB03990020087191F8320291F83312F4
:1031400040EA01204AF65521884217D1039845F2FA
:103150005221C4F26111406B88420FD1039847F2AB
:103160007221C6F24111D0F81802884206D1039AA2
:10317000D2F81C02D2F82012C2E90410039F43F2D5
:103180008C5040F2801A43F64204C2F20000C2F2B0
:10319000000AC2F2000487F80080C8460DF1380921
:1031A00001880131018043F28E50C2F20000F860C4
:1031B000F980FFF7DDB90000B0B582B043F21465C5
:1031C0000446C2F200052878800702D44FF0FF3091
:1031D00034E043F21060C2F20000007810B16FF0EA
:1031E00001002BE043F21860FF21C2F20000C0F2A0
:1031F0001801006808400121C0F208018842E5D1A9
:1032000040F218404FF080510222C4F202000160E7
:1032100015208DF8040001A8811C00F020FF68B97A
:1032200043F21C60C2F2000001E000BF00BFC168B1
:103230000229FBD19DF8070020700020297889071A
:103240001AD543F21061C2F200010978A1B943F224
:103250001861FF22C2F20001C0F218020968114091
:103260000122C0F20802914206D140F218414FF407
:103270008052C4F202010A6002B0B0BD10B584B041
:1032800043F2146400210391CDE90111C2F200045C
:10329000217889073AD543F21061C2F2000109781A
:1032A000A1BB43F21861FF22C2F20001C0F2180272
:1032B000096811400122C0F20802914226D140F271
:1032C00018414FF08052C4F202010A608DF80400E8
:1032D00001A80622811D00F0C2FEB8B943F21C60AD
:1032E000C2F2000001E000BF00BFC1680629FBD1A7
:1032F00044F246129DF80E009DF80F10C2F2000233
:10330000107044F24810C2F200000180207880075B
:103310001AD543F21060C2F200000078A0B943F25F
:103320001860FF21C2F20000C0F2180100680840D6
:103330000121C0F20801884206D140F218404FF442
:103340008051C4F20200016004B010BD10B582B01B
:1033500043F214640021CDE90011C2F20004217887
:1033600089073BD543F21061C2F200010978A9BB7D
:1033700043F21861FF22C2F20001C0F2180209688C
:1033800011400122C0F20802914227D140F21841B7
:103390004FF08052C4F202010A608DF800006846C6
:1033A0000422011D00F05BFEC0B943F21C60C2F2B2
:1033B000000000E000BFC1680429FBD144F24611BF
:1033C0009DF80500C2F200010870BDF8060044F245
:1033D0004811C2F2000100BA000C08802078800772
:1033E0001AD543F21060C2F200000078A0B943F28F
:1033F0001860FF21C2F20000C0F218010068084006
:103400000121C0F20801884206D140F218404FF471
:103410008051C4F20200016002B010BDB0B582B0AC
:1034200043F214650446C2F200052878800702D4EE
:103430004FF0FF3034E043F21060C2F20000007839
:1034400010B16FF001002BE043F21860FF21C2F2CF
:103450000000C0F21801006808400121C0F2080114
:103460008842E5D140F218404FF080510222C4F268
:103470000200016005208DF8040001A8811C00F005
:10348000EEFD68B943F21C60C2F2000001E000BF2B
:1034900000BFC1680229FBD19DF807002070002001
:1034A000297889071AD543F21061C2F20001097820
:1034B000A1B943F21861FF22C2F20001C0F2180262
:1034C000096811400122C0F20802914206D140F27F
:1034D00018414FF48052C4F202010A6002B0B0BD3C
:1034E0002DE9F04383B00446107816460D4619289E
:1034F00013DDA0F11A0110292CD8DFE801F04809EA
:103500004141094141414159417D41419541D000ED
:10351000D4F81802002545810BE2002800F0FA805B
:10352000032800F0118112282AD17178D4F81802EA
:10353000C90740F04581D4F81C1205EBC502C969E2
:1035400001EB82010A79531D32799A4240F2D2810D
:103550001A4637E12F2800F021815A2810D1D4F8DB
:10356000180208210FF27C4241811330002100BF74
:103570005318DB794354013911F10803F8D12BE1D9
:10358000D4F8180290F85D124FF400532AE1D4F8F1
:10359000180208210FF2544241811330002100BF6C
:1035A0005318DB794354013911F10803F8D113E1C1
:1035B000D4F81862002001A90DF10A02706130618F
:1035C000F060D4F81C0243682846984700BB0820E6
:1035D0000221F0730198B1820138010AF074B174CC
:1035E000010C000E717430740C21BDF80A00718159
:1035F000F075000AB075EFE0D4E98660436806F51F
:10360000187106F25E2228469847002800F0F080E4
:10361000D4F818024FF4685390F85D1200EBC10221
:10362000C2F8403202237AE1D4F81872387AB846E8
:10363000002800F0F1804FF4007608F10C097E813B
:10364000B8F85E02D8E99913B1FBF0F2B3F5007F48
:1036500038BF1E46B6FBF0F0494683B2D4F81C02D0
:1036600007692846B847B0F1FF3F40F34881B3B23D
:10367000204681214A4601F058F9D8F83402D8E9A9
:103680009912921B3144A0EB0600C8E99912C8F8C0
:10369000340240F0A180032088F808009CE0D4F8B0
:1036A0001872387A002800F0DB80B7F85E02D7E99C
:1036B000991607F10C08B6F5007FB1FBF0F228BFB0
:1036C0004FF40076B6FBF0F0414683B2D4F81C020A
:1036D000D0F814C02846E047B0F1FF3F40F3148112
:1036E000D7F83412D7E999028319901BA1EB060190
:1036F000C7E99930C7F8341200F01F81B0F5007F98
:1037000028BF4FF4007083B201214246204601F0E9
:1037100099F861E0D4F81862D6F81402002800F095
:10372000CB8096F85D024FF4005206EBC0010130E9
:10373000C1F84022052281F83C22C1B2043918BFE9
:10374000014686F85D12F3E0D4F81842112104F125
:103750000D00FCF7C5FD0C20E0747020207394F878
:103760005C0294F85D12884211D004EBC001013074
:1037700091F83C22A27391F841222276C2B2043A17
:1037800018BF024691F8400284F85C22607612204D
:1037900060813079122898BF60811DE07178D4F87B
:1037A000180289071AD4D0E99812B0F868321A447E
:1037B0008A427FF6AFAE90F85D124FF4045311E0E9
:1037C0008CA10722428100BF013A93B210FA82F61F
:1037D000CF5C002B3773F7D10025AAE090F85D127B
:1037E0004FF4105300EBC102C2F84032052396E0BB
:1037F0000025082035827081B6F85E02F074000A58
:10380000D6F860120139F173B074080AB073080C6D
:103810007073080E30738CE097F91802002838DABC
:10382000D4F81C0281682846884700287FF4F0AE4F
:10383000D6F8020000BAC7F86402F179327A42EA97
:103840000121C7F868120A18D4F81882D8F8603233
:103850009A4240F2A78098F85D024FF40452B2E019
:1038600097F91802B0F1FF3F13DDD4F81C0281680C
:103870002846884700287FF4CBAED4F81C02C168E4
:1038800028468847002861D0D4F818024FF41C530A
:10389000C2E697F85D024FF4005207EBC001013019
:1038A000C1F84022052281F83C22C1B2043918BF78
:1038B000014687F85D123BE0D4F81C028168284677
:1038C000884700283FD0D4F818024FF4685390F886
:1038D0005D1200EBC1020131C2F84032022382F8CE
:1038E0003C32CAB2043A18BF0A4680F85D2205206D
:1038F00030721DE0002A42817FF466AF6CE7D4F895
:1039000018024FF4885303E0D4F818024FF44073C0
:1039100090F85D1200EBC102C2F84032042301317D
:1039200082F83C32CAB2043A18BF0A4680F85D22D7
:10393000FF2568B203B0BDE8F083204600210025D2
:10394000FDF733FDF5E700257581F2E7D6F80200B3
:1039500001BAC7F86412F079327A42EA0022C7F855
:1039600068225318D4F81802D0F86062B3423FF6C8
:1039700022AFB7F85E325A435943C7E99912D7F8D4
:10398000141291427FF4FEAD0120B2F5007F4FF09A
:103990000101387228BF4FF4007293B2204607F13C
:1039A0000C02B4E602223A72B7F85E225143504349
:1039B000C7E99901D7F8140288423FF43CAE98F861
:1039C0005D024FF4005208EBC001C1F8402205220D
:1039D000013081F83C22C1B2043918BF014688F891
:1039E0005D12A5E7000600000000000000000000D6
:1039F0000000000000000003008083002DE9F04774
:103A000086B043F214650C46C2F200052978890796
:103A100002D44FF0FF3130E0C7B2142F25D143F666
:103A20000004C4F20004606820F00200606043F605
:103A3000DC40C2F20000FCF729FD606820F00100C4
:103A4000606043F67C40C2F20000FCF71FFD43F2C9
:103A50001C601C21C2F20000FCF742FC43F2106023
:103A60000021C2F20000017007E043F21061C2F2CF
:103A70000001097829B16FF00101084606B0BDE8E0
:103A8000F087132F22D86FF0060100220023DFE811
:103A900007F0100B0E0A0A1D1D1D1D1D1D1D1D1DED
:103AA0001D1D20426066E8E70423012201E0002397
:103AB0000222C0F30221042900F28680DFE801F02F
:103AC0008E03878A8D0043F0010387E06FF00301C6
:103AD000D3E740F2480043F6300147F6CD02C2F288
:103AE0000000C4F20201C0F60002006851F8281C70
:103AF000C1F38221515C002220FA01F1002000BFB5
:103B00000746072A45D8013207F1080021FA02F3D7
:103B10009C42F5D343E040F2480043F6300147F6BB
:103B2000CD02C2F20000C4F20201C0F60002006839
:103B300051F8281CC1F38221515CC84043F60001B2
:103B4000C4F200010968C1F3C201013120FA01F198
:103B500093E743F21C60C2F2000004833FE143F2AA
:103B60001860FF21C2F20000C0F21801006808408E
:103B70000121C0F2080188427FF44BAF40F21840A7
:103B8000002C0CBF4FF480514FF08051C4F2020062
:103B900018E0082A3FF43DAF501C21FA00F3A3427D
:103BA0003FF637AF43F60000C4F20000016821F091
:103BB00040010160016821F038013943016001686A
:103BC00041F0400101600AE16FF0070155E743F061
:103BD000020303E043F0030300E0103300F47C3100
:103BE000B1F5004F04D0B1F5803F3DD103F500633E
:103BF000802143F6000943F63008022A01EAD02169
:103C0000C4F20009C4F2020843EA010A2FD0012AD3
:103C10003FD1C0F3C140012849D002286AD003280F
:103C200040F08C8000200190D8F8001041F0020193
:103C3000C8F80010D8F8001001F0020101910199B4
:103C40000521059102210491CDE902104FF4805025
:103C500001A9019009F5E630FCF79AFE0120C0F2B7
:103C6000080000F5801672E06FF0080105E7800299
:103C700011D40520022601A9059000200496CDE963
:103C800002604FF48050019009F5E630FCF780FEA9
:103C90005DE000265BE009F5E6304FF48051FCF76B
:103CA000F9FD02264AF4007AC0F220064FE0002017
:103CB0000190D8F8001041F00201C8F80010D8F8BF
:103CC000001001F00201019101990221CDE90301E7
:103CD000012001A902904FF48050019009F5E630CF
:103CE000FCF756FE01264AF4407A4FF0200CC0F251
:103CF00008062EE000200190D8F8001041F00201E3
:103D0000C8F80010D8F8001001F0020101910199E3
:103D10000521059102210491CDE902104FF4805054
:103D200001A9019009F5E630FCF732FE01204FF0C1
:103D3000240CC0F2080000F500260AE009F5E63080
:103D40004FF48051FCF7A6FD4AF4407A01264FF06B
:103D5000200C40F2480047F6CD020023C2F20000DA
:103D6000C0F60002006858F8281CC1F38221515C9B
:103D700020FA01F2002100BF0846072B07D80133C3
:103D800000F1080122FA03F7BC42F5D305E0082B45
:103D90003FF43FAE591C22FA01F7A7423FF639AE75
:103DA00043F2186140EA0A00C2F200010E60D9F83D
:103DB000001021F04001C9F80010C9F804C0C9F88A
:103DC0000000B007286840F0040108BF20F004019B
:103DD0002960D9F8000040F04000C9F80000002137
:103DE0004BE643F60000C4F20000816811F0680F52
:103DF00015D04A064AD50168090529D443F21C6248
:103E000090F80CC0C2F200021368D168994235D212
:103E100053689BB3591C516083F800C02EE0C9075A
:103E200039D04168490636D543F21C61C2F200011F
:103E30000A68CB6893422ED2026812052CD490F8FF
:103E40000CC04B68B3B35A1C4A6083F800C031E021
:103E500043F21C62B0F80CC0C2F200021368D168D1
:103E600099420BD253684BB1591C516083F800C082
:103E700051684B1C53604FEA1C220A7043F21C61CC
:103E8000C2F20001CA680132CA608168890642BF75
:103E90000168016070477047B0F80CC04B684BB1C7
:103EA0005A1C4A6083F800C04A68531C4B604FEAB2
:103EB0001C231370CA680B6801329A42CA6006D18B
:103EC00043F210600021C2F20000017070470A69DD
:103ED0009A4228BF704780B5D0F800C0D1F808E0FA
:103EE0005FEA0C530BD4BEF1000F0FBF0A7E0EF138
:103EF00001028A609EF8002002730A6910E0BEF198
:103F0000000F0BD00EF101038B60734613F802CB48
:103F10008B609EF801304CEA032300E00B8B838119
:103F2000501C086180BD43F67C40C2F2000000686E
:103F3000426843F21C60C2F2000001680AB101B19C
:103F4000704743F210620023C160C2F20002137096
:103F50007047F0B581B00C4601466FF004000029AF
:103F600065D0002C63D043F21460C2F200000078E8
:103F700040075AD543F21060C2F20000027812B135
:103F80006FF0010053E043F21862C2F200021278AF
:103F9000013A012A49D8012343F21C6743F600067F
:103FA0000022037043F67C40C2F20007C4F2000610
:103FB000C2F20000C7E90042C7E902123A61C0E953
:103FC0000322316801F40061C0E90511FCF762FBCE
:103FD00058BB43F67C4006F10C0507F1140223465A
:103FE000C2F200002946FCF7FFFBF0B970684FF4FD
:103FF000806140F00100706043F6DC40C2F20000D6
:1040000001610021C160316801F40061C0E905115E
:10401000FCF740FB48B943F6DC40B9682A46234622
:10402000C2F20000FCF7E0FB18B14FF0FF3001B026
:10403000F0BD706840F0020070600020F7E743F6C2
:10404000DC40C2F200000068426843F21C60C2F229
:10405000000001680AB101B1704701617047F0B515
:1040600081B0144602466FF00400002A60D0002997
:104070005ED0002C5CD043F21460C2F200000078E5
:10408000400753D543F21060C2F20000037813B129
:104090006FF001004CE043F21C67012343F6000679
:1040A000037043F67C40C2F200070023C4F200060E
:1040B000C7E90041C2F200004FF48061C7E9022362
:1040C0003B61C0E90331316801F40061C0E90511C9
:1040D000FCF7E0FA50BB43F67C4006F10C057A6829
:1040E0002346C2F200002946FCF77EFBF0B9706857
:1040F0004FF4806140F00100706043F6DC40C2F292
:10410000000001610021C160316801F40061C0E973
:104110000511FCF7BFFA48B943F6DC40B9682A46F6
:104120002346C2F20000FCF75FFB18B14FF0FF30EE
:1041300001B0F0BD706840F0020070600020F7E749
:1041400080B943F650204FF6FE73C2F20000C0F271
:104150007F030068406903EA40001D3008604FF4A7
:1041600000701080002070470020704700207047CA
:104170000020704743F63C00C2F20000007800F0D7
:1041800001004042704770B5012838D020BB0C4672
:104190001D2A23D343F64100C2F200000078012813
:1041A0001ED14CF200605E02CFF6FF7000EB42259C
:1041B00046F238403246C0F60100294603F06CF85A
:1041C00043F6502021463246C2F200000068D0F883
:1041D0008C312846984712E0012070BD1B2A04D379
:1041E00059022046FCF77CF809E040F28010C2F248
:1041F000000000EB42215A022046FCF726F800207E
:1042000070BD80B5FFF7BFFF002818BF0120400038
:1042100080BD0000F0B581B0012800F09C8038B965
:1042200043F64420C2F20000007818B1FF2093E06A
:10423000012091E01E4614460D461D2A15D344F276
:104240004C10C2F20000016849B343F64820C2F2A4
:1042500000000068C21700EBD2501D2202EB602064
:10426000A0421CD140F27C171CE00F2C23D143F656
:104270004100C2F200000078E8B9E86B002841D0A4
:10428000296CE9B1E86F43F64821C2F20001002829
:1042900008601AD1E86D0028086016D132E040F2BB
:1042A0007C177102C2F200073A682846FCF786F8CC
:1042B000386000202AE0A4F110000D2822D22EE060
:1042C00043F64821C2F20001086043F65021C2F2D1
:1042D000000109684969B0EB812FA7D8C11740F2E6
:1042E000FF1200EBD1519143401A44F24C11C2F23B
:1042F0000001086044F24A1014BF01210021C2F2FB
:104300000000017040F28010C2F20000710200EB68
:1043100044208AB2294600F0B5FD01281FD043F69B
:104320004820C2F200000068012814DB44F24A1160
:10433000C2F20001097801EB50201C30A0420AD1E2
:1043400043F643000121C2F20000017043F63C0035
:10435000C2F200000170002040B201B0F0BD02A026
:104360004FF4EC7100F032FE5372632F7573626488
:104370005F73746F726167652E63000080B5FFF72D
:1043800049FF002818BF0120400080BDB0B543F2AE
:1043900014650C46C2F200052978890702D44FF053
:1043A000FF302FE043F21061C2F20001097811B131
:1043B0006FF0010026E043F21861FF22C2F2000113
:1043C000C0F21802096811400122C0F208029142AD
:1043D000E5D140F218414FF08052C4F202010A6068
:1043E0002146FFF7B6FD68B943F21C61C2F2000135
:1043F000C868A04201D1002004E0002000BFCA68C4
:10440000A242FBD1297889071BD543F21061C2F281
:1044100000010978A9B943F21861FF22C2F2000134
:10442000C0F21802096811400122C0F2080291424C
:1044300018BFB0BD40F218414FF48052C4F20201DF
:104440000A60B0BD80B582B00DF10700FEF7E6FF4F
:1044500018B99DF80700800716D4062001218DF8B1
:1044600007000DF10700FFF791FF70B900208DF8EC
:1044700007000DF10700FEF7D1FF30B99DF80700E6
:10448000C0F34000013800E0002002B080BD44F2DB
:104490005010C2F2000001680131016070474EF611
:1044A00008504FF0000CCEF20000D0F8801041F41C
:1044B0007001C0F8801043F60001C4F202010A68DE
:1044C00042F001020A60C1F808C04FF6FF720B68A3
:1044D000CFF6F6621A400A6043F21002C2F20042BE
:1044E0004A600A6822F480220A60C1F80CC04FF0CA
:1044F000006101607047000080B504A000F068F81A
:1045000043F23C60C2F2000080BD00BF4D53432027
:10451000436F6E66696700001220088040F24C000D
:10452000C2F200007047000080B504A000F050F80F
:1045300043F23C60C2F2000080BD00BF4D534320F7
:10454000496E74657266616365000000042008802E
:1045500040F26000C2F200007047000080B504A085
:1045600000F036F843F23C60C2F2000080BD00BFAC
:1045700053544D6963726F656C656374726F6E69D5
:104580006373000080B504A000F022F843F23C60A1
:10459000C2F2000080BD00BF53544D3332204D6144
:1045A00073732053746F72616765000080B504A057
:1045B00000F00EF843F23C60C2F2000080BD00BF84
:1045C0003030303030303030303031410000000099
:1045D00080B568B302786AB100F1010C002200BF17
:1045E0001CF8013B0132002BFAD1D2B2022303EBBB
:1045F000420200E0022243F23C6E03230A80C2F230
:10460000000E8EF801308EF80020027882B1013061
:1046100002234FF0000C00BFD9B202330EF8012084
:1046200041F001010EF801C010F8012B002AF3D16E
:1046300080BDD0F8200201F00F02090609D4C2EBB8
:10464000C201002300EB810181F8FD3101F5FE710B
:1046500007E0C2EBC201012300EB810181F83D308C
:104660003C310A7090F8BC33012B01D1102142E09B
:1046700010B54FF0010C80F8BCC30CFA02FE4C7868
:1046800047F600010368CEF63341012C15D1D3F86B
:104690003C480CFA02FC03EB421202F5106224EAD9
:1046A0000E04C3F83C480024CFF6FF7464EA0C0CF7
:1046B000D3F81C4804EA0C0413E0D3F83C4801F199
:1046C000707124EA0E44C3F83C484FF4803404FA75
:1046D00002FCD3F81C4803EB421202F5306224EAD4
:1046E0000C04C3F81C48136819401160002180F8BD
:1046F000BC13BDE8104040F20020C0F20120C840C9
:10470000C0B27047D0F820C29CF8BC23012A01D166
:10471000102126E001220B068CF8BC2340F63F5303
:10472000DCF80020C0F203030BD410204FF0FF315F
:10473000106100BF0131994210D81069C006F9D448
:104740000CE0202061F389104FF0FF31106100BFB1
:104750000131994202D810698006F9D400218CF801
:10476000BC1340F20020C0F20120C840C0B2704724
:1047700010B5D0F820E201F00F0C080609D4CCEBFC
:10478000CC0000210EEB800080F8FD1100F5FE71D9
:1047900008E0CCEBCC0001210EEB800080F83D104E
:1047A00000F13C018B60CA7081F800C0487808B104
:1047B000A1F806C0022A04BF00240C719EF8BC13A5
:1047C000012901D1102035E0012101288EF8BC1308
:1047D00001FA0CF4DEF8001011D1D1F81C082043C6
:1047E000C1F81C084FEA4C1001F510610C58240464
:1047F0001DD46FF3DF23445843EA8C530FE0D1F804
:104800001C0840EA0440C1F81C084FEA4C1001F5AE
:1048100030610C5824040AD444586FF3DF23234337
:1048200043EA824242F0805242F400424250002069
:104830008EF8BC0340F20021C0F2012121FA00F001
:10484000C0B210BD80B501F00F0CD0F820E20021FD
:10485000CCEBCC000EEB8000C0E98431C0F808221C
:1048600080F8FD1180F8FCC100F5FE71DEF8103013
:10487000012B08BFC0F80C22DAB2DEF80000BCF150
:10488000000F03D0BDE8804000F0FEB9BDE88040D5
:1048900000F052B910B5D0F8204201F00F02606864
:1048A000824288BF10BD080609D4C1EBC1000021B7
:1048B00004EB800080F8FD1100F5FE7108E0C2EB0A
:1048C000C200012104EB800080F83D1000F13C01A2
:1048D00001200A70887094F8BC33012B24D084F82E
:1048E000BC032068497800EB4213012919BF03F586
:1048F0003061D3F8003B03F51061D3F800392AB1D9
:10490000002B03DB0B6823F080430B600B68002A4D
:1049100043F400130B6004D1217C04F5717200F0A4
:1049200087F9002084F8BC0310BD10B501F00F0C0E
:10493000D0F820020024CCEBCC0100EB810E7146B4
:1049400001F83CCFC1E905340123CA604B7003690B
:10495000012B08BFCEF84C20DAB20068BCF1000F82
:1049600003D0BDE8104000F08FB9BDE8104000F062
:10497000E3B880B5FCF75CFC002080BD80B5FCF797
:1049800079FC002080BDB0B501210446FFF751FE3F
:1049900020468121FFF74DFED4F81802002500289B
:1049A000057203D002F0CAFEC4F818520020B0BD50
:1049B0000A21018040F2DC00C2F200007047202191
:1049C000018040F29C00C2F200007047202101806B
:1049D00040F2BC00C2F2000070472021018040F28A
:1049E000E800C2F20000704710B50446007C50B1E8
:1049F0002046012102224023FFF7BAFE20468121F2
:104A0000022240230BE02046012102224FF40073D2
:104A1000FFF7AEFE2046812102224FF40073FFF71C
:104A2000A7FE4FF41B7002F0B1FE0028C4F8180274
:104A300004D02046FCF79BFC002010BD012010BDD7
:104A400070B50446D0F8186208780D4610F0600181
:104A500017D020296DD16978FF2927D0FE2927D1C9
:104A6000698829BB000623D5E888012820D1D4F81D
:104A70001C028069804730600120002500213246F9
:104A80000AE0687801281DD00B282BD00A2850D1C5
:104A90000120321D00250021C4E906000220C4F8CF
:104AA000F40120460123FFF740FF43E06988E1B1AC
:104AB00020468021FFF7EEFE20460021FFF7EAFEA8
:104AC000022537E029792046FFF71CFE2979204688
:104AD000FFF7AFFDA988207C090616D4D8B120467F
:104AE000012115E0A878706023E00006E0D4E88892
:104AF0000028DDD14FF4807006F5037201211F23D9
:104B000030812046FFF79EFE13E038B12046812118
:104B10000222402307E02046012101E020468121B6
:104B200002224FF40073FFF723FE29792046FCF799
:104B300067FB0025284670BD70B54B7891F800C022
:104B4000012B26D100EB4C14D1F814E0002504F51C
:104B50001063D4F810694FF6FF74CFF6F875CEF2F3
:104B60000704BEF1000F3CD035401D611D69254092
:104B700004F100541D618D68AE4584BF4D61AE46A1
:104B800004EA0E041D6945F400251D611D692C43CE
:104B900032E000EB4C104FF6FF75D0F8103BCEF230
:104BA00007056FF31203C0F8103BD0F8103B6FF30A
:104BB000DC43C0F8103B00F530634E69886806B1ED
:104BC00048611E69012A46F400261E6105F100565F
:104BD00000EA06001E6940EA0600186112D1C868A2
:104BE0000EE026404FF0000E1E611E6946F40026BE
:104BF0001E611E6906EA0504012A1C6105D10869C7
:104C000000B158614FF004410EE01968BEF1000F89
:104C100041F00441196008BF70BD0CF00F01012282
:104C200000F6340302FA01F118680843186070BDF9
:104C300043F20B03D0F840C0C4F654739C4503D331
:104C4000D0F8003B002B1EDB00230129C0F8103BED
:104C5000D0F8103B43F40023C0F8103BD0F8103BD1
:104C600043F01803C0F8103BD0F8103B43F0C043AA
:104C7000C0F8103B07D1C0F8142BD0F8001B41F04E
:104C80008021C0F8001B704770B54B7891F800C0C8
:104C9000012B35D100EB4C14D1F814E04FF6FF7521
:104CA00004F51063D4F810690024CEF20705CFF69E
:104CB000F874BEF1000F4ED034401C611C692C40CA
:104CC0001C618C680EEB0405013DB5FBF4F4002576
:104CD000C1F6F87505EAC4441D692C4375461C618C
:104CE0006FF3DF451C692C431C61CC78012C3BD150
:104CF0001C6924F0C0441C611C6944F0005432E07B
:104D000000EB4C134FF6FF7ED3F8106BC0F2070E8A
:104D10006FF31206C3F8106BD3F8106B6FF3DC4619
:104D2000C3F8106B03F530634C69D1F808C0002C50
:104D300048D0644400251E69013CC1F6F875B4FBF7
:104D4000FCF405EAC445A4B2354304FB0CF61D612E
:104D500006EA0E053DE035401D611D6945F400255C
:104D60001D611D692C401C61012A01D10A6937E0CF
:104D70001C6844F004441C60CC78012C45D1D0F868
:104D80000848E4054FF0805458BF4FF000541D68A8
:104D9000002A44EA05041C6036D10322002312FADB
:104DA0008EF2B3EB920F08BF70BDC96892084FEA4C
:104DB0000C3300F5805000BF51F8046B013A1E50CF
:104DC000FAD121E01D690CEA0E062E434FF40025AE
:104DD0001E611E69012A46EA05061E6102D1CA68E3
:104DE00002B15A61C97801290AD1D0F80808C00572
:104DF0004FF0805058BF4FF00050196808431860BA
:104E0000186840F00440186070BDBEF1000FFBD080
:104E10000CF00F01012202FA01F1D0F834281143FD
:104E2000C0F8341870BDB0B582B0044600200190BF
:104E300043F65020C2F200000068C56915F0C00FAB
:104E400007D146F2AB30C0F6010002F0D5FC45F0C8
:104E50004005280648BFFFF7F5FA680610D5502030
:104E6000012101258DF8040001A8FFF78FFA38B958
:104E700001A802218DF805408DF80450FFF786FA4D
:104E800002B0B0BD2DE9F041054644F24C10164683
:104E90000C46C2F20000006850B143F64821A5F567
:104EA0006852C2F200010968091A8A4208BF064620
:104EB00043F650274FF46852C2F200073868416940
:104EC00002EB8121A94239D943F64101C2F2000126
:104ED0000978002942D1D0F88811002940D0D0F8B3
:104EE000840110B18047002841D1B6B2A5F56855BC
:104EF00021A02946324602F0CFF940F61448E804D2
:104F0000C4F2020809D1D8F8000080044FF0005024
:104F100058BF4FF40050C8F80400386821463246A4
:104F2000D0F888312846984701464FF00050B1F13B
:104F3000FF3FC8F8040017DDC9B90FE040F2801147
:104F40000120C2F2000101F55052954210D88D4265
:104F50000ED3B2B228462146FBF777F9002007E0CE
:104F600015A002F099F902E00CA002F095F9FF20DB
:104F700040B2BDE8F08100BF0A2077725F616464CF
:104F800072202D3E20307825303578202020636E29
:104F900074202D3E20307825303378000A2050725E
:104FA0006F6772616D44617461206572726F722007
:104FB0002D3E2025640000000A204E6F2077726984
:104FC000746520737570706F727421000A46014613
:104FD00012A002F061F943F643000121C2F2000081
:104FE000017043F64420C2F20000017040F6144004
:104FF00044F25011C4F20200C2F2000102685204ED
:105000004FF0804258BF4FF4804242600A6800BFB0
:105010000B689B1A652BFBD3F0E700BF0A0D2045F8
:1050200052524F52202D3E2025732025640000004F
:1050300010B504464FF0FF3020630020E07020469A
:1050400001F098FA08B1042010BD94F8320294F8E7
:10505000331240EA01204AF6552188421CBF032042
:1050600010BD94F83400E838032826D8022824D04C
:1050700046F2483C04F16A000021C0F6010C00BF72
:105080001CF80130425C022902D001319A42F7D06B
:105090009A4210D046F2100204F186000021C0F6B8
:1050A000010200BF535C445C042902D001319C42E0
:1050B000F8D09C4201D1002010BD022010BD00009C
:1050C0002DE9F04F85B006680021044600F012FA81
:1050D00010B105B0BDE8F08F4FF0FF3704F12005A7
:1050E0004FF0FF0B4FF00D084FF0FF09E76200BFD4
:1050F000A169304601F03EFA0028EAD1D4F81CA09C
:105100009AF80000002800F0AB809AF80B20E52800
:1051100002F03F01A17137D0120727D40F2927D001
:105120005FEA0B6010D10020002100BFC9B21AF85D
:10513000002001304B080B2843EAC1111144F5D17E
:10514000C8B2814500F08E8094F82B00C0071BD1B7
:10515000002000BF295C1AF800200A2802D0013084
:105160008A42F7D08A420FD17CE000BF0F290BD1D1
:1051700094F82B1049060AD441060FD45FFA8BF13C
:10518000884202D110E000BFE7624FF0FF0B2046DB
:10519000002100F069F80028AAD09AE721699AF85E
:1051A0000D9000F0BF0BE1629AF80D008145ECD143
:1051B0009AF81A009AF81B1040EA01200028E4D15E
:1051C000CDE902964FF00009F06804909AF80000CB
:1051D000019000F03F0000FB08F0A0F10D08012055
:1051E00047F69C010028C0F6000111F809101AF8D2
:1051F00001205144497842EA012611D0B8F13F0F0D
:1052000021D8304600F0C6F90746049830F8180057
:1052100000F0C0F9874216D108F10108304604E0D9
:105220004FF6FF7086420ED1002009F10109B9F155
:105230000D0FD5D350B1019810F0400006D004985E
:1052400030F8180010B14FF0FF0B01E0ABF1010B8B
:10525000039EDDF808904FF0FF374FF00D0896E7FA
:10526000042036E7002034E72DE9F04F81B00446F2
:10527000006900F12007B7F5001F02D30020A061EC
:105280000EE0A06960B13D46D4F800B06FF35F2531
:1052900055B10BEB050027613430E061002000E0E0
:1052A000042001B0BDE8F08F01300E46A0616169B5
:1052B00091B14FF6FF70BBF80A20C0F21F001044F6
:1052C00000F5C00010EA572FE3D1584600F0D7F997
:1052D000022807D20220E4E7BBF80800B0EB571F12
:1052E000CCD9D6E78246013000F00181DBF8180006
:1052F00082450FD2AAF102060238C4F814A08642F1
:105300002FBF0020DBF82C00BBF80A1006FB0100C1
:10531000A061BEE7002EB1D06669D4F80090002EDF
:1053200007D04846314600F0AAF902280DD20220E3
:1053300090E0D9F81080B8F1000F0FD0D9F818001C
:10534000804528BF4FF001080AE08246013030D086
:10535000D9F81800B046824502D277E04FF0010834
:10536000D9F81400002845D0B045B24626D1D9F866
:1053700018000AF10106D046864228BF022620689E
:10538000314600F07CF9824601305FD0BAF1000F5F
:1053900011D0BAF1010F59D0D9F81000C2464146D8
:1053A00002280BD3D9F81810884228BF50468046EF
:1053B00004E000204EE0002EC2461FD14646CDF844
:1053C00000A0D9F818000136864228BF022602D371
:1053D000B8F1020F0ED32068314600F050F9824632
:1053E000013033D0BAF1000F06D0BAF1010F2DD041
:1053F0004645E6D101202DE0DDF800A048463146C3
:105400004FF0FF3201F0D2F8BAF1000F05D020B909
:1054100051464846324601F0C9F830B14FF0010A12
:10542000012808BF4FF0FF3A10E0C9F81060B246FB
:10543000D9E90501023988429CBF0138C9F8140036
:1054400099F8040040F0010089F804000AF1010015
:1054500003280DD24FF6F871C0F2FF0101EAC00037
:1054600040F20171C0F2020121FA00F0C0B218E767
:10547000584601F0E9FED0BBDBF81800AAF102069D
:105480000238864206D2DBF82C00BBF80A9006FBF5
:10549000090002E0BBF80A9000200BF134080090EC
:1054A000CBF830004FF400714046FAF719FFB9F11C
:1054B000000F11D04FF0000900984146012300EB86
:1054C00009020020FEF7A6FE50B9BBF80A0009F158
:1054D00001098145F0D305E000204FF0000901E00B
:1054E000BBF80A00814502D1DBF8180004E701206F
:1054F000D7E60000F0B581B004461F20CFF6E0707B
:10550000014202D0022001B0F0BD266821610D46A3
:10551000A16869B17089B5EB402F23D2B0698A1EAA
:105520000238824232D2F06A738902FB03000BE038
:105530003078032802D3B16A0029EBD13089B0EB6F
:10554000551FDFD9B06A00210028C4E90510D9D061
:1055500000EB55206FF35F2571193431C4E9060162
:105560000020D0E747023046ED1B08E00229C9D3EE
:10557000B0698142C6D2BD42D1D32068ED1B00F094
:105580007EF801460130F1D10120BCE70020C4E9DA
:105590000510B7E70021B1EB104F18BF704710B5E9
:1055A00046F26E4246F22A511FFA80FCC0F6010212
:1055B000C0F60101BCF5805F38BF0A46B2F800E0D2
:1055C00011E000BF538804325EFA83F4190AA4453F
:1055D00012D3DBB20029194618BF002132F811E0BE
:1055E00008BF02EB4302BEF1000F01D0F445E9D23F
:1055F00080B2BDE8104070470829F9D8DFE801F013
:10560000050A10121416181A1C00ACEB0E0032F822
:105610001000EDE7A0EB0E0101F00101401AE7E7F1
:105620001038E5E72038E3E73038E1E71A38DFE7FC
:105630000830DDE75038DBE7A0F5E350D8E700009D
:1056400040F20002C2F2000291421CBF4FF0FF3054
:10565000704740F60061CEF20001D1F88020D207F9
:105660001CBF09685FEAC17100D170474FF060410B
:105670000A68002AFCD04FF0604108707047F0B50E
:1056800081B0022931D3054680690C4688422CD965
:10569000287803282CD0022844D0012825D1686A14
:1056A00004EB540700EB5721284600F063FF002865
:1056B0003FD17E1C6FF35F27E81990F83470686A59
:1056C00000EB5621284600F055FF90BB6FF35F2694
:1056D000E20705EB060090F8340047EA002108468F
:1056E0006FF31F3018BF080900E0012001B0F0BDC2
:1056F000686A00EBD411284600F03CFFC8B904F0FA
:105700007F0005EB800191F8340091F8352091F885
:10571000363091F8371043EA012142EA012161F362
:105720001B20E3E7686A00EB1421284600F022FF03
:1057300010B14FF0FF30D9E7E0B205EB400090F830
:10574000341090F8350041EA0020CFE780B50268B8
:10575000D2B10023D15C0133202901D33A29F9D1F8
:105760003A290ED14FF0FF3E022B0FD192F800C024
:10577000ACF13001092909D8BCF1300F06D8D11895
:1057800001604FF0000E01E04FF0FF3E704680BD1B
:105790002DE9F041ADF5007D68464FF48071FF22A0
:1057A000FAF797FD43F65025C2F2000528684069D4
:1057B000800223D046F23848002440AE6F46C0F63F
:1057C000010800BF404621464FF4807201F064FD9D
:1057D000286831464FF48072D0F88C3120469847C3
:1057E000304639464FF48072FAF7F1FC38B9286830
:1057F00004F580644069B4EB802FE3D300200DF5FD
:10580000007DBDE8F08100008AB043F6000B4EF643
:105810000C5A40F200364FF6FF05C4F2020BCEF2EE
:10582000000AC0F2FA56DBF8000440F40070CBF82E
:105830000004DBF8000440F48060CBF80004DAF8E0
:10584000000028403043CAF80000FBF76FF9DAF88F
:10585000000006F5806147F20008C4F20008284005
:105860000843CAF80000DAF8000000208AF80C00AB
:10587000DAF800108AF80D00DAF800108AF80E0045
:10588000DAF800108AF81300DAF800108AF8140029
:10589000DAF800108AF81600DAF800108AF8170013
:1058A0000290DBF8401041F08051CBF84010DBF85B
:1058B000401001F08051029102990290D8F8000046
:1058C00040F48040C8F80000D8F8000000F48040A0
:1058D00002900298DBF8080000F00C00042802D1C6
:1058E000DBF800001DE0DBF8080000F00C000828E1
:1058F00003D1DBF804004002F2D4DBF8000040F4EE
:105900008030CBF8000044F25010C2F20000016871
:10591000DBF80020920304D40268521A642AF7D9F3
:105920002AE0DBF8080000F00C00082824D06020F2
:1059300044F250160021C4F24720C2F20006016072
:10594000316800BFDBF80020920104D53268521A9A
:10595000022AF7D910E045F20841C0F24071CBF8B5
:105960000410012101603068DBF8001089010BD4BC
:105970003168091A0329F7D346F298304FF493712E
:10598000C0F60100FFF722FBDBF8000400F00F0077
:10599000042808D805208BF80004DBF8000400F088
:1059A0000F0005282AD1DBF8080040F4E050CBF8BE
:1059B0000800DBF8080040F46040CBF80800DBF892
:1059C000080020F0F000CBF80800DBF800008001B0
:1059D00014D5DBF80800022161F3010041F288319F
:1059E000CBF80800306800BFDBF8082002F00C029A
:1059F000082A0BD03268121A8A42F5D946F298303A
:105A00004FF49A71C0F60100FFF7E0FADBF80004EA
:105A100000F00E00062808D305208BF80004DBF800
:105A2000000400F00F000528E8D1DBF8080005218C
:105A300061F38C200421CBF80800DBF8080061F347
:105A40004F30CBF80800DBF8080000F00C0142F200
:105A50000040C0F2F400082906D0042926D141F202
:105A60000020C0F27A0021E0DBF80410DBF80430FB
:105A700001F03F02DBF804105B02C1F3881105D48A
:105A8000A1FB00010023FAF7AFFB06E041F2002082
:105A9000C0F27A004843B0FBF2F0DBF804100222B7
:105AA000C1F3014102EB4101B0FBF1F0DBF808105A
:105AB0000FF630224FF0FF39C1F30311515CC8409B
:105AC00040F24801C2F20001086044F6D351C1F22D
:105AD0006201A0FB010109EB9115FBF727F84EF2DB
