:020000040800F2
:10000000A88001209D010008A5010008A7010008A3
:10001000A9010008AB010008AD01000800000000C4
:10002000000000000000000000000000AF01000818
:10003000B101000800000000B301000813360008F9
:10004000B7010008B7010008B7010008B7010008B0
:10005000B7010008B7010008B7010008B7010008A0
:10006000B7010008B7010008B7010008B701000890
:10007000B7010008B7010008470400086104000840
:10008000B7010008B7010008B7010008B701000870
:10009000B7010008B7010008B7010008B701000860
:1000A000B7010008B7010008B7010008B701000850
:1000B000B7010008B7010008B7010008B701000840
:1000C000B7010008B7010008B7010008B701000830
:1000D0007F2F0008B7010008B7010008B70100082A
:1000E000B7010008B7010008B7010008B701000810
:1000F000B7010008B7010008B7010008B701000800
:10010000B7010008B7010008B7010008B7010008EF
:10011000B7010008B7010008B7010008B7010008DF
:10012000B7010008B7010008B7010008B7010008CF
:10013000B7010008B7010008B7010008B7010008BF
:10014000B7010008B7010008B701000859130008FB
:10015000B7010008B7010008B7010008B70100089F
:10016000B7010008B7010008B7010008B70100088F
:10017000B7010008B7010008B7010008000000003F
:10018000B7010008B7010008DFF80CD000F068F8EC
:1001900000480047E9420008A8800120064880473F
:1001A00006480047FEE7FEE7FEE7FEE7FEE7FEE75C
:1001B000FEE7FEE7FEE7FEE72336000889010008B8
:1001C00030B504460020034600E05B1C934203D296
:1001D000E05CCD5C401BF8D030BD2DE9F05F0546FA
:1001E000002092469B4688460646814640241BE0F6
:1001F000284641464746224600F053F853465A46A1
:10020000C01A914110D311461846224600F03AF820
:100210002D1A67EB01084F4622460120002100F00D
:1002200031F817EB00094E41201EA4F10104DFDC78
:10023000484631462A464346BDE8F09F40EA01035E
:100240009B0703D009E008C9121F08C0042AFAD28C
:1002500003E011F8013B00F8013B521EF9D2704750
:10026000064C074D06E0E06840F0010394E8070003
:1002700098471034AC42F6D3FFF78AFF04FA00081F
:1002800024FA0008202A04DB203A00FA02F10020B8
:1002900070479140C2F1200320FA03F319439040C4
:1002A0007047202A04DB203A21FA02F0002170472F
:1002B00021FA02F3D040C2F12002914008431946CE
:1002C0007047D2B201E000F8012B491EFBD2704703
:1002D0000022F6E710B513460A4604461946FFF712
:1002E000F0FF204610BD70B58C1810F8015B15F0BA
:1002F000070301D110F8013B2A1106D110F8012B98
:1003000003E010F8016B01F8016B5B1EF9D12B07BC
:1003100005D40023521E0DD401F8013BFAE710F872
:10032000013BCB1A921C03E013F8015B01F8015B5F
:10033000521EF9D5A142D8D3002070BDB0B586B009
:10034000032812D8DFE800F0020202020021019126
:1003500043F63001C4F202010A6842F008020A6062
:10036000096801F00801019101990221049101211C
:10037000CDE9021107A131F8105008A151F8204031
:1003800001A90195204600F0F7FA2804A06106B003
:10039000B0BD00BF0010002000400080000C0240F3
:1003A000000C0240000C0240000C024010B581B06D
:1003B0004FF0000E43F2000CCDF800E0C4F2020C46
:1003C000BEEB910FDCF8303843F48053CCF8303872
:1003D000DCF8303803F480530093009B4FF00103A6
:1003E000CCF8083000BF00BF00BF0ED08B08C3F1AF
:1003F000000E00BF50F8043B1EF1010E83EA020319
:1004000093FAA3F3CCF80030F4D111F0030EDCF82A
:10041000001091FAA1F213D048F2203CCEF6B85C5D
:10042000017882EA010308218CEA5302DC0708BF45
:100430005A0801391346F7D10130BEF1010EEFD150
:10044000D04301B010BD4EF280204FF48041CEF277
:100450000000016043F6EC30C2F2010000F054B835
:100460004EF280204FF40041CEF20000016043F6CE
:100470004C40C2F2010000F047B8000080B544F2E1
:10048000A40ED0F858C0C2F2010EDEF8003090F889
:100490003510022925D101680A6822F016020A6087
:1004A0004A6922F080024A61026C0AB9826C1AB170
:1004B0000A6822F008020A600A6822F001020A6053
:1004C0000A68D20713D0DEF80020D21A052AF7D91D
:1004D00020214165002180F83410032180F8351077
:1004E00080BD002180F834108021416580BDC16D40
:1004F0003F2202FA01F1CCF80810012180F83510F2
:10050000002180F8341080BDF0B581B00446002091
:1005100048F2B5130821009040F24800C1F64E336E
:10052000C2F201000268D4E9166037688140A2FB7C
:10053000032539420CD0226813685B0708D513687D
:1005400023F004031360B160616D41F00101616546
:1005500001218140394208D022685269120604D52F
:10056000B160616D41F00201616504218140394251
:1005700008D022681268920704D5B160616D41F01D
:100580000401616510218140394217D0206802685A
:10059000120713D5B16002680168520306D4C90579
:1005A0005EBF016821F00801016001E0080301D489
:1005B000216C00E0A16C09B120468847E16D202044
:1005C00000FA01F23A423BD020680368DB0637D5D7
:1005D000B26094F835300268052B19D122F016026A
:1005E0000260426922F080024261226C0AB9A26C68
:1005F0001AB1026822F0080202603F208840B06011
:10060000012084F83500002084F83400216D34E0A6
:10061000016852030CD4C9050ED4016821F0100101
:100620000160012084F83500002084F8340003E0E4
:10063000080301D4616C00E0E16B09B120468847F2
:10064000606DE8B1606DC00716D00521A80A84F876
:10065000351021680A6822F001020A60009A01320E
:100660008242009202D80A68D207F7D1012084F8AA
:100670003500002084F83400E16C09B12046884739
:1006800001B0F0BD44F2A4010028C2F201010B68E0
:1006900054D02DE9F041022280F83520002280F864
:1006A00034200268156825F0010515601568ED070E
:1006B00007D00D68ED1A052DF8D903232025032155
:1006C0006EE048F23F031168D0E9015400F10C08D4
:1006D000CFF2100301EA030C98E8C201D0E9073E0B
:1006E00045EA0C0525432943456A31433943042D26
:1006F00041EA080141EA030141EA0E0320D1D0E9B1
:100700000BE143EA0E03BEF1000F41EA0301116061
:100710005169846A21F0030141EA040141F0040CAB
:1007200014D0B8F5005F32D0B8F1000F44D1022CDC
:1007300045D0012C3AD0002C41D007E0012124E023
:100740001360516921F0070141EA050C6FF00F01B8
:1007500040F2FF33C2F814C0002551FA82F19A43E7
:100760004AF6AB23CAF6AA235F2988BF0432826502
:10077000A1FB0313190916A3595C3F23C16503FAB2
:1007800001F10123916000210AE008467047032C23
:10079000DCD8012340250121DFE804F00211020822
:1007A000456580F83530BDE8F041EEE7AEF1C07147
:1007B000B1FA81F1490904E0032C04D3C6D1CEF388
:1007C00000610029C2D0012340250121E8E700BFD4
:1007D000000610160006101610B590F834C0BCF1D3
:1007E000010F4CD04FF0010CD0F858E080F834C025
:1007F00090F835C0BCF1010F3ED14FF0020C80F8EB
:1008000035C04FF0000CC0F854C0D0F800C0DCF880
:10081000004024F48024CCF80040CCF804308368F5
:10082000402B0B4608BF1346CCF8083008BF0A46D9
:10083000CCF80C20C16D3F2202FA01F1CEF808106D
:10084000DCF8001041F01601CCF80010DCF81410B0
:1008500041F08001CCF81410006C28B1DCF80000E5
:1008600040F00800CCF80000DCF8000040F0010087
:10087000CCF80000002010BD002180F834100220C8
:1008800010BD00002DE9F04F41F6004243F600494B
:100890004FF0080C00270024C4F20202C4F2010940
:1008A000904200F13E4208BF4FF0070CA9F57E7A56
:1008B00002F1FF724FEAB223072B4FF0000338BF5B
:1008C0004FEAB22C012202FA04FB1BEA010F4BD0C3
:1008D000032205684FF00F089A409543056007F022
:1008E0001C0508FA05FE6FF0030505EA54050544EA
:1008F0002E6A26EA0E064FEA940E2E6207F00C05C9
:10090000866808FA05F80CFA05F59643866046688D
:1009100026EA0B064660C66826EA0202C2605AF85A
:100920002E2002EA0802AA421ED15AF82E506FEA7F
:100930000B0225EA08054AF82E50D9F80060164047
:10094000C9F80060D9F804601640C9F80460D9F805
:1009500008601640C9F8086043F60C46C4F2010668
:100960003546366832402A60013404370233102C91
:1009700008BFBDE8F08FA5E72DE9F04F82B041F642
:10098000004343F6004B08224FF0010A00264FF0C7
:10099000000CC4F20203C4F2010B984200F13E4382
:1009A00008BF072203F1FF734FEAB327072F4FF069
:1009B000000738BF4FEAB322009200BF0A680AFA64
:1009C0000CF812EA080F00F09A80D1F804E04EF01B
:1009D0001002122A12D106F01C020F2303FA02F4AD
:1009E0006FF0030303EA5C0505442B6AA3430C691B
:1009F00004FA02F21A432A62D1F804E003230468DD
:100A00000EF00302BEF1120F03FA07F302FA07F227
:100A100024EA03046FEA030942EA0402026014D8DC
:100A20000AFA0EF212F0061F0FD08268CB6802EAB3
:100A30000902BB401A438260CEF30012436802FAF7
:100A40000CF223EA08031A434260C2688B6802EA88
:100A50000902BB401A43C2605FEACE024FD50022B2
:100A600006F00C050F24019243F64402AC40C4F298
:100A700002021346126842F480421A601A6802F4B5
:100A8000804201922CF00302019B5A444FF6084326
:100A9000CFF6FF739E46D358A343009C04FA05F596
:100AA0002B4342F80E30DBF800204D6842EA080381
:100AB000EC0358BF22EA0803CBF80030AC03DBF8A4
:100AC000042042EA080358BF22EA0803CBF80430A6
:100AD000EC02DBF8082042EA080358BF22EA0803C8
:100AE00043F60C42CBF80830AD02C4F201021446C2
:100AF000126842EA080358BF22EA080323600CF197
:100B0000010C02370436BCF1100F04BF02B0BDE87F
:100B1000F08F53E740F2480044F6D351C2F201008F
:100B2000C1F262010068A0FB01014FF0FF3000EB51
:100B300091120021B1EB126F18BF70474EF21003F3
:100B40004EF60C5CCEF20003CEF2000C5A60F0229E
:100B50008CF81720996007211960DCF80010C1F3A8
:100B60000221CA1E81F0070138BF0022042928BFD4
:100B700004218840012121EA0000904000018CF806
:100B80001700704790F8B813012901D1022150E0F5
:100B90000121FF2380F8B813D0F800C0DCF808204A
:100BA00022F00102CCF808204FF62062CFF6FF7247
:100BB0000CEB02012032C1F8E83AC1F8E83CF7D169
:100BC00040F63F524FF0FF330021CCF81838CCF8F4
:100BD0001018CCF81418CCF81C181021C0F203021D
:100BE000CCF810100133934203D8DCF81010C9067A
:100BF000F8D44FF484614FF0FF33CCF8101000BFED
:100C00000133934203D8DCF810108906F8D4DCF8DD
:100C1000041841F00201CCF8041844F2A401C2F215
:100C200001010A680B689B1A042BFBD3002180F892
:100C3000B81308467047B0B5D0F81852044695F876
:100C4000180280B12046812102F00BFF687A022849
:100C500018BFB0BD05F50372204601211F23BDE872
:100C6000B04002F0D6BED5F814020028EAD0687A67
:100C70000028E7D12046012102F0F3FEE2E710B59B
:100C8000D0F81842627A022A05D1812102F0E9FEE9
:100C90000020607210BD49B2B1F1FF3FFADC012AB9
:100CA00008BF10BD0121BDE8104000F0BDB810B56F
:100CB0000446D0F81802017ACA1E022A05D220463C
:100CC0000021BDE8104000F0AFB8022910D190F823
:100CD000191200F21B22204601F0D0FCB0F1FF3FB8
:100CE000C8BF10BD20460121BDE8104000F09CB8EF
:100CF00010BDB0B5D0F818520446287A012834D077
:100D0000E8BBD5E98401C5E98C01D4F82002B0F82C
:100D10002C021F2810D145F25531D5F80C02C4F22F
:100D20004231884208D195F81912012904D895F862
:100D30001A020138102823D395F85D024FF40052AF
:100D400005EBC0010130C1F84022052281F83C22A8
:100D500002216972C1B2043918BF014685F85D12DB
:100D60002046BDE8B040FFF766BF95F8191205F2BE
:100D70001B22204601F082FCB0F1FF3F2ADDB0BD0E
:100D800005F21B22204601F079FC297AB0F1FF3FE1
:100D90001EDD481E0328F2D3688908B3D4F8181260
:100DA000002281F8382204220A72D1F81422D1F8E4
:100DB0003432824238BF10461A1A83B2C1F8342244
:100DC00005F10C0220468121BDE8B04002F0A9BE29
:100DD0000529C5D120460121BDE8B04000F024B866
:100DE00020460021BDE8B04000F01EB8B0B5D0F8F4
:100DF0001852044600202881A5F85C02D4F81C0291
:100E00000168002088472046012102F061FD20464C
:100E1000812102F05DFD05F50372204601211F23AB
:100E2000BDE8B04002F0F5BDB0B5D0F818520446A8
:100E300045F255300D23C5F2423085F83812C5F819
:100E40002C02002005F50B7281212872204602F049
:100E500068FE05F50372204601211F23BDE8B0405E
:100E600002F0D7BD10B543F6C814C2F20104D4F89D
:100E700014022179426820469047D4F82002FFF7F7
:100E800081FE012084F8FC01D4F814022179426823
:100E900020469047D4F82002FFF774FED4F8204291
:100EA0000CB3032084F8B9032046FFF76BFE2068DB
:100EB000B0F1A04F14D143F63400C4F2020001682F
:100EC00021F08001016000204FF4F051C4F20200D3
:100ED000FFF7D8FC4EF288100821CEF20000016026
:100EE000002084F8B90310BD2DE9F04F87B043F618
:100EF000C818C2F20108D8F8140210B10020C8F8CE
:100F0000140240F20C0043F6AC4B4FF001090024F0
:100F100040F2000A0227042602ADC2F2010088F85E
:100F2000FC91C2F2010BC4F2020A2946C8F8100271
:100F3000032088F80040CBF8EC83C8F820B28BF887
:100F4000B9034FF0A040CBE90B94CBE90374CBE994
:100F50000547CBE90744CBF82440CBE900064FF422
:100F60000070CDE9034402905046FFF705FD0A20CA
:100F70002946CDE905404FF4E050CDE903740290D5
:100F80005046FFF7F9FC43F634004FF6FF02C4F277
:100F90000200016841F0800101600194016941F49F
:100FA00080410161006900F48040019001984EF693
:100FB0000C50CEF200000168114040F20062C0F215
:100FC000FA52114340F63F520160C0F2030200683A
:100FD000C0F30220C11E80F0070038BF00210428A2
:100FE00038BF06464FF0FF30B04029EA0000884085
:100FF0004EF243410001CEF2000108704EF208109B
:101000000821CEF200000160DBF80000816821F0C9
:1010100001018160DBF81830DBF81010012B2ED1B4
:10102000DBF83430876B4FF6BF76CFF6BD7627F40A
:101030008037012B8763C76807EA0607C760C76860
:1010400027F44017C76002BFC36843F48013C3602E
:101050004FF0FF33013393422FD80769B7F1FF3FB9
:10106000F8DC036943F0010303614FF0FF3300BF75
:101070000133934221D80769FF07F9D11DE0C36806
:1010800043F04003C3604FF0FF3300BF013393428E
:1010900010D80769B7F1FF3FF8DC036943F001039B
:1010A00003614FF0FF3300BF0133934202D8076959
:1010B000FF07F9D14FF480338363012907D1816899
:1010C00041F006018160816841F020018160C168C2
:1010D00044F2A40AC2F2010A21F0C041C160C16811
:1010E00041F08041C160DAF8003000BFDAF80070EA
:1010F000FF1A332FFAD3002301260025002400BF56
:101100000BEB05071C35FC8787F838400134B5F533
:10111000D27F87F83960FB64C7E9103387F83B302A
:10112000EED10023412600250BEB0507A6F1410473
:101130001C3587F8F84187F8F931C7F80C32C7E950
:10114000803387F8FB31FC8740F826300136B5F54F
:10115000D27FE9D1DBF82CE04FF40024BEF1000F80
:1011600008BF4FF40014DBE9065CDBF80470DBE930
:101170000339866B3443012D84634FF00004C0F8BB
:10118000004ED0F80048C0F8004806D1D0F800481A
:10119000002B18BF44F0010403E0D0F8003843F0FE
:1011A00003044FF48463C0F8004803614FF0FF3339
:1011B0000133934202D80469A406F9D410230361D1
:1011C0004FF0FF330133934202D80469E406F9D4A7
:1011D0000022002F4FF0FF33C0F81028C0F8142869
:1011E000C0F81838C0F81C2820D000F510654FF062
:1011F0009043FF243E4600BF2968013E03EAE171A7
:1012000029602A61AC6005F12005F5D100F5306256
:101210004FF090450023FF241168013F05EAE1717A
:1012200011601361946002F12002F5D1D0F810181A
:10123000B9F1010F21F48071C0F8101818D140F2F3
:1012400000110246C0F28001C0F83018D0F8301802
:1012500041F4803141F00301C0F83018D0F8301863
:10126000002142F8181F6FF0804142F8041C0EE084
:1012700000210246B9F1000F42F8181F6FF08041BB
:1012800042F8041C03D1116841F01001116043F6CB
:1012900000031168BCF1000FC8F23C0341EA0301EE
:1012A00011601EBF116841F008011160BEF1010F0D
:1012B00005D1116841F0804141F004011160012124
:1012C0008BF8B913D0F8041841F00201C0F80418E3
:1012D000DAF80020DAF80010891A0429FAD38021FC
:1012E0004162416A41F480018162416A826A01EB94
:1012F000124141F40001C0F8041140F20810C2F29A
:101300000100C8F81C0240F26400C2F20100C8F8F3
:101310001402D8F8200290F8B813012918D001213E
:1013200080F8B8130268D2F8041821F00201C2F85C
:101330000418DAF8003000BFDAF80010C91A0429DE
:10134000FAD3916841F001019160002180F8B8134F
:1013500007B0BDE8F08F00002DE9F04F87B043F6ED
:10136000AC4BC2F2010BDBF800E0DEF81400C00762
:1013700040F03C87DEF81400DEF81810014200F05F
:101380003587DEF81400DEF818100840800742BFE9
:10139000DEF8140000F00200CEF81400DEF81400AD
:1013A000DEF81810CDF810E008407146000340F157
:1013B0006483DEF81808DEF81C184FF0000C0840B3
:1013C000BCEB104F07D0000C0BF504764FF43068DF
:1013D0004FF0000A0CE071464FE300206146C9F867
:1013E0000400022089F8FC01D9F81402426860E187
:1013F0000446C00700F03583DBF8000008EB00016D
:101400008968D0F8140800EA0107F80777D00EEBD6
:10141000080001218160DBF81010012909D156E98B
:10142000041200696FF3DF40081A3060501846F864
:101430000C0CDBF8EC535FEA0A600CD0D5F8140210
:101440008269AAB395F8FC01032831D15FFA8AF1C9
:101450002846904728E0D5F8F401032828D1D5E99B
:10146000431081420DD9091A56F80C2CC5F80C11FD
:10147000814238BF084683B20021284602F0C9FAEB
:1014800012E0D5F81402016929B195F8FC0103288E
:1014900001D1284688470420002100220023C5F8F6
:1014A000F401284602F03DFBDDF810E04FF0000C9F
:1014B000DBF80C0250EA0A0021D1DBF81000012809
:1014C0001DD1DBF80000C0F810CBD0F8101B41F4A0
:1014D0000021C0F8101BD0F8101B41F01801C0F813
:1014E000101BD0F8101B41F0C041C0F8101B0BF5C9
:1014F0006F71C0F8141B4FF08021C0F8001B380733
:1015000040F1A98205979BF8BC53DBF8EC73CDF84A
:1015100008A0A2465C464FF0010987F808529BF8E4
:10152000BD3387F809329BF8BEC39BF8BFB34CEAC2
:101530000B2EA7F80AE294F8C01394F8C10341EA0D
:10154000002205F01F00A7F80C220228B4F8C243BD
:10155000C7E97D94A7F80E42B94607F50277CDF8A2
:101560000CA031D0012801973BD0002852D1DDF8E2
:1015700008A0092B00F21381DFE813F00A007C00B9
:1015800011018D001101A700DB001101F20008011B
:1015900099F8FC0100F0FE00022840F000810220D2
:1015A0004A4600210223C9F8F401C9E90600D9F826
:1015B000040200284FF0030008BF012042F80C0F7E
:1015C000484602F0AEFAF2E005F060004FF0000C81
:1015D000202827D1D9F81402394682684846904716
:1015E0001DE099F8FC01059F032838D1DDF808A01B
:1015F00011F0FE0F40F01A82D9F8140201998268A6
:1016000048469047B9F80E024FF0000C002840F011
:10161000178250E005F08001484602F022FADDF81A
:1016200008A0C4E0002B00F0C6800197059F012BA5
:1016300000F0CE80DDF808A0032B40F0018299F87D
:10164000FC01032840F0CA80BEF1000F2DD141F00B
:101650008000802829D0484602F003FA25E0484659
:10166000802102F0FEF94846002102F0FAF9DDF887
:1016700008A0E3E199F8FC0100F0FE00022840F028
:101680008E80059FBEF1010F4FF0000C40F0D88115
:10169000C9F804C209E0059FBEF1010F4FF0000C2C
:1016A00040F0CE810120C9F80402D9F81402019952
:1016B0008268484690470420002100220023C9F890
:1016C000F401484602F02DFAB8E142EA04000004B1
:1016D00065D199F8FC01059F032800F0A7810CF063
:1016E0007F0489F8FE41D9F8200290F8B813012947
:1016F0000FD00168D1F8002822F4FE62C1F800285A
:10170000D1F8002842EA0412C1F80028002180F82C
:10171000B8130420002100220023C9F8F401484630
:1017200002F0FFF9002C14BF0220012089F8FC010F
:1017300084E1ABF10100062831D8DFE810F00700A2
:10174000E300F100300030001E012A01D9F8101228
:1017500099F810000A680DF11A019047024626E137
:10176000012C1CD199F8FC01059F0021032800F0F1
:101770003281022840F05A8102204A46C9F8F40119
:101780000120C9E9060042F8081F2CE143F2B050DD
:10179000BCF1020FC2F2010080F800C028D3484615
:1017A000802102F05EF94846002102F05AF94FF01C
:1017B000000C059F44E199F8FC01059F032832D0F5
:1017C000DDF808A0022840F0318148060ED137E14B
:1017D00099F8FC01DDF808A003284CD0022840F05D
:1017E000258141F08000802800F02A81484623E1CD
:1017F00099F8FC01059F032800F0F980022840F0C9
:101800001581BCF1000F3FF456AF032089F8FC01AD
:10181000C9F804C0D9F81402002800F00781026852
:1018200048466146FEE001F07F0011F0800109EBBF
:101830000013C0EBC00003F1140208BF03F582726D
:10184000D9F8203200294FF0000103EB800000F1AD
:101850003A0308BF00F5FD7318780223002818BF6B
:10186000012010600220C9E90600C9F8F4014846C9
:1018700002F057F9FBE6BEF1000F40F0E1804806A8
:101880003FF419AFD9F82002C1EBC10201F07F0388
:101890000D064FEAD1114FF0000500EB8207C3EBB4
:1018A000C30200EB820202F1380258BF07F5FC7256
:1018B00051701370957090F8B873012F1AD00127EA
:1018C00000294FEA431180F8B87307680CBF07F589
:1018D000306307F510635F5827F400175F50D27824
:1018E00002F0FE02022A02BFCA5842F08052CA50D9
:1018F00080F8B853D9F81402019982684846904795
:10190000059FD8E699F81010D9F8140200290CBFE9
:10191000816AC16A0DF11A0088470246022045E03B
:10192000BCF1050F3FF63BAFDFE80CF0211B150FB4
:101930000903D9F8101299F810008A690BE7D9F851
:10194000101299F810004A6905E7D9F8101299F8B1
:1019500010000A69FFE6D9F8101299F81000CA6859
:10196000F9E6D9F8101299F810008A68F3E6D9F868
:10197000101299F810004A68EDE699F81000002856
:101980007FF40DAFD9F81402416B0DF11A008847AE
:10199000E4E699F8100000287FF401AFD9F81402AA
:1019A000016B0DF11A008847024607205070BDF800
:1019B0001A00059F4FF0000C002841D0B9F80E32F4
:1019C000F3B3984238BF03460220ADF81A30C9E994
:1019D0000633002173E6012009F10402C9E906007B
:1019E0000220C9F8F4014846002101236AE6BCF14F
:1019F000000F3FF4F2ACD9F8040060453FF45BAE51
:101A0000D9F814124A68C1B24846904743F2B05020
:101A1000C2F201000178C9F80410D9F8140228B103
:101A200002684846904700283FF445AE484680216A
:101A300002F017F84846002102F013F84FF0000CAE
:101A4000DDF810E0082143F6AC4BC2F2010B0EEBBF
:101A500008008160039CF80642BF0EEB08001021CD
:101A6000816008F120081C3660080AF1010ABCEB0D
:101A7000540F7FF4BDACDBF8001048698A69104050
:101A8000400340F16B81D1F81808D1F81C281040B0
:101A900080B2002800F062810EF5106300254FF03F
:101AA000000A02933EE00EF14406039B05F5106028
:101AB000D6F800E005904FEA0A30019603F580570A
:101AC00002E000BFD1F800C043F6AC43ABEB040624
:101AD000C2F20103664588BF66461D7C75B90323C3
:101AE00013FA86F50023B3EB950F07D0AC087546C3
:101AF00055F8043B013CC351FAD114683444059DA8
:101B0000F31CB6441460AD69ADB2B5EB930F03D9C5
:101B1000D9F800B0A345D5D80198029BC0F800E0E1
:101B2000FDE000BF8046C00700F00E81DBF800003A
:101B3000D0F81018D0F8342800EB4A10D0F8080973
:101B400022FA0AF2D201D2B2114301EA00095FEA95
:101B5000C97000F0A4800122DEF8341802FA0AF0FD
:101B600021EA0000CEF8340803EB4A108260DBF86B
:101B70001000012807D1CAEBCA000BEB8000D0E9A6
:101B8000101211444164DBF8EC435FEA0A6010D0A4
:101B9000D4F814024269002A5AD094F8FC010328B0
:101BA00056D15FFA8AF120469047029BDDF810E09B
:101BB0004EE0D4F8F401022844D1D4E90710814260
:101BC00015D9CAEBCA02081A00210BEB820283B2B4
:101BD000526CE061204601F0A4FF20460021002263
:101BE000002301F016FF029BDDF810E02AE0A16956
:101BF000814211D3B1FBF0F202FB101060B9D4F8AE
:101C0000F801814208D2204600210022002301F081
:101C100088FFC4F8F851E0E7D4F81402C16829B18C
:101C200094F8FC01032801D12046884705200021B3
:101C300000220023C4F8F401204601F0EAFEDDF89A
:101C400010E0029B94F80002012808BF84F80052BB
:101C5000DBF84C0050EA0A0021D1DBF81000012823
:101C60001DD1DBF80000C0F8105BD0F8101B41F468
:101C70000021C0F8101BD0F8101B41F01801C0F86B
:101C8000101BD0F8101B41F0C041C0F8101B0BF521
:101C90006F71C0F8141B4FF08021C0F8001B5FEA81
:101CA000097042BF03EB4A10082181605FEAC960F6
:101CB00042BF03EB4A10102181605FEA496042BFD6
:101CC00003EB4A10402181605FEA897042BF03EB59
:101CD0004A10022181605FEA096035D5CAEBCA006B
:101CE0000BEB800E5846714651F840CF0A468946A4
:101CF00052F8104F59F80CBFABEB0406664588BF8D
:101D000066460068039000EB4A15F01CD5F8187978
:101D1000BFB2B7EB900F88BFA3453FF6C4AE43F602
:101D2000AC4BDDF810E0002E4FF00005C2F2010BC5
:101D30000AD10399012000FA0AF00A46D1F83418B2
:101D400021EA0000C2F834084FEA58000AF1010AFB
:101D5000B5EB580F7FF4E6AEDBF8001048698A69EE
:101D60001040B0F1FF3F0FDCDEF8040820F0010066
:101D7000CEF80408DBF8EC0390F8FD2180F8FC2194
:101D8000486900F00040486148698A6910400005D0
:101D900021D5DEF80808C00719D0DBF8EC030423CE
:101DA00090F8FC2180F8FC3180F8FD21D1F8000E7C
:101DB00040F00100C1F8000EDBF8200038B14EF60B
:101DC0001050CEF20000026842F00602026048693C
:101DD00000F40060486148698A691040C0046CD50D
:101DE000DEF8040840F63F534FF0FF32C0F2030321
:101DF00020F00100CEF804084FF4846008610EF56D
:101E0000006000BF01329A4202D80F69BF06F9D4C0
:101E1000DBF804205AB14FF608670EF53063FF2651
:101E2000CFF6FF77DE519E602033013AFAD14FF0B2
:101E3000FF328261C26942F00112C261DBF83020D8
:101E400042B1D0F8842042F00B02C0F8842000F1A7
:101E5000440205E0426942F00B02426100F11002C7
:101E6000136843F00B031360026822F4FE62026001
:101E700000229BF81000C1F8102BD1F8102B01287C
:101E800042F40022C1F8102BD1F8102B42F01802B6
:101E9000C1F8102BD1F8102B42F0C042C1F8102B22
:101EA00007D10BF56F70C1F8140B4FF08020C1F80B
:101EB000000B486900F48050486148698A69104005
:101EC000800440F1F880D1F8000940F2FF7290439D
:101ED000C1F80009D1F8080800F00600042802BF84
:101EE000D1F8000940F00300C1F80009D1F8040856
:101EF00040F48070C1F80408C86820F47050C860CD
:101F0000D1F8080810F0060F2BD0D1F8080800F01F
:101F1000060002280BD0D1F8080800F006000628B9
:101F200005D0D1F8080800F00600042819D1402097
:101F300045F2403243F2FF43CBF814000320CFF6C2
:101F40002772C0F20C03CBF80C0040F24800C2F23A
:101F50000100006802449A420ED8C86840F47050EC
:101F600080E04FF400700022CBF81400CBF80C2076
:101F7000C86840F4105076E041F6406244F23F23D6
:101F8000CFF61B72C0F20F0302449A4203D8C8680E
:101F900040F4605066E0A0F5740244F67F73A2F549
:101FA0001052C0F212039A4203D8C86840F450504D
:101FB00058E0A0F183724DF21F63A2F5E742C0F230
:101FC00013039A4203D8C86840F440504AE04BF2E9
:101FD00060624EF25F33CFF6E562C0F21603024450
:101FE0009A4203D8C86840F430503BE04DF20032CA
:101FF00047F23F73CFF6CE62C0F21B0302449A420F
:1020000003D8C86840F420502CE045F6C03249F2AD
:10201000BF13CFF6B362C0F2210302449A4203D841
:10202000C86840F410501DE0A0F1B77247F21F538A
:10203000A2F55852C0F238039A4203D8C86840F457
:1020400000500FE045F2E04249F6DF43CFF6596217
:10205000C0F241030244C8689A428CBF40F4C050A9
:1020600040F4E0500122C860002140234025DBF805
:10207000EC4322742046002201F060FC20468021BF
:1020800000224023C4F8105101F058FC012084F8CC
:10209000FC012562D4F8180228B1D4F81402217981
:1020A000426820469047DBF80010486900F4005071
:1020B0004861DDF810E048698A691040C0064DD5D6
:1020C000886920F010008861DEF82020C2F34343C5
:1020D00002F00F00062B26D0022B3BD147F6F073FF
:1020E000134037D0C0EBC000032200260BEB80006A
:1020F00002EB13171B09D0F8044200F5017CB6EB84
:10210000970F09D0BE084FF4805527465EF805208A
:10211000013E47F8042BF9D1E218CCF80020D0F8A2
:1021200010221A4414E000234FF480570BEB830570
:102130005EF807600133022BC5F8BC63F6D1C0EB33
:10214000C0000BEB8000D0F81032C2F30A121A4420
:10215000C0F81022886940F01000886148698A69D7
:102160001040000710D5DBF8EC0390F8FC21032A9F
:1021700006D1D0F81422D26912B19047DBF80010D2
:10218000486900F00800486148698A691040C00247
:1021900042BF486900F48010486148698A6910406C
:1021A000800242BF486900F40010486148698A69AA
:1021B0001040400042BF486900F0804048614869D3
:1021C0008A691040400711D54C6860070BD5DBF8D1
:1021D000EC03012180F8FC11D0F814220179526837
:1021E0009047DBF8001048682043486007B0BDE81E
:1021F000F08F00002DE9F04F81B040F280174FF4CE
:102200005051C2F201073846FEF762F840F22C1531
:1022100038463E22C2F20105294601F003FF064678
:1022200007F5FE7005F14201042201F0FBFE3E3588
:1022300040EA060407F500700422294601F0F2FE88
:10224000044307F580502946042201F0EBFE40F2DA
:102250002801044307F5F0502022C2F2010101F0E9
:10226000E1FE43F2B9712043C2F20101097801296C
:1022700040F0C080009041F6086045F255014CF2F4
:10228000FF384FF00F0B4FF0000E40F6FF7A395237
:1022900044F24211CFF67F5841F60460C4F6433150
:1022A000395000BF787B396A0026B1FBF0F9CEEBDC
:1022B000CE0007EB402000F203270CE001EA0B01FF
:1022C000063002EA08020136A9F1040941EA0010C9
:1022D0003A60B88006371FFA89F4002C58D0012CD8
:1022E00050D038685FFA86FCB9884FF6FF72022C2E
:1022F00020EA0A0040EA8C0000F10300386027D091
:10230000114040F2FF32032CCFF60072B98000EA90
:1023100002000CF1010240EA82323A6026D018F144
:1023200040754FEA8C006BF11F032A40451D042CB9
:1023300001EA030142EA056241EA15213A60B980E7
:10234000BCD101EA0B0002EA080360F00F041DE0B3
:1023500001EA020440F2FF31CFF6007108404FF26B
:102360000001C0F2FF0140EA01030FE018F14070E4
:1023700000EA020040F07F436BF11F00084040F08C
:102380000F0403E03868BC8840EA0A033B60BC8065
:1023900040F280170EF1010EBEF1020FC2F20107EA
:1023A0007FF480AF15484FF4F1513C4641F6346557
:1023B000785012A0031D0ECBD0E9047680696651D7
:1023C00041F63066A75141F62C67E35141F6286388
:1023D000E25041F62462A15041F63861605043F664
:1023E000C41041F63C61C2F20100006840698002FD
:1023F0006050009801B0BDE8F08F00BF4649524DD3
:102400005741524542494E20187A627FB64EB64E29
:102410000000637FB64E020010B584B043F28C54C6
:1024200000210391CDE90111C2F20104217889074D
:102430003AD543F28851C2F201010978A1BB43F2B7
:102440009051FF22C2F20101C0F218020968114046
:102450000122C0F20802914226D140F218414FF009
:102460008052C4F202010A608DF8040001A806221D
:10247000811D00F0C2FEB8B943F29450C2F20100CF
:1024800001E000BF00BFC1680629FBD144F29C02F5
:102490009DF80E009DF80F10C2F20102107044F278
:1024A0009E00C2F201000180207880071AD543F215
:1024B0008850C2F201000078A0B943F29050FF2189
:1024C000C2F20100C0F21801006808400121C0F208
:1024D0000801884206D140F218404FF48051C4F2FE
:1024E0000200016004B010BD10B582B043F28C54FC
:1024F0000021CDE90011C2F20104217889073BD502
:1025000043F28851C2F201010978A9BB43F290510C
:10251000FF22C2F20101C0F2180209681140012233
:10252000C0F20802914227D140F218414FF0805288
:10253000C4F202010A608DF8000068460422011D01
:1025400000F05BFEC0B943F29450C2F2010000E01B
:1025500000BFC1680429FBD144F29C019DF805002D
:10256000C2F201010870BDF8060044F29E01C2F2F9
:10257000010100BA000C0880207880071AD543F2C8
:102580008850C2F201000078A0B943F29050FF21B8
:10259000C2F20100C0F21801006808400121C0F237
:1025A0000801884206D140F218404FF48051C4F22D
:1025B0000200016002B010BDB0B582B043F28C558C
:1025C0000446C2F201052878800702D44FF0FF309C
:1025D00034E043F28850C2F20100007810B16FF08D
:1025E00001002BE043F29050FF21C2F20100C0F243
:1025F0001801006808400121C0F208018842E5D1B5
:1026000040F218404FF080510222C4F202000160F3
:1026100005208DF8040001A8811C00F0EEFD68B9CA
:1026200043F29450C2F2010001E000BF00BFC16854
:102630000229FBD19DF80700207000202978890726
:102640001AD543F28851C2F201010978A1B943F2C7
:102650009051FF22C2F20101C0F218020968114034
:102660000122C0F20802914206D140F218414FF413
:102670008052C4F202010A6002B0B0BD2DE9F043FD
:1026800083B00446107816460D46192813DDA0F1D4
:102690001A0110292CD8DFE801F04809414109410D
:1026A00041414159417D41419541D000D4F8180242
:1026B000002545810BE2002800F0FA80032800F095
:1026C000118112282AD17178D4F81802C90740F074
:1026D0004581D4F81C1205EBC502C96901EB8201E2
:1026E0000A79531D32799A4240F2D2811A4637E173
:1026F0002F2800F021815A2810D1D4F8180208217F
:102700000FF27C4241811330002100BF5318DB7966
:102710004354013911F10803F8D12BE1D4F8180220
:1027200090F85D124FF400532AE1D4F81802082102
:102730000FF2544241811330002100BF5318DB795E
:102740004354013911F10803F8D113E1D4F81862A8
:10275000002001A90DF10A0270613061F060D4F827
:102760001C0243682846984700BB08200221F073EA
:102770000198B1820138010AF074B174010C000EA5
:10278000717430740C21BDF80A007181F075000A73
:10279000B075EFE0D4E98660436806F5187106F27B
:1027A0005E2228469847002800F0F080D4F81802EE
:1027B0004FF4685390F85D1200EBC102C2F840324A
:1027C00002237AE1D4F81872387AB846002800F06B
:1027D000F1804FF4007608F10C097E81B8F85E02B2
:1027E000D8E99913B1FBF0F2B3F5007F38BF1E466C
:1027F000B6FBF0F0494683B2D4F81C0207692846BC
:10280000B847B0F1FF3F40F34881B3B22046812181
:102810004A4601F086F9D8F83402D8E99912921B99
:102820003144A0EB0600C8E99912C8F8340240F020
:10283000A180032088F808009CE0D4F81872387A48
:10284000002800F0DB80B7F85E02D7E9991607F19F
:102850000C08B6F5007FB1FBF0F228BF4FF400760C
:10286000B6FBF0F0414683B2D4F81C02D0F814C095
:102870002846E047B0F1FF3F40F31481D7F8341207
:10288000D7E999028319901BA1EB0601C7E999309A
:10289000C7F8341200F01F81B0F5007F28BF4FF455
:1028A000007083B201214246204601F0B2F861E097
:1028B000D4F81862D6F81402002800F0CB8096F8FD
:1028C0005D024FF4005206EBC0010130C1F8402216
:1028D000052281F83C22C1B2043918BF014686F8AE
:1028E0005D12F3E0D4F81842112104F10D00FDF758
:1028F000EFFC0C20E0747020207394F85C0294F8D4
:102900005D12884211D004EBC001013091F83C22E5
:10291000A27391F841222276C2B2043A18BF02464D
:1029200091F8400284F85C22607612206081307950
:10293000122898BF60811DE07178D4F818028907C9
:102940001AD4D0E99812B0F868321A448A427FF655
:10295000AFAE90F85D124FF4045311E08CA1072242
:10296000428100BF013A93B210FA82F6CF5C002B8D
:102970003773F7D10025AAE090F85D124FF4105399
:1029800000EBC102C2F84032052396E00025082082
:1029900035827081B6F85E02F074000AD6F86012D3
:1029A0000139F173B074080AB073080C7073080E23
:1029B00030738CE097F91802002838DAD4F81C023A
:1029C00081682846884700287FF4F0AED6F80200D8
:1029D00000BAC7F86402F179327A42EA0121C7F8F5
:1029E00068120A18D4F81882D8F860329A4240F275
:1029F000A78098F85D024FF40452B2E097F91802EC
:102A0000B0F1FF3F13DDD4F81C02816828468847E7
:102A100000287FF4CBAED4F81C02C1682846884752
:102A2000002861D0D4F818024FF41C53C2E697F87E
:102A30005D024FF4005207EBC0010130C1F84022A3
:102A4000052281F83C22C1B2043918BF014687F83B
:102A50005D123BE0D4F81C028168284688470028B4
:102A60003FD0D4F818024FF4685390F85D1200EB91
:102A7000C1020131C2F84032022382F83C32CAB2AC
:102A8000043A18BF0A4680F85D22052030721DE026
:102A9000002A42817FF466AF6CE7D4F818024FF445
:102AA000885303E0D4F818024FF4407390F85D1295
:102AB00000EBC102C2F840320423013182F83C32FB
:102AC000CAB2043A18BF0A4680F85D22FF2568B2F0
:102AD00003B0BDE8F083204600210025FEF7A4F9ED
:102AE000F5E700257581F2E7D6F8020001BAC7F8CC
:102AF0006412F079327A42EA0022C7F86822531849
:102B0000D4F81802D0F86062B3423FF622AFB7F8AB
:102B10005E325A435943C7E99912D7F814129142C9
:102B20007FF4FEAD0120B2F5007F4FF00101387255
:102B300028BF4FF4007293B2204607F10C02B4E6AE
:102B400002223A72B7F85E2251435043C7E9990115
:102B5000D7F8140288423FF43CAE98F85D024FF477
:102B6000005208EBC001C1F840220522013081F873
:102B70003C22C1B2043918BF014688F85D12A5E7AE
:102B8000000600000000000000000000000000003F
:102B900000000003008083002DE9F04786B043F277
:102BA0008C550C46C2F201052978890702D44FF0F2
:102BB000FF3130E0C7B2142F25D143F60004C4F230
:102BC0000004606820F00200606043F64C40C2F2EE
:102BD0000100FDF753FC606820F00100606043F6DF
:102BE000EC30C2F20100FDF749FC43F294501C2185
:102BF000C2F20100FDF76CFB43F288500021C2F2E3
:102C00000100017007E043F28851C2F20101097826
:102C100029B16FF00101084606B0BDE8F087132F17
:102C200022D86FF0060100220023DFE807F0100B26
:102C30000E0A0A1D1D1D1D1D1D1D1D1D1D1D2042D1
:102C40006066E8E70423012201E000230222C0F3CA
:102C50000221042900F28680DFE801F08E03878AD2
:102C60008D0043F0010387E06FF00301D3E740F2EA
:102C7000480043F6300145F6DC72C2F20100C4F2AE
:102C80000201C0F60002006851F8281CC1F382213D
:102C9000515C002220FA01F1002000BF0746072AFC
:102CA00045D8013207F1080021FA02F39C42F5D31E
:102CB00043E040F2480043F6300145F6DC72C2F2D0
:102CC0000100C4F20201C0F60002006851F8281C9D
:102CD000C1F38221515CC84043F60001C4F20001F7
:102CE0000968C1F3C201013120FA01F193E743F20F
:102CF0009450C2F2010004833FE143F29050FF215F
:102D0000C2F20100C0F21801006808400121C0F2BF
:102D1000080188427FF44BAF40F21840002C0CBFF2
:102D20004FF480514FF08051C4F2020018E0082A9D
:102D30003FF43DAF501C21FA00F3A3423FF637AFFA
:102D400043F60000C4F20000016821F04001016078
:102D5000016821F0380139430160016841F0400108
:102D600001600AE16FF0070155E743F0020303E059
:102D700043F0030300E0103300F47C31B1F5004F61
:102D800004D0B1F5803F3DD103F50063802143F6C7
:102D9000000943F63008022A01EAD021C4F20009F2
:102DA000C4F2020843EA010A2FD0012A3FD1C0F33E
:102DB000C140012849D002286AD0032840F08C8005
:102DC00000200190D8F8001041F00201C8F800106E
:102DD000D8F8001001F00201019101990521059137
:102DE00002210491CDE902104FF4805001A9019015
:102DF00009F5E630FDF7C0FD0120C0F2080000F53E
:102E0000801672E06FF0080105E7800211D40520FA
:102E1000022601A9059000200496CDE902604FF436
:102E20008050019009F5E630FDF7A6FD5DE0002633
:102E30005BE009F5E6304FF48051FDF723FD0226F3
:102E40004AF4007AC0F220064FE000200190D8F842
:102E5000001041F00201C8F80010D8F8001001F08D
:102E60000201019101990221CDE90301012001A98B
:102E700002904FF48050019009F5E630FDF77CFD9B
:102E800001264AF4407A4FF0200CC0F208062EE0EA
:102E900000200190D8F8001041F00201C8F800109D
:102EA000D8F8001001F00201019101990521059166
:102EB00002210491CDE902104FF4805001A9019044
:102EC00009F5E630FDF758FD01204FF0240CC0F263
:102ED000080000F500260AE009F5E6304FF48051BD
:102EE000FDF7D0FC4AF4407A01264FF0200C40F266
:102EF000480045F6DC720023C2F20100C0F6000271
:102F0000006858F8281CC1F38221515C20FA01F2B4
:102F1000002100BF0846072B07D8013300F1080144
:102F200022FA03F7BC42F5D305E0082B3FF43FAE8D
:102F3000591C22FA01F7A7423FF639AE43F29051ED
:102F400040EA0A00C2F201010E60D9F8001021F037
:102F50004001C9F80010C9F804C0C9F80000B00762
:102F6000286840F0040108BF20F004012960D9F866
:102F7000000040F04000C9F8000000214BE643F695
:102F80000000C4F20000816811F0680F15D04A06F5
:102F90004AD50168090529D443F2945290F80CC02F
:102FA000C2F201021368D168994235D253689BB3CB
:102FB000591C516083F800C02EE0C90739D0416820
:102FC000490636D543F29451C2F201010A68CB6832
:102FD00093422ED2026812052CD490F80CC04B6894
:102FE000B3B35A1C4A6083F800C031E043F29452F4
:102FF000B0F80CC0C2F201021368D16899420BD23A
:1030000053684BB1591C516083F800C051684B1C88
:1030100053604FEA1C220A7043F29451C2F201013C
:10302000CA680132CA608168890642BF01680160CE
:1030300070477047B0F80CC04B684BB15A1C4A60DF
:1030400083F800C04A68531C4B604FEA1C2313707E
:10305000CA680B6801329A42CA6006D143F28850AE
:103060000021C2F20100017070470A699A4228BF2C
:10307000704780B5D0F800C0D1F808E05FEA0C5383
:103080000BD4BEF1000F0FBF0A7E0EF101028A6061
:103090009EF8002002730A6910E0BEF1000F0BD009
:1030A0000EF101038B60734613F802CB8B609EF820
:1030B00001304CEA032300E00B8B8381501C086134
:1030C00080BD43F6EC30C2F201000068426843F272
:1030D0009450C2F2010001680AB101B1704743F295
:1030E00088520023C160C2F2010213707047F0B52C
:1030F00081B00C4601466FF00400002965D0002C19
:1031000063D043F28C50C2F20100007840075AD5D8
:1031100043F28850C2F20100027812B16FF0010050
:1031200053E043F29052C2F201021278013A012AAE
:1031300049D8012343F2945743F600060022037056
:1031400043F6EC30C2F20107C4F20006C2F20100FD
:10315000C7E90042C7E902123A61C0E903223168B7
:1031600001F40061C0E90511FDF78CFA58BB43F684
:10317000EC3006F10C0507F114022346C2F20100FF
:103180002946FDF729FBF0B970684FF4806140F0E3
:103190000100706043F64C40C2F201000161002161
:1031A000C160316801F40061C0E90511FDF76AFAF8
:1031B00048B943F64C40B9682A462346C2F201009A
:1031C000FDF70AFB18B14FF0FF3001B0F0BD706899
:1031D00040F0020070600020F7E743F64C40C2F276
:1031E00001000068426843F29450C2F20100016895
:1031F0000AB101B1704701617047F0B581B0144662
:1032000002466FF00400002A60D000295ED0002C36
:103210005CD043F28C50C2F201000078400753D5D5
:1032200043F28850C2F20100037813B16FF001003D
:103230004CE043F29457012343F60006037043F633
:10324000EC30C2F201070023C4F20006C7E90041D6
:10325000C2F201004FF48061C7E902233B61C0E97B
:103260000331316801F40061C0E90511FDF70AFA84
:1032700050BB43F6EC3006F10C057A682346C2F2E7
:1032800001002946FDF7A8FAF0B970684FF4806193
:1032900040F00100706043F64C40C2F20100016151
:1032A0000021C160316801F40061C0E90511FDF73A
:1032B000E9F948B943F64C40B9682A462346C2F2B8
:1032C0000100FDF789FA18B14FF0FF3001B0F0BDF1
:1032D000706840F0020070600020F7E780B943F6A4
:1032E000C4104FF6FE73C2F20100C0F27F03006803
:1032F000406903EA40001D3008604FF40070108000
:103300000020704700207047002070470020704761
:1033100043F2B470C2F20100007800F001004042B4
:10332000704700002DE9F04F81B0012841D00028FE
:1033300041D11C46002B3CD04CF2006043F2B97BDB
:1033400015468A464FEA442900270E46CFF6FF70FD
:10335000C2F2010B00EB42281D2D0FD39BF8000099
:1033600001280DD143F6C41031464A46C2F201008D
:103370000068D0F834314046984717E01A2D05D937
:1033800050464FF40071FCF7A3FF0FE040F28011AC
:103390007819C2F2010101EB4020002142580431AA
:1033A00089B246F8042BB1F5007FF7D30137A74265
:1033B000D2D1002000E0022001B0BDE8F08F000073
:1033C000F0B581B0012800F08F8028B943F6BC1019
:1033D000C2F20100007808B1022086E01E461446C1
:1033E0000D461D2A15D344F2A200C2F20100018845
:1033F000D9B143F6C010C2F201000068C21700EB59
:10340000D2501D2202EB6020A0420ED140F27C1768
:103410000EE00F2C15D1E86B411C17D0D8B343F642
:10342000C011C2F20101086018E040F27C1771027D
:10343000C2F201073A682846FCF7B8FF386000205E
:103440002DE0A4F110000D2825D231E0E86F43F6FD
:10345000C011C2F20101002808601CD043F6C4115B
:10346000C2F2010109684969B0EB812FB4D8C117D4
:1034700040F2FF1200EBD1519143401A44F2A201F5
:10348000C2F201010880000405D044F2A00001212D
:10349000C2F20100017040F28010C2F2010071021C
:1034A00000EB44208AB2294600F0BCFD01281ED062
:1034B00043F6C010C2F201000068012814DB44F298
:1034C000A001C2F20101097801EB50201C30A0429A
:1034D0000AD143F2BA700121C2F20100017043F235
:1034E000B470C2F201000170002001B0F0BD02A072
:1034F00040F2A31100F07CFE2E2E2F5372632F7525
:103500007362645F73746F726167652E630000009D
:10351000B0B543F28C550C46C2F2010529788907F3
:1035200002D44FF0FF302FE043F28851C2F2010184
:10353000097811B16FF0010026E043F29051FF22AB
:10354000C2F20101C0F21802096811400122C0F262
:1035500008029142E5D140F218414FF08052C4F286
:1035600002010A602146FFF7C2FD68B943F2945197
:10357000C2F20101C868A04201D1002004E000208D
:1035800000BFCA68A242FBD1297889071BD543F244
:103590008851C2F201010978A9B943F29051FF2282
:1035A000C2F20101C0F21802096811400122C0F202
:1035B0000802914218BFB0BD40F218414FF480524A
:1035C000C4F202010A60B0BD80B582B00DF10700FF
:1035D000FEF7F2FF18B99DF80700800716D4062001
:1035E00001218DF807000DF10700FFF791FF70B979
:1035F00000208DF807000DF10700FEF7DDFF30B960
:103600009DF80700C0F34000013800E0002002B040
:1036100080BD44F2A400C2F20100016801310160E2
:1036200070474EF608504FF0000CCEF20000D0F874
:10363000801041F47001C0F8801043F60001C4F21C
:1036400002010A6842F001020A60C1F808C04FF6A0
:10365000FF720B68CFF6F6621A400A6043F210025E
:10366000C2F200424A600A6822F480220A60C1F86D
:103670000CC04FF0006101607047000080B504A0ED
:1036800000F068F843F2B450C2F2010080BD00BF00
:103690004D534320436F6E66696700001220088017
:1036A00040F24C00C2F201007047000080B504A057
:1036B00000F050F843F2B450C2F2010080BD00BFE8
:1036C0004D534320496E7465726661636500000066
:1036D0000420088040F26000C2F201007047000040
:1036E00080B504A000F036F843F2B450C2F20100F5
:1036F00080BD00BF53544D6963726F656C65637420
:10370000726F6E696373000080B504A000F022F848
:1037100043F2B450C2F2010080BD00BF53544D3398
:1037200032204D6173732053746F726167650000BE
:1037300080B504A000F00EF843F2B450C2F20100CC
:1037400080BD00BF3030303030303030303031412B
:103750000000000080B568B302786AB100F1010C86
:10376000002200BF1CF8013B0132002BFAD1D2B27B
:10377000022303EB420200E0022243F2B45E032381
:103780000A80C2F2010E8EF801308EF80020027815
:1037900082B1013002234FF0000C00BFD9B20233D6
:1037A0000EF8012041F001010EF801C010F8012BC4
:1037B000002AF3D180BD000010B5D0F8204201F0FE
:1037C0007F0C08064FEAD111CCEBCC0204EB82024D
:1037D00002F1380358BF02F5FC73597083F800C03A
:1037E00094F8B803012801D110216AE0012040F6C5
:1037F0003F53002984F8B803C0F20303D4F800E073
:103800000EEB4C1031D0D0F8001900F5106221F405
:103810000041C0F800194FF00061C0F800194FF0E6
:103820008041C0F800194FF0FF3100BF01319942CB
:1038300044D890684000F9D44FF484604FF0FF31D1
:10384000CEF810000131994203D8DEF8100080064E
:10385000F8D40120002100FA0CF0CFF6FF7161EAE4
:103860000000DEF81C18084026E0D0F8001B00F528
:10387000306221F40041C0F8001B4FF00061C0F835
:10388000001B4FF08041C0F8001B4FF0FF3100BF1C
:103890000131994212D89068C006F9D4DEF80408C4
:1038A00040F48060CEF804084FF48030DEF81C1835
:1038B00000FA0CF021EA0000CEF81C08002184F880
:1038C000B81340F20020C0F20120C840C0B210BDC1
:1038D000D0F820C29CF8B823012A01D1102126E09B
:1038E00001220B068CF8B82340F63F53DCF8002089
:1038F000C0F203030BD410204FF0FF31106100BF62
:103900000131994210D81069C006F9D40CE020208A
:1039100061F38C104FF0FF31106100BF013199420B
:1039200002D810698006F9D400218CF8B81340F24F
:103930000020C0F20120C840C0B2704770B501F04D
:103940007F06D0F820C20D064FEAD11EC6EBC60492
:103950000CEB840000F1380458BF00F5FC74002023
:10396000A36084F801E02670E270B0EBD11F18BFAD
:10397000E680022A04BF002020719CF8B8030128C9
:1039800001D110203DE00120BEF1000F8CF8B803FA
:1039900000FA06F1DCF8004019D0D4F81C0889B20E
:1039A00008437101C4F81C0804F510646058000451
:1039B00024D46FF3DF23085943EA8653184340EABF
:1039C000824040F0805040F40040085116E0D4F8A6
:1039D0001C0840EA014004F53061C4F81C0870017D
:1039E0000E5836040AD446586FF3DF23334343EAB4
:1039F000824242F0805242F40042425000208CF851
:103A0000B80340F20021C0F2012121FA00F0C0B257
:103A100070BD80B501F07F0CD0F820E20021CCEB26
:103A2000CC000EEB8000C0E98331C0F8042280F89E
:103A3000F91180F8F8C100F5FC71DEF81030012BA7
:103A400008BFC0F80822DAB2DEF80000BCF1000FAF
:103A500003D0BDE8804000F0E9B9BDE8804000F047
:103A600067B980B5D0F820E2C1EBC10201F07F0C4C
:103A700008060EEB8203CCEBCC020EEB820202F1C5
:103A8000380258BF03F5FC72CB090121537082F84C
:103A900000C091709EF8B803012808BF80BD8EF861
:103AA000B813002BDEF8001001EB4C1007BF00F537
:103AB0003063D0F8000B00F51063D0F8000900283F
:103AC00003DB186820F0804018601868BCF1000F14
:103AD00040F40010186020D100229EF81000C1F8B8
:103AE000102BD1F8102B012842F40022C1F8102B22
:103AF000D1F8102B42F01802C1F8102BD1F8102B7E
:103B000042F0C042C1F8102B07D10EF56F70C1F81A
:103B1000140B4FF08020C1F8000B00208EF8B80382
:103B200080BD10B501F07F0CD0F820020024CCEB52
:103B3000CC0100EB810E714601F838CFC1E90534A4
:103B40000123CA604B700369012B08BFCEF84820DF
:103B5000DAB20068BCF1000F03D0BDE8104000F0FD
:103B600065B9BDE8104000F0E3B880B5FDF79FF8F7
:103B7000002080BD80B5FDF7BCF8002080BDB0B549
:103B800001210446FFF718FE20468121FFF714FEAD
:103B9000D4F8180200250028057203D002F09CF921
:103BA000C4F818520020B0BD0A21018040F2DC00A8
:103BB000C2F2010070472021018040F29C00C2F255
:103BC000010070472021018040F2BC00C2F20100D8
:103BD00070472021018040F2E800C2F201007047E6
:103BE00010B50446007C50B120460121022240233A
:103BF000FFF7A4FE20468121022240230BE020464D
:103C0000012102224FF40073FFF798FE2046812124
:103C100002224FF40073FFF791FE4FF41B7002F085
:103C200083F90028C4F8180204D02046FDF7DEF816
:103C3000002010BD012010BD70B50446D0F81862F8
:103C400008780D4610F0600117D020296DD16978F1
:103C5000FF2927D0FE2927D1698829BB000623D553
:103C6000E888012820D1D4F81C02806980473060A0
:103C700001200025002132460AE0687801281DD085
:103C80000B282BD00A2850D10120321D00250021FD
:103C9000C4E906000220C4F8F40120460123FFF71E
:103CA00040FF43E06988E1B120468021FFF7D9FE5B
:103CB00020460021FFF7D5FE022537E0297920466E
:103CC000FFF706FE29792046FFF776FDA988207CBC
:103CD000090616D4D8B12046012115E0A8787060F5
:103CE00023E00006E0D4E8880028DDD14FF480709E
:103CF00006F5037201211F2330812046FFF789FE5C
:103D000013E038B1204681210222402307E02046FB
:103D1000012101E02046812102224FF40073FFF7C8
:103D20000DFE29792046FCF7AAFF0025284670BD24
:103D3000B0B54B78012B27D191F800C0D1F814E031
:103D400000EB4C14BEF1000F04F51063D4F81049D9
:103D500048D06FF312041C611C696FF3DC441C61D2
:103D60004FF6FF748D68CEF2070404F10054AE459F
:103D700084BF4D61AE4604EA0E041D6945F400257A
:103D80001D611D692C4339E00B784FF6FF74CEF2AC
:103D9000070400EB4310D0F8103B6FF31203C0F898
:103DA000103BD0F8103B6FF3DC43C0F8103B00F53C
:103DB00030604D698B6805B14B610569012A45F496
:103DC0000025056104F1005503EA0503056943EA8E
:103DD0000503036104BFC9684161016841F0044102
:103DE0000160B0BD6FF3DC444FF0000E1C611D6933
:103DF00045F400251D611C696FF312041C61012A42
:103E00001C6844F004441C6002BF08695861B0BDDE
:103E1000BEF1000F08BFB0BD0121D0F8342801FA6F
:103E20000CF11143C0F83418B0BD0000B0B54B78A8
:103E3000012B32D191F800C0D1F814E000EB4C1402
:103E4000BEF1000F04F51063D4F810494FD06FF3A2
:103E500012041C611C696FF3DC441C618C680EEB5E
:103E60000405013DB5FBF4F40025C1F6F87505EA3B
:103E7000C4441D692C4375461C616FF3DF451C6902
:103E80002C431C61CC78012C3CD11C6924F0C0442B
:103E90001C611C6944F0005433E00B7800EB4313C1
:103EA000D3F8105B6FF31205C3F8105BD3F8105B07
:103EB0006FF3DC45C3F8105B03F530634C69D1F850
:103EC00008C0002C52D004EB0C050024013DC1F6C3
:103ED000F874B5FBFCF504EAC54E1C69ADB244EAC2
:103EE0000E041C6105FB0CF46FF3DF4446E06FF336
:103EF000DC441C611C6944F400241C611C696FF3E0
:103F000012041C61012A03D10C695C61CC7805E0C4
:103F1000CC78BEF1000F18BF012C46D1012C4CD13A
:103F2000D0F80848E4054FF0805458BF4FF00054D3
:103F30001D68002A44EA05041C601C6844F004441F
:103F40001C6012D10322002312FA8EF2B3EB920FFF
:103F500008BFB0BDC96892084FEA0C3300F5805025
:103F600051F8045B013A1D50FAD1B0BD1D696FF3E1
:103F7000DF4C4FF4002445EA0C051D611D69012A40
:103F800045EA04051D6104BFCA685A61C978012960
:103F900013D1D0F80808C0054FF0805058BF4FF03B
:103FA000005019680843186007E00121D0F8342850
:103FB00001FA0CF11143C0F83418186840F00440BD
:103FC0001860B0BDB0B582B004460020019043F641
:103FD000C410C2F201000068C56915F0C00F07D116
:103FE0004FF6A510C0F6000001F0D4FF45F04005E3
:103FF000280648BFFFF7E8FA680610D550200121CF
:1040000001258DF8040001A8FFF782FA38B901A84C
:1040100002218DF805408DF80450FFF779FA02B0BF
:10402000B0BD00002DE9F04182B0064614460D46B1
:10403000000507D140F61440C4F20200016881F483
:104040000051016044F2A200C2F20100008850B1A8
:1040500043F6C011A6F56852C2F201010968091AB7
:104060008A4208BF044643F6C4174FF46852C2F2AE
:1040700001073868416902EB8121B14231D9D0F89A
:104080002C0110B18047002867D1A6F5685635A0ED
:104090002246314601F0CEFC3968C86910F4E05F71
:1040A0004CD0B7218DF80510410536D4010531D427
:1040B000C00442D543F2B878C2F2010898F8000073
:1040C000C0BBC520ADF80600FFF77EFA0DF1060073
:1040D0000221FFF71DFA68B32BA035A101F0AAFC5D
:1040E00021E040F280110120C2F2010101F550529D
:1040F000964233D88E4231D3304629462246FCF7C9
:104100009DF840F614404FF00051C4F202004160A7
:10411000002023E0FFF758FA28B90DF1050001212E
:10412000FFF7F6F948B14FF2EC50C0F6000001F08D
:1041300031FF12E0012088F800003968D1F83031F1
:1041400030462946224698470146B0F1FF3F01DD3F
:1041500019B9D6E71FA001F06DFCFF2040B202B0F4
:10416000BDE8F0810A2070645F61646472202D3EB6
:1041700020307825303578202020636E74202D3E45
:1041800020307825303378002573203A6661696CD9
:10419000656420647572696E6720636F6D6D616E12
:1041A0006420657865637574696F6E0A00000000AD
:1041B0007370695F77726974655F657874656E6442
:1041C00065645F616464726573735F726567697368
:1041D000746572000A2050726F6772616D44617479
:1041E00061206572726F72202D3E202564000000F0
:1041F0000A46014610A001F01DFC43F2BA700121ED
:10420000C2F20100017043F6BC10C2F2010001705D
:1042100040F6144044F2A401C4F20200C2F20101CB
:10422000026882F4804202600A6800BF0B689B1A31
:10423000652BFBD3F4E700BF0A0D204552524F52C5
:10424000202D3E20257320256400000040F200024E
:10425000C2F2010291421CBF4FF0FF30704740F69E
:104260000061CEF20001D1F88020D2071CBF09689E
:104270005FEAC17100D170474FF060410A68002ABF
:10428000FCD04FF06041087070470000F0B5ADF50C
:10429000017D01A84FF48071FF22FCF712F843F66C
:1042A000C417C2F2010738684169890217D0002497
:1042B00041AD01AED0F83431204629464FF480722A
:1042C0009847284631464FF48072FBF779FF38B99A
:1042D000386804F580644169B4EB812FEAD300208B
:1042E0000DF5017DF0BD000088B043F6000B4EF6E1
:1042F0000C5A40F200364FF6FF05C4F2020BCEF224
:10430000000AC0F2FA56DBF8000440F40070CBF863
:104310000004DBF8000440F48060CBF80004DBF814
:10432000000440F48070CBF80004DAF80000284064
:104330003043CAF80000FCF7EDFBDAF8000006F5A0
:10434000806147F20008C4F2000828400843CAF818
:104350000000DAF8000000208AF80C00DAF80010FB
:104360008AF80D00DAF800108AF80E00DAF800106A
:104370008AF81300DAF800108AF81400DAF800104E
:104380008AF81600DAF800108AF817000290DBF8B5
:10439000401041F08051CBF84010DBF8401001F0A4
:1043A0008051029102990290D8F8000040F48040B8
:1043B000C8F80000D8F8000000F48040029002988D
:1043C000DBF8080000F00C00042802D1DBF8000044
:1043D0001DE0DBF8080000F00C00082803D1DBF832
:1043E00004004002F2D4DBF8000040F48030CBF847
:1043F000000044F2A400C2F201000168DBF80020D2
:10440000920304D40268521A642AF7D92AE0DBF82E
:10441000080000F00C00082824D0602044F2A40713
:104420000021C4F24720C2F201070160396800BFD1
:10443000DBF80020920104D53A68521A022AF7D913
:1044400010E045F20841C0F24071CBF804100121A0
:1044500001603868DBF8001089010BD43968091A4B
:104460000329F7D34FF68F104FF49071C0F6000078
:10447000FFF7BEFEDBF8000400F00F00042808D8A8
:1044800005208BF80004DBF8000400F00F0005287D
:104490002AD1DBF8080040F4E050CBF80800DBF844
:1044A000080040F46040CBF80800DBF8080020F07A
:1044B000F000CBF80800DBF80000800114D5DBF831
:1044C0000800022161F3010041F28831CBF80800B5
:1044D000386800BFDBF8082002F00C02082A0BD075
:1044E0003A68121A8A42F5D94FF68F104FF4977135
:1044F000C0F60000FFF77CFEDBF8000400F00E00C1
:10450000062808D305208BF80004DBF8000400F02F
:104510000F000528E8D1DBF80800052161F38C20A5
:104520000421CBF80800DBF8080061F34F30CBF82A
:104530000800DBF8080000F00C0142F20040C0F275
:10454000F400082906D0042926D141F20020C0F247
:104550007A0021E0DBF80410DBF8043001F03F02C0
:10456000DBF804105B02C1F3881105D4A1FB000144
:104570000023FBF732FE06E041F20020C0F27A0091
:104580004843B0FBF2F0DBF804100222C1F3014112
:1045900002EB4101B0FBF1F0DBF808100FF6F80276
:1045A0004FF0FF34C1F30311515CC84040F24801A1
:1045B000C2F20101086044F6D351C1F26201A0FBCE
:1045C000010104EB9115FCF7A5FA4EF21009002643
:1045D000CEF20009B6EB156F09D1F020C9F80450EE
:1045E0008AF817000720C9F80860C9F80000D9F850
:1045F000000040F00400C9F80000DAF80000C0F341
:104600000220C11E80F0070038BF0021042828BF07
:10461000042004FA00F0012424EA0000884000018C
:104620008AF817000120FBF789FE0020FBF786FEC1
:1046300002200225FBF782FE0320FBF77FFE029695
:1046400002A9DBF8300040F00100CBF83000DBF8C5
:10465000300000F0010002900298CDE90465CDE938
:10466000024608F5C8300190FCF786F90FF63800CD
:1046700001F0E0F90FF63800742101F0DBF9386839
:104680003968091AB1F5FA7FFAD943F2845543F231
:104690008C5440F21008C2F20105C2F20104C4F2C7
:1046A0000208286820F001002860286820F0020035
:1046B00028602068C10740F09D8143F288500026A1
:1046C0001C21C2F20100067043F29450C2F20100B4
:1046D000FBF7FEFD07960DF1080A4FF005090224CD
:1046E00008F57C75DBF83000514640F00200CBF84D
:1046F0003000DBF8300000F0020007900798CDF89A
:1047000018900594CDE903464FF4005002902846D6
:10471000FCF732F907965146DBF8300040F0020012
:10472000CBF83000DBF8300000F00200079007986B
:10473000CDE90549CDE903464FF4004002902846F3
:10474000FCF71AF907965146DBF8300040F00200FA
:10475000CBF83000DBF8300000F00200079007983B
:10476000CDE905494EF21009CDE903464FF48040EA
:10477000CEF2000902902846FCF7FEF843F6EC352D
:104780005421C2F2010505F10C00FBF7A1FD43F233
:10479000C30046F2580AEE645421C0F60000C4F289
:1047A000020AC5E90E600320C5E91066C5E907667F
:1047B000C5E90960C5E90B66C5E900A6AE6043F628
:1047C0004C45C2F2010505F10C00FBF781FD43F2F7
:1047D000DB10EE640AF1180143F28C54C0F60000BD
:1047E000C2F20104C5E90E600320C5E91066C5E9FF
:1047F00007666E62C5E90A0640202E63C5E9001609
:1048000043F28051A860079643F28455C2F2010139
:10481000DBF83000C2F2010540F40010CBF83000A4
:10482000DBF8300000F400100790079801202060AA
:10483000087043F29451002240F00200C2F20101DC
:1048400020600A8343F28851C2F201010A70029289
:10485000DBF8400040F48040CBF84000DBF840003B
:1048600000F48040029002981020C9F87402C9F840
:10487000F4004FF48040C9F87002C9F8F0004FF41A
:104880000040C9F87002C9F8F000DBF8200040F4DD
:104890008040CBF8200000BF00BF00BF00BFDBF8A6
:1048A000200020F48040CBF8200048F2010040F2C4
:1048B0006861C0F20800C0F20A01FEF76DF9002835
:1048C00040F0A180286820F00100286043F2805069
:1048D000C2F20100017841F002010170286820F065
:1048E00002002860032007900798411E00280791C6
:1048F0000ED064259F20FDF7F7FD02950298411E1A
:1049000000280291FAD10798411E00280791F1D1A1
:1049100044F29C05C2F201052978FF2940F0868007
:1049200044F29E094FF6FF71C2F20109B9F8000086
:10493000884201D0FF281AD10121079107994A1E08
:104940000029079213D064269020FDF765FD02969A
:104950000298411E00280291FAD10798411E0028B2
:104960000791F1D12978FF2960D1B9F8000028B169
:104970004FF6FF71884201D0FF281AD1012107911B
:1049800007994A1E0029079213D06426AB20FDF731
:1049900043FD02960298411E00280291FAD1079821
:1049A000411E00280791F1D12978FF293ED1B9F89D
:1049B000000028B14FF6FF71884201D0FF2834D1A2
:1049C0000121079107994A1E0029079225D06426E4
:1049D0001520FDF789FD02960298411E00280291DC
:1049E000FAD10798411E00280791F1D1B9F80000CB
:1049F000297813E043F2805200294FF00103C2F2FC
:104A00000102137005D143F6C410C2F2010005681B
:104A100034E081077FF50DAF47E7FF21FF2905D17E
:104A20004FF6FF72904217D000E0FF2144F29E0043
:104A300045F6E475C2F20100C0F60005008800BF2B
:104A4000EA688A4202D12A6982420BD0D5F848210D
:104A500005F5A475002AF3D10FF26C4001F09AFA23
:104A6000002506E0D5E900126B690FF2744000F0F2
:104A7000E1FF43F6C410C2F201000560002D00F012
:104A8000D98140F600454FF08050C4F20205A8617C
:104A9000386800BF3968091AB1F57A7FFAD9012060
:104AA00014230022D6B2C1B2B1EB560F16D91E069E
:104AB00002D0013B06E000BF6B69013283F48053F2
:104AC0006B6114233E6800BF3C68A41B0A2CFBD317
:104AD000D8F80060F607E5D015E000BF3B2200BF24
:104AE000D8F80030DB0711D13B6800BF3E68F61AEA
:104AF0000A2EFBD3531E12061A46F1D101300429A7
:104B000088BF0120CCE74FF08050A8610FF204402D
:104B100050F821004FF47A7141431020FEF73CF821
:104B2000002840F0878143F6C4191D2240F2281660
:104B3000C2F20109C2F20106D9F80000017D02EBC0
:104B4000410140F22C12C2F2010282F820104169A8
:104B5000C90982F821104169C1F3C63182F82210D7
:104B6000282100BF3268531E002A336004D16A69CD
:104B700082F480526A6131603A6800BF3B689B1AD8
:104B80000B2BFBD3D8F80020D207EBD04FF080518D
:104B90000028A96100F06381A96138683968091AA1
:104BA000B1F5FA7FFAD943F2B9700124C2F20100DB
:104BB0000470FDF71FFB002840F058814FF0000AF9
:104BC0004FF48031CDF808A0DBF8300040F004004D
:104BD000CBF83000DBF8300000F0040002900298BF
:104BE000CDF808A0DBF8300040F08000CBF83000B2
:104BF000DBF8300000F0800002900298CDF808A0A9
:104C0000DBF8300040F00100CBF83000DBF830007A
:104C100000F0010002900298CDF808A0DBF8300007
:104C200040F00200CBF83000DBF8300000F002006A
:104C300002900298CDF808A0DBF8300040F00800A0
:104C4000CBF83000DBF830004FF0010B00F008002B
:104C5000029002984FF61840CFF6FF7029504FF09F
:104C60007040A861CDE904AACDE9024402AC08F580
:104C7000FE602146FBF780FE0020CDF810A0214603
:104C8000C1F21200CDE902B00198FBF775FE0420D5
:104C9000CDE903AA2146029008F57C70FBF76CFE73
:104CA0004FF47040CDF814A0CDE903BA214602902C
:104CB0002846FBF761FE2020CDE903AA2146029099
:104CC0002846FBF759FEFCF70FF9282031684A1EE9
:104CD0000029326004D1696981F4805169613060D2
:104CE000396800BF3A68521A0B2AFBD3D8F8001073
:104CF000C907EBD04FF080500024A86143F2B9708F
:104D0000C2F201000470FCF7ADF8D9F8001001F10F
:104D10002C0000BF50F8042C012A01D102681AB1FE
:104D200001342C30062CF5D32C2004FB0010D1F8D4
:104D3000381190F84C008847002840F09E80386871
:104D40003968091A6529FBD3FDF754FA002840F0A9
:104D50009B80FCF7C9F843F2BA70C2F2010000BFB1
:104D600001780029FCD038683968091A0B29FBD36F
:104D7000FCF778F843F6C01AC2F2010ADAF800002C
:104D8000B0F5007F5DDDD9F800104969B0EB812FE7
:104D900057D8002102910791029981422BD243F208
:104DA000BC7440F278164FF40078C2F20104C2F2EB
:104DB000010600BF0299411AB1F5007F8FBFCDF8FF
:104DC0001C800299401A0790D9F800100298079A9F
:104DD000D1F8343121469847079932682046FBF7CD
:104DE000E5FA30600798029908440290DAF800006A
:104DF00002998142DED340F27C1040F27811C2F277
:104E00000100C2F2010100680968884220D143F61E
:104E1000BC10C2F201000078D0B900BF686980F40C
:104E200080506861386800BF3968091AB1F5FA7FA7
:104E3000FAD9F3E74FF68F10BC21C0F60000FFF758
:104E4000D7F94FF68F10F721C0F60000FFF7D0F921
:104E50004FF68F10EE21C0F60000FFF7C9F94FF6AC
:104E60008F10FE21C0F60000FFF7C2F94FF68F1039
:104E7000C321C0F60000FFF7BBF94FF68F10D32116
:104E8000C0F60000FFF7B4F94FF68F10D621C0F638
:104E90000000FFF7ADF900BF0000000000000000B7
:104EA00001020304060708091B5B324A00000000E8
:104EB00020496E206261736520256420666C6173F1
:104EC0006863686970730A000A20466C6173682021
:104ED0006E6F7420737570706F727465640A000071
:104EE0000A2056656E646F72202D2025730A2043B8
:104EF0006869702020202D2025730A2053697A6567
:104F00002020202D202564204B62797465730A0AC5
:104F10000A0000000000000021050000410A000016
:104F20008214000004290000085200002DE9F04717
:104F300082B00D4601466FF00400002D00F0D280D3
:104F4000144643F6C412C2F2010212685269920278
:104F50008A42C0F0C78040F6144A8804C4F2020AAC
:104F600005D1DAF8000080F40050CAF800000320F0
:104F700043F28C578DF803108DF80000080AC2F236
:104F800001078DF80200080C8DF8010038788007C1
:104F900040F1848043F28856C2F20106307810B1A5
:104FA0006FF001007CE043F29059FF21C2F2010949
:104FB000C0F21801D9F8000008400121C0F2080130
:104FC00088426BD140F218404FF08051C4F2020089
:104FD000016068460421FEF78AF8002860D143F298
:104FE0009458C2F2010800E000BFD8F80C00042871
:104FF000FAD1002C79D0387840074FD53078002886
:10500000CED199F800000138012847D801200021AD
:105010004FF48062307043F6EC30C8E9004543F647
:105020000005C8E90211C8F81010C2F20100C4F26C
:105030000005C0E90312296801F40061C0E9051107
:10504000FBF720FB50BB43F6EC3005F10C09D8F818
:1050500004202346C2F201004946FBF7BDFBE8B934
:105060006868002140F00100686043F64C40C2F2DD
:105070000100C0E90311296801F40061C0E90511CC
:10508000FBF700FB50B943F64C4008F118014A46C3
:105090002346C2F20100FBF79FFB48B34FF0FF30FD
:1050A000397889071AD543F28851C2F2010109788B
:1050B000A1B943F29051FF22C2F20101C0F21802DD
:1050C000096811400122C0F20802914206D140F263
:1050D00018414FF48052C4F202010A604FF00051AF
:1050E000CAF8041002B0BDE8F0876FF00400D7E7FB
:1050F000686840F00200686000E000BFD8F80C006B
:10510000A042FAD12046CBE72DE9F04F81B06FF0F5
:105110000404002900F0CA8043F6C4190746C2F20D
:105120000109D9F8000040698002B842C0F0BE8091
:10513000884660A03946154600F07CFC0024002D0E
:1051400000F0B48043F28C5B43F2945A6E46C2F294
:10515000010BC2F2010AD9F80000007F10F0A00F85
:1051600004D0FEF731FA002840F09F809BF8000041
:10517000800776D543F28850C2F2010000780028FB
:1051800072D143F29050FF21C2F20100C0F2180127
:10519000006808400121C0F20801884261D140F254
:1051A00018404FF08051C4F202000160380A8DF8B7
:1051B000037004218DF80200380C8DF801000220E4
:1051C0008DF800003046FDF792FF10B14EE000BFB1
:1051D00000BFDAF80C000428FAD108EB0400012122
:1051E000FDF785FF08B141E000BFDAF80C000128A7
:1051F000FAD19BF80000013D0134013780071BD52F
:1052000043F28850C2F201000078A8B943F29050EE
:10521000FF21C2F20100C0F218010068084001211C
:10522000C0F20801884207D140F218404FF4805183
:10523000C4F20200016000BF3046FDF7BDF9A0BB1B
:105240009DF80000C007F7D143F28450002DC2F250
:1052500001000146006820F0010008607FF47BAF88
:1052600024E04FF0FF3001E06FF001009BF80010E8
:1052700089071AD543F28851C2F201010978A1B910
:1052800043F29051FF22C2F20101C0F218020968F4
:1052900011400122C0F20802914206D140F21842A8
:1052A0004FF48051C4F2020211600446204601B05E
:1052B000BDE8F08F0A2061646472202D3E203078B2
:1052C00025303578202020636E74202D3E203078E4
:1052D00025303378000000002DE9F04F83B06FF0E7
:1052E0000404002900F0D080074643F6C410884625
:1052F000C2F20100006841698902B942C0F0C4806D
:105300009146002A00F0988040F2010AFF2543F2FE
:10531000945B008B002402AEC0F2080AC0F21805AC
:10532000C2F2010B0190FEF74FF9002840F0AB806C
:1053300043F28C50C2F201000078800740F17E8079
:1053400043F28850C2F201000078002879D143F27C
:105350009050C2F201000068284050456ED140F2E2
:1053600018404FF08051C4F202000160380A8DF8F5
:105370000B7004218DF80A00380C8DF8090002200A
:105380008DF808003046FDF7B2FE10B15FE000BFB7
:1053900000BFDBF80C000428FAD1019A08EB0400E6
:1053A000B7FBF2F15143C91B55184D4588BF4D4617
:1053B0002946FDF79CFE10B146E000BF00BFDBF8B8
:1053C0000C00A842FAD143F28C50A9EB05092C44F9
:1053D0002F44FF25C2F20100C0F2180500788007B3
:1053E00014D543F28850C2F20100007870B943F23C
:1053F0009050C2F2010000682840504506D140F2AA
:1054000018404FF48051C4F2020001603046FDF7AD
:10541000D3F8C0BB9DF80800C007F7D143F2845011
:10542000B9F1000FC2F201000146006820F001004E
:1054300008607FF478AF27E0002425E04FF0FF30CC
:1054400005E06FF0010002E0FF25C0F2180543F20D
:105450008C51C2F201010978890714D543F28851B1
:10546000C2F20101097871B943F29051C2F201010F
:1054700009682940514506D140F218424FF4805145
:10548000C4F2020211600446204603B0BDE8F08F6A
:105490002DE9F04F87B06FF00407002900F0CC80B1
:1054A000064643F6C410C2F201000068406980025B
:1054B000B042C0F0C180002A00F0A98040F201088B
:1054C000FF2443F28C5543F2905943F2945A012041
:1054D0004FF0000B0DF1130703920191C0F2080881
:1054E000C0F21804C2F20105C2F20109C2F2010AB7
:1054F000C007029004D0FEF767F8002840F08580CE
:105500002878800740F1BB8043F28850C2F2010046
:105510000078002840F0A480D9F8000020404045E1
:1055200040F0A18040F218404FF08051A94601257B
:10553000C4F202000160300A8DF816608DF8150083
:10554000300C8DF81400AF208DF81300029800285D
:1055500018BF042538462946FDF7C9FD08B154E0B7
:1055600000BFDAF80C00A842FAD101980121584492
:10557000FDF7BDFD08B148E000BFDAF80C000128D6
:10558000FAD16420069000BF0698411E00280691BB
:10559000FAD103984D460BF1010B0138039099F8AD
:1055A000000043F29059C2F20109800712D543F27C
:1055B0008850C2F20100007860B9D9F8000020409C
:1055C000404507D140F218404FF48051C4F2020028
:1055D000016000BF3846FCF7EFFFB0B99DF813003B
:1055E000C007F7D143F28450C2F2010001460068BF
:1055F00020F0010008600298002818BF00260399D7
:10560000002000297FF474AF03E0834601E04FF0EF
:10561000000B042001218DF817000DF11700FDF794
:1056200077FF38B900208DF817000DF11700FCF74F
:10563000C3FF28B14FF0FF37384607B0BDE8F08F01
:105640009DF817004FF0FF378007F5D40DF11300D8
:10565000FCF7B2FF9DF81300400658BF5F46EBE72A
:105660006FF0010BD5E7D9F800002040404506D186
:1056700040F218414FF48050C4F2020108604FF02C
:10568000FF3BC6E73C2000210022FF2300F030B89A
:105690000C2080210022FF2300F02AB80420802162
:1056A0000022FF2300F024B8042080211022FF23D1
:1056B00000F01EB86C2080210022FF2300F018B8F3
:1056C0007C2080210022FF2300F012B80C208021D2
:1056D0001022002300F00CB81C2080210022FF23A0
:1056E00000F006B83C2080210022FF23AFF30080A9
:1056F0002DE9F04182B004460DF1070098461746A7
:105700000E46FCF759FFC0B210B102B0BDE8F081FF
:105710009DF8075025425ED030A000F08BF935424D
:105720002DD03AA000F086F957B115EA070007D14D
:105730004FF2A350C0F6000000F02CFC0120E4E77B
:1057400025EA0600FEF73EFC0746000604D03BA013
:1057500000F020FCF8B2D8E70DF10700FCF72CFFB1
:10576000C0B20028D1D19DF80750354204D04FF285
:105770006750C0F60000DFE739A000F00BFC46EAF6
:10578000040028EA00002840FEF71CFC054600063D
:1057900007D04FF28550C0F6000000F0FBFBE8B2E6
:1057A000B3E70DF10700FCF707FFC0B20028ACD14A
:1057B0009DF80700204208D04FF29A40C0F6000042
:1057C00000F0E8FB6FF005009FE74FF25D50C0F678
:1057D000000000F0DFFB002097E700BF536F6D650E
:1057E00020626C6F636B2070726F74656374696F95
:1057F0006E20696E206566666563742C206469732B
:1058000061626C696E672E2E2E2000000A094E65BB
:10581000656420746F2064697361626C65207468CC
:1058200065207265676973746572206C6F636B20A5
:1058300066697273742E2E2E200000007370695FEB
:1058400077726974655F7374617475735F7265678D
:105850006973746572206661696C65642E0000006E
:10586000646F6E652E0000005C2080210022FF2303
:10587000FFF73EBF2DE9F04383B08DF80B001E20EB
:105880000090FEF703FD002852D043F6C415C2F283
:1058900001052868D0F82C1121B18847044600285A
:1058A00062D1286843F28456C2F20106316841F0A1
:1058B00001013160316821F002013160007F10F098
:1058C000A00F33D0FDF780FE0446A0BB0DF10B0006
:1058D0000121FDF71DFE40F6144944F2A4070DF125
:1058E00007054FF00A08C4F20209C2F2010700BF1F
:1058F0002846FCF761FEE8B90098411E0028009197
:1059000007D1D9F8000080F40050C9F80000CDF8A4
:10591000008038683968091A0229FBD39DF807000E
:10592000C007E5D1306820F001003060002402E0BB
:10593000002419E00446FEF7A9FC40B14FF2844070
:10594000C0F6000000F026FB4FF0FF340CE04FF6ED
:10595000D700C0F6000000F01DFB40F614404FF0E9
:105960000051C4F202004160204603B0BDE8F0835C
:105970002DE9F04782B0FEF789FC002846D043F2BB
:10598000845A43F6C418C2F2010AC2F20108DAF8D6
:10599000000040F00100CAF80000DAF8000020F032
:1059A0000200CAF80000D8F80000406980022FD039
:1059B0004FF00009202701AD002600BF300A8DF806
:1059C00007908DF8047004218DF80600300C8DF8D6
:1059D00005002846FDF79CFD2846FCF7EDFD58B96B
:1059E0009DF80400C007F7D1DAF80000002420F089
:1059F0000100CAF8000000E00446D8F8000006F5EF
:105A000080564069B6EB802FD8D301E000240DE02A
:105A1000FEF73CFC002807BF4FF6D700C0F6000099
:105A20004FF28440C0F6000000F0B4FA204602B005
:105A3000BDE8F0870FB4054B10B503A9044A0298DE
:105A400000F018F810BC5DF814FB00004D4200088F
:105A50000000012002E008C8121F08C1002AFAD184
:105A600070477047002001E001C1121F002AFBD1DE
:105A7000704700002DE9FF4F8DB00F460546002608
:105A800006E025280BD0DDE90F1290476D1C761C2F
:105A900028780028F5D111B03046BDE8F08F0024F9
:105AA000A246A1460122EC4900E0044315F8013F5B
:105AB000203B02FA03F00842F7D128782A2810D0B8
:105AC0006FF02F022878A0F13001092914D80AEBD1
:105AD0008A0102EB410144F0020400EB010A6D1C53
