:020000042000DA
:10000000C08001209D010020A5010020A701002043
:10001000A9010020AB010020AD010020000000007C
:10002000000000000000000000000000AF01002000
:10003000B101002000000000B30100208D2D002040
:10004000B7010020B7010020B7010020B701002050
:10005000B7010020B7010020B7010020B701002040
:10006000B7010020B7010020B7010020B701002030
:10007000B7010020B70100204704002061040020E0
:10008000B7010020B7010020B7010020B701002010
:10009000B7010020B7010020B7010020B701002000
:1000A000B7010020B7010020B7010020B7010020F0
:1000B000B7010020B7010020B7010020B7010020E0
:1000C000B7010020B7010020B7010020B7010020D0
:1000D000C7260020B7010020B7010020B70100208B
:1000E000B7010020B7010020B7010020B7010020B0
:1000F000B7010020B7010020B7010020B7010020A0
:10010000B7010020B7010020B7010020B70100208F
:10011000B7010020B7010020B7010020B70100207F
:10012000B7010020B7010020B7010020B70100206F
:10013000B7010020B7010020B7010020B70100205F
:10014000B7010020B7010020B7010020650E002094
:10015000B7010020B7010020B7010020B70100203F
:10016000B7010020B7010020B7010020B70100202F
:10017000B7010020B7010020B701002000000000F7
:10018000B7010020B7010020DFF80CD000F068F8BC
:1001900000480047953A0020C0800120064880476B
:1001A00006480047FEE7FEE7FEE7FEE7FEE7FEE75C
:1001B000FEE7FEE7FEE7FEE79D2D00208901002017
:1001C00030B504460020034600E05B1C934203D296
:1001D000E05CCD5C401BF8D030BD2DE9F05F0546FA
:1001E000002092469B4688460646814640241BE0F6
:1001F000284641464746224600F053F853465A46A1
:10020000C01A914110D311461846224600F03AF820
:100210002D1A67EB01084F4622460120002100F00D
:1002200031F817EB00094E41201EA4F10104DFDC78
:10023000484631462A464346BDE8F09F40EA01035E
:100240009B0703D009E008C9121F08C0042AFAD28C
:1002500003E011F8013B00F8013B521EF9D2704750
:10026000064C074D06E0E06840F0010394E8070003
:1002700098471034AC42F6D3FFF78AFF788B002002
:10028000988B0020202A04DB203A00FA02F100209B
:1002900070479140C2F1200320FA03F319439040C4
:1002A0007047202A04DB203A21FA02F0002170472F
:1002B00021FA02F3D040C2F12002914008431946CE
:1002C0007047D2B201E000F8012B491EFBD2704703
:1002D0000022F6E710B513460A4604461946FFF712
:1002E000F0FF204610BD70B58C1810F8015B15F0BA
:1002F000070301D110F8013B2A1106D110F8012B98
:1003000003E010F8016B01F8016B5B1EF9D12B07BC
:1003100005D40023521E0DD401F8013BFAE710F872
:10032000013BCB1A921C03E013F8015B01F8015B5F
:10033000521EF9D5A142D8D3002070BDB0B586B009
:10034000032812D8DFE800F0020202020021019126
:1003500043F63001C4F202010A6842F008020A6062
:10036000096801F00801019101990221049101211C
:10037000CDE9021107A131F8105008A151F8204031
:1003800001A90195204600F0F7FA2804A06106B003
:10039000B0BD00BF0010002000400080000C0240F3
:1003A000000C0240000C0240000C024010B581B06D
:1003B0004FF0000E43F2000CCDF800E0C4F2020C46
:1003C000BEEB910FDCF8303843F48053CCF8303872
:1003D000DCF8303803F480530093009B4FF00103A6
:1003E000CCF8083000BF00BF00BF0ED08B08C3F1AF
:1003F000000E00BF50F8043B1EF1010E83EA020319
:1004000093FAA3F3CCF80030F4D111F0030EDCF82A
:10041000001091FAA1F213D048F2203CCEF6B85C5D
:10042000017882EA010308218CEA5302DC0708BF45
:100430005A0801391346F7D10130BEF1010EEFD150
:10044000D04301B010BD4EF280204FF48041CEF277
:100450000000016043F60040C2F2010000F054B811
:100460004EF280204FF40041CEF20000016043F6CE
:100470006040C2F2010000F047B8000080B544F2CD
:10048000B80ED0F858C0C2F2010EDEF8003090F875
:100490003510022925D101680A6822F016020A6087
:1004A0004A6922F080024A61026C0AB9826C1AB170
:1004B0000A6822F008020A600A6822F001020A6053
:1004C0000A68D20713D0DEF80020D21A052AF7D91D
:1004D00020214165002180F83410032180F8351077
:1004E00080BD002180F834108021416580BDC16D40
:1004F0003F2202FA01F1CCF80810012180F83510F2
:10050000002180F8341080BDF0B581B00446002091
:1005100048F2B5130821009040F26000C1F64E3356
:10052000C2F201000268D4E9166037688140A2FB7C
:10053000032539420CD0226813685B0708D513687D
:1005400023F004031360B160616D41F00101616546
:1005500001218140394208D022685269120604D52F
:10056000B160616D41F00201616504218140394251
:1005700008D022681268920704D5B160616D41F01D
:100580000401616510218140394217D0206802685A
:10059000120713D5B16002680168520306D4C90579
:1005A0005EBF016821F00801016001E0080301D489
:1005B000216C00E0A16C09B120468847E16D202044
:1005C00000FA01F23A423BD020680368DB0637D5D7
:1005D000B26094F835300268052B19D122F016026A
:1005E0000260426922F080024261226C0AB9A26C68
:1005F0001AB1026822F0080202603F208840B06011
:10060000012084F83500002084F83400216D34E0A6
:10061000016852030CD4C9050ED4016821F0100101
:100620000160012084F83500002084F8340003E0E4
:10063000080301D4616C00E0E16B09B120468847F2
:10064000606DE8B1606DC00716D00521A80A84F876
:10065000351021680A6822F001020A60009A01320E
:100660008242009202D80A68D207F7D1012084F8AA
:100670003500002084F83400E16C09B12046884739
:1006800001B0F0BD44F2B8010028C2F201010B68CC
:1006900054D02DE9F041022280F83520002280F864
:1006A00034200268156825F0010515601568ED070E
:1006B00007D00D68ED1A052DF8D903232025032155
:1006C0006EE048F23F031168D0E9015400F10C08D4
:1006D000CFF2100301EA030C98E8C201D0E9073E0B
:1006E00045EA0C0525432943456A31433943042D26
:1006F00041EA080141EA030141EA0E0320D1D0E9B1
:100700000BE143EA0E03BEF1000F41EA0301116061
:100710005169846A21F0030141EA040141F0040CAB
:1007200014D0B8F5005F32D0B8F1000F44D1022CDC
:1007300045D0012C3AD0002C41D007E0012124E023
:100740001360516921F0070141EA050C6FF00F01B8
:1007500040F2FF33C2F814C0002551FA82F19A43E7
:100760004AF6AB23CAF6AA235F2988BF0432826502
:10077000A1FB0313190916A3595C3F23C16503FAB2
:1007800001F10123916000210AE008467047032C23
:10079000DCD8012340250121DFE804F00211020822
:1007A000456580F83530BDE8F041EEE7AEF1C07147
:1007B000B1FA81F1490904E0032C04D3C6D1CEF388
:1007C00000610029C2D0012340250121E8E700BFD4
:1007D000000610160006101610B590F834C0BCF1D3
:1007E000010F4CD04FF0010CD0F858E080F834C025
:1007F00090F835C0BCF1010F3ED14FF0020C80F8EB
:1008000035C04FF0000CC0F854C0D0F800C0DCF880
:10081000004024F48024CCF80040CCF804308368F5
:10082000402B0B4608BF1346CCF8083008BF0A46D9
:10083000CCF80C20C16D3F2202FA01F1CEF808106D
:10084000DCF8001041F01601CCF80010DCF81410B0
:1008500041F08001CCF81410006C28B1DCF80000E5
:1008600040F00800CCF80000DCF8000040F0010087
:10087000CCF80000002010BD002180F834100220C8
:1008800010BD00002DE9F04F41F6004243F600494B
:100890004FF0080C00270024C4F20202C4F2010940
:1008A000904200F13E4208BF4FF0070CA9F57E7A56
:1008B00002F1FF724FEAB223072B4FF0000338BF5B
:1008C0004FEAB22C012202FA04FB1BEA010F4BD0C3
:1008D000032205684FF00F089A409543056007F022
:1008E0001C0508FA05FE6FF0030505EA54050544EA
:1008F0002E6A26EA0E064FEA940E2E6207F00C05C9
:10090000866808FA05F80CFA05F59643866046688D
:1009100026EA0B064660C66826EA0202C2605AF85A
:100920002E2002EA0802AA421ED15AF82E506FEA7F
:100930000B0225EA08054AF82E50D9F80060164047
:10094000C9F80060D9F804601640C9F80460D9F805
:1009500008601640C9F8086043F60C46C4F2010668
:100960003546366832402A60013404370233102C91
:1009700008BFBDE8F08FA5E72DE9F04F82B041F642
:10098000004343F6004B08224FF0010A00264FF0C7
:10099000000CC4F20203C4F2010B984200F13E4382
:1009A00008BF072203F1FF734FEAB327072F4FF069
:1009B000000738BF4FEAB322009200BF0A680AFA64
:1009C0000CF812EA080F00F09A80D1F804E04EF01B
:1009D0001002122A12D106F01C020F2303FA02F4AD
:1009E0006FF0030303EA5C0505442B6AA3430C691B
:1009F00004FA02F21A432A62D1F804E003230468DD
:100A00000EF00302BEF1120F03FA07F302FA07F227
:100A100024EA03046FEA030942EA0402026014D8DC
:100A20000AFA0EF212F0061F0FD08268CB6802EAB3
:100A30000902BB401A438260CEF30012436802FAF7
:100A40000CF223EA08031A434260C2688B6802EA88
:100A50000902BB401A43C2605FEACE024FD50022B2
:100A600006F00C050F24019243F64402AC40C4F298
:100A700002021346126842F480421A601A6802F4B5
:100A8000804201922CF00302019B5A444FF6084326
:100A9000CFF6FF739E46D358A343009C04FA05F596
:100AA0002B4342F80E30DBF800204D6842EA080381
:100AB000EC0358BF22EA0803CBF80030AC03DBF8A4
:100AC000042042EA080358BF22EA0803CBF80430A6
:100AD000EC02DBF8082042EA080358BF22EA0803C8
:100AE00043F60C42CBF80830AD02C4F201021446C2
:100AF000126842EA080358BF22EA080323600CF197
:100B0000010C02370436BCF1100F04BF02B0BDE87F
:100B1000F08F53E740F2600044F6D351C2F2010077
:100B2000C1F262010068A0FB01014FF0FF3000EB51
:100B300091120021B1EB126F18BF70474EF21003F3
:100B40004EF60C5CCEF20003CEF2000C5A60F0229E
:100B50008CF81720996007211960DCF80010C1F3A8
:100B60000221CA1E81F0070138BF0022042928BFD4
:100B700004218840012121EA0000904000018CF806
:100B80001700704790F8B813012901D1022150E0F5
:100B90000121FF2380F8B813D0F800C0DCF808204A
:100BA00022F00102CCF808204FF62062CFF6FF7247
:100BB0000CEB02012032C1F8E83AC1F8E83CF7D169
:100BC00040F63F524FF0FF330021CCF81838CCF8F4
:100BD0001018CCF81418CCF81C181021C0F203021D
:100BE000CCF810100133934203D8DCF81010C9067A
:100BF000F8D44FF484614FF0FF33CCF8101000BFED
:100C00000133934203D8DCF810108906F8D4DCF8DD
:100C1000041841F00201CCF8041844F2B801C2F201
:100C200001010A680B689B1A042BFBD3002180F892
:100C3000B81308467047B0B5D0F81852044695F876
:100C4000180280B12046812102F0C7FA687A022892
:100C500018BFB0BD05F50372204601211F23BDE872
:100C6000B04002F092BAD5F814020028EAD0687AAF
:100C70000028E7D12046012102F0AFFAE2E710B5E3
:100C8000D0F81842627A022A05D1812102F0A5FA31
:100C90000020607210BD49B2B1F1FF3FFADC012AB9
:100CA00008BF10BD0121BDE8104000F0BDB810B56F
:100CB0000446D0F81802017ACA1E022A05D220463C
:100CC0000021BDE8104000F0AFB8022910D190F823
:100CD000191200F21B22204601F074F8B0F1FF3F18
:100CE000C8BF10BD20460121BDE8104000F09CB8EF
:100CF00010BDB0B5D0F818520446287A012834D077
:100D0000E8BBD5E98401C5E98C01D4F82002B0F82C
:100D10002C021F2810D145F25531D5F80C02C4F22F
:100D20004231884208D195F81912012904D895F862
:100D30001A020138102823D395F85D024FF40052AF
:100D400005EBC0010130C1F84022052281F83C22A8
:100D500002216972C1B2043918BF014685F85D12DB
:100D60002046BDE8B040FFF766BF95F8191205F2BE
:100D70001B22204601F026F8B0F1FF3F2ADDB0BD6E
:100D800005F21B22204601F01DF8297AB0F1FF3F41
:100D90001EDD481E0328F2D3688908B3D4F8181260
:100DA000002281F8382204220A72D1F81422D1F8E4
:100DB0003432824238BF10461A1A83B2C1F8342244
:100DC00005F10C0220468121BDE8B04002F065BA71
:100DD0000529C5D120460121BDE8B04000F024B866
:100DE00020460021BDE8B04000F01EB8B0B5D0F8F4
:100DF0001852044600202881A5F85C02D4F81C0291
:100E00000168002088472046012102F01DF9204694
:100E1000812102F019F905F50372204601211F23F3
:100E2000BDE8B04002F0B1B9B0B5D0F818520446F0
:100E300045F255300D23C5F2423085F83812C5F819
:100E40002C02002005F50B7281212872204602F049
:100E500024FA05F50372204601211F23BDE8B040A6
:100E600002F093B92DE9F04F87B043F6C04BC2F2C0
:100E7000010BDBF800E0DEF81400C00740F03C870F
:100E8000DEF81400DEF81810014200F03587DEF8B5
:100E90001400DEF818100840800742BFDEF8140086
:100EA00000F00200CEF81400DEF81400DEF818108E
:100EB000CDF810E008407146000340F16483DEF88D
:100EC0001808DEF81C184FF0000C0840BCEB104F5F
:100ED00007D0000C0BF504764FF430684FF0000A91
:100EE0000CE071464FE300206146C9F8040002207F
:100EF00089F8FC01D9F81402426860E10446C00791
:100F000000F03583DBF8000008EB00018968D0F8B9
:100F1000140800EA0107F80777D00EEB080001215A
:100F20008160DBF81010012909D156E9041200692B
:100F30006FF3DF40081A3060501846F80C0CDBF8ED
:100F4000EC535FEA0A600CD0D5F814028269AAB3A8
:100F500095F8FC01032831D15FFA8AF128469047C1
:100F600028E0D5F8F401032828D1D5E943108142BF
:100F70000DD9091A56F80C2CC5F80C11814238BF4E
:100F8000084683B20021284602F0FFF812E0D5F8A7
:100F90001402016929B195F8FC01032801D1284602
:100FA00088470420002100220023C5F8F4012846C8
:100FB00002F073F9DDF810E04FF0000CDBF80C02E2
:100FC00050EA0A0021D1DBF8100001281DD1DBF81E
:100FD0000000C0F810CBD0F8101B41F40021C0F87D
:100FE000101BD0F8101B41F01801C0F8101BD0F8EE
:100FF000101B41F0C041C0F8101B0BF56F71C0F819
:10100000141B4FF08021C0F8001B380740F1A98263
:1010100005979BF8BC53DBF8EC73CDF808A0A2460B
:101020005C464FF0010987F808529BF8BD3387F8FA
:1010300009329BF8BEC39BF8BFB34CEA0B2EA7F84E
:101040000AE294F8C01394F8C10341EA002205F0C3
:101050001F00A7F80C220228B4F8C243C7E97D9408
:10106000A7F80E42B94607F50277CDF80CA031D0AB
:10107000012801973BD0002852D1DDF808A0092BA8
:1010800000F21381DFE813F00A007C0011018D00EB
:101090001101A700DB001101F200080199F8FC0121
:1010A00000F0FE00022840F0008102204A460021A4
:1010B0000223C9F8F401C9E90600D9F8040200289E
:1010C0004FF0030008BF012042F80C0F484602F021
:1010D000E4F8F2E005F060004FF0000C202827D182
:1010E000D9F8140239468268484690471DE099F8BD
:1010F000FC01059F032838D1DDF808A011F0FE0F90
:1011000040F01A82D9F81402019982684846904743
:10111000B9F80E024FF0000C002840F0178250E0A2
:1011200005F08001484602F058F8DDF808A0C4E058
:10113000002B00F0C6800197059F012B00F0CE80A8
:10114000DDF808A0032B40F0018299F8FC01032888
:1011500040F0CA80BEF1000F2DD141F08000802800
:1011600029D0484602F039F825E04846802102F0AF
:1011700034F84846002102F030F8DDF808A0E3E139
:1011800099F8FC0100F0FE00022840F08E80059FD7
:10119000BEF1010F4FF0000C40F0D881C9F804C235
:1011A00009E0059FBEF1010F4FF0000C40F0CE8129
:1011B0000120C9F80402D9F814020199826848464E
:1011C00090470420002100220023C9F8F40148467A
:1011D00002F063F8B8E142EA0400000465D199F82E
:1011E000FC01059F032800F0A7810CF07F0489F81B
:1011F000FE41D9F8200290F8B81301290FD00168F8
:10120000D1F8002822F4FE62C1F80028D1F80028A5
:1012100042EA0412C1F80028002180F8B813042023
:10122000002100220023C9F8F401484602F035F8F5
:10123000002C14BF0220012089F8FC0184E1ABF1ED
:101240000100062831D8DFE810F00700E300F100C4
:10125000300030001E012A01D9F8101299F8100050
:101260000A680DF11A019047024626E1012C1CD1B3
:1012700099F8FC01059F0021032800F03281022823
:1012800040F05A8102204A46C9F8F4010120C9E918
:10129000060042F8081F2CE143F2C850BCF1020FCF
:1012A000C2F2010080F800C028D34846802101F036
:1012B00094FF4846002101F090FF4FF0000C059F7D
:1012C00044E199F8FC01059F032832D0DDF808A01D
:1012D000022840F0318148060ED137E199F8FC012F
:1012E000DDF808A003284CD0022840F0258141F009
:1012F0008000802800F02A81484623E199F8FC010B
:10130000059F032800F0F980022840F01581BCF108
:10131000000F3FF456AF032089F8FC01C9F804C060
:10132000D9F81402002800F0078102684846614697
:10133000FEE001F07F0011F0800109EB0013C0EB2B
:10134000C00003F1140208BF03F58272D9F82032FD
:1013500000294FF0000103EB800000F13A0308BFC1
:1013600000F5FD7318780223002818BF01201060D3
:101370000220C9E90600C9F8F401484601F08DFFD2
:10138000FBE6BEF1000F40F0E18048063FF419AFE4
:10139000D9F82002C1EBC10201F07F030D064FEA2C
:1013A000D1114FF0000500EB8207C3EBC30200EB45
:1013B000820202F1380258BF07F5FC7251701370B7
:1013C000957090F8B873012F1AD0012700294FEAC1
:1013D000431180F8B87307680CBF07F5306307F551
:1013E00010635F5827F400175F50D27802F0FE02B6
:1013F000022A02BFCA5842F08052CA5080F8B8533D
:10140000D9F814020199826848469047059FD8E6AA
:1014100099F81010D9F8140200290CBF816AC16A2A
:101420000DF11A0088470246022045E0BCF1050F85
:101430003FF63BAFDFE80CF0211B150F0903D9F88D
:10144000101299F810008A690BE7D9F8101299F870
:1014500010004A6905E7D9F8101299F810000A69D6
:10146000FFE6D9F8101299F81000CA68F9E6D9F821
:10147000101299F810008A68F3E6D9F8101299F85A
:1014800010004A68EDE699F8100000287FF40DAFCF
:10149000D9F81402416B0DF11A008847E4E699F877
:1014A000100000287FF401AFD9F81402016B0DF190
:1014B0001A008847024607205070BDF81A00059FA1
:1014C0004FF0000C002841D0B9F80E32F3B3984227
:1014D00038BF03460220ADF81A30C9E906330021AF
:1014E00073E6012009F10402C9E906000220C9F8E7
:1014F000F4014846002101236AE6BCF1000F3FF4E5
:10150000F2ACD9F8040060453FF45BAED9F8141290
:101510004A68C1B24846904743F2C850C2F201003F
:101520000178C9F80410D9F8140228B102684846B5
:10153000904700283FF445AE4846802101F04DFE1B
:101540004846002101F049FE4FF0000CDDF810E0A4
:10155000082143F6C04BC2F2010B0EEB080081607C
:10156000039CF80642BF0EEB08001021816008F1D1
:1015700020081C3660080AF1010ABCEB540F7FF406
:10158000BDACDBF8001048698A691040400340F1A7
:101590006B81D1F81808D1F81C28104080B20028BF
:1015A00000F062810EF5106300254FF0000A0293EF
:1015B0003EE00EF14406039B05F51060D6F800E00E
:1015C00005904FEA0A30019603F5805702E000BF0C
:1015D000D1F800C043F6C043ABEB0406C2F20103EE
:1015E000664588BF66461D7C75B9032313FA86F5E8
:1015F0000023B3EB950F07D0AC08754655F8043BB4
:10160000013CC351FAD114683444059DF31CB6441F
:101610001460AD69ADB2B5EB930F03D9D9F800B042
:10162000A345D5D80198029BC0F800E0FDE000BFBB
:101630008046C00700F00E81DBF80000D0F81018DB
:10164000D0F8342800EB4A10D0F8080922FA0AF240
:10165000D201D2B2114301EA00095FEAC97000F079
:10166000A4800122DEF8341802FA0AF021EA000010
:10167000CEF8340803EB4A108260DBF81000012832
:1016800007D1CAEBCA000BEB8000D0E9101211445D
:101690004164DBF8EC435FEA0A6010D0D4F814022E
:1016A0004269002A5AD094F8FC01032856D15FFA07
:1016B0008AF120469047029BDDF810E04EE0D4F816
:1016C000F401022844D1D4E90710814215D9CAEBAC
:1016D000CA02081A00210BEB820283B2526CE0614D
:1016E000204601F0DAFD204600210022002301F00F
:1016F0004CFD029BDDF810E02AE0A169814211D384
:10170000B1FBF0F202FB101060B9D4F8F80181428D
:1017100008D2204600210022002301F0BEFDC4F8BB
:10172000F851E0E7D4F81402C16829B194F8FC013B
:10173000032801D1204688470520002100220023EC
:10174000C4F8F401204601F020FDDDF810E0029B12
:1017500094F80002012808BF84F80052DBF84C001E
:1017600050EA0A0021D1DBF8100001281DD1DBF876
:101770000000C0F8105BD0F8101B41F40021C0F845
:10178000101BD0F8101B41F01801C0F8101BD0F846
:10179000101B41F0C041C0F8101B0BF56F71C0F871
:1017A000141B4FF08021C0F8001B5FEA097042BF94
:1017B00003EB4A10082181605FEAC96042BF03EB76
:1017C0004A10102181605FEA496042BF03EB4A1072
:1017D000402181605FEA897042BF03EB4A10022119
:1017E00081605FEA096035D5CAEBCA000BEB800E59
:1017F0005846714651F840CF0A46894652F8104F74
:1018000059F80CBFABEB0406664588BF6646006816
:10181000039000EB4A15F01CD5F81879BFB2B7EB6E
:10182000900F88BFA3453FF6C4AE43F6C04BDDF82A
:1018300010E0002E4FF00005C2F2010B0AD103990F
:10184000012000FA0AF00A46D1F8341821EA000013
:10185000C2F834084FEA58000AF1010AB5EB580FF4
:101860007FF4E6AEDBF8001048698A691040B0F1F9
:10187000FF3F0FDCDEF8040820F00100CEF804087A
:10188000DBF8EC0390F8FD2180F8FC21486900F0BA
:101890000040486148698A691040000521D5DEF89A
:1018A0000808C00719D0DBF8EC03042390F8FC21EA
:1018B00080F8FC3180F8FD21D1F8000E40F00100E5
:1018C000C1F8000EDBF8200038B14EF61050CEF211
:1018D0000000026842F006020260486900F40060FD
:1018E000486148698A691040C0046CD5DEF8040874
:1018F00040F63F534FF0FF32C0F2030320F00100E7
:10190000CEF804084FF4846008610EF5006000BF53
:1019100001329A4202D80F69BF06F9D4DBF80420DD
:101920005AB14FF608670EF53063FF26CFF6FF7702
:10193000DE519E602033013AFAD14FF0FF328261CE
:10194000C26942F00112C261DBF8302042B1D0F826
:10195000842042F00B02C0F8842000F1440205E02C
:10196000426942F00B02426100F11002136843F039
:101970000B031360026822F4FE62026000229BF8EF
:101980001000C1F8102BD1F8102B012842F40022CE
:10199000C1F8102BD1F8102B42F01802C1F8102B0F
:1019A000D1F8102B42F0C042C1F8102B07D10BF533
:1019B0006F70C1F8140B4FF08020C1F8000B48691C
:1019C00000F48050486148698A691040800440F101
:1019D000F880D1F8000940F2FF729043C1F8000985
:1019E000D1F8080800F00600042802BFD1F8000969
:1019F00040F00300C1F80009D1F8040840F48070F9
:101A0000C1F80408C86820F47050C860D1F808080C
:101A100010F0060F2BD0D1F8080800F006000228BD
:101A20000BD0D1F8080800F00600062805D0D1F840
:101A3000080800F00600042819D1402045F2403281
:101A400043F2FF43CBF814000320CFF62772C0F215
:101A50000C03CBF80C0040F26000C2F201000068F9
:101A600002449A420ED8C86840F4705080E04FF4A7
:101A700000700022CBF81400CBF80C20C86840F4AA
:101A8000105076E041F6406244F23F23CFF61B72DD
:101A9000C0F20F0302449A4203D8C86840F4605071
:101AA00066E0A0F5740244F67F73A2F51052C0F20E
:101AB00012039A4203D8C86840F4505058E0A0F18D
:101AC00083724DF21F63A2F5E742C0F213039A42FC
:101AD00003D8C86840F440504AE04BF260624EF2CE
:101AE0005F33CFF6E562C0F2160302449A4203D890
:101AF000C86840F430503BE04DF2003247F23F738B
:101B0000CFF6CE62C0F21B0302449A4203D8C868E3
:101B100040F420502CE045F6C03249F2BF13CFF616
:101B2000B362C0F2210302449A4203D8C86840F469
:101B300010501DE0A0F1B77247F21F53A2F55852A2
:101B4000C0F238039A4203D8C86840F400500FE04E
:101B500045F2E04249F6DF43CFF65962C0F2410355
:101B60000244C8689A428CBF40F4C05040F4E05030
:101B70000122C860002140234025DBF8EC43227499
:101B80002046002201F096FA2046802100224023C0
:101B9000C4F8105101F08EFA012084F8FC0125628E
:101BA000D4F8180228B1D4F81402217942682046EA
:101BB0009047DBF80010486900F400504861DDF8F8
:101BC00010E048698A691040C0064DD5886920F048
:101BD00010008861DEF82020C2F3434302F00F00BA
:101BE000062B26D0022B3BD147F6F073134037D09B
:101BF000C0EBC000032200260BEB800002EB1317A2
:101C00001B09D0F8044200F5017CB6EB970F09D010
:101C1000BE084FF4805527465EF80520013E47F880
:101C2000042BF9D1E218CCF80020D0F810221A4485
:101C300014E000234FF480570BEB83055EF8076038
:101C40000133022BC5F8BC63F6D1C0EBC0000BEB2F
:101C50008000D0F81032C2F30A121A44C0F81022E1
:101C6000886940F01000886148698A69104000075F
:101C700010D5DBF8EC0390F8FC21032A06D1D0F84C
:101C80001422D26912B19047DBF80010486900F0C5
:101C90000800486148698A691040C00242BF48692B
:101CA00000F48010486148698A691040800242BF90
:101CB000486900F40010486148698A691040400092
:101CC00042BF486900F08040486148698A69104015
:101CD000400711D54C6860070BD5DBF8EC030121F8
:101CE00080F8FC11D0F81422017952689047DBF893
:101CF000001048682043486007B0BDE8F08F00003E
:101D0000B0B582B043F2A4550446C2F2010528786A
:101D1000800702D44FF0FF3034E043F2A050C2F20B
:101D20000100007810B16FF001002BE043F2A850E1
:101D3000FF21C2F20100C0F2180100680840012131
:101D4000C0F208018842E5D140F218404FF08051BE
:101D50000222C4F20200016005208DF8040001A8EF
:101D6000811C00F0EEFD68B943F2AC50C2F20100F4
:101D700001E000BF00BFC1680229FBD19DF8070048
:101D800020700020297889071AD543F2A051C2F2A9
:101D900001010978A1B943F2A851FF22C2F2010161
:101DA000C0F21802096811400122C0F208029142F3
:101DB00006D140F218414FF48052C4F202010A6089
:101DC00002B0B0BD2DE9F04383B00446107816464A
:101DD0000D46192813DDA0F11A0110292CD8DFE8CF
:101DE00001F048094141094141414159417D414189
:101DF0009541D000D4F81802002545810BE2002857
:101E000000F0FA80032800F0118112282AD171789D
:101E1000D4F81802C90740F04581D4F81C1205EB2C
:101E2000C502C96901EB82010A79531D32799A42D0
:101E300040F2D2811A4637E12F2800F021815A283A
:101E400010D1D4F8180208210FF27C4241811330DE
:101E5000002100BF5318DB794354013911F1080305
:101E6000F8D12BE1D4F8180290F85D124FF400532A
:101E70002AE1D4F8180208210FF2544241811330AC
:101E8000002100BF5318DB794354013911F10803D5
:101E9000F8D113E1D4F81862002001A90DF10A026B
:101EA00070613061F060D4F81C024368284698479E
:101EB00000BB08200221F0730198B1820138010AA9
:101EC000F074B174010C000E717430740C21BDF803
:101ED0000A007181F075000AB075EFE0D4E9866000
:101EE000436806F5187106F25E22284698470028D6
:101EF00000F0F080D4F818024FF4685390F85D12A7
:101F000000EBC102C2F8403202237AE1D4F8187221
:101F1000387AB846002800F0F1804FF4007608F1D6
:101F20000C097E81B8F85E02D8E99913B1FBF0F292
:101F3000B3F5007F38BF1E46B6FBF0F0494683B2CA
:101F4000D4F81C0207692846B847B0F1FF3F40F3B8
:101F50004881B3B2204681214A4601F09EF9D8F863
:101F60003402D8E99912921B3144A0EB0600C8E96B
:101F70009912C8F8340240F0A180032088F80800C4
:101F80009CE0D4F81872387A002800F0DB80B7F8AB
:101F90005E02D7E9991607F10C08B6F5007FB1FB90
:101FA000F0F228BF4FF40076B6FBF0F0414683B262
:101FB000D4F81C02D0F814C02846E047B0F1FF3F27
:101FC00040F31481D7F83412D7E999028319901B92
:101FD000A1EB0601C7E99930C7F8341200F01F8160
:101FE000B0F5007F28BF4FF4007083B20121424654
:101FF000204601F0CAF861E0D4F81862D6F814025D
:10200000002800F0CB8096F85D024FF4005206EBFA
:10201000C0010130C1F84022052281F83C22C1B242
:10202000043918BF014686F85D12F3E0D4F818426F
:10203000112104F10D00FEF74BF90C20E074702023
:10204000207394F85C0294F85D12884211D004EB7E
:10205000C001013091F83C22A27391F8412222760E
:10206000C2B2043A18BF024691F8400284F85C22DA
:102070006076122060813079122898BF60811DE05F
:102080007178D4F8180289071AD4D0E99812B0F8F8
:1020900068321A448A427FF6AFAE90F85D124FF470
:1020A000045311E08CA10722428100BF013A93B290
:1020B00010FA82F6CF5C002B3773F7D10025AAE027
:1020C00090F85D124FF4105300EBC102C2F8403299
:1020D000052396E00025082035827081B6F85E025F
:1020E000F074000AD6F860120139F173B074080A6E
:1020F000B073080C7073080E30738CE097F91802F7
:10210000002838DAD4F81C0281682846884700285D
:102110007FF4F0AED6F8020000BAC7F86402F17995
:10212000327A42EA0121C7F868120A18D4F81882F4
:10213000D8F860329A4240F2A78098F85D024FF4D6
:102140000452B2E097F91802B0F1FF3F13DDD4F862
:102150001C0281682846884700287FF4CBAED4F85B
:102160001C02C16828468847002861D0D4F81802AC
:102170004FF41C53C2E697F85D024FF4005207EB90
:10218000C0010130C1F84022052281F83C22C1B2D1
:10219000043918BF014687F85D123BE0D4F81C02F1
:1021A00081682846884700283FD0D4F818024FF4A9
:1021B000685390F85D1200EBC1020131C2F8403261
:1021C000022382F83C32CAB2043A18BF0A4680F8A9
:1021D0005D22052030721DE0002A42817FF466AF47
:1021E0006CE7D4F818024FF4885303E0D4F81802CF
:1021F0004FF4407390F85D1200EBC102C2F8403218
:102200000423013182F83C32CAB2043A18BF0A46AC
:1022100080F85D22FF2568B203B0BDE8F083204658
:1022200000210025FEF700FEF5E700257581F2E7A5
:10223000D6F8020001BAC7F86412F079327A42EA9D
:102240000022C7F868225318D4F81802D0F8606248
:10225000B3423FF622AFB7F85E325A435943C7E95B
:102260009912D7F8141291427FF4FEAD0120B2F515
:10227000007F4FF00101387228BF4FF4007293B213
:10228000204607F10C02B4E602223A72B7F85E2249
:1022900051435043C7E99901D7F8140288423FF4EB
:1022A0003CAE98F85D024FF4005208EBC001C1F853
:1022B00040220522013081F83C22C1B2043918BF06
:1022C000014688F85D12A5E7000600000000000046
:1022D00000000000000000000000000300808300F8
:1022E0002DE9F04786B043F2A4550C46C2F2010531
:1022F0002978890702D44FF0FF3130E0C7B2142F9C
:1023000025D143F60004C4F20004606820F0020006
:10231000606043F66040C2F20100FEF7AFF860680B
:1023200020F00100606043F60040C2F20100FEF7B9
:10233000A5F843F2AC501C21C2F20100FDF7C8FF22
:1023400043F2A0500021C2F20100017007E043F205
:10235000A051C2F20101097829B16FF001010846CC
:1023600006B0BDE8F087132F22D86FF006010022D7
:102370000023DFE807F0100B0E0A0A1D1D1D1D1DAE
:102380001D1D1D1D1D1D20426066E8E7042301225E
:1023900001E000230222C0F30221042900F286801A
:1023A000DFE801F08E03878A8D0043F0010387E0A8
:1023B0006FF00301D3E740F2600043F6300145F6C9
:1023C000B062C2F20100C4F20201C2F2000200686F
:1023D00051F8281CC1F38221515C002220FA01F13E
:1023E000002000BF0746072A45D8013207F1080040
:1023F00021FA02F39C42F5D343E040F2600043F639
:10240000300145F6B062C2F20100C4F20201C2F22C
:102410000002006851F8281CC1F38221515CC840B9
:1024200043F60001C4F200010968C1F3C2010131A1
:1024300020FA01F193E743F2AC50C2F201000483A9
:102440003FE143F2A850FF21C2F20100C0F218019F
:10245000006808400121C0F2080188427FF44BAFB8
:1024600040F21840002C0CBF4FF480514FF08051C7
:10247000C4F2020018E0082A3FF43DAF501C21FAD4
:1024800000F3A3423FF637AF43F60000C4F200006A
:10249000016821F040010160016821F038013943F1
:1024A0000160016841F0400101600AE16FF007013D
:1024B00055E743F0020303E043F0030300E0103369
:1024C00000F47C31B1F5004F04D0B1F5803F3DD12F
:1024D00003F50063802143F6000943F63008022A21
:1024E00001EAD021C4F20009C4F2020843EA010A59
:1024F0002FD0012A3FD1C0F3C140012849D0022882
:102500006AD0032840F08C8000200190D8F8001099
:1025100041F00201C8F80010D8F8001001F00201E3
:10252000019101990521059102210491CDE9021043
:102530004FF4805001A9019009F5E630FEF71CFA2E
:102540000120C0F2080000F5801672E06FF008016B
:1025500005E7800211D40520022601A9059000207C
:102560000496CDE902604FF48050019009F5E63001
:10257000FEF702FA5DE000265BE009F5E6304FF475
:102580008051FEF77FF902264AF4007AC0F2200655
:102590004FE000200190D8F8001041F00201C8F887
:1025A0000010D8F8001001F00201019101990221F8
:1025B000CDE90301012001A902904FF48050019060
:1025C00009F5E630FEF7D8F901264AF4407A4FF0D3
:1025D000200CC0F208062EE000200190D8F8001070
:1025E00041F00201C8F80010D8F8001001F0020113
:1025F000019101990521059102210491CDE9021073
:102600004FF4805001A9019009F5E630FEF7B4F9C6
:1026100001204FF0240CC0F2080000F500260AE06B
:1026200009F5E6304FF48051FEF72CF94AF4407A70
:1026300001264FF0200C40F2600045F6B062002306
:10264000C2F20100C2F20002006858F8281CC1F36F
:102650008221515C20FA01F2002100BF0846072BBD
:1026600007D8013300F1080122FA03F7BC42F5D381
:1026700005E0082B3FF43FAE591C22FA01F7A742B0
:102680003FF639AE43F2A85140EA0A00C2F2010116
:102690000E60D9F8001021F04001C9F80010C9F807
:1026A00004C0C9F80000B007286840F0040108BF62
:1026B00020F004012960D9F8000040F04000C9F87A
:1026C000000000214BE643F60000C4F200008168E0
:1026D00011F0680F15D04A064AD50168090529D4BA
:1026E00043F2AC5290F80CC0C2F201021368D168F8
:1026F000994235D253689BB3591C516083F800C08E
:102700002EE0C90739D04168490636D543F2AC51AD
:10271000C2F201010A68CB6893422ED20268120508
:102720002CD490F80CC04B68B3B35A1C4A6083F8A1
:1027300000C031E043F2AC52B0F80CC0C2F201026A
:102740001368D16899420BD253684BB1591C516040
:1027500083F800C051684B1C53604FEA1C220A707A
:1027600043F2AC51C2F20101CA680132CA60816809
:10277000890642BF0168016070477047B0F80CC01D
:102780004B684BB15A1C4A6083F800C04A68531C1E
:102790004B604FEA1C231370CA680B6801329A42DF
:1027A000CA6006D143F2A0500021C2F201000170BC
:1027B00070470A699A4228BF704780B5D0F800C0B8
:1027C000D1F808E05FEA0C530BD4BEF1000F0FBF45
:1027D0000A7E0EF101028A609EF8002002730A69E7
:1027E00010E0BEF1000F0BD00EF101038B607346B9
:1027F00013F802CB8B609EF801304CEA032300E013
:102800000B8B8381501C086180BD43F60040C2F2EF
:1028100001000068426843F2AC50C2F20100016856
:102820000AB101B1704743F2A0520023C160C2F265
:10283000010213707047F0B581B00C4601466FF08D
:102840000400002965D0002C63D043F2A450C2F2EA
:102850000100007840075AD543F2A050C2F20100AF
:10286000027812B16FF0010053E043F2A852C2F2B5
:1028700001021278013A012A49D8012343F2AC57E8
:1028800043F600060022037043F60040C2F201073F
:10289000C4F20006C2F20100C7E90042C7E9021211
:1028A0003A61C0E90322316801F40061C0E9051111
:1028B000FDF7E8FE58BB43F6004006F10C0507F1B2
:1028C00014022346C2F201002946FDF785FFF0B944
:1028D00070684FF4806140F00100706043F6604022
:1028E000C2F2010001610021C160316801F40061A0
:1028F000C0E90511FDF7C6FE48B943F66040B96866
:102900002A462346C2F20100FDF766FF18B14FF0D8
:10291000FF3001B0F0BD706840F002007060002030
:10292000F7E743F66040C2F201000068426843F2F4
:10293000AC50C2F2010001680AB101B170470161F7
:102940007047F0B581B0144602466FF00400002ACB
:1029500060D000295ED0002C5CD043F2A450C2F2BB
:1029600001000078400753D543F2A050C2F20100A5
:10297000037813B16FF001004CE043F2AC57012330
:1029800043F60006037043F60040C2F2010700233D
:10299000C4F20006C7E90041C2F201004FF48061B1
:1029A000C7E902233B61C0E90331316801F40061EA
:1029B000C0E90511FDF766FE50BB43F6004006F185
:1029C0000C057A682346C2F201002946FDF704FF90
:1029D000F0B970684FF4806140F00100706043F618
:1029E0006040C2F2010001610021C160316801F460
:1029F0000061C0E90511FDF745FE48B943F66040A6
:102A0000B9682A462346C2F20100FDF7E5FE18B177
:102A10004FF0FF3001B0F0BD706840F00200706010
:102A20000020F7E780B943F6D8104FF6FE73C2F2E4
:102A30000100C0F27F030068406903EA40001D30D6
:102A400008604FF40070108000207047002070472D
:102A5000002070470020704743F2CC70C2F20100A2
:102A6000007800F00100404270470000012830D09B
:102A700020BB2DE9F04381B01C46154603B340F25C
:102A80009818894600270E46C2F201081A2D05D96A
:102A900048464FF40071FDF71BFC0BE0781900214C
:102AA00008EB40204258043189B246F8042BB1F5B6
:102AB000007FF7D30137A742E8D102E00220704738
:102AC000002405A02946224602F01EFF01B0BDE801
:102AD000F0430020704700BF0A0D20524420626C72
:102AE0006B5F616464722D3E20256420626C6B5FB5
:102AF0006C656E2D3E20256400000000F0B581B0AD
:102B0000012800F0998068B90D46144611464EA080
:102B10001A461E4602F0F8FE43F6D010C2F201003B
:102B2000007808B1022088E01D2C15D344F2B600CD
:102B3000C2F201000188E1B143F6D410C2F20100F3
:102B40000068C21700EBD2501D2202EB6020A042A9
:102B50000FD140F294170FE00F2C16D1E86B411CF7
:102B600018D000283FD043F6D411C2F2010108600A
:102B700018E040F294177102C2F201073A68284641
:102B8000FDF714FC3860002031E0A4F110000D289E
:102B900029D235E0E86F43F6D411C2F201010028D2
:102BA000086020D043F6D811C2F2010109684969D2
:102BB000B0EB812F03D92DA002F0A6FEB2E7C1171A
:102BC00040F2FF1200EBD1519143401A44F2B6019A
:102BD000C2F201010880000405D044F2B4000121D2
:102BE000C2F20100017040F29810C2F201007102BD
:102BF00000EB44208AB2294600F060FE01281ED076
:102C000043F6D410C2F201000068012814DB44F23C
:102C1000B401C2F20101097801EB50201C30A0423E
:102C20000AD143F2CD700121C2F20100017043F2DA
:102C3000CC70C2F201000170002001B0F0BD14A000
:102C40004FF4B87100F0AAFE0A0D20575220626CB2
:102C50006B5F616464722D3E20256420626C6B5F43
:102C60006C656E2D3E202564000000000A0D204595
:102C700052524F522C2066696C652073697A652028
:102C80003E20666C6173682073697A65212121009A
:102C90002E2E2F5372632F757362645F73746F727D
:102CA0006167652E630000002DE9F04381B043F2B7
:102CB000A454C2F201042078800702D44FF0FF3000
:102CC00061E043F2A057C2F20107387810B16FF00B
:102CD000010058E043F2A858FF250126C2F201087E
:102CE000C0F21805C0F20806D8F800002840B0422B
:102CF00016D140F218494FF080500121C4F2020968
:102D0000C9F8000006208DF803000DF10300FFF75D
:102D100092FDA0B12178890735D5397811B132E01B
:102D20004FF0FF30D8F800102940B1422BD140F2CB
:102D300018414FF48052C4F202010A6023E043F2CA
:102D4000AC50C2F2010000E000BFC1680129FBD114
:102D5000207880070AD5387840B9D8F80000284094
:102D6000B04204BF4FF48050C9F8000000208DF835
:102D700003000DF10300FEF7C3FF20B99DF8030027
:102D8000C0F34000013801B0BDE8F08344F2B80060
:102D9000C2F2010001680131016070474EF608502F
:102DA0004FF0000CCEF20000D0F8801041F470011A
:102DB000C0F8801043F60001C4F202010A6842F034
:102DC00001020A60C1F808C04FF6FF720B68CFF627
:102DD000F6621A400A6043F21002C2F200424A60F0
:102DE0000A6822F480220A60C1F80CC04FF000612A
:102DF0000160704780B504A000F068F843F2CC5041
:102E0000C2F2010080BD00BF4D534320436F6E6688
:102E1000696700001220088040F26400C2F20100DD
:102E20007047000080B504A000F050F843F2CC5089
:102E3000C2F2010080BD00BF4D534320496E74654E
:102E400072666163650000000420088040F278002B
:102E5000C2F201007047000080B504A000F036F80F
:102E600043F2CC50C2F2010080BD00BF53544D6903
:102E700063726F656C656374726F6E696373000073
:102E800080B504A000F022F843F2CC50C2F2010059
:102E900080BD00BF53544D3332204D6173732053B6
:102EA000746F72616765000080B504A000F00EF8D1
:102EB00043F2CC50C2F2010080BD00BF3030303050
:102EC00030303030303031410000000080B568B320
:102ED00002786AB100F1010C002200BF1CF8013B2E
:102EE0000132002BFAD1D2B2022303EB420200E0FE
:102EF000022243F2CC5E03230A80C2F2010E8EF856
:102F000001308EF80020027882B1013002234FF0A8
:102F1000000C00BFD9B202330EF8012041F00101CC
:102F20000EF801C010F8012B002AF3D180BD00007B
:102F300010B5D0F8204201F07F0C08064FEAD111FD
:102F4000CCEBCC0204EB820202F1380358BF02F54D
:102F5000FC73597083F800C094F8B803012801D1BC
:102F600010216AE0012040F63F53002984F8B8039D
:102F7000C0F20303D4F800E00EEB4C1031D0D0F8CF
:102F8000001900F5106221F40041C0F800194FF05B
:102F90000061C0F800194FF08041C0F800194FF0EF
:102FA000FF3100BF0131994244D890684000F9D404
:102FB0004FF484604FF0FF31CEF810000131994298
:102FC00003D8DEF810008006F8D40120002100FAB2
:102FD0000CF0CFF6FF7161EA0000DEF81C18084023
:102FE00026E0D0F8001B00F5306221F40041C0F863
:102FF000001B4FF00061C0F8001B4FF08041C0F88B
:10300000001B4FF0FF3100BF0131994212D8906888
:10301000C006F9D4DEF8040840F48060CEF8040855
:103020004FF48030DEF81C1800FA0CF021EA0000A2
:10303000CEF81C08002184F8B81340F20020C0F23A
:103040000120C840C0B210BDD0F820C29CF8B823FF
:10305000012A01D1102126E001220B068CF8B823A9
:1030600040F63F53DCF80020C0F203030BD41020DD
:103070004FF0FF31106100BF0131994210D8106943
:10308000C006F9D40CE0202061F38C104FF0FF3122
:10309000106100BF0131994202D810698006F9D44D
:1030A00000218CF8B81340F20020C0F20120C84083
:1030B000C0B2704770B501F07F06D0F820C20D068F
:1030C0004FEAD11EC6EBC6040CEB840000F13804B5
:1030D00058BF00F5FC740020A36084F801E026705E
:1030E000E270B0EBD11F18BFE680022A04BF0020B7
:1030F00020719CF8B803012801D110203DE0012087
:10310000BEF1000F8CF8B80300FA06F1DCF80040BD
:1031100019D0D4F81C0889B208437101C4F81C08FE
:1031200004F510646058000424D46FF3DF230859B9
:1031300043EA8653184340EA824040F0805040F40E
:103140000040085116E0D4F81C0840EA014004F59C
:103150003061C4F81C0870010E5836040AD4465871
:103160006FF3DF23334343EA824242F0805242F45A
:103170000042425000208CF8B80340F20021C0F217
:10318000012121FA00F0C0B270BD80B501F07F0CC2
:10319000D0F820E20021CCEBCC000EEB8000C0E99F
:1031A0008331C0F8042280F8F91180F8F8C100F5E5
:1031B000FC71DEF81030012B08BFC0F80822DAB22B
:1031C000DEF80000BCF1000F03D0BDE8804000F045
:1031D000E9B9BDE8804000F067B980B5D0F820E2D9
:1031E000C1EBC10201F07F0C08060EEB8203CCEBB1
:1031F000CC020EEB820202F1380258BF03F5FC72DA
:10320000CB090121537082F800C091709EF8B80379
:10321000012808BF80BD8EF8B813002BDEF800101F
:1032200001EB4C1007BF00F53063D0F8000B00F540
:103230001063D0F80009002803DB186820F08040F4
:1032400018601868BCF1000F40F40010186020D11D
:1032500000229EF81000C1F8102BD1F8102B012885
:1032600042F40022C1F8102BD1F8102B42F01802C2
:10327000C1F8102BD1F8102B42F0C042C1F8102B2E
:1032800007D10EF56F70C1F8140B4FF08020C1F814
:10329000000B00208EF8B80380BD10B501F07F0C44
:1032A000D0F820020024CCEBCC0100EB810E71465B
:1032B00001F838CFC1E905340123CA604B700369B6
:1032C000012B08BFCEF84820DAB20068BCF1000F2D
:1032D00003D0BDE8104000F065B9BDE8104000F033
:1032E000E3B880B5FDF7E3FC002080BD80B5FDF7B5
:1032F00000FD002080BDB0B501210446FFF718FE97
:1033000020468121FFF714FED4F81802002500287A
:10331000057203D002F04AFDC4F818520020B0BD77
:103320000A21018040F2F400C2F20100704720211E
:10333000018040F2B400C2F20100704720210180F8
:1033400040F2D400C2F2010070472021018040F217
:103350000010C2F20100704710B50446007C50B165
:103360002046012102224023FFF7A4FE20468121AE
:10337000022240230BE02046012102224FF4007379
:10338000FFF798FE2046812102224FF40073FFF7D9
:1033900091FE4FF41B7002F031FD0028C4F81802B2
:1033A00004D02046FDF722FD002010BD012010BDF5
:1033B00070B50446D0F8186208780D4610F0600128
:1033C00017D020296DD16978FF2927D0FE2927D170
:1033D000698829BB000623D5E888012820D1D4F8C4
:1033E0001C028069804730600120002500213246A0
:1033F0000AE0687801281DD00B282BD00A2850D16C
:103400000120321D00250021C4E906000220C4F875
:10341000F40120460123FFF740FF43E06988E1B152
:1034200020468021FFF7D9FE20460021FFF7D5FE78
:10343000022537E029792046FFF706FE2979204644
:10344000FFF776FDA988207C090616D4D8B120465E
:10345000012115E0A878706023E00006E0D4E88838
:103460000028DDD14FF4807006F5037201211F237F
:1034700030812046FFF789FE13E038B120468121D4
:103480000222402307E02046012101E0204681215D
:1034900002224FF40073FFF70DFE29792046FDF755
:1034A000EEFB0025284670BDB0B54B78012B27D127
:1034B00091F800C0D1F814E000EB4C14BEF1000FFD
:1034C00004F51063D4F8104948D06FF312041C615E
:1034D0001C696FF3DC441C614FF6FF748D68CEF2FB
:1034E000070404F10054AE4584BF4D61AE4604EAC2
:1034F0000E041D6945F400251D611D692C4339E04A
:103500000B784FF6FF74CEF2070400EB4310D0F8AF
:10351000103B6FF31203C0F8103BD0F8103B6FF371
:10352000DC43C0F8103B00F530604D698B6805B195
:103530004B610569012A45F40025056104F1005538
:1035400003EA0503056943EA0503036104BFC9688B
:103550004161016841F004410160B0BD6FF3DC449A
:103560004FF0000E1C611D6945F400251D611C69AA
:103570006FF312041C61012A1C6844F004441C60AF
:1035800002BF08695861B0BDBEF1000F08BFB0BDF1
:103590000121D0F8342801FA0CF11143C0F8341895
:1035A000B0BD0000B0B54B78012B32D191F800C00E
:1035B000D1F814E000EB4C14BEF1000F04F51063D9
:1035C000D4F810494FD06FF312041C611C696FF3DB
:1035D000DC441C618C680EEB0405013DB5FBF4F482
:1035E0000025C1F6F87505EAC4441D692C437546EB
:1035F0001C616FF3DF451C692C431C61CC78012CE6
:103600003CD11C6924F0C0441C611C6944F0005486
:1036100033E00B7800EB4313D3F8105B6FF3120524
:10362000C3F8105BD3F8105B6FF3DC45C3F8105B95
:1036300003F530634C69D1F808C0002C52D004EB7C
:103640000C050024013DC1F6F874B5FBFCF504EA55
:10365000C54E1C69ADB244EA0E041C6105FB0CF4B6
:103660006FF3DF4446E06FF3DC441C611C6944F4F3
:1036700000241C611C696FF312041C61012A03D130
:103680000C695C61CC7805E0CC78BEF1000F18BF06
:10369000012C46D1012C4CD1D0F80848E4054FF05C
:1036A000805458BF4FF000541D68002A44EA0504B6
:1036B0001C601C6844F004441C6012D103220023E7
:1036C00012FA8EF2B3EB920F08BFB0BDC968920830
:1036D0004FEA0C3300F5805051F8045B013A1D505D
:1036E000FAD1B0BD1D696FF3DF4C4FF4002445EAF9
:1036F0000C051D611D69012A45EA04051D6104BF11
:10370000CA685A61C978012913D1D0F80808C005E0
:103710004FF0805058BF4FF00050196808431860B0
:1037200007E00121D0F8342801FA0CF11143C0F868
:103730003418186840F004401860B0BD2DE9F04717
:1037400082B004460020009043F6D810C2F2010077
:103750000068C66916F0C00F07D148F60430C2F2FF
:10376000000002F081FB46F04006300648BFFFF73C
:103770009BFA43F2A4557106C2F20105286800F0D5
:1037800002004AD5002848D043F2A056C2F20106F2
:10379000307800285DD143F2A85940F2FF0A012792
:1037A000C2F20109C0F2180AC0F20807D9F80000F5
:1037B00000EA0A00B84237D140F218484FF0805072
:1037C0000121C4F20208C8F8000050208DF8000062
:1037D0006846FFF730F848B943F2AC50C2F2010036
:1037E00001E000BF00BFC1680129FBD1286810F0CB
:1037F00002000BD0317849B9D9F8001001EA0A016A
:10380000B94204BF4FF48051C8F8001064210191FF
:1038100001994A1E00290192FAD1D0B143F2A05079
:10382000C2F201000078A0B943F2A850FF21C2F211
:103830000100C0F21801006808400121C0F208012F
:10384000884206D140F218404FF08051C4F2020085
:10385000016001208DF8014002218DF800006846CA
:10386000FEF7E9FF40B943F2AC51C2F2010100E0BA
:1038700000BFCA68022AFBD1297889071AD543F20A
:10388000A051C2F201010978A1B943F2A851FF2267
:10389000C2F20101C0F21802096811400122C0F20F
:1038A0000802914206D140F218414FF48052C4F20E
:1038B00002010A6002B0BDE8F0870000F0B581B0F7
:1038C000064614460D46000507D140F61440C4F2E2
:1038D0000200016881F40051016044F2B600C2F2B6
:1038E0000100008850B143F6D411A6F56852C2F227
:1038F00001010968091A8A4208BF044643F6D8172D
:103900004FF46852C2F201073868416902EB812125
:10391000B1421BD9D0F82C0108B1804758BB48F6FA
:103920005830A6F568562246C2F20000314601F032
:10393000EBFF386829462246D0F8303130469847A8
:103940000146B0F1FF3F13DDA9B90FE040F2981135
:103950000120C2F2010101F5505296420CD88E426C
:103960000AD3304629462246FCF768FC002003E0D3
:1039700003A001F0C9FFFF2040B201B0F0BD00BFBD
:103980000A2050726F6772616D44617461206572C4
:10399000726F72202D3E2025640000000A46014609
:1039A00010A001F0B1FF43F2CD700121C2F201007D
:1039B000017043F6D010C2F20100017040F61440CD
:1039C00044F2B801C4F20200C2F20101026882F4BA
:1039D000804202600A6800BF0B689B1A652BFBD30C
:1039E000F4E700BF0A0D204552524F52202D3E20D1
:1039F000257320256400000040F20002C2F201029B
:103A000091421CBF4FF0FF30704740F60061CEF28C
:103A10000001D1F88020D2071CBF09685FEAC1719C
:103A200000D170474FF060410A68002AFCD04FF087
:103A30006041087070470000F0B5ADF5017D01A848
:103A40004FF48071FF22FCF73CFC43F6D817C2F21A
:103A5000010738684169890217D0002441AD01AEE1
:103A6000D0F83431204629464FF4807298472846D2
:103A700031464FF48072FCF7A3FB38B9386804F57F
:103A800080644169B4EB812FEAD300200DF5017DFC
:103A9000F0BD000088B043F6000B4EF60C5540F226
:103AA00000364FF6FF04C4F2020BCEF20005C0F25E
:103AB000FA56DBF8000440F40070CBF80004DBF8A1
:103AC000000440F48060CBF80004DBF8000440F40C
:103AD0008070CBF800042868204030432860FDF750
:103AE00019F8286806F580610022C4F2020220401D
:103AF00008432860286800202873296868732968AB
:103B0000A8732968E874296828752968A875296840
:103B1000E8750390DBF8401041F08051CBF840107D
:103B2000DBF8401001F0805103910399039047F2B4
:103B30000000CFF6FE70115841F48041115010582A
:103B400000F4804003900398DBF8080000F00C00BC
:103B5000042802D1DBF800001DE0DBF8080000F0CB
:103B60000C00082803D1DBF804004002F2D4DBF893
:103B7000000040F48030CBF8000044F2B800C2F2FC
:103B800001000168DBF80020920304D40268521A95
:103B9000642AF7D92AE0DBF8080000F00C000828B6
:103BA00024D0602044F2B8060021C4F24720C2F2BB
:103BB00001060160316800BFDBF80020920104D5E6
:103BC0003268521A022AF7D910E045F20841C0F2D1
:103BD0004071CBF80410012101603068DBF800105F
:103BE00089010BD43168091A0329F7D348F6EE206E
:103BF00040F21111C2F20000FFF7D0FEDBF8000422
:103C000000F00F00042808D805208BF80004DBF82A
:103C1000000400F00F0005282AD1DBF8080040F46A
:103C2000E050CBF80800DBF8080040F46040CBF827
:103C30000800DBF8080020F0F000CBF80800DBF803
:103C40000000800114D5DBF80800022161F30100B7
:103C500041F28831CBF80800306800BFDBF808205B
:103C600002F00C02082A0BD03268121A8A42F5D9E7
:103C700048F6EE2040F21F11C2F20000FFF78EFE60
:103C8000DBF8000400F00E00062808D305208BF8AE
:103C90000004DBF8000400F00F000528E8D1DBF891
:103CA0000800052161F38C200421CBF80800DBF823
:103CB000080061F34F30CBF80800DBF8080000F093
:103CC0000C0142F20040C0F2F400082906D0042999
:103CD00026D141F20020C0F27A0021E0DBF8041086
:103CE000DBF8043001F03F02DBF804105B02C1F3A3
:103CF000881105D4A1FB00010023FCF76EFA06E051
:103D000041F20020C0F27A004843B0FBF2F0DBF849
:103D100004100222C1F3014102EB4101B0FBF1F0BA
:103D2000DBF808100FF694624FF0FF38C1F303116F
:103D3000515CC84040F26001C2F20101086044F6E3
:103D4000D351C1F26201A0FB010108EB9117FCF70E
:103D5000E1FE4EF210010024CEF20001B4EB176F29
:103D600005D1F0204F60E87507208C600860086876
:103D7000012740F0040008602868C0F30220C11E3B
:103D800080F0070038BF0021042828BF042008FA6B
:103D900000F027EA000088400001E8750120FCF7E8
:103DA000CDFA0020FCF7CAFA02200225FCF7C6FA79
:103DB0000320FCF7C3FA039403A9DBF8300040F0BA
:103DC0000100CBF83000DBF8300000F00100039078
:103DD0000398CDE90545CDE903740020C4F2020043
:103DE000FCF7CAFD0FF6E45001F08EFD306800BF0D
:103DF0003168091AB1F5FA7FFAD943F29C5543F2BA
:103E0000A45740F2004AC2F20105C2F20107C4F20F
:103E1000020A286820F001002860286820F00200CB
:103E200028603868C10740F0108243F2A050002596
:103E30001C21C2F20100057043F2AC50C2F2010035
:103E4000FCF746FA029503AF4FF005080224DBF8B1
:103E50003000394640F00200CBF83000DBF830008B
:103E600000F0020002900298CDF81C800694CDE983
:103E700004454FF4005003905046FCF77DFD029539
:103E80003946DBF8300040F00200CBF83000DBF8B8
:103E9000300000F0020002900298CDE90648CDE91A
:103EA00004454FF4004003905046FCF765FD029531
:103EB0003946DBF8300040F00200CBF83000DBF888
:103EC000300000F0020002900298CDE90648CDE9EA
:103ED00004454FF4804003905046FCF74DFD43F6F7
:103EE00000445421C2F2010404F10C00FCF7F0F983
:103EF00042F60B0046F258094FF00308E5645421DE
:103F0000C2F20000C4F20209C4E90E50C4E910551F
:103F1000C4E90755C4E90958C4E90B55C4E900953B
:103F2000A56043F66044C2F2010404F10C00FCF702
:103F3000CFF942F62310E56409F1180143F2A457C2
:103F4000C2F20000C2F20107C4E90E504020C4E9E9
:103F50001055C4E90755C4E90958C4E90B55C4E92B
:103F6000001543F29851A060029543F29C55C2F2AD
:103F70000101DBF83000C2F2010540F40010CBF87B
:103F80003000DBF8300000F40010029002980120AD
:103F90003860087043F2AC51002240F00200C2F2D7
:103FA000010138600A8343F2A051C2F201010A7094
:103FB00003924EF21001DBF84000CEF2000140F413
:103FC0008040CBF84000DBF8400000F480400390D4
:103FD00003981020C1F87402C1F8F4004FF4804037
:103FE000C1F87002C1F8F0004FF40040C1F870024F
:103FF000C1F8F000DBF8200040F48040CBF820004E
:1040000000BF00BF00BF00BFDBF8200020F48040ED
:10401000CBF82000012440F26861C0F20804C0F22D
:104020000A0104F50040FEF75BF943F2A4530028AF
:10403000C2F2010340F04881286820F001002860A6
:1040400043F29850C2F20100017841F00201017080
:10405000286820F002002860032002900298411E88
:104060000028029162D003A8FF2743F2A05943F22F
:10407000A8554FF064080430C0F21807C2F20109D5
:10408000C2F2010501901868800735D599F8000043
:1040900090BB28683840A0422ED14FF080500422B7
:1040A000CAF818009F2001998DF80C0003A8FEF7AC
:1040B00048FC012443F2A4530028C0F20804C2F2D1
:1040C000010319D143F2AC51C2F2010101E000BF7A
:1040D00000BFC8680428FBD144F2B0019DF811006C
:1040E000C2F201010870BDF8120044F2B201C2F23E
:1040F000010100BA000C0880186881070AD599F8F8
:10410000001039B929683940A14204BF4FF48051E9
:10411000CAF81810CDF80C8003994A1E00290392A2
:10412000FAD102994A1E00290292ADD144F2B0019F
:1041300044F2B200C2F20101C2F201000978008823
:10414000FF2940F092804FF6FF72904240F08D8040
:10415000032002900298411E0028029100F0828004
:1041600003A8FF2743F2A05943F2A85C00254FF0B3
:1041700064080630C0F21807C2F20109C2F2010C4D
:104180000190186880070595CDE9035536D599F853
:10419000000098BBDCF800003840A0422ED14FF060
:1041A000805006226446CAF81800902001998DF8C4
:1041B0000C0003A8FEF7C5FB43F2A453A446012458
:1041C0000028C0F20804C2F2010317D143F2AC5137
:1041D000C2F2010101E000BF00BFC8680628FBD1A0
:1041E00044F2B0029DF816009DF81710C2F20102C9
:1041F000107044F2B200C2F2010001801868810719
:104200000BD599F8001041B9DCF800103940A142F3
:1042100004BF4FF48051CAF81810CDF80C8000BFCD
:1042200003994A1E00290392FAD102994A1E0029D5
:104230000292A7D144F2B20044F2B001C2F20100EE
:10424000C2F20101008809780FE043F29852002978
:104250004FF00103C2F20102137035D081077FF5E0
:1042600099AED7E6FF214FF6FF7045F6B863C2F26C
:10427000000300BFDA688A4202D11A69824210D074
:10428000D3F8482103F5A473002AF3D143F6D810DC
:104290000021C2F2010001600FF6381001F0E4FDC8
:1042A00012E043F6D8140FF64410C2F20104236062
:1042B000D3E900125B6901F027FB206840F2280176
:1042C000C2F20101806A486043F6D810C2F20100D0
:1042D0000068002800F0488440F600454FF0805008
:1042E000C4F20205A86130683168091AB1F57A7F15
:1042F000FAD94FF610480120CFF6FF781423002298
:10430000D7B2C1B2B1EB570F16D91F0602D0013B8D
:1043100006E000BF6B69013283F480536B611423A4
:10432000376800BF3468E41B0A2CFBD35AF80870C6
:10433000FF07E5D015E000BF3B2200BF5AF8083068
:10434000DB0711D1336800BF3768FF1A0A2FFBD390
:10435000531E12061A46F1D10130042988BF0120EC
:10436000CCE74FF08050A8610FF6B40050F8210060
:104370004FF47A7141431020FDF7B2FF002840F05E
:10438000F38343F6D81040F244192822C2F2010008
:10439000C2F2010901684869C00989F82100486929
:1043A000C0F3C63089F8220040F24010C2F201008A
:1043B00003685F1E002B076004D16B6983F4805390
:1043C0006B610260336800BF3768FF1A0B2FFBD3A5
:1043D0005AF80830DB07EBD04FF0805001F128028B
:1043E000A86100201368012B03D001302C3205286E
:1043F000F8D92C2200FB0210D1F8381190F84C00AB
:104400008847002840F0C58343F6D810C2F2010067
:104410000068002800F0C4834FF0805040F2DD5166
:10442000A86130683268121A8A42FBD340F29818A9
:1044300049463E22C2F201084046FFF73FFA0746CE
:1044400008F5FE7009F142010422FFF737FA40EA4D
:10445000070409F13E0708F5007004223946FFF70A
:104460002DFA044308F5805039460422FFF726FA56
:1044700040F24001044308F5F05020224FF020099B
:10448000C2F20101FFF71AFA204340F090834FF087
:1044900000084FF4803103AC0127CDF80C80DBF825
:1044A000300040F00400CBF83000DBF8300000F0C2
:1044B000040003900398CDF80C80DBF8300040F046
:1044C0008000CBF83000DBF8300000F08000039073
:1044D0000398CDF80C80DBF8300040F00100CBF8F9
:1044E0003000DBF8300000F0010003900398CDF8B5
:1044F0000C80DBF8300040F00200CBF83000DBF835
:10450000300000F0020003900398CDF80C80DBF837
:10451000300040F00800CBF83000DBF8300000F04D
:104520000800039003984FF61840CFF6FF7029500B
:104530004FF070402146A8610AF58060CDE90588FA
:10454000CDE90377FCF718FA0020CDF81480214656
:10455000C1F21200CDE903700020C4F20200FCF7A2
:104560000BFA0420CDE90488214603905046FCF75D
:1045700003FA4FF47040CDF81880CDE90478214655
:1045800003902846FCF7F8F928462146CDF8148018
:10459000CDE90398FCF7F0F943F6DC11C2F2010112
:1045A000D1F8140208B1C1F8148240F20C0043F6AD
:1045B000C04981F8FC7100244FF0040AC2F20100E6
:1045C000C2F20109C4F20204C1F81002032081F80A
:1045D0000080C9F8EC13C1F8209203A989F8B90347
:1045E000C9E90B7802274FF0A040C9E90378C9E96F
:1045F0000587C9E90788C9F82480C9E9000A4FF48A
:104600000070CDE9048803902046FCF7B5F90A2034
:1046100003A9CDE906804FF4E050CDE9047803907A
:104620002046FCF7A9F9DBF834004FF6FF0140F013
:104630008000CBF83400CDF80880DBF8440040F46B
:104640008040CBF84400DBF8440000F48040029046
:1046500002984EF60C50CEF2000002460068084068
:1046600040F20031C0F2FA5101F540710843106088
:1046700010680122C0F30220C11E80F0070038BF7D
:104680000021042838BF82464FF0FF3000FA0AF0BC
:1046900040F63F5A22EA0000C0F2030A88404EF278
:1046A00043410001CEF2000108704EF210010820D3
:1046B000CEF20001C1F8F800D9F80000816821F0BD
:1046C00001018160D9F81830D9F81020012B2ED1C2
:1046D000D9F83430876B4FF6BF74CFF6BD7427F42A
:1046E0008037012B8763C76807EA0407C760C7687C
:1046F00027F44017C76002BFC36843F48013C36048
:104700004FF0FF33013353452FD80769B7F1FF3F0F
:10471000F8DC036943F0010303614FF0FF3300BF8E
:104720000133534521D80769FF07F9D11DE0C3685C
:1047300043F04003C3604FF0FF3300BF01335345E4
:1047400010D80769B7F1FF3FF8DC036943F00103B4
:1047500003614FF0FF3300BF0133534502D80769AF
:10476000FF07F9D14FF480338363012A07D18268B0
:1047700042F006028260826842F020028260C268D3
:1047800022F0C042C260C26842F08042C260326819
:1047900033689B1A332BFBD300220123002400270C
:1047A00009EB04011C34CF8781F838700137B4F568
:1047B000D27F81F83930CA64C1E9102281F83B20E8
:1047C000EED100224123002409EB0401A3F14107AB
:1047D0001C3481F8F87181F8F921C1F80C22C1E983
:1047E000802281F8FB21CF8740F823200133B4F5E4
:1047F000D27FE9D1D9F82CE04FF40021BEF1000FAF
:1048000008BF4FF40011D9E90638D9F80440D9E9B6
:1048100003270197012B876B41EA070181634FF062
:104820000001C0F8001ED0F80018C0F8001806D12A
:10483000D0F80038002A18BF43F0010303E0D0F895
:10484000001841F003034FF0FF324FF48461C0F8C9
:10485000003801610132524502D801698906F9D454
:1048600010214FF0FF3201610132524502D8016937
:10487000C906F9D44FF0000A002C4FF0FF31C0F800
:1048800010A8C0F814A8C0F81818C0F81CA829D09F
:10489000CDF80080F04600F510624FF0904EFF27F3
:1048A000234600BFD2F800C0013B0EEAEC71116054
:1048B000C2F810A0976002F12002F3D1C646DDF8DD
:1048C000008000F530614FF0904C0023FF2700BFBF
:1048D0000A68013C0CEAE2720A600B618F6001F128
:1048E0002001F5D1D0F8101821F48071C0F810180B
:1048F000019B012B20D140F20011002243F6D81A6F
:1049000043F6DC14C0F28001C2F2010AC2F20104D3
:10491000C0F83018D0F8301841F4803141F003016C
:10492000C0F83018D0F83018014641F8182F6FF051
:10493000804241F8042C15E043F6D81A43F6DC1403
:1049400000220146002B41F8182F6FF08042C2F27E
:10495000010AC2F2010441F8042C03D10A6842F0B2
:1049600010020A6043F600030A68B8F1000FC8F2AB
:104970003C0342EA03020A601EBF0A6842F00802D2
:104980000A60BEF1010F05D10A6842F0804242F090
:1049900004020A60012189F8B913D0F8041841F023
:1049A0000201C0F8041831683268521A042AFBD395
:1049B00080214162416A41F480018162416A826AD8
:1049C00001EB124141F40001C0F8041140F2201043
:1049D000C2F20100C4F81C0240F27C00C2F20100E5
:1049E000C4F81402D4F8201291F8B823012A16D082
:1049F000012281F8B8230A68D2F8043823F00203B0
:104A0000C2F80438336800BF3768FF1A042FFBD39D
:104A1000936843F001039360002281F8B82343F2C6
:104A2000CD71C2F2010100BF0A78002AFCD03168C2
:104A30003268521A0B2AFBD34268217920469047EC
:104A4000D4F82002FCF79EF8012084F8FC01D4F889
:104A500014022179426820469047D4F82002FCF7DE
:104A600091F8D4F8204204B3032084F8B903204617
:104A7000FCF788F82068B0F1A04F13D1DBF83400C0
:104A80004FF4F05120F08000CBF834000020C4F245
:104A90000200FBF7F7FE4EF210010820CEF20001F3
:104AA000C1F87801002084F8B90343F6D419C2F2A2
:104AB0000109D9F80000B0F5007F5CDDDAF80010DC
:104AC0004969B0EB812F56D80021039102910399D7
:104AD00081422AD243F2D07440F290174FF400780A
:104AE000C2F20104C2F201070399411AB1F5007F35
:104AF0008FBFCDF808800399401A0290DAF80010B1
:104B00000398029AD1F834312146984702993A68BD
:104B10002046FBF74BFC3860029803990844039049
:104B2000D9F8000003998142DED340F2941040F29C
:104B30009011C2F20100C2F20101006809688842C6
:104B400020D143F6D010C2F201000078D0B900BFE6
:104B5000686980F480506861306800BF3168091A64
:104B6000B1F5FA7FFAD9F3E748F6EE20BB21C2F29D
:104B70000000FEF713FF48F6EE20E821C2F2000025
:104B8000FEF70CFF48F6EE20DF21C2F20000FEF730
:104B900005FF48F6EE20B821C2F20000FEF7FEFE47
:104BA00048F6EE20EF21C2F20000FEF7F7FE48F6CD
:104BB000EE20C121C2F20000FEF7F0FE000000006E
:104BC0000000000001020304060708091B5B324ACB
:104BD000000000000A20466C617368206E6F74202C
:104BE000737570706F727465640A00000A205665F0
:104BF0006E646F72202D2025730A2043686970202F
:104C000020202D2025730A2053697A652020202D2D
:104C1000202564204B62797465730A0A0A0000003B
:104C20000000000021050000410A0000821400007D
:104C300004290000085200002DE9F04383B00D461E
:104C400001466FF00400002D00F0CC80144643F6BE
:104C5000D812C2F201021268526992028A42C0F06E
:104C6000C180880407D140F61440C4F202000268F3
:104C700082F400520260032043F2A4568DF807101C
:104C80008DF80400080AC2F201068DF80600080C2F
:104C90008DF805003078800740F1848043F2A057FA
:104CA000C2F20107387810B16FF001007CE043F2E6
:104CB000A858FF21C2F20108C0F21801D8F800007C
:104CC00008400121C0F2080188426BD140F218402F
:104CD0004FF08051C4F20200016001A80421FDF7E9
:104CE000AAFD002860D143F2AC59C2F2010900E0EC
:104CF00000BFD9F80C000428FAD1002C75D0307808
:104D000040074FD538780028CED198F800000138F8
:104D1000012847D8012000214FF48062387043F603
:104D20000040C9E9004543F60005C9E90211C9F888
:104D30001010C2F20100C4F20005C0E90312296894
:104D400001F40061C0E90511FBF79CFC50BB43F680
:104D5000004005F10C08D9F804202346C2F20100F6
:104D60004146FBF739FDE8B96868002140F00100D1
:104D7000686043F66040C2F20100C0E9031129688F
:104D800001F40061C0E90511FBF77CFC50B943F662
:104D9000604009F1180142462346C2F20100FBF7C8
:104DA0001BFD28B34FF0FF30317889071AD543F245
:104DB000A051C2F201010978A1B943F2A851FF2222
:104DC000C2F20101C0F21802096811400122C0F2CA
:104DD0000802914206D140F218414FF48052C4F2C9
:104DE00002010A6003B0BDE8F0836FF00400DBE766
:104DF000686840F00200686000E000BFD9F80C006D
:104E0000A042FAD12046CFE72DE9F04F81B06FF0F4
:104E10000407002900F0DF8043F6D8190646C2F2E5
:104E20000109D9F8000040698002B042C0F0D38087
:104E300088466BA03146144600F066FDD9F80000A4
:104E400045F28D41C2F20001D0F82C01884200F0F9
:104E500094800027002C00F0BE8043F2A45B43F254
:104E6000AC5A6D46C2F2010BC2F2010AD9F8000039
:104E7000808B10F4025F04D0FDF716FF002840F08D
:104E8000A9809BF80000800740F1808043F2A05089
:104E9000C2F201000078002840F07B8043F2A85065
:104EA000FF21C2F20100C0F2180100680840012190
:104EB000C0F20801884269D140F218404FF0805199
:104EC000C4F202000160300A8DF8036004218DF8FD
:104ED0000200300C8DF8010002208DF800002846F9
:104EE000FDF7A9FC08B156E000BFDAF80C00042871
:104EF000FAD108EB07000121FDF79DFC08B14AE05B
:104F000000BFDAF80C000128FAD19BF80000013C40
:104F10000137013680071BD543F2A050C2F20100D1
:104F20000078A8B943F2A850FF21C2F20100C0F2F4
:104F30001801006808400121C0F20801884207D129
:104F400040F218404FF48051C4F20200016000BFEB
:104F50002846FCF7D5FEE8BB9DF80000C007F7D156
:104F600043F29C50002CC2F201000146006820F080
:104F7000010008607FF47AAF2DE03C200021002280
:104F8000FF2300F08FFA074628BB62E74FF0FF309F
:104F900001E06FF001009BF8001089071AD543F279
:104FA000A051C2F201010978A1B943F2A851FF2230
:104FB000C2F20101C0F21802096811400122C0F2D8
:104FC0000802914206D140F218424FF48051C4F2D7
:104FD000020211600746384601B0BDE8F08F00BFFD
:104FE0000A2061646472202D3E20307825303578A7
:104FF000202020636E74202D3E20307825303378B9
:10500000000000002DE9F04F81B06FF0040400298A
:1050100000F0CA80074643F6D810C2F201000068CB
:1050200040698002B842C0F0BF809146002A00F07B
:10503000938040F2010BFF2543F2AC5A88460024CE
:105040006E46C0F2080BC0F21805C2F2010AFDF765
:105050002BFE002840F0A78043F2A450C2F20100CA
:105060000078800740F17A8043F2A050C2F201003C
:105070000078002875D143F2A850C2F20100006800
:10508000284058456AD140F218404FF08051C4F290
:1050900002000160380A8DF8037004218DF80200C7
:1050A000380C8DF8010002208DF800003046FDF725
:1050B000C2FB10B15BE000BF00BFDAF80C000428AF
:1050C000FAD1F9B208EB0400C1F580754D4588BFEF
:1050D0004D462946FDF7AFFB08B145E000BFDAF8C1
:1050E0000C00A842FAD143F2A450A9EB05092C44C4
:1050F0002F44FF25C2F20100C0F218050078800796
:1051000014D543F2A050C2F20100007870B943F206
:10511000A850C2F2010000682840584506D140F26C
:1051200018404FF48051C4F2020001603046FCF791
:10513000E7FDC0BB9DF80000C007F7D143F29C50CB
:10514000B9F1000FC2F201000146006820F0010031
:1051500008607FF47CAF27E0002425E04FF0FF30AB
:1051600005E06FF0010002E0FF25C0F2180543F2F0
:10517000A451C2F201010978890714D543F2A05164
:10518000C2F20101097871B943F2A851C2F20101DA
:1051900009682940594506D140F218424FF4805120
:1051A000C4F2020211600446204601B0BDE8F08F4F
:1051B0002DE9F04F87B06FF00407002900F041811E
:1051C000064643F6D8100D46C2F201000068416958
:1051D0008902B142C0F03581D0F82C01144620B1CB
:1051E00080470746002840F02C8148F65830314669
:1051F0002246C2F2000000F087FB002C00F0BA80CB
:10520000CDE902540121FF2743F2A05543F2A85BE8
:1052100043F2AC5A012000240DF11008C0F208013D
:10522000C0F21807C2F20105C2F2010BC2F2010A74
:10523000C20710D0A1465D4614468B46FDF734FDEB
:105240005946AB4643F2A05522464C460028C2F2CE
:10525000010540F08D8043F2A450C2F201000078B5
:10526000800740F101812878002840F0EE80DBF8CB
:1052700000003840884240F0EB8040F218405D4624
:105280008B464FF08051A1460124002AC4F202004F
:1052900001604FEA16208DF8136001928DF812001C
:1052A0004FEA16408DF811004FF0AF008DF8100056
:1052B00018BF042440462146FDF7BDFA08B157E067
:1052C00000BFDAF80C00A042FAD10298012148444C
:1052D000FDF7B1FA08B14BE000BFDAF80C00012885
:1052E000FAD164205B460590039A00BF0598411EE1
:1052F00000280591FAD143F2A4504C46AB4643F244
:10530000A055013AC2F2010009F10104C2F20105FF
:105310000392007880070DD5287858B9DBF8000093
:105320003840984206D140F218404FF48051C4F200
:1053300002000160994600BF4046FCF7E1FCB8B9A5
:105340009DF81000C007F7D143F29C50C2F2010053
:105350000146006820F0010008600198002818BF8D
:10536000002603990020002949467FF461AF02E03E
:10537000044600E00024254643F2A454C2F201048E
:10538000207880075BD543F2A057C2F20107387836
:10539000002854D143F2A85840F2FF090126C2F276
:1053A0000108C0F21809C0F20806D8F8000000EAA7
:1053B0000900B04215D140F2184A4FF08050012147
:1053C000C4F2020ACAF8000004208DF81B000DF197
:1053D0001B00FDF730FA90B1207880072FD5387880
:1053E00068BBD8F8000000EA0900B04227D140F2BB
:1053F00018404FF48051C4F2020001601FE043F2F4
:10540000AC50C2F2010000E000BFC1680129FBD12D
:10541000207880070BD5387848B9D8F8000000EA22
:105420000900B04204BF4FF48050CAF800000020C9
:105430008DF81B000DF11B00FCF762FCB8B14FF0BA
:10544000FF37384607B0BDE8F08F6FF0010492E7F0
:10545000DBF800003840884206D140F218414FF492
:105460008050C4F2020108604FF0FF3483E79DF8DA
:105470001B004FF0FF378007E3D404A8FCF740FC83
:105480009DF81000400658BF2F46DAE73C20002167
:105490000022FF2300F006B80C20802110220023F8
:1054A000AFF300802DE9F04182B004460DF1070012
:1054B000984617460E46FCF723FCC0B210B102B066
:1054C000BDE8F0819DF8075025425ED030A000F085
:1054D0001BFA35422DD03AA000F016FA57B115EA62
:1054E000070007D148F6C210C2F2000000F0BCFC71
:1054F0000120E4E725EA0600FEF720F9074600064A
:1055000004D03BA000F0B0FCF8B2D8E70DF10700E2
:10551000FCF7F6FBC0B20028D1D19DF80750354208
:1055200004D048F68610C2F20000DFE739A000F090
:105530009BFC46EA040028EA00002840FEF7FEF83B
:105540000546000607D048F6A410C2F2000000F09D
:105550008BFCE8B2B3E70DF10700FCF7D1FBC0B25A
:105560000028ACD19DF80700204208D048F616105C
:10557000C2F2000000F078FC6FF005009FE748F6EB
:105580007C10C2F2000000F06FFC002097E700BF23
:10559000536F6D6520626C6F636B2070726F746502
:1055A0006374696F6E20696E206566666563742C2E
:1055B0002064697361626C696E672E2E2E20000074
:1055C0000A094E65656420746F2064697361626CBA
:1055D0006520746865207265676973746572206CF4
:1055E0006F636B2066697273742E2E2E200000008C
:1055F0007370695F77726974655F737461747573D2
:105600005F7265676973746572206661696C656451
:105610002E000000646F6E652E0000002DE9F0433F
:1056200083B08DF80B001E200090FEF705FA08B33A
:1056300043F6D81545F28D42C2F20105C2F20002CE
:105640002868D0F82C11914249D043F29C5740F67B
:105650001449C2F20107C4F20209396841F001019C
:105660003960396821F002013960007F000603D4F7
:10567000002489E0002499E0FDF716FB0446002889
:1056800040F0828043F2A454C2F2010420788007E3
:1056900034D543F2A050C2F20100007870BB43F24F
:1056A000A850FF21C2F20100C0F2180100680840B2
:1056B0000121C0F20801884220D140F218404FF089
:1056C0008051C4F2020001600DF10B000121FDF7D1
:1056D000B2F898B943F2AC50C2F201000BE03C20A2
:1056E00000210022FF23FFF7DDFE044600285DD1E4
:1056F0002868AAE700BFC1680129FBD1207880078C
:105700001AD543F2A050C2F201000078A0B943F2CA
:10571000A850FF21C2F20100C0F218010068084041
:105720000121C0F20801884206D140F218404FF42E
:105730008051C4F20200016044F2B8060DF1070581
:105740004FF00A08C2F201062846FCF7D9FAD0B990
:105750000098411E0028009107D1D9F8000080F47C
:105760000050C9F80000CDF8008030683168091A8F
:105770000229FBD39DF80700C007E5D1386820F067
:105780000100386074E70446FEF756F9002807BFA9
:1057900048F6B320C2F2000048F60010C2F2000042
:1057A00000F062FB4FF00050C9F80400204603B03F
:1057B000BDE8F0832DE9F04F81B0FEF73DF90028F8
:1057C00000F08D8043F29C5643F6D817C2F20106D2
:1057D000C2F20107306840F001003060306820F00C
:1057E0000200306038684069800200F07A8043F23D
:1057F000A45843F2A05B43F2AC5A6C464FF0000948
:10580000C2F20108C2F2010BC2F2010A98F80000CC
:10581000800731D59BF8000070BB43F2A850FF21F0
:10582000C2F20100C0F21801006808400121C0F274
:105830000801884220D140F218404FF08051C4F254
:1058400002000160002004218DF803004FEA1920B6
:105850008DF802004FEA19408DF8010020208DF8E4
:1058600000002046FCF7E7FF08B105E000BFDAF8CA
:105870000C000428FAD100BF98F80000800717D563
:105880009BF80000A0B943F2A850FF21C2F201002A
:10589000C0F21801006808400121C0F208018842E6
:1058A00006D140F218404FF48051C4F2020001606A
:1058B0002046FCF725FA48B99DF80000C007F7D14B
:1058C0003068002520F00100306000E005463868AF
:1058D00009F580594069B9EB802F97D301E0002585
:1058E0000DE0FEF7A9F8002807BF48F6B320C2F282
:1058F000000048F60010C2F2000000F0B5FA284699
:1059000001B0BDE8F08F00000FB4054B10B503A93E
:10591000044A029800F018F810BC5DF814FB00006F
:10592000F93900200000012002E008C8121F08C158
:10593000002AFAD170477047002001E001C1121F10
:10594000002AFBD1704700002DE9FF4F8DB00F46B4
:105950000546002606E025280BD0DDE90F1290470A
:105960006D1C761C28780028F5D111B03046BDE8B2
:10597000F08F0024A246A1460122EC4900E0044336
:1059800015F8013F203B02FA03F00842F7D12878CE
:105990002A2810D06FF02F022878A0F130010929B1
:1059A00014D80AEB8A0102EB410144F0020400EB37
:1059B000010A6D1CF0E701CF5FEA000A03D544F449
:1059C0000054CAF1000A44F002046D1C28782E2805
:1059D00017D115F8010F44F004042A280ED06FF0F7
:1059E0002F022878A0F1300109290AD809EB890192
:1059F00002EB410100EB01096D1CF2E757F8049B33
:105A00006D1C28786C280FD006DC4C2817D068282D
:105A10000DD06A2814D104E0742810D07A280FD150
:105A20000DE044F400140AE044F4801401E044F46E
:105A300040146978814202D104F580146D1C6D1CFC
:105A40002A786E2A1FD00CDC632A31D004DC002AAD
:105A50008BD0582A11D1A3E0642A68D0692A0CD1CE
:105A600065E0732A2ED004DC6F2A73D0702A04D12B
:105A70009BE0752A6FD0782A6ED01046DDE90F12B0
:105A80009047761C50E1C4F30250022806D0032848
:105A900009D0042801CF09D0066045E101CFF117F4
:105AA000C0E9006140E101CF06803DE106703BE1C5
:105AB00017F8040B8DF8000000208DF80100EB466C
:105AC000012003E057F804BB4FF0FF3061074FF0AF
:105AD000000102D40DE008F10101884649450FDAC2
