:020000040800F2
:10000000408100209D010008A5010008A70100080B
:10001000A9010008AB010008AD01000800000000C4
:10002000000000000000000000000000AF01000818
:10003000B101000800000000B30100086F4400088F
:10004000B7010008B7010008B7010008B7010008B0
:10005000B7010008B7010008B7010008B7010008A0
:10006000B7010008B7010008B7010008B701000890
:10007000B7010008B70100087F04000899040008D0
:10008000B7010008B7010008B7010008B701000870
:10009000B7010008B7010008B7010008B701000860
:1000A000B7010008B7010008B7010008B701000850
:1000B000B7010008B7010008B7010008B701000840
:1000C000B7010008B7010008B7010008B701000830
:1000D000C33D0008B7010008B7010008B7010008D8
:1000E000B7010008B7010008B7010008B701000810
:1000F000B7010008B7010008B7010008B701000800
:10010000B7010008B7010008B7010008B7010008EF
:10011000B7010008B7010008B7010008B7010008DF
:10012000B7010008B7010008B7010008B7010008CF
:10013000B7010008B7010008B7010008B7010008BF
:10014000B7010008B7010008B701000899130008BB
:10015000B7010008B7010008B7010008B70100089F
:10016000B7010008B7010008B7010008B70100088F
:10017000B7010008B7010008B7010008000000003F
:10018000B7010008B7010008DFF80CD000F084F8D0
:1001900000480047ED57000840810020064880478E
:1001A00006480047FEE7FEE7FEE7FEE7FEE7FEE75C
:1001B000FEE7FEE7FEE7FEE77F440008890100084E
:1001C000CAB2401E10F8011F8A4202D00029F9D19C
:1001D00000207047421C10F8011B0029FBD1801A37
:1001E000704730B504460020034600E05B1C934294
:1001F00003D2E05CCD5C401BF8D030BD0022CBB216
:100200000178994200D10246401C0029F8D11046DD
:1002100070472DE9F05F0546002092469B468846D0
:100220000646814640241BE0284641464746224672
:1002300000F053F853465A46C01A914110D3114664
:100240001846224600F03AF82D1A67EB01084F468F
:1002500022460120002100F031F817EB00094E4141
:10026000201EA4F10104DFDC484631462A464346FD
:10027000BDE8F09F40EA01039B0703D009E008C9ED
:10028000121F08C0042AFAD203E011F8013B00F85B
:10029000013B521EF9D27047064C074D06E0E0685C
:1002A00040F0010394E8070098471034AC42F6D3BD
:1002B000FFF76EFF2477010844770108202A04DB4A
:1002C000203A00FA02F1002070479140C2F1200369
:1002D00020FA03F3194390407047202A04DB203AA8
:1002E00021FA02F00021704721FA02F3D040C2F156
:1002F00020029140084319467047D2B201E000F84D
:10030000012B491EFBD270470022F6E710B51346B9
:100310000A4604461946FFF7F0FF204610BD70B5A7
:100320008C1810F8015B15F0070301D110F8013BA0
:100330002A1106D110F8012B03E010F8016B01F827
:10034000016B5B1EF9D12B0705D40023521E0DD47F
:1003500001F8013BFAE710F8013BCB1A921C03E0CD
:1003600013F8015B01F8015B521EF9D5A142D8D305
:10037000002070BDB0B586B0032812D8DFE800F0C9
:10038000020202020021019143F63001C4F202018F
:100390000A6842F008020A60096801F00801019148
:1003A0000199022104910121CDE9021107A131F83F
:1003B000105008A151F8204001A90195204600F0F5
:1003C000F7FA2804A06106B0B0BD00BF00100020FD
:1003D00000400080000C0240000C0240000C024073
:1003E000000C024010B581B04FF0000E43F2000C3B
:1003F000CDF800E0C4F2020CBEEB910FDCF830380F
:1004000043F48053CCF83038DCF8303803F48053B0
:100410000093009B4FF00103CCF8083000BF00BFF1
:1004200000BF0ED08B08C3F1000E00BF50F8043B94
:100430001EF1010E83EA020393FAA3F3CCF8003015
:10044000F4D111F0030EDCF8001091FAA1F313D0EF
:1004500048F2203CCEF6B85C017883EA010208211C
:100460008CEA5203D40708BF530801391A46F7D162
:100470000130BEF1010EEFD1D84301B010BD4EF2F4
:1004800080204FF48041CEF20000016043F67C40B2
:10049000C2F2000000F054B84EF280204FF4004148
:1004A000CEF20000016043F6DC40C2F2000000F032
:1004B00047B8000080B544F2381ED0F858C0C2F2E8
:1004C000000EDEF8003090F83510022925D10168C1
:1004D0000A6822F016020A604A6922F080024A6124
:1004E000026C0AB9826C1AB10A6822F008020A602A
:1004F0000A6822F001020A600A68D20713D0DEF807
:100500000020D21A052AF7D920214165002180F860
:100510003410032180F8351080BD002180F834109C
:100520008021416580BDC16D3F2202FA01F1CCF806
:100530000810012180F83510002180F8341080BDAA
:10054000F0B581B00446002048F2B51308210090B0
:1005500040F24800C1F64E33C2F200000268D4E90E
:10056000166037688140A2FB032539420CD022680F
:1005700013685B0708D5136823F004031360B160A8
:10058000616D41F00101616501218140394208D06E
:1005900022685269120604D5B160616D41F0020112
:1005A000616504218140394208D0226812689207AF
:1005B00004D5B160616D41F0040161651021814095
:1005C000394217D020680268120713D5B16002685B
:1005D0000168520306D4C9055EBF016821F0080115
:1005E000016001E0080301D4216C00E0A16C09B1B5
:1005F00020468847E16D202000FA01F23A423BD0C4
:1006000020680368DB0637D5B26094F8353002689D
:10061000052B19D122F016020260426922F08002F5
:100620004261226C0AB9A26C1AB1026822F0080277
:1006300002603F208840B060012084F8350000202F
:1006400084F83400216D34E0016852030CD4C905EC
:100650000ED4016821F010010160012084F83500FA
:10066000002084F8340003E0080301D4616C00E04A
:10067000E16B09B120468847606DE8B1606DC00745
:1006800016D00521A80A84F8351021680A6822F0DE
:1006900001020A60009A01328242009202D80A687E
:1006A000D207F7D1012084F83500002084F8340007
:1006B000E16C09B12046884701B0F0BD44F2381121
:1006C0000028C2F200010B6854D02DE9F04102224B
:1006D00080F83520002280F834200268156825F063
:1006E000010515601568ED0707D00D68ED1A052D99
:1006F000F8D90323202503216EE048F23F03116857
:10070000D0E9015400F10C08CFF2100301EA030C08
:1007100098E8C201D0E9073E45EA0C052543294384
:10072000456A31433943042D41EA080141EA030196
:1007300041EA0E0320D1D0E90BE143EA0E03BEF1FA
:10074000000F41EA030111605169846A21F003013D
:1007500041EA040141F0040C14D0B8F5005F32D036
:10076000B8F1000F44D1022C45D0012C3AD0002C16
:1007700041D007E0012124E01360516921F0070115
:1007800041EA050C6FF00F0140F2FF33C2F814C0CC
:10079000002551FA82F19A434AF6AB23CAF6AA23FE
:1007A0005F2988BF04328265A1FB0313190916A3D0
:1007B000595C3F23C16503FA01F1012391600021D7
:1007C0000AE008467047032CDCD8012340250121AC
:1007D000DFE804F002110208456580F83530BDE815
:1007E000F041EEE7AEF1C071B1FA81F1490904E0E0
:1007F000032C04D3C6D1CEF300610029C2D001235B
:1008000040250121E8E700BF00061016000610167B
:1008100010B590F834C0BCF1010F4CD04FF0010C72
:10082000D0F858E080F834C090F835C0BCF1010F22
:100830003ED14FF0020C80F835C04FF0000CC0F8EC
:1008400054C0D0F800C0DCF8004024F48024CCF878
:100850000040CCF804308368402B0B4608BF134699
:10086000CCF8083008BF0A46CCF80C20C16D3F22F6
:1008700002FA01F1CEF80810DCF8001041F0160180
:10088000CCF80010DCF8141041F08001CCF8141002
:10089000006C28B1DCF8000040F00800CCF8000043
:1008A000DCF8000040F00100CCF80000002010BD92
:1008B000002180F83410022010BD00002DE9F04F17
:1008C00041F6004243F600494FF0080C002700248F
:1008D000C4F20202C4F20109904200F13E4208BF94
:1008E0004FF0070CA9F57E7A02F1FF724FEAB223AE
:1008F000072B4FF0000338BF4FEAB22C012202FA57
:1009000004FB1BEA010F4BD0032205684FF00F08D0
:100910009A409543056007F01C0508FA05FE6FF044
:10092000030505EA540505442E6A26EA0E064FEA39
:10093000940E2E6207F00C05866808FA05F80CFA8A
:1009400005F596438660466826EA0B064660C6684B
:1009500026EA0202C2605AF82E2002EA0802AA42DF
:100960001ED15AF82E506FEA0B0225EA08054AF804
:100970002E50D9F800601640C9F80060D9F804601C
:100980001640C9F80460D9F808601640C9F8086034
:1009900043F60C46C4F201063546366832402A60FA
:1009A000013404370233102C08BFBDE8F08FA5E7EF
:1009B0002DE9F04F82B041F6004343F6004B082288
:1009C0004FF0010A00264FF0000CC4F20203C4F2FB
:1009D000010B984200F13E4308BF072203F1FF7369
:1009E0004FEAB327072F4FF0000738BF4FEAB32273
:1009F000009200BF0A680AFA0CF812EA080F00F029
:100A00009A80D1F804E04EF01002122A12D106F0BA
:100A10001C020F2303FA02F46FF0030303EA5C05E0
:100A200005442B6AA3430C6904FA02F21A432A62B2
:100A3000D1F804E0032304680EF00302BEF1120FA4
:100A400003FA07F302FA07F224EA03046FEA030940
:100A500042EA0402026014D80AFA0EF212F0061FEB
:100A60000FD08268CB6802EA0902BB401A43826059
:100A7000CEF30012436802FA0CF223EA08031A4389
:100A80004260C2688B6802EA0902BB401A43C26036
:100A90005FEACE024FD5002206F00C050F2401922A
:100AA00043F64402AC40C4F202021346126842F418
:100AB00080421A601A6802F4804201922CF003020C
:100AC000019B5A444FF60843CFF6FF739E46D35816
:100AD000A343009C04FA05F52B4342F80E30DBF8E3
:100AE00000204D6842EA0803EC0358BF22EA0803DD
:100AF000CBF80030AC03DBF8042042EA080358BF0F
:100B000022EA0803CBF80430EC02DBF8082042EAC2
:100B1000080358BF22EA080343F60C42CBF808301A
:100B2000AD02C4F201021446126842EA080358BF3B
:100B300022EA080323600CF1010C02370436BCF1F1
:100B4000100F04BF02B0BDE8F08F53E740F2480039
:100B500044F6D351C2F20000C1F262010068A0FB6A
:100B600001014FF0FF3000EB91120021B1EB126F49
:100B700018BF70474EF210034EF60C5CCEF2000325
:100B8000CEF2000C5A60F0228CF8172099600721F1
:100B90001960DCF80010C1F30221CA1E81F00701C0
:100BA00038BF0022042928BF04218840012121EAFE
:100BB0000000904000018CF81700704790F8B813BF
:100BC000012901D1022150E00121FF2380F8B8134F
:100BD000D0F800C0DCF8082022F00102CCF8082090
:100BE0004FF62062CFF6FF720CEB02012032C1F803
:100BF000E83AC1F8E83CF7D140F63F524FF0FF33F6
:100C00000021CCF81838CCF81018CCF81418CCF80F
:100C10001C181021C0F20302CCF8101001339342CB
:100C200003D8DCF81010C906F8D44FF484614FF0F3
:100C3000FF33CCF8101000BF0133934203D8DCF827
:100C400010108906F8D4DCF8041841F00201CCF841
:100C5000041844F23811C2F200010A680B689B1AAA
:100C6000042BFBD3002180F8B81308467047B0B5B9
:100C7000D0F81852044695F8180280B12046812118
:100C800003F01DFE687A022818BFB0BD05F5037297
:100C9000204601211F23BDE8B04003F0E8BDD5F890
:100CA00014020028EAD0687A0028E7D12046012102
:100CB00003F005FEE2E710B5D0F81842627A022A86
:100CC00005D1812103F0FBFD0020607210BD49B207
:100CD000B1F1FF3FFADC012A08BF10BD0121BDE8D8
:100CE000104000F0BDB810B50446D0F81802017AE3
:100CF000CA1E022A05D220460021BDE8104000F09D
:100D0000AFB8022910D190F8191200F21B22204628
:100D100002F0D6FBB0F1FF3FC8BF10BD2046012155
:100D2000BDE8104000F09CB810BDB0B5D0F8185226
:100D30000446287A012834D0E8BBD5E98401C5E906
:100D40008C01D4F82002B0F82C021F2810D145F2F3
:100D50005531D5F80C02C4F24231884208D195F8D9
:100D60001912012904D895F81A020138102823D342
:100D700095F85D024FF4005205EBC0010130C1F857
:100D80004022052281F83C2202216972C1B2043955
:100D900018BF014685F85D122046BDE8B040FFF758
:100DA00066BF95F8191205F21B22204602F088FB57
:100DB000B0F1FF3F2ADDB0BD05F21B22204602F054
:100DC0007FFB297AB0F1FF3F1EDD481E0328F2D3D6
:100DD000688908B3D4F81812002281F83822042256
:100DE0000A72D1F81422D1F83432824238BF104648
:100DF0001A1A83B2C1F8342205F10C02204681216F
:100E0000BDE8B04003F0BBBD0529C5D12046012196
:100E1000BDE8B04000F024B820460021BDE8B04055
:100E200000F01EB8B0B5D0F8185204460020288152
:100E3000A5F85C02D4F81C0201680020884720460F
:100E4000012103F073FC2046812103F06FFC05F5BE
:100E50000372204601211F23BDE8B04003F007BD07
:100E6000B0B5D0F81852044645F255300D23C5F2FE
:100E7000423085F83812C5F82C02002005F50B72B7
:100E800081212872204603F07AFD05F50372204681
:100E900001211F23BDE8B04003F0E9BC10B543F6C3
:100EA0005824C2F20004D4F8140221794268204682
:100EB0009047D4F82002FFF781FE012084F8FC015E
:100EC000D4F814022179426820469047D4F82002D1
:100ED000FFF774FED4F820422CB3032084F8B90342
:100EE0002046FFF76BFE2068B0F1A04F18D143F603
:100EF0003400C4F20200016821F08001016000208A
:100F00004FF4F051C4F20200FFF7D8FC4EF2881003
:100F10000821CEF200000160BFF34F8FBFF36F8F47
:100F2000002084F8B90310BD2DE9F04F87B043F6D7
:100F30005828C2F20008D8F8140210B10020C8F8EE
:100F4000140240F20C0043F63C5B4FF00109002410
:100F500040F2000A0227042602ADC2F2000088F81F
:100F6000FC91C2F2000BC4F2020A2946C8F8100232
:100F7000032088F80040CBF8EC83C8F820B28BF847
:100F8000B9034FF0A040CBE90B94CBE90374CBE954
:100F90000547CBE90744CBF82440CBE900064FF4E2
:100FA0000070CDE9034402905046FFF701FD0A208E
:100FB0002946CDE905404FF4E050CDE90374029095
:100FC0005046FFF7F5FC43F634004FF6FF02C4F23B
:100FD0000200016841F0800101600194016941F45F
:100FE00080410161006900F48040019001984EF653
:100FF0000C50CEF200000168114040F20062C0F2D5
:10100000FA52114340F63F520160C0F203020068F9
:10101000C0F30220C11E80F0070038BF0021042861
:1010200038BF06464FF0FF30B04029EA0000884044
:101030004EF243410001CEF2000108704EF208105A
:101040000821CEF200000160DBF80000816821F089
:1010500001018160DBF81830DBF81010012B2ED174
:10106000DBF83430876B4FF6BF76CFF6BD7627F4CA
:101070008037012B8763C76807EA0607C760C76820
:1010800027F44017C76002BFC36843F48013C360EE
:101090004FF0FF33013393422FD80769B7F1FF3F79
:1010A000F8DC036943F0010303614FF0FF3300BF35
:1010B0000133934221D80769FF07F9D11DE0C368C6
:1010C00043F04003C3604FF0FF3300BF013393424E
:1010D00010D80769B7F1FF3FF8DC036943F001035B
:1010E00003614FF0FF3300BF0133934202D8076919
:1010F000FF07F9D14FF480338363012907D1816859
:1011000041F006018160816841F020018160C16881
:1011100044F2381AC2F2000A21F0C041C160C1682D
:1011200041F08041C160DAF8003000BFDAF80070A9
:10113000FF1A332FFAD3002301260025002400BF15
:101140000BEB05071C35FC8787F838400134B5F5F3
:10115000D27F87F83960FB64C7E9103387F83B30EA
:10116000EED10023412600250BEB0507A6F1410433
:101170001C3587F8F84187F8F931C7F80C32C7E910
:10118000803387F8FB31FC8740F826300136B5F50F
:10119000D27FE9D1DBF82CE04FF40024BEF1000F40
:1011A00008BF4FF40014DBE9065CDBF80470DBE9F0
:1011B0000339866B3443012D84634FF00004C0F87B
:1011C000004ED0F80048C0F8004806D1D0F80048DA
:1011D000002B18BF44F0010403E0D0F8003843F0BE
:1011E00003044FF48463C0F8004803614FF0FF33F9
:1011F0000133934202D80469A406F9D41023036191
:101200004FF0FF330133934202D80469E406F9D466
:101210000022002F4FF0FF33C0F81028C0F8142828
:10122000C0F81838C0F81C2820D000F510654FF021
:101230009043FF243E4600BF2968013E03EAE17166
:1012400029602A61AC6005F12005F5D100F5306216
:101250004FF090450023FF241168013F05EAE1713A
:1012600011601361946002F12002F5D1D0F81018DA
:10127000B9F1010F21F48071C0F8101818D140F2B3
:1012800000110246C0F28001C0F83018D0F83018C2
:1012900041F4803141F00301C0F83018D0F8301823
:1012A000002142F8181F6FF0804142F8041C0EE044
:1012B00000210246B9F1000F42F8181F6FF080417B
:1012C00042F8041C03D1116841F01001116043F68B
:1012D00000031168BCF1000FC8F23C0341EA0301AE
:1012E00011601EBF116841F008011160BEF1010FCD
:1012F00005D1116841F0804141F0040111600121E4
:101300008BF8B913D0F8041841F00201C0F80418A2
:10131000DAF80020DAF80010891A0429FAD38021BB
:101320004162416A41F480018162416A826A01EB53
:10133000124141F40001C0F8041140F20810C2F259
:101340000000C8F81C0240F26400C2F20000C8F8B5
:101350001402D8F8200290F8B813012918D00121FE
:1013600080F8B8130268D2F8041821F00201C2F81C
:101370000418DAF8003000BFDAF80010C91A04299E
:10138000FAD3916841F001019160002180F8B8130F
:1013900007B0BDE8F08F00002DE9F04F87B043F6AD
:1013A0003C5BC2F2000BDBF800406069C00740F014
:1013B00034876069A169014200F02F876069A169E3
:1013C0000840800742BF606900F002006061606908
:1013D000A169049408402146000340F16D83D4F8CC
:1013E0001808D4F81C184FF0000C0840BCEB104F44
:1013F00007D0000C0BF504774FF430684FF0000A6B
:101400002EE0214658E3BCF1000F1DD0D9F80400AE
:10141000604500F09681D9F814124A68C1B2484676
:10142000904743F23860C2F200000178C9F8041016
:10143000D9F81402002800F0CB8102684846904792
:10144000002840F0C5817CE100206146C9F8040015
:10145000022089F8FC01D9F8140242686FE100BF4C
:101460000646C00700F01C83DBF8000008EB000113
:101470008968D0F8140800EA0103D8077CD004EB8F
:10148000080001218160DBF81010012909D157E91A
:10149000041200696FF3DF40081A3860501847F8EB
:1014A0000C0CDBF8EC535FEA0A600DD0D5F814029F
:1014B0008269D2B395F8FC01032836D15FFA8AF12C
:1014C00028461C46904715E0D5F8F40103282CD196
:1014D000D5E94310814210D9091A57F80C2C1C4643
:1014E000C5F80C11814238BF084683B20021284656
:1014F00003F0BDF92346049C15E0D5F814020593CA
:10150000016929B195F8FC01032801D128468847D3
:101510000420002100220023C5F8F401284603F02E
:101520002EFADDE904434FF0000CDBF80C0250EA20
:101530000A0021D1DBF8100001281DD1DBF80000E2
:10154000C0F810CBD0F8101B41F40021C0F8101BDC
:10155000D0F8101B41F01801C0F8101BD0F8101B78
:1015600041F0C041C0F8101B0BF56F71C0F8141B9F
:101570004FF08021C0F8001B180740F18582CDF89C
:101580000CA0B2469BF8BC53DBF8EC6305935C46B9
:101590004FF0010986F808529BF8BD3386F80932EE
:1015A0009BF8BEC39BF8BFB34CEA0B2EA6F80AE229
:1015B00094F8C01394F8C10341EA002205F01F001B
:1015C000A6F80C220228B4F8C243C6E97D94A6F816
:1015D0000E42B14606F502762FD0012802963CD085
:1015E0000028564648D1DDF80CA0092B00F2F08007
:1015F000DFE813F00A008900EE009800EE00AF006B
:10160000E100EE00FE00120199F8FC0100F0FE007E
:10161000022840F0DD8002204A4600210223C9F85A
:10162000F401C9E90600D9F8040200284FF00300CC
:1016300008BF012042F80C0F0BE205F060004FF0EC
:10164000000C20281CD1D9F8140231468268484683
:1016500090474FF0000C564644E099F8FC0156467E
:10166000032835D1DDF80CA011F0FE0F3DD0AFE01E
:10167000002103F024F9FBE105F0800148462DE04C
:10168000002B4C4600F0E980B346012B564600F093
:10169000F080DDF80CA0032B40F0EC8194F8FC0105
:1016A000032840F0EC80BEF1000F06D141F080002D
:1016B000802802D0204603F002F9D4F814025946DB
:1016C0008268204690470420C4F8F40120463CE09C
:1016D0004846802103F0F3F84846002103F0EFF874
:1016E0004FF0000CDDF80CA0C4E1D9F81402029907
:1016F000826848469047B9F80E024FF0000C002867
:1017000040F0B8811DE099F8FC0100F0FE000228CD
:101710005ED1BEF1010F4FF0000C40F0AB81C9F873
:1017200004C208E0BEF1010F4FF0000C40F0A281AE
:101730000120C9F80402D9F81402029982684846C7
:1017400090470420C9F8F4014846002100220023F4
:101750008CE142EA040000043AD199F8FC0100232C
:10176000032835D00CF07F0489F8FE41D9F8200217
:1017700090F8B81301290ED00168D1F8002822F49E
:10178000FE62C1F80028D1F8002842EA0412C1F82C
:10179000002880F8B8330420002100220023C9F873
:1017A000F401484603F0EBF8002C14BF022001209E
:1017B00089F8FC015CE1ABF10100062808D8DFE8FC
:1017C00010F00D00E000EE00070007001B012701EC
:1017D0004846802103F073F8484649E7D9F81012CB
:1017E00099F810000A680DF11A01904702461DE1B0
:1017F000012CEDD199F8FC010021032800F02B8188
:101800000228E5D102204A46C9F8F4010120C9E9BD
:10181000060042F8081F26E143F23860BCF1020FCF
:10182000C2F2000080F800C0D2D299F8FC0103286F
:101830003FF4E9AD0228CBD1BCF1000F3FF481AFFA
:10184000032089F8FC01C9F804C0D9F81402002863
:10185000BED0026848466146F1E594F8FC01564660
:1018600003281BD0DDF80CA0022811D148060DD1A9
:1018700000E194F8FC01DDF80CA0032836D0022822
:1018800006D141F08000802800F0F4802046F0E688
:101890002046802103F013F82046E9E601F07F009E
:1018A00011F0800104EB0013C0EBC00003F114023F
:1018B00008BF03F58272D4F8203200294FF00001EE
:1018C00003EB800000F13A0308BF00F5FD731878C0
:1018D0000223002818BF012010600220C4E906007E
:1018E000C4F8F401204603F04AF8F9E6BEF1000F0F
:1018F00040F0C08048063FF4E6AED4F82002C1EBC9
:10190000C10201F07F03B1460D064FF0000C4FEA13
:10191000D1114FF0000500EB8206C3EBC30200EBD0
:10192000820202F1380258BF06F5FC725170137042
:1019300082F802C090F8B863012E1AD0012600295F
:101940004FEA431180F8B86306680CBF06F53063B0
:1019500006F510635E5826F400165E50D27802F049
:10196000FE02022A02BFCA5842F08052CA5080F8D2
:10197000B853D4F8140259468268204690474E4620
:10198000A1E699F81010D9F8140200290CBF816A59
:10199000C16A0DF11A0088470246022045E0BCF1F9
:1019A000050F3FF615AFDFE80CF0211B150F0903FB
:1019B000D9F8101299F810008A6914E7D9F81012B2
:1019C00099F810004A690EE7D9F8101299F810003A
:1019D0000A6908E7D9F8101299F81000CA6802E7F6
:1019E000D9F8101299F810008A68FCE6D9F810129C
:1019F00099F810004A68F6E699F8100000287FF47C
:101A0000E7AED9F81402416B0DF11A008847EDE6F4
:101A100099F8100000287FF4DBAED9F81402016BAE
:101A20000DF11A008847024607205070BDF81A00D1
:101A30004FF0000CF0B1B9F80E32DBB1984238BF6C
:101A400003460220ADF81A30C9E906330021C9F86F
:101A5000F40148460AE0012009F10402C9E9060040
:101A60000220C9F8F40148460021012302F087FF53
:101A70004FF0000C049C082143F63C5BC2F2000BC3
:101A800004EB08008160059BD80642BF04EB080008
:101A900010218160980642BF04EB0800202181607C
:101AA00008F120081C3770080AF1010ABCEB560F38
:101AB0007FF4D6ACDBF8001048698A691040400317
:101AC00040F16681D1F81808D1F81C28104080B286
:101AD000002800F05D8104F5106300264FF0000A35
:101AE00002933DE00EF14407039B05F51060D7F823
:101AF00000E005904FEA0A30019703F5805601E0B7
:101B0000D1F800C043F63C53ABEB0407C2F200032C
:101B1000674588BF67461D7C75B9032313FA87F5AF
:101B20000023B3EB950F07D0AC08754655F8043B7E
:101B3000013C8351FAD114683C44059DFB1CBE4412
:101B40001460AD69ADB2B5EB930F03D9D9F800B00D
:101B5000A345D5D80198029BC0F800E0FAE000BF89
:101B60008046C00700F00A81DBF80000D0F81018AA
:101B7000D0F8342800EB4A10D0F8080922FA0AF20B
:101B8000D201D2B2114301EA00095FEAC97000F044
:101B9000A1800122D4F8341802FA0AF021EA0000E8
:101BA000C4F8340803EB4A108260DBF81000012807
:101BB00007D1CAEBCA000BEB8000D0E91012114428
:101BC0004164DBF8EC535FEA0A600FD0D5F81402E9
:101BD0004269002A57D095F8FC01032853D15FFAD7
:101BE0008AF128469047029B049C4CE0D5F8F4010A
:101BF000022842D1D5E90710814214D9CAEBCA02A2
:101C0000081A00210BEB820283B2526CE86128466D
:101C100002F0B5FE284600210022002302F027FE34
:101C2000029B049C29E0A969814211D3B1FBF0F227
:101C300002FB101060B9D5F8F801814208D228469D
:101C400000210022002302F09AFEC5F8F861E1E7C6
:101C5000D5F81402C16829B195F8FC01032801D117
:101C6000284688470520002100220023C5F8F401FA
:101C7000284602F0FCFD049C029B95F80002012816
:101C800008BF85F80062DBF84C0050EA0A0021D159
:101C9000DBF8100001281DD1DBF80000C0F8106B44
:101CA000D0F8101B41F40021C0F8101BD0F8101B15
:101CB00041F01801C0F8101BD0F8101B41F0C041D2
:101CC000C0F8101B0BF56F71C0F8141B4FF080218A
:101CD000C0F8001B5FEA097042BF03EB4A100821FD
:101CE00081605FEAC96042BF03EB4A101021816046
:101CF0005FEA496042BF03EB4A10402181605FEA1E
:101D0000897042BF03EB4A10022181605FEA0960DB
:101D100034D5CAEBCA000BEB800E5846714651F819
:101D200040CF0A46894652F8104F59F80CBFABEB2A
:101D30000407674588BF67460068039000EB4A15B3
:101D4000F81CD5F81869B6B2B6EB900F88BFA3455A
:101D50003FF6C8AE43F63C5B049C002F4FF00006F4
:101D6000C2F2000B0AD10399012000FA0AF00A46D8
:101D7000D1F8341821EA0000C2F834084FEA5800BC
:101D80000AF1010AB6EB580F7FF4EAAEDBF8001057
:101D900048698A691040B0F1FF3F0FDCD4F80408AD
:101DA00020F00100C4F80408DBF8EC0390F8FD21F2
:101DB00080F8FC21486900F00040486148698A6960
:101DC0001040000521D5D4F80808C00719D0DBF869
:101DD000EC03042390F8FC2180F8FC3180F8FD210D
:101DE000D1F8000E40F00100C1F8000EDBF8200031
:101DF00038B14EF61050CEF20000026842F00602F2
:101E00000260486900F40060486148698A691040CE
:101E1000C0046CD5D4F8040840F63F534FF0FF32AD
:101E2000C0F2030320F00100C4F804084FF48460FA
:101E3000086104F5006000BF01329A4202D80F69C0
:101E4000BF06F9D4DBF804205AB14FF6086704F551
:101E50003063FF26CFF6FF77DE519E602033013AD4
:101E6000FAD14FF0FF328261C26942F00112C261C1
:101E7000DBF8302042B1D0F8842042F00B02C0F8E9
:101E8000842000F1440205E0426942F02B024261E5
:101E900000F11002136843F00B031360026822F490
:101EA000FE62026000229BF81000C1F8102BD1F8EE
:101EB000102B012842F40022C1F8102BD1F8102B6E
:101EC00042F01802C1F8102BD1F8102B42F0C0429A
:101ED000C1F8102B07D10BF56F70C1F8140B4FF040
:101EE0008020C1F8000B486900F4805048614869BF
:101EF0008A691040800440F1F780D1F8000940F26F
:101F0000FF729043C1F80009D1F8080800F00600FC
:101F1000042802BFD1F8000940F00300C1F800090D
:101F2000D1F8040840F48070C1F80408C86820F4AF
:101F30007050C860D1F8080810F0060F2BD0D1F807
:101F4000080800F0060002280BD0D1F8080800F0BD
:101F50000600062805D0D1F8080800F0060004287D
:101F600019D1402045F2403243F2FF43CBF8140030
:101F70000320CFF62772C0F20C03CBF80C0040F21E
:101F80004800C2F20000006802449A420ED8C868B5
:101F900040F4705080E04FF400700022CBF8140041
:101FA000CBF80C20C86840F4105076E041F640624F
:101FB00044F23F23CFF61B72C0F20F0302449A4251
:101FC00003D8C86840F4605066E0A0F5740244F697
:101FD0007F73A2F51052C0F212039A4203D8C86868
:101FE00040F4505058E0A0F183724DF21F63A2F507
:101FF000E742C0F213039A4203D8C86840F4405045
:102000004AE04BF260624EF25F33CFF6E562C0F217
:10201000160302449A4203D8C86840F430503BE0AB
:102020004DF2003247F23F73CFF6CE62C0F21B038F
:1020300002449A4203D8C86840F420502CE045F688
:10204000C03249F2BF13CFF6B362C0F2210302449B
:102050009A4203D8C86840F410501DE0A0F1B7724E
:1020600047F21F53A2F55852C0F238039A4203D8E0
:10207000C86840F400500FE045F2E04249F6DF4303
:10208000CFF65962C0F241030244C8689A428CBF3D
:1020900040F4C05040F4E0500122C86000214023C9
:1020A0004025DBF8EC4322742046002202F074FB4A
:1020B0002046802100224023C4F8105102F06CFB1E
:1020C000012084F8FC012562D4F8180228B1D4F864
:1020D00014022179426820469047DBF800104869D5
:1020E00000F400504861049C48698A691040C006A9
:1020F0004BD5886920F010008861226AC2F34343FF
:1021000002F00F00062B26D0022B3AD147F6F073CF
:10211000134036D0C0EBC000032200260BEB80003A
:1021200002EB13171B09D0F804E200F5017CB6EBB3
:10213000970F08D0BE084FF4805577466259013E8C
:1021400047F8042BFAD10EEB0302CCF80020D0F8AC
:1021500010221A4413E000234FF480570BEB830541
:10216000E6590133022BC5F8BC63F7D1C0EBC000C0
:102170000BEB8000D0F81032C2F30A121A44C0F8F8
:102180001022886940F01000886148698A6910400F
:10219000000710D5DBF8EC0390F8FC21032A06D1E8
:1021A000D0F81422D26912B19047DBF800104869C8
:1021B00000F00800486148698A691040C00242BFC7
:1021C000486900F48010486148698A6910408002BB
:1021D00042BF486900F40010486148698A691040AC
:1021E000400042BF486900F08040486148698A6900
:1021F0001040400711D54C6860070BD5DBF8EC03A5
:10220000012180F8FC11D0F814220179526890471E
:10221000DBF8001048682043486007B0BDE8F08F45
:102220002DE9F04FADF52B7D40F280194FF4505160
:10223000C2F200094846FEF767F840F22C154846FE
:102240003E22C2F20005294602F01AFE064609F5B2
:10225000FE7005F14201042202F012FE3E3540EA12
:10226000060409F500700422294602F009FE044321
:1022700009F580502946042202F002FE40F22801AE
:1022800009F5F05504432022C2F20001284602F06D
:10229000F7FD44EA000243F64100C2F20000007874
:1022A000012840F0EA8441F6086045F255014CF2FD
:1022B000FF3BCDE904254FF00F0E4FF0000840F62C
:1022C000FF7A29F8001044F24211CFF67F5B41F605
:1022D0000460C4F6433149F8001000BF99F80D00BE
:1022E000D9F82010B1FBF0F5A8B2022873D340F260
:1022F0008011C8EBC8004FF00009C2F2000101EBE9
:10230000402000F2032400BF20685FFA89FCABB2D2
:10231000A1884FF6FF72022B20EA0A0040EA8C00E7
:1023200000F10300206032D001EA020640F2FF31E2
:10233000032BCFF60071A68000EA01000CF1010129
:1023400040EA8131216030D01BF140774FEA8C00A8
:102350006EF11F023940471D042B02EA060241EAD2
:10236000076142EA17262160A6802BD001EA0B0103
:102370000630043D09F10109216006EA0E0141EA37
:102380000010A080A8B206340128BDD823E0114077
:10239000A18040F2FF31CFF6007108404FF20001FA
:1023A000C0F2FF010843206015E01BF1407000EA15
:1023B000010040F07F4020606EF11F00304040F08F
:1023C0000F0007E001EA0B004FF6F071206006EA0B
:1023D0000E000843A08040F2801908F10108B8F10E
:1023E000020FC2F200097FF479AF4FF40D7005F0CF
:1023F000C7F943F6542B804606AE1E21C2F2000BED
:10240000CBF8000043F63020C0F22F000E9030468B
:10241000FDF77AFF43F6502AC2F2000ADAF800000C
:1024200047683846FDF7D6FE024630463946FDF786
:1024300021FF30462F21FDF7C3FE40B15F2406AED9
:10244000047030462F21FDF7BBFE0028F8D106AE00
:102450003046FDF7BFFE172814D306AF002500BF96
:1024600038465F21FDF7CAFE044638462921FDF7AC
:10247000C5FE844298BF441C38462570FDF7AAFE6D
:102480001628EDD83046FDF7A5FE46F22E210EAFF8
:10249000C6F669619997315030440021017199A8BD
:1024A00003F046F9002812DB43F28051C2F200012A
:1024B00051F820200AB100231370B8F1000F1CBF9F
:1024C000002288F8002041F82080002000E00B2046
:1024D00043F64208A596C2F2000888F80000A5A8B5
:1024E00003F026F9002836DB43F28051C2F20001E6
:1024F00051F820608EB3317889B3A59C99AA99963A
:1025000001E000BF013420785C2818BF2F28F9D0E3
:1025100000209B90217820294DD2802000218DF829
:102520008F0299A802F0D8FF0546002D00F05F82C7
:10253000042D99A840F0E1819DF88F1211F0A00FB1
:1025400000F06482D8460625C34643F642080EAF23
:10255000C2F20008D1E10B25CFE10C25CDE170706E
:10256000002530460021357002F054FD022840F06D
:10257000938199AC002021463218103092F8F63140
:10258000002B14BFD2F8FA21002241F8042B402876
:10259000F2D1B246002600BF54F8265035B150465D
:1025A000294602F037FD022801D27CE103200136E2
:1025B000042EF1D371E147F26A3E02F1200C30465D
:1025C000C0F6010EC0680134002933D000224BB29E
:1025D000B3F1FF3F01DDCBB208E047F22263C0F662
:1025E000010303EB41016FF0FF03CB5A202B1FD3F4
:1025F0005C2B4FF0000118BF2F2B20D07F2B0DD864
:10260000774600BF17F8011B09B18B42FAD10625A6
:102610003F2A0EAF00F2718119B16EE13F2A00F23C
:10262000F38120F81230013214F8011B0029CED1B9
:10263000042104E00421002201E000BF01342378DA
:102640005C2B18BF2F2BF9D0002A00F0208100EB63
:102650004203524233F8027C2E2F18BF202F03D1A1
:10266000023B0132F6D112E10027524202961F804E
:1026700030F817300137202BFAD02E2B41F003060B
:1026800008BF3146831E7D1E012F18BF314600BF93
:102690003AB133F81270013A2E2FF9D102F1010E3E
:1026A00001E04FF0000E4FF02032CDF80CC0AEF13B
:1026B00001094FF000084FF0000ACCF80720CCF8D1
:1026C0000020CCF804204FF0080C00BF30F8156053
:1026D0002F460135202E03D02E2E04D1B9451AD015
:1026E00041F00301F2E7002E6AD0E24562D2B9451B
:1026F00060D0802E38D30027002200BF47F222632B
:10270000C0F6010333F81730B3421FD0013701324E
:10271000802FF3D31BE00122754643F6502A41F087
:102720000306BCF10B0F0EAFC2F2000A00F0AA8044
:10273000002A08BF3146754500F2A7804FEA880895
:102740004FF00B0C4FF0080A7546BFE73A4680324F
:1027500041F00201D6B2120606D547F6100306F084
:102760007F02C0F600039E5C56B147F29022C0F68D
:10277000010200BF12F8017B0FB1BE42FAD14FB186
:1027800041F003015F2699AA52440AF1010A82F836
:1027900020609BE7412EF6D35A2E02D848F002085B
:1027A000F1E7A6F1610292B2192A9CBF203E48F0DF
:1027B0000108E8E7A9EB0702B2FA82F25209ACE796
:1027C00043F6502A0E460EAFC2F2000A9DF884026C
:1027D00040F2801946F00201C2F20009E52804BF68
:1027E00005208DF88402BCF1080F08BF4FEA880865
:1027F00008F00300032808F00C0008BF0E460C2860
:1028000008BF0E46B00707D4102008F0040100EA04
:10281000081040EA4100064399A88DF88F6202F043
:1028200041FC05469DF88F02002D40F0298343F6B8
:102830004208029E4107C2F2000800F1DA809DF8CA
:102840006A02C00640F128839D986FF35F2031181B
:1028500091F84E0091F84F2040EA02203278032A86
:1028600006D134310A7D497D42EA012140EA014026
:102870009B9047F26A3EDDF80CC021789998C0F62B
:10288000010E9FE64FF00B0CA0E70E469EE70021DD
:10289000062501800EAF30E0B246042801D10125A3
:1028A00027E0012824D89AF83F009AF8401040EA1F
:1028B0000120B0F5007F1BD19AF84A009AF84B101E
:1028C00040EA012008B9DAF85800CAF81C009AF862
:1028D0004430591E8AF80230012909D89AF841205B
:1028E000002AAAF80A2003D0511E114200F0BB8230
:1028F0000D2543F6502AC2F2000A00260F96DBF897
:102900000000802288F8005000F134010598FDF79E
:10291000B1FC002E00F066813078002800F0628162
:10292000F088BDF840103546814218BF002540F0C0
:1029300059819DF84C0041060CD43078002800F0F5
:102940005181F088BDF84010814240F04B81002653
:102950000F9648E1000611D50FA8169A012301260B
:1029600000F12801002001F045FC002840F03B81E7
:102970009DF84C0000F07F008DF84C001799284618
:1029800003F000FE0646002840F02D811898C17A19
:1029900041F02001C17211990F9A0B0A8176C3761A
:1029A0001278032A03D10A0E090C427501754BF205
:1029B000C0321299C5F29C02C0F816200022428251
:1029C0000A0E0177C2770A0C090A82774177012043
:1029D000E870284604F032FC002800F0B880064673
:1029E0009DF84C0000F0BF008DF84C00FBE09DF816
:1029F0008F0240B2002807DB9DF86A0210F0110F29
:102A000000F05982072578E7062576E7999B002490
:102A1000DA6800BF32F8141001340029FAD100221C
:102A20000DF5267A029600BF811891F820100AF859
:102A3000021001320C2AF7D19DF8A3220193D1078D
:102A400000F0388141F22107402100F1200C4FF0C5
:102A5000010E4FF003090DF529784FF0000BC0F27D
:102A600001078DF88F12DE68002100BF1AF80120DF
:102A7000431801310B2983F82020F7D1BEF1050F4F
:102A8000754614D9328875468AB100BF102329468D
:102A900002F00105520845EA4105090448BF7D409E
:102AA000013B2946F4D136F8022F002AEED1072641
:102AB000294669F31F11392988BF073108F8061024
:102AC000013E2909BBEB151F0D46F1D17E21002ED9
:102AD00008F806104FF0000107D000BF1CF80120D5
:102AE000202A02D00131B142F8D3CDF80CE000BF6A
:102AF000072E00EB010301F101019ABF18F806202F
:102B000001362022082983F82020F1D3664602F0FE
:102B1000C9FA002840F0B680DDF80CE0019B99A8C6
:102B2000B4460EF1010EBEF1640F9CD340F2801941
:102B300043F6502A43F6542BC2F20009C2F2000AAF
:102B4000C2F2000B40F08881D8460725FCE42878C3
:102B500003283DD1287901283AD105F138004FF4F6
:102B6000FD71FDF7D1FB45F252200024C4F2611043
:102B700045F8340F4AF65520A5F8FE0147F27220B9
:102B8000C6F24110C5F8E40155E9090155F8142CC5
:102B90000B0E85F8E81185F8EC01013285F8EB3170
:102BA0000B0C090A85F8EA3185F8E911010E0123B9
:102BB00085F8EF11010C000A85F8EE1185F8ED019A
:102BC0000020294645F8042C01F014FB05F8304C90
:102BD0009DF84C0000F0BF008DF84C000F9E002EB9
:102BE0007FF4ABAE092699A888F80060999702F0A7
:102BF0009FFD00280CDB43F28051C2F2000151F826
:102C000020200AB100231370002241F8202000E0A8
:102C10000B22DBF8000088F8002004F089FD98F80A
:102C2000000008B1FF2228E0DAF800406068FDF7F4
:102C3000D1FA082808D8606941F63C61800249F859
:102C4000010041F6386013E01928EBD841F65C60CA
:102C5000616959F80020890232B141F67C6049F877
:102C6000001041F6786003E049F8001041F6586022
:102C7000049A48444FF40031016050B20DF52B7DA9
:102C8000BDE8F08F40F2801943F6502A054604282B
:102C9000C2F20009C2F2000A40F0008143F6420885
:102CA00043F6542B9DF8A322C2F20008C2F2000B97
:102CB0008DF88F2290074FF0010609D54EF64F414F
:102CC00004F10B00C4F6C461A0FB010106EB910600
:102CD000999F99A8002102F0FFFB40F2801943F66A
:102CE000502A05460028C2F20009C2F2000A16D195
:102CF00000249F99384603F045FC78B9A0980078E5
:102D0000E52800D018B90134B44201D10DE0002407
:102D100099A8012102F09AFA0028EAD00546042D6C
:102D200008BF0725002D40F0C180D846B6F1010B41
:102D30006BD09D9899AFA0EB4B11384602F0CCFBBD
:102D400040F2801943F6502A05460028C2F20009D5
:102D5000C2F2000A7FF4F8AB4FF0000A20205FFABD
:102D60008AF2395C013053082B2843EAC21202EB85
:102D7000010AF4D147F690094FF6FF77C0F6000933
:102D8000019C9F99204603F0FDFB002840F04581FF
:102D9000A09800220F23E1680D260025A446428357
:102DA000A0F80B305FFA8BF380F80DA073430D3B56
:102DB00019F80240BD421ABF31F8135001334FF6E3
:102DC000FF752E0A0132002D05550444667008BFB8
:102DD0003D460D2AECD1BD4202D14BF0400106E048
:102DE00031F813100029594608BF4BF0400101701B
:102DF000012000218CF8030099A802F027FA00288E
:102E000040F00B81BBF1010BBAD19F99019803F0FF
:102E1000B9FB40F2801943F6502A05460028C2F259
:102E20000009C2F2000A7FF48FABA0982021FDF7C1
:102E30006BFA99A8A09A00212030435C53540131C9
:102E40000B29FAD19DF88F02A099C34600F0180013
:102E5000087301990120C87043F64208029E0EAF24
:102E6000C2F2000827E09AF845709AF8461047EA3F
:102E700001213F07AAF8081078D00D250EAF38E5DC
:102E800043F64208029E042DC2F200087FF44DABC7
:102E9000400799A83FF550AB05252EE543F64208BB
:102EA00043F6542BC2F20008C2F2000B029E002D22
:102EB0000EAF7FF422ADA0983178827EC37E0329C5
:102EC00042EA032405D1017D427D41EA022144EA20
:102ED00001444BF2C0312022C5F29C01C0F80E1013
:102EE00000214183C2723278032A08BF8182C16106
:102EF0000120002CF0706BD0012C01D10225FCE4E4
:102F0000DDF864A2DAF81800A04228D9306B254613
:102F10000390504611E0DAE90510821E914208D272
:102F20000131CAF814109AF8041041F001018AF82E
:102F3000041087423CD299983D46294602F091FB05
:102F40000746013074D09FB3012F73D050462946F5
:102F5000002203F033FB0028DDD005466BE043F68A
:102F600050200225C2F200008246C6E4CDF808A037
:102F70009AF84770029E96F8486047EA0624029E37
:102F800004B9746D96F8427096F8436043F6502A7F
:102F9000C2F2000A47EA062747B1434303EB111682
:102FA0003E44B44202D3A41B94424BD20D2571E49B
:102FB0000399304603F0E6FA0546601E0EAF306115
:102FC00043F65020002DC2F2000082467FF495ACFB
:102FD000316BA098CDE917103278817EC37E41EA2B
:102FE0000321032A05D1027D437D42EA032241EAFF
:102FF0000241119100254821C0690F961290F08876
:103000001695ADF84C1014954FF40071ADF84000D2
:103010000FA82830FDF778F971E440F2801943F6E3
:10302000502A0546C2F20009C2F2000AFFF78CBA24
:10303000012500E0022543F65020C2F2000082463E
:10304000FFF728BC4FF6F67CB4FBF2F24FF0000815
:103050004FF6F674C0F6FF7C624538BF4FF00308A8
:10306000A24240F6F67438BF4FF00208A24238BFC1
:103070004FF00108B8F1000F18D0029C2E442F44E5
:103080000232B8F1030FE662C4E90857A26110D119
:10309000029F97F85E3097F85F70194341EA072165
:1030A000D1B9029B196E9962910010E00D25FFF7CE
:1030B0004CBA89B1F918029BB8F1020F99620FBF9F
:1030C000510002EB420102F0010202EB510101F258
:1030D000FF11B0EB512F06D240F280190D25C2F23C
:1030E0000009FFF732BA02994FF0FF30B8F1030F31
:1030F000C1E904004FF08000087132D1029991F8C3
:10310000640091F8651040EA0120012829D1029855
:10311000691C03F037FA20BB02990020087191F86E
:10312000320291F8331240EA01204AF655218842D2
:1031300017D1029845F25221C4F26111406B8842C6
:103140000FD1029847F27221C6F24111D0F818024D
:10315000884206D1029AD2F81C02D2F82012C2E9A3
:103160000410029E43F28C5040F280190EAFC2F25E
:103170000000C2F2000986F8008043F64208018888
:10318000C2F200080131018043F28E50C2F2000009
:10319000F060F180FFF7B1B9B0B582B043F21465C9
:1031A0000446C2F200052878800702D44FF0FF30B1
:1031B00034E043F21060C2F20000007810B16FF00A
:1031C00001002BE043F21860FF21C2F20000C0F2C0
:1031D0001801006808400121C0F208018842E5D1C9
:1031E00040F218404FF080510222C4F20200016008
:1031F00015208DF8040001A8811C00F020FF68B99B
:1032000043F21C60C2F2000001E000BF00BFC168D1
:103210000229FBD19DF8070020700020297889073A
:103220001AD543F21061C2F200010978A1B943F244
:103230001861FF22C2F20001C0F2180209681140B1
:103240000122C0F20802914206D140F218414FF427
:103250008052C4F202010A6002B0B0BD10B584B061
:1032600043F2146400210391CDE90111C2F200047C
:10327000217889073AD543F21061C2F2000109783A
:10328000A1BB43F21861FF22C2F20001C0F2180292
:10329000096811400122C0F20802914226D140F291
:1032A00018414FF08052C4F202010A608DF8040008
:1032B00001A80622811D00F0C2FEB8B943F21C60CD
:1032C000C2F2000001E000BF00BFC1680629FBD1C7
:1032D00044F22E129DF80E009DF80F10C2F200026B
:1032E000107044F23010C2F2000001802078800794
:1032F0001AD543F21060C2F200000078A0B943F280
:103300001860FF21C2F20000C0F2180100680840F6
:103310000121C0F20801884206D140F218404FF462
:103320008051C4F20200016004B010BD10B582B03B
:1033300043F214640021CDE90011C2F200042178A7
:1033400089073BD543F21061C2F200010978A9BB9D
:1033500043F21861FF22C2F20001C0F218020968AC
:1033600011400122C0F20802914227D140F21841D7
:103370004FF08052C4F202010A608DF800006846E6
:103380000422011D00F05BFEC0B943F21C60C2F2D2
:10339000000000E000BFC1680429FBD144F22E11F7
:1033A0009DF80500C2F200010870BDF8060044F265
:1033B0003011C2F2000100BA000C088020788007AA
:1033C0001AD543F21060C2F200000078A0B943F2AF
:1033D0001860FF21C2F20000C0F218010068084026
:1033E0000121C0F20801884206D140F218404FF492
:1033F0008051C4F20200016002B010BDB0B582B0CD
:1034000043F214650446C2F200052878800702D40E
:103410004FF0FF3034E043F21060C2F20000007859
:1034200010B16FF001002BE043F21860FF21C2F2EF
:103430000000C0F21801006808400121C0F2080134
:103440008842E5D140F218404FF080510222C4F288
:103450000200016005208DF8040001A8811C00F025
:10346000EEFD68B943F21C60C2F2000001E000BF4B
:1034700000BFC1680229FBD19DF807002070002021
:10348000297889071AD543F21061C2F20001097840
:10349000A1B943F21861FF22C2F20001C0F2180282
:1034A000096811400122C0F20802914206D140F29F
:1034B00018414FF48052C4F202010A6002B0B0BD5C
:1034C0002DE9F04383B00446107816460D461928BE
:1034D00013DDA0F11A0110292CD8DFE801F048090A
:1034E0004141094141414159417D41419541D0000E
:1034F000D4F81802002545810BE2002800F0FA807C
:10350000032800F0118112282AD17178D4F818020A
:10351000C90740F04581D4F81C1205EBC502C96902
:1035200001EB82010A79531D32799A4240F2D2812D
:103530001A4637E12F2800F021815A2810D1D4F8FB
:10354000180208210FF27C4241811330002100BF94
:103550005318DB794354013911F10803F8D12BE1F9
:10356000D4F8180290F85D124FF400532AE1D4F811
:10357000180208210FF2544241811330002100BF8C
:103580005318DB794354013911F10803F8D113E1E1
:10359000D4F81862002001A90DF10A0270613061AF
:1035A000F060D4F81C0243682846984700BB082006
:1035B0000221F0730198B1820138010AF074B174EC
:1035C000010C000E717430740C21BDF80A00718179
:1035D000F075000AB075EFE0D4E98660436806F53F
:1035E000187106F25E2228469847002800F0F08005
:1035F000D4F818024FF4685390F85D1200EBC10242
:10360000C2F8403202237AE1D4F81872387AB84608
:10361000002800F0F1804FF4007608F10C097E815B
:10362000B8F85E02D8E99913B1FBF0F2B3F5007F68
:1036300038BF1E46B6FBF0F0494683B2D4F81C02F0
:1036400007692846B847B0F1FF3F40F34881B3B25D
:10365000204681214A4601F092F9D8F83402D8E98F
:103660009912921B3144A0EB0600C8E99912C8F8E0
:10367000340240F0A180032088F808009CE0D4F8D0
:103680001872387A002800F0DB80B7F85E02D7E9BC
:10369000991607F10C08B6F5007FB1FBF0F228BFD0
:1036A0004FF40076B6FBF0F0414683B2D4F81C022A
:1036B000D0F814C02846E047B0F1FF3F40F3148132
:1036C000D7F83412D7E999028319901BA1EB0601B0
:1036D000C7E99930C7F8341200F01F81B0F5007FB8
:1036E00028BF4FF4007083B201214246204601F00A
:1036F000BEF861E0D4F81862D6F81402002800F091
:10370000CB8096F85D024FF4005206EBC001013009
:10371000C1F84022052281F83C22C1B2043918BF09
:10372000014686F85D12F3E0D4F81842112104F145
:103730000D00FCF7E9FD0C20E0747020207394F874
:103740005C0294F85D12884211D004EBC001013094
:1037500091F83C22A27391F841222276C2B2043A37
:1037600018BF024691F8400284F85C22607612206D
:1037700060813079122898BF60811DE07178D4F89B
:10378000180289071AD4D0E99812B0F868321A449E
:103790008A427FF6AFAE90F85D124FF4045311E009
:1037A0008CA10722428100BF013A93B210FA82F63F
:1037B000CF5C002B3773F7D10025AAE090F85D129B
:1037C0004FF4105300EBC102C2F84032052396E0DB
:1037D0000025082035827081B6F85E02F074000A78
:1037E000D6F860120139F173B074080AB073080C8E
:1037F0007073080E30738CE097F91802002838DADD
:10380000D4F81C0281682846884700287FF4F0AE6F
:10381000D6F8020000BAC7F86402F179327A42EAB7
:103820000121C7F868120A18D4F81882D8F8603253
:103830009A4240F2A78098F85D024FF40452B2E039
:1038400097F91802B0F1FF3F13DDD4F81C0281682C
:103850002846884700287FF4CBAED4F81C02C16804
:1038600028468847002861D0D4F818024FF41C532A
:10387000C2E697F85D024FF4005207EBC001013039
:10388000C1F84022052281F83C22C1B2043918BF98
:10389000014687F85D123BE0D4F81C028168284697
:1038A000884700283FD0D4F818024FF4685390F8A6
:1038B0005D1200EBC1020131C2F84032022382F8EE
:1038C0003C32CAB2043A18BF0A4680F85D2205208D
:1038D00030721DE0002A42817FF466AF6CE7D4F8B5
:1038E00018024FF4885303E0D4F818024FF44073E1
:1038F00090F85D1200EBC102C2F84032042301319E
:1039000082F83C32CAB2043A18BF0A4680F85D22F7
:10391000FF2568B203B0BDE8F083204600210025F2
:10392000FDF79EFAF5E700257581F2E7D6F802006B
:1039300001BAC7F86412F079327A42EA0022C7F875
:1039400068225318D4F81802D0F86062B3423FF6E8
:1039500022AFB7F85E325A435943C7E99912D7F8F4
:10396000141291427FF4FEAD0120B2F5007F4FF0BA
:103970000101387228BF4FF4007293B2204607F15C
:103980000C02B4E602223A72B7F85E225143504369
:10399000C7E99901D7F8140288423FF43CAE98F881
:1039A0005D024FF4005208EBC001C1F8402205222D
:1039B000013081F83C22C1B2043918BF014688F8B1
:1039C0005D12A5E7000600000000000000000000F6
:1039D0000000000000000003008083002DE9F04794
:1039E00086B043F214650C46C2F2000529788907B7
:1039F00002D44FF0FF3130E0C7B2142F25D143F687
:103A00000004C4F20004606820F00200606043F625
:103A1000DC40C2F20000FCF74DFD606820F00100C0
:103A2000606043F67C40C2F20000FCF743FD43F2C5
:103A30001C601C21C2F20000FCF766FC43F210601F
:103A40000021C2F20000017007E043F21061C2F2EF
:103A50000001097829B16FF00101084606B0BDE800
:103A6000F087132F22D86FF0060100220023DFE831
:103A700007F0100B0E0A0A1D1D1D1D1D1D1D1D1D0D
:103A80001D1D20426066E8E70423012201E00023B7
:103A90000222C0F30221042900F28680DFE801F04F
:103AA0008E03878A8D0043F0010387E06FF00301E6
:103AB000D3E740F2480043F6300147F6C102C2F2B4
:103AC0000000C4F20201C0F60002006851F8281C90
:103AD000C1F38221515C002220FA01F1002000BFD5
:103AE0000746072A45D8013207F1080021FA02F3F8
:103AF0009C42F5D343E040F2480043F6300147F6DC
:103B0000C102C2F20000C4F20201C0F60002006865
:103B100051F8281CC1F38221515CC84043F60001D2
:103B2000C4F200010968C1F3C201013120FA01F1B8
:103B300093E743F21C60C2F2000004833FE143F2CA
:103B40001860FF21C2F20000C0F2180100680840AE
:103B50000121C0F2080188427FF44BAF40F21840C7
:103B6000002C0CBF4FF480514FF08051C4F2020082
:103B700018E0082A3FF43DAF501C21FA00F3A3429D
:103B80003FF637AF43F60000C4F20000016821F0B1
:103B900040010160016821F038013943016001688A
:103BA00041F0400101600AE16FF0070155E743F081
:103BB000020303E043F0030300E0103300F47C3120
:103BC000B1F5004F04D0B1F5803F3DD103F500635E
:103BD000802143F6000943F63008022A01EAD02189
:103BE000C4F20009C4F2020843EA010A2FD0012AF4
:103BF0003FD1C0F3C140012849D002286AD0032830
:103C000040F08C8000200190D8F8001041F00201B3
:103C1000C8F80010D8F8001001F0020101910199D4
:103C20000521059102210491CDE902104FF4805045
:103C300001A9019009F5E630FCF7BAFE0120C0F2B7
:103C4000080000F5801672E06FF0080105E78002B9
:103C500011D40520022601A9059000200496CDE983
:103C600002604FF48050019009F5E630FCF7A0FEA9
:103C70005DE000265BE009F5E6304FF48051FCF78B
:103C80001DFE02264AF4007AC0F220064FE0002012
:103C90000190D8F8001041F00201C8F80010D8F8DF
:103CA000001001F00201019101990221CDE9030107
:103CB000012001A902904FF48050019009F5E630EF
:103CC000FCF776FE01264AF4407A4FF0200CC0F251
:103CD00008062EE000200190D8F8001041F0020103
:103CE000C8F80010D8F8001001F002010191019904
:103CF0000521059102210491CDE902104FF4805075
:103D000001A9019009F5E630FCF752FE01204FF0C1
:103D1000240CC0F2080000F500260AE009F5E630A0
:103D20004FF48051FCF7CAFD4AF4407A01264FF067
:103D3000200C40F2480047F6C1020023C2F2000006
:103D4000C0F60002006858F8281CC1F38221515CBB
:103D500020FA01F2002100BF0846072B07D80133E3
:103D600000F1080122FA03F7BC42F5D305E0082B65
:103D70003FF43FAE591C22FA01F7A7423FF639AE95
:103D800043F2186140EA0A00C2F200010E60D9F85D
:103D9000001021F04001C9F80010C9F804C0C9F8AA
:103DA0000000B007286840F0040108BF20F00401BB
:103DB0002960D9F8000040F04000C9F80000002157
:103DC0004BE643F60000C4F20000816811F0680F72
:103DD00015D04A064AD50168090529D443F21C6268
:103DE00090F80CC0C2F200021368D168994235D233
:103DF00053689BB3591C516083F800C02EE0C9077B
:103E000039D04168490636D543F21C61C2F200013F
:103E10000A68CB6893422ED2026812052CD490F81F
:103E20000CC04B68B3B35A1C4A6083F800C031E041
:103E300043F21C62B0F80CC0C2F200021368D168F1
:103E400099420BD253684BB1591C516083F800C0A2
:103E500051684B1C53604FEA1C220A7043F21C61EC
:103E6000C2F20001CA680132CA608168890642BF95
:103E70000168016070477047B0F80CC04B684BB1E7
:103E80005A1C4A6083F800C04A68531C4B604FEAD2
:103E90001C231370CA680B6801329A42CA6006D1AB
:103EA00043F210600021C2F20000017070470A69FD
:103EB0009A4228BF704780B5D0F800C0D1F808E01A
:103EC0005FEA0C530BD4BEF1000F0FBF0A7E0EF158
:103ED00001028A609EF8002002730A6910E0BEF1B8
:103EE000000F0BD00EF101038B60734613F802CB69
:103EF0008B609EF801304CEA032300E00B8B83813A
:103F0000501C086180BD43F67C40C2F2000000688E
:103F1000426843F21C60C2F2000001680AB101B1BC
:103F2000704743F210620023C160C2F200021370B6
:103F30007047F0B581B00C4601466FF004000029CF
:103F400065D0002C63D043F21460C2F20000007808
:103F500040075AD543F21060C2F20000027812B155
:103F60006FF0010053E043F21862C2F200021278CF
:103F7000013A012A49D8012343F21C6743F600069F
:103F80000022037043F67C40C2F20007C4F2000630
:103F9000C2F20000C7E90042C7E902123A61C0E973
:103FA0000322316801F40061C0E90511FCF786FBCA
:103FB00058BB43F67C4006F10C0507F1140223467A
:103FC000C2F200002946FCF723FCF0B970684FF4F8
:103FD000806140F00100706043F6DC40C2F20000F6
:103FE00001610021C160316801F40061C0E905117F
:103FF000FCF764FB48B943F6DC40B9682A4623461F
:10400000C2F20000FCF704FC18B14FF0FF3001B021
:10401000F0BD706840F0020070600020F7E743F6E2
:10402000DC40C2F200000068426843F21C60C2F249
:10403000000001680AB101B1704701617047F0B535
:1040400081B0144602466FF00400002A60D00029B7
:104050005ED0002C5CD043F21460C2F20000007805
:10406000400753D543F21060C2F20000037813B149
:104070006FF001004CE043F21C67012343F6000699
:10408000037043F67C40C2F200070023C4F200062E
:10409000C7E90041C2F200004FF48061C7E9022382
:1040A0003B61C0E90331316801F40061C0E90511E9
:1040B000FCF704FB50BB43F67C4006F10C057A6824
:1040C0002346C2F200002946FCF7A2FBF0B9706853
:1040D0004FF4806140F00100706043F6DC40C2F2B2
:1040E000000001610021C160316801F40061C0E994
:1040F0000511FCF7E3FA48B943F6DC40B9682A46F3
:104100002346C2F20000FCF783FB18B14FF0FF30EA
:1041100001B0F0BD706840F0020070600020F7E769
:1041200080B943F650204FF6FE73C2F20000C0F291
:104130007F030068406903EA40001D3008604FF4C7
:1041400000701080002070470020704700207047EA
:104150000020704743F63C00C2F20000007800F0F7
:1041600001004042704770B5012838D020BB0C4692
:104170001D2A23D343F64100C2F200000078012833
:104180001ED14CF200605E02CFF6FF7000EB4225BC
:1041900047F23D303246C0F60100294603F076F87A
:1041A00043F6502021463246C2F200000068D0F8A3
:1041B0008C312846984712E0012070BD1B2A04D399
:1041C00059022046FCF7A0F809E040F28010C2F244
:1041D000000000EB42215A022046FCF74BF8002079
:1041E00070BD80B5FFF7BFFF002818BF0120400059
:1041F00080BD0000F0B581B0012800F09C8038B986
:1042000043F64420C2F20000007818B1FF2093E08A
:10421000012091E01E4614460D461D2A15D344F296
:104220003410C2F20000016849B343F64820C2F2DC
:1042300000000068C21700EBD2501D2202EB602084
:10424000A0421CD140F27C171CE00F2C23D143F676
:104250004100C2F200000078E8B9E86B002841D0C4
:10426000296CE9B1E86F43F64821C2F20001002849
:1042700008601AD1E86D0028086016D132E040F2DB
:104280007C177102C2F200073A682846FCF7AAF8C8
:10429000386000202AE0A4F110000D2822D22EE080
:1042A00043F64821C2F20001086043F65021C2F2F1
:1042B000000109684969B0EB812FA7D8C11740F206
:1042C000FF1200EBD1519143401A44F23411C2F273
:1042D0000001086044F2321014BF01210021C2F233
:1042E0000000017040F28010C2F20000710200EB89
:1042F00044208AB2294600F0C3FD01281FD043F6AE
:104300004820C2F200000068012814DB44F2321198
:10431000C2F20001097801EB50201C30A0420AD102
:1043200043F643000121C2F20000017043F63C0055
:10433000C2F200000170002040B201B0F0BD02A046
:1043400040F2E51100F038FE5372632F757362641A
:104350005F73746F726167652E63000080B5FFF74D
:1043600049FF002818BF0120400080BDB0B543F2CE
:1043700014650C46C2F200052978890702D44FF073
:10438000FF302FE043F21061C2F20001097811B151
:104390006FF0010026E043F21861FF22C2F2000133
:1043A000C0F21802096811400122C0F208029142CD
:1043B000E5D140F218414FF08052C4F202010A6088
:1043C0002146FFF7B6FD68B943F21C61C2F2000155
:1043D000C868A04201D1002004E0002000BFCA68E4
:1043E000A242FBD1297889071BD543F21061C2F2A2
:1043F00000010978A9B943F21861FF22C2F2000155
:10440000C0F21802096811400122C0F2080291426C
:1044100018BFB0BD40F218414FF48052C4F20201FF
:104420000A60B0BD80B582B00DF10700FEF7E6FF6F
:1044300018B99DF80700800716D4062001218DF8D1
:1044400007000DF10700FFF791FF70B900208DF80C
:1044500007000DF10700FEF7D1FF30B99DF8070006
:10446000C0F34000013800E0002002B080BD44F2FB
:104470003810C2F2000001680131016070474EF649
:1044800008504FF0000CCEF20000D0F8801041F43C
:104490007001C0F8801043F60001C4F202010A68FE
:1044A00042F001020A60C1F808C04FF6FF720B68C3
:1044B000CFF6F6621A400A6043F21002C2F20042DE
:1044C0004A600A6822F480220A60C1F80CC04FF0EA
:1044D000006101607047000080B504A000F068F83A
:1044E00043F23C60C2F2000080BD00BF4D53432048
:1044F000436F6E66696700001220088040F24C002E
:10450000C2F200007047000080B504A000F050F82F
:1045100043F23C60C2F2000080BD00BF4D53432017
:10452000496E74657266616365000000042008804E
:1045300040F26000C2F200007047000080B504A0A5
:1045400000F036F843F23C60C2F2000080BD00BFCC
:1045500053544D6963726F656C656374726F6E69F5
:104560006373000080B504A000F022F843F23C60C1
:10457000C2F2000080BD00BF53544D3332204D6164
:1045800073732053746F72616765000080B504A077
:1045900000F00EF843F23C60C2F2000080BD00BFA4
:1045A00030303030303030303030314100000000B9
:1045B00080B568B302786AB100F1010C002200BF37
:1045C0001CF8013B0132002BFAD1D2B2022303EBDB
:1045D000420200E0022243F23C6E03230A80C2F250
:1045E000000E8EF801308EF80020027882B1013082
:1045F00002234FF0000C00BFD9B202330EF80120A5
:1046000041F001010EF801C010F8012B002AF3D18E
:1046100080BD000010B5D0F8204201F07F0C0806E4
:104620004FEAD111CCEBCC0204EB820202F1380349
:1046300058BF02F5FC73597083F800C094F8B803B2
:10464000012801D110216AE0012040F63F530029E2
:1046500084F8B803C0F20303D4F800E00EEB4C106A
:1046600031D0D0F8001900F5106221F40041C0F8F3
:1046700000194FF00061C0F800194FF08041C0F8F8
:1046800000194FF0FF3100BF0131994244D89068C2
:104690004000F9D44FF484604FF0FF31CEF81000A1
:1046A0000131994203D8DEF810008006F8D40120C9
:1046B000002100FA0CF0CFF6FF7161EA0000DEF88D
:1046C0001C18084026E0D0F8001B00F5306221F4E9
:1046D0000041C0F8001B4FF00061C0F8001B4FF014
:1046E0008041C0F8001B4FF0FF3100BF01319942FB
:1046F00012D89068C006F9D4DEF8040840F480604F
:10470000CEF804084FF48030DEF81C1800FA0CF0E4
:1047100021EA0000CEF81C08002184F8B81340F20A
:104720000020C0F20120C840C0B210BDD0F820C2A5
:104730009CF8B823012A01D1102126E001220B06A2
:104740008CF8B82340F63F53DCF80020C0F2030396
:104750000BD410204FF0FF31106100BF013199429E
:1047600010D81069C006F9D40CE0202061F38C1039
:104770004FF0FF31106100BF0131994202D810693A
:104780008006F9D400218CF8B81340F20020C0F262
:104790000120C840C0B2704770B501F07F06D0F864
:1047A00020C20D064FEAD11EC6EBC6040CEB8400F6
:1047B00000F1380458BF00F5FC740020A36084F8B1
:1047C00001E02670E270B0EBD11F18BFE680022A2C
:1047D00004BF002020719CF8B803012801D11020EB
:1047E0003DE00120BEF1000F8CF8B80300FA06F19D
:1047F000DCF8004019D0D4F81C0889B208437101D4
:10480000C4F81C0804F510646058000424D46FF345
:10481000DF23085943EA8653184340EA824040F0B8
:10482000805040F40040085116E0D4F81C0840EADB
:10483000014004F53061C4F81C0870010E583604BC
:104840000AD446586FF3DF23334343EA824242F0EF
:10485000805242F40042425000208CF8B80340F2EB
:104860000021C0F2012121FA00F0C0B270BD80B574
:1048700001F07F0CD0F820E20021CCEBCC000EEB55
:104880008000C0E98331C0F8042280F8F91180F873
:10489000F8C100F5FC71DEF81030012B08BFC0F83C
:1048A0000822DAB2DEF80000BCF1000F03D0BDE848
:1048B000804000F0E9B9BDE8804000F067B980B5FC
:1048C000D0F820E2C1EBC10201F07F0C08060EEB2C
:1048D0008203CCEBCC020EEB820202F1380258BF0D
:1048E00003F5FC72CB090121537082F800C091706E
:1048F0009EF8B803012808BF80BD8EF8B813002BBE
:10490000DEF8001001EB4C1007BF00F53063D0F863
:10491000000B00F51063D0F80009002803DB1868CD
:1049200020F0804018601868BCF1000F40F40010BF
:10493000186020D100229EF81000C1F8102BD1F889
:10494000102B012842F40022C1F8102BD1F8102BB3
:1049500042F01802C1F8102BD1F8102B42F0C042DF
:10496000C1F8102B07D10EF56F70C1F8140B4FF082
:104970008020C1F8000B00208EF8B80380BD10B570
:1049800001F07F0CD0F820020024CCEBCC0100EB2E
:10499000810E714601F838CFC1E905340123CA60A0
:1049A0004B700369012B08BFCEF84820DAB20068CB
:1049B000BCF1000F03D0BDE8104000F065B9BDE8C0
:1049C000104000F0E3B880B5FCF78DF9002080BD01
:1049D00080B5FCF7AAF9002080BDB0B501210446DE
:1049E000FFF718FE20468121FFF714FED4F81802C5
:1049F00000250028057203D002F09AFEC4F8185270
:104A00000020B0BD0A21018040F2DC00C2F20000AB
:104A100070472021018040F29C00C2F200007047E4
:104A20002021018040F2BC00C2F20000704720212A
:104A3000018040F2E800C2F20000704710B5044661
:104A4000007C50B12046012102224023FFF7A4FE42
:104A500020468121022240230BE020460121022230
:104A60004FF40073FFF798FE2046812102224FF495
:104A70000073FFF791FE4FF41B7002F081FE0028D7
:104A8000C4F8180204D02046FCF7CCF9002010BD71
:104A9000012010BD70B50446D0F8186208780D46A4
:104AA00010F0600117D020296DD16978FF2927D037
:104AB000FE2927D1698829BB000623D5E88801286B
:104AC00020D1D4F81C028069804730600120002585
:104AD000002132460AE0687801281DD00B282BD02F
:104AE0000A2850D10120321D00250021C4E906000A
:104AF0000220C4F8F40120460123FFF740FF43E001
:104B00006988E1B120468021FFF7D9FE20460021C7
:104B1000FFF7D5FE022537E029792046FFF706FE8C
:104B200029792046FFF776FDA988207C090616D44E
:104B3000D8B12046012115E0A878706023E0000676
:104B4000E0D4E8880028DDD14FF4807006F50372C8
:104B500001211F2330812046FFF789FE13E038B181
:104B6000204681210222402307E02046012101E066
:104B70002046812102224FF40073FFF70DFE2979B0
:104B80002046FCF798F80025284670BDB0B54B7854
:104B9000012B27D191F800C0D1F814E000EB4C14A0
:104BA000BEF1000F04F51063D4F8104948D06FF33C
:104BB00012041C611C696FF3DC441C614FF6FF7426
:104BC0008D68CEF2070404F10054AE4584BF4D61F8
:104BD000AE4604EA0E041D6945F400251D611D69F9
:104BE0002C4339E00B784FF6FF74CEF2070400EB4C
:104BF0004310D0F8103B6FF31203C0F8103BD0F80D
:104C0000103B6FF3DC43C0F8103B00F530604D699A
:104C10008B6805B14B610569012A45F400250561E2
:104C200004F1005503EA0503056943EA050303613E
:104C300004BFC9684161016841F004410160B0BD31
:104C40006FF3DC444FF0000E1C611D6945F4002534
:104C50001D611C696FF312041C61012A1C6844F079
:104C600004441C6002BF08695861B0BDBEF1000F6A
:104C700008BFB0BD0121D0F8342801FA0CF111436E
:104C8000C0F83418B0BD0000B0B54B78012B32D15C
:104C900091F800C0D1F814E000EB4C14BEF1000F05
:104CA00004F51063D4F810494FD06FF312041C615F
:104CB0001C696FF3DC441C618C680EEB0405013D3C
:104CC000B5FBF4F40025C1F6F87505EAC4441D6986
:104CD0002C4375461C616FF3DF451C692C431C6136
:104CE000CC78012C3CD11C6924F0C0441C611C69A7
:104CF00044F0005433E00B7800EB4313D3F8105B1F
:104D00006FF31205C3F8105BD3F8105B6FF3DC454B
:104D1000C3F8105B03F530634C69D1F808C0002C70
:104D200052D004EB0C050024013DC1F6F874B5FB2C
:104D3000FCF504EAC54E1C69ADB244EA0E041C61E0
:104D400005FB0CF46FF3DF4446E06FF3DC441C61B9
:104D50001C6944F400241C611C696FF312041C617B
:104D6000012A03D10C695C61CC7805E0CC78BEF1F6
:104D7000000F18BF012C46D1012C4CD1D0F80848A7
:104D8000E4054FF0805458BF4FF000541D68002ACE
:104D900044EA05041C601C6844F004441C6012D101
:104DA0000322002312FA8EF2B3EB920F08BFB0BDBC
:104DB000C96892084FEA0C3300F5805051F8045B43
:104DC000013A1D50FAD1B0BD1D696FF3DF4C4FF4AD
:104DD000002445EA0C051D611D69012A45EA040508
:104DE0001D6104BFCA685A61C978012913D1D0F87E
:104DF0000808C0054FF0805058BF4FF000501968A8
:104E00000843186007E00121D0F8342801FA0CF1BA
:104E10001143C0F83418186840F004401860B0BD61
:104E2000B0B582B004460020019043F65020C2F293
:104E300000000068C56915F0C00F07D147F2AA202D
:104E4000C0F6010002F0D2FC45F04005280648BF3C
:104E5000FFF7E8FA680610D55020012101258DF8EA
:104E6000040001A8FFF782FA38B901A802218DF8E1
:104E700005408DF80450FFF779FA02B0B0BD00008C
:104E80002DE9F041054644F2341016460C46C2F2B4
:104E90000000006850B143F64821A5F56852C2F2FF
:104EA00000010968091A8A4208BF064643F65027DE
:104EB0004FF46852C2F200073868416902EB812161
:104EC000A94232D943F64101C2F200010978E1BB9F
:104ED000D0F88811D9B3D0F8840108B18047E8BB75
:104EE000B6B2A5F568551FA02946324602F0CEF9A4
:104EF00040F61448E804C4F2020805D1D8F80000CE
:104F000080F40050C8F80000386821463246D0F8D6
:104F100088312846984701464FF00050B1F1FF3FD5
:104F2000C8F8040017DDC9B90FE040F28011012074
:104F3000C2F2000101F55052954210D88D420ED3B5
:104F4000B2B228462146FBF795F9002007E015A0EC
:104F500002F09CF902E00CA002F098F9FF2040B2A8
:104F6000BDE8F0810A2077725F61646472202D3E93
:104F700020307825303578202020636E74202D3E37
:104F800020307825303378000A2050726F677261C4
:104F90006D44617461206572726F72202D3E202510
:104FA000640000000A204E6F2077726974652073D8
:104FB0007570706F727421000A46014610A002F0ED
:104FC00065F943F643000121C2F20000017043F687
:104FD0004420C2F20000017040F6144044F238113F
:104FE000C4F20200C2F20001026882F48042026050
:104FF0000A6800BF0B689B1A652BFBD3F4E700BF60
:105000000A0D204552524F52202D3E202573202557
:105010006400000010B504464FF0FF30206300200C
:10502000E070204601F0AEFA08B1042010BD94F8FB
:10503000320294F8331240EA01204AF655218842A0
:105040001CBF032010BD94F83400E838032826D88C
:10505000022824D047F2472C04F16A000021C0F650
:10506000010C00BF1CF80130425C022902D0013162
:105070009A42F7D09A4210D046F6A46204F1860014
:105080000021C0F6010200BF535C445C042902D039
:1050900001319C42F8D09C4201D1002010BD022079
:1050A00010BD00002DE9F04F85B0066800210446D0
:1050B00000F012FA10B105B0BDE8F08F4FF0FF37E5
:1050C00004F120054FF0FF0B4FF00D084FF0FF09E2
:1050D000E76200BFA169304601F054FA0028EAD126
:1050E000D4F81CA09AF80000002800F0AB809AF8D1
:1050F0000B20E52802F03F01A17137D0120727D419
:105100000F2927D05FEA0B6010D10020002100BFDB
:10511000C9B21AF8002001304B080B2843EAC1112C
:105120001144F5D1C8B2814500F08E8094F82B006F
:10513000C0071BD1002000BF295C1AF800200A28F4
:1051400002D001308A42F7D08A420FD17CE000BF02
:105150000F290BD194F82B1049060AD441060FD41D
:105160005FFA8BF1884202D110E000BFE7624FF096
:10517000FF0B2046002100F069F80028AAD09AE72A
:1051800021699AF80D9000F0BF0BE1629AF80D00CA
:105190008145ECD19AF81A009AF81B1040EA0120D8
:1051A0000028E4D1CDE902964FF00009F0680490A0
:1051B0009AF80000019000F03F0000FB08F0A0F119
:1051C0000D08012047F690010028C0F6000111F8F3
:1051D00009101AF801205144497842EA012611D0F9
:1051E000B8F13F0F21D8304600F0C6F907460498C1
:1051F00030F8180000F0C0F9874216D108F1010814
:10520000304604E04FF6FF7086420ED1002009F1CF
:105210000109B9F10D0FD5D350B1019810F040003C
:1052200006D0049830F8180010B14FF0FF0B01E0E1
:10523000ABF1010B039EDDF808904FF0FF374FF004
:105240000D0896E7042036E7002034E72DE9F04FFB
:1052500081B00446006900F12007B7F5001F02D3B2
:105260000020A0610EE0A06960B13D46D4F800B016
:105270006FF35F2555B10BEB050027613430E0611A
:10528000002000E0042001B0BDE8F08F01300E46A0
:10529000A061616991B14FF6FF70BBF80A20C0F2BE
:1052A0001F00104400F5C00010EA572FE3D1584604
:1052B00000F0D7F9022807D20220E4E7BBF8080083
:1052C000B0EB571FCCD9D6E78246013000F0018100
:1052D000DBF8180082450FD2AAF102060238C4F8A2
:1052E00014A086422FBF0020DBF82C00BBF80A1068
:1052F00006FB0100A061BEE7002EB1D06669D4F8BC
:105300000090002E07D04846314600F0AAF9022846
:105310000DD2022090E0D9F81080B8F1000F0FD024
:10532000D9F81800804528BF4FF001080AE08246EE
:10533000013030D0D9F81800B046824502D277E06B
:105340004FF00108D9F81400002845D0B045B24606
:1053500026D1D9F818000AF10106D046864228BFA6
:1053600002262068314600F07CF9824601305FD089
:10537000BAF1000F11D0BAF1010F59D0D9F81000CD
:10538000C246414602280BD3D9F81810884228BFDC
:105390005046804604E000204EE0002EC2461FD159
:1053A0004646CDF800A0D9F818000136864228BF3D
:1053B000022602D3B8F1020F0ED32068314600F066
:1053C00050F98246013033D0BAF1000F06D0BAF15D
:1053D000010F2DD04645E6D101202DE0DDF800A0DB
:1053E000484631464FF0FF3201F0E8F8BAF1000FBD
:1053F00005D020B951464846324601F0DFF830B1B9
:105400004FF0010A012808BF4FF0FF3A10E0C9F839
:105410001060B246D9E90501023988429CBF0138C3
:10542000C9F8140099F8040040F0010089F804005C
:105430000AF1010003280DD24FF6F871C0F2FF0106
:1054400001EAC00040F20171C0F2020121FA00F04D
:10545000C0B218E7584601F0F1FED0BBDBF81800E7
:10546000AAF102060238864206D2DBF82C00BBF80D
:105470000A9006FB090002E0BBF80A9000200BF13D
:1054800034080090CBF830004FF400714046FAF732
:105490003BFFB9F1000F11D04FF0000900984146D1
:1054A000012300EB09020020FEF7A4FE50B9BBF86F
:1054B0000A0009F101098145F0D305E000204FF011
:1054C000000901E0BBF80A00814502D1DBF81800B1
:1054D00004E70120D7E60000F0B581B004461F20A4
:1054E000CFF6E070014202D0022001B0F0BD266884
:1054F00021610D46A16869B17089B5EB402F23D2B7
:10550000B0698A1E0238824232D2F06A738902FB85
:1055100003000BE03078032802D3B16A0029EBD1F5
:105520003089B0EB551FDFD9B06A00210028C4E9EB
:105530000510D9D000EB55206FF35F257119343178
:10554000C4E906010020D0E747023046ED1B08E021
:105550000229C9D3B0698142C6D2BD42D1D32068E5
:10556000ED1B00F07EF801460130F1D10120BCE7CF
:105570000020C4E90510B7E70021B1EB104F18BFB8
:10558000704710B547F2743247F230411FFA80FC81
:10559000C0F60102C0F60101BCF5805F38BF0A46C3
:1055A000B2F800E011E000BF538804325EFA83F4E1
:1055B000190AA44512D3DBB20029194618BF0021ED
:1055C00032F811E008BF02EB4302BEF1000F01D038
:1055D000F445E9D280B2BDE8104070470829F9D8F7
:1055E000DFE801F0050A10121416181A1C00ACEBC3
:1055F0000E0032F81000EDE7A0EB0E0101F0010102
:10560000401AE7E71038E5E72038E3E73038E1E70C
:105610001A38DFE70830DDE75038DBE7A0F5E35064
:10562000D8E7000040F20002C2F2000291421CBF23
:105630004FF0FF30704740F60061CEF20001D1F824
:105640008020D2071CBF09685FEAC17100D1704792
:105650004FF060410A68002AFCD04FF060410870AA
:105660007047F0B581B0022931D3054680690C46F8
:1056700088422CD9287803282CD0022844D001282D
:1056800025D1686A04EB540700EB5721284600F047
:1056900079FF00283FD17E1C6FF35F27E81990F84F
:1056A0003470686A00EB5621284600F06BFF90BB0F
:1056B0006FF35F26E20705EB060090F8340047EA37
:1056C000002108466FF31F3018BF080900E00120D1
:1056D00001B0F0BD686A00EBD411284600F052FF1B
:1056E000C8B904F07F0005EB800191F8340091F80F
:1056F000352091F8363091F8371043EA012142EA1B
:10570000012161F31B20E3E7686A00EB14212846BE
:1057100000F038FF10B14FF0FF30D9E7E0B205EBF1
:10572000400090F8341090F8350041EA0020CFE7AF
:1057300080B50268D2B10023D15C0133202901D3A6
:105740003A29F9D13A290ED14FF0FF3E022B0FD161
:1057500092F800C0ACF13001092909D8BCF1300F32
:1057600006D8D11801604FF0000E01E04FF0FF3E67
:10577000704680BD2DE9F041ADF5007D68464FF4DF
:105780008071FF22FAF7B9FD43F65025C2F20005F9
:1057900028684069800223D047F23D38002440AE9B
:1057A0006F46C0F6010800BF404621464FF48072A4
:1057B00001F06CFD286831464FF48072D0F88C31CE
:1057C00020469847304639464FF48072FAF709FD73
:1057D00038B9286804F580644069B4EB802FE3D3BE
:1057E00000200DF5007DBDE8F08100008AB043F691
:1057F000000A4EF60C5440F200364FF6FF05C4F294
:10580000020ACEF20004C0F2FA56DAF8000440F4BC
:105810000070CAF80004DAF8000440F48060CAF8A6
:105820000004DAF8000440F48070CAF8000420682C
:10583000284030432060FBF789F9206806F5806135
:1058400047F20008C4F2000828400843206020689E
:1058500000202073216860732168A0732168E074C0
:10586000216820752168A0752168E0750290DAF83A
:10587000401041F08051CAF84010DAF8401001F0B1
:105880008051029102990290D8F8000040F48040C3
:10589000C8F80000D8F8000000F480400290029898
:1058A000DAF8080000F00C00042802D1DAF8000051
:1058B0001DE0DAF8080000F00C00082803D1DAF83F
:1058C00004004002F2D4DAF8000040F48030CAF854
:1058D000000044F23810C2F200000168DAF800203B
:1058E000920304D40268521A642AF7D92AE0DAF83B
:1058F000080000F00C00082824D0602044F238167C
:105900000021C4F24720C2F200060160316800BFE6
:10591000DAF80020920104D53268521A022AF7D927
:1059200010E045F20841C0F24071CAF804100121AC
:1059300001603068DAF8001089010BD43168091A67
:105940000329F7D347F297204FF49371C0F6010073
:10595000FFF732FBDAF8000400F00F00042808D843
:1059600005208AF80004DAF8000400F00F0005288A
:105970002AD1DAF8080040F4E050CAF80800DAF852
:10598000080040F46040CAF80800DAF8080020F087
:10599000F000CAF80800DAF80000800114D5DAF83F
:1059A0000800022161F3010041F28831CAF80800C1
:1059B000306800BFDAF8082002F00C02082A0BD089
:1059C0003268121A8A42F5D947F297204FF49A7139
:1059D000C0F60100FFF7F0FADAF8000400F00E005C
:1059E000062808D305208AF80004DAF8000400F03D
:1059F0000F000528E8D1DAF80800052161F38C20B2
:105A00000421CAF80800DAF8080061F34F30CAF838
:105A10000800DAF8080000F00C0142F20040C0F281
:105A2000F400082906D0042926D141F20020C0F252
:105A30007A0021E0DAF80410DAF8043001F03F02CD
:105A4000DAF804105B02C1F3881105D4A1FB000150
:105A50000023FAF7DEFB06E041F20020C0F27A00F4
:105A60004843B0FBF2F0DAF804100222C1F301411E
:105A700002EB4101B0FBF1F0DAF808100FF67422E6
:105A80004FF0FF39C1F30311515CC84040F24801A7
:105A9000C2F20001086044F6D351C1F26201A0FBDA
:105AA000010109EB9115FBF751F84EF210010027A7
:105AB000CEF20001B7EB156F05D1F0204D60E07517
:105AC00007208F6008600868012540F00400086026
:105AD0002068C0F30220C11E80F0070038BF0021FB
