:020000040800F2
:10000000388101209D010008A5010008A701000812
:10001000A9010008AB010008AD01000800000000C4
:10002000000000000000000000000000AF01000818
:10003000B101000800000000B3010008B34200084D
:10004000B7010008B7010008B7010008B7010008B0
:10005000B7010008B7010008B7010008B7010008A0
:10006000B7010008B7010008B7010008B701000890
:10007000B7010008B7010008570400087104000820
:10008000B7010008B7010008B7010008B701000870
:10009000B7010008B7010008B7010008B701000860
:1000A000B7010008B7010008B7010008B701000850
:1000B000B7010008B7010008B7010008B701000840
:1000C000B7010008B7010008B7010008B701000830
:1000D000173C0008B7010008B7010008B701000885
:1000E000B7010008B7010008B7010008B701000810
:1000F000B7010008B7010008B7010008B701000800
:10010000B7010008B7010008B7010008B7010008EF
:10011000B7010008B7010008B7010008B7010008DF
:10012000B7010008B7010008B7010008B7010008CF
:10013000B7010008B7010008B7010008B7010008BF
:10014000B7010008B7010008B701000869130008EB
:10015000B7010008B7010008B7010008B70100089F
:10016000B7010008B7010008B7010008B70100088F
:10017000B7010008B7010008B7010008000000003F
:10018000B7010008B7010008DFF80CD000F070F8E4
:1001900000480047E556000838810120064880479E
:1001A00006480047FEE7FEE7FEE7FEE7FEE7FEE75C
:1001B000FEE7FEE7FEE7FEE7C3420008890100080C
:1001C000421C10F8011B0029FBD1801A704730B582
:1001D00004460020034600E05B1C934203D2E05C2F
:1001E000CD5C401BF8D030BD2DE9F05F0546002006
:1001F00092469B4688460646814640241BE0284698
:1002000041464746224600F054F853465A46C01A23
:10021000914110D311461846224600F03BF82D1AA2
:1002200067EB01084F4622460120002100F032F81A
:1002300017EB00094E41201EA4F10104DFDC484603
:1002400031462A464346BDE8F09F40EA01039B073A
:1002500003D009E008C9121F08C0042AFAD203E03B
:1002600011F8013B00F8013B521EF9D27047000023
:10027000064C074D06E0E06840F0010394E80700F3
:1002800098471034AC42F6D3FFF782FFC43301081D
:10029000E4330108202A04DB203A00FA02F10020AE
:1002A00070479140C2F1200320FA03F319439040B4
:1002B0007047202A04DB203A21FA02F0002170471F
:1002C00021FA02F3D040C2F12002914008431946BE
:1002D0007047D2B201E000F8012B491EFBD27047F3
:1002E0000022F6E710B513460A4604461946FFF702
:1002F000F0FF204610BD70B58C1810F8015B15F0AA
:10030000070301D110F8013B2A1106D110F8012B87
:1003100003E010F8016B01F8016B5B1EF9D12B07AC
:1003200005D40023521E0DD401F8013BFAE710F862
:10033000013BCB1A921C03E013F8015B01F8015B4F
:10034000521EF9D5A142D8D3002070BDB0B586B0F9
:10035000032812D8DFE800F0020202020021019116
:1003600043F63001C4F202010A6842F008020A6052
:10037000096801F00801019101990221049101210C
:10038000CDE9021107A131F8105008A151F8204021
:1003900001A90195204600F0F7FA2804A06106B0F3
:1003A000B0BD00BF0010002000400080000C0240E3
:1003B000000C0240000C0240000C024010B581B05D
:1003C0004FF0000E43F2000CCDF800E0C4F2020C36
:1003D000BEEB910FDCF8303843F48053CCF8303862
:1003E000DCF8303803F480530093009B4FF0010396
:1003F000CCF8083000BF00BF00BF0ED08B08C3F19F
:10040000000E00BF50F8043B1EF1010E83EA020308
:1004100093FAA3F3CCF80030F4D111F0030EDCF81A
:10042000001091FAA1F213D048F2203CCEF6B85C4D
:10043000017882EA010308218CEA5302DC0708BF35
:100440005A0801391346F7D10130BEF1010EEFD140
:10045000D04301B010BD4EF280204FF48041CEF267
:100460000000016043F67C40C2F2010000F054B885
:100470004EF280204FF40041CEF20000016043F6BE
:10048000DC40C2F2010000F047B8000080B544F241
:10049000341ED0F858C0C2F2010EDEF8003090F8D9
:1004A0003510022925D101680A6822F016020A6077
:1004B0004A6922F080024A61026C0AB9826C1AB160
:1004C0000A6822F008020A600A6822F001020A6043
:1004D0000A68D20713D0DEF80020D21A052AF7D90D
:1004E00020214165002180F83410032180F8351067
:1004F00080BD002180F834108021416580BDC16D30
:100500003F2202FA01F1CCF80810012180F83510E1
:10051000002180F8341080BDF0B581B00446002081
:1005200048F2B5130821009040F24800C1F64E335E
:10053000C2F201000268D4E9166037688140A2FB6C
:10054000032539420CD0226813685B0708D513686D
:1005500023F004031360B160616D41F00101616536
:1005600001218140394208D022685269120604D51F
:10057000B160616D41F00201616504218140394241
:1005800008D022681268920704D5B160616D41F00D
:100590000401616510218140394217D0206802684A
:1005A000120713D5B16002680168520306D4C90569
:1005B0005EBF016821F00801016001E0080301D479
:1005C000216C00E0A16C09B120468847E16D202034
:1005D00000FA01F23A423BD020680368DB0637D5C7
:1005E000B26094F835300268052B19D122F016025A
:1005F0000260426922F080024261226C0AB9A26C58
:100600001AB1026822F0080202603F208840B06000
:10061000012084F83500002084F83400216D34E096
:10062000016852030CD4C9050ED4016821F01001F1
:100630000160012084F83500002084F8340003E0D4
:10064000080301D4616C00E0E16B09B120468847E2
:10065000606DE8B1606DC00716D00521A80A84F866
:10066000351021680A6822F001020A60009A0132FE
:100670008242009202D80A68D207F7D1012084F89A
:100680003500002084F83400E16C09B12046884729
:1006900001B0F0BD44F234110028C2F201010B6830
:1006A00054D02DE9F041022280F83520002280F854
:1006B00034200268156825F0010515601568ED07FE
:1006C00007D00D68ED1A052DF8D903232025032145
:1006D0006EE048F23F031168D0E9015400F10C08C4
:1006E000CFF2100301EA030C98E8C201D0E9073EFB
:1006F00045EA0C0525432943456A31433943042D16
:1007000041EA080141EA030141EA0E0320D1D0E9A0
:100710000BE143EA0E03BEF1000F41EA0301116051
:100720005169846A21F0030141EA040141F0040C9B
:1007300014D0B8F5005F32D0B8F1000F44D1022CCC
:1007400045D0012C3AD0002C41D007E0012124E013
:100750001360516921F0070141EA050C6FF00F01A8
:1007600040F2FF33C2F814C0002551FA82F19A43D7
:100770004AF6AB23CAF6AA235F2988BF04328265F2
:10078000A1FB0313190916A3595C3F23C16503FAA2
:1007900001F10123916000210AE008467047032C13
:1007A000DCD8012340250121DFE804F00211020812
:1007B000456580F83530BDE8F041EEE7AEF1C07137
:1007C000B1FA81F1490904E0032C04D3C6D1CEF378
:1007D00000610029C2D0012340250121E8E700BFC4
:1007E000000610160006101610B590F834C0BCF1C3
:1007F000010F4CD04FF0010CD0F858E080F834C015
:1008000090F835C0BCF1010F3ED14FF0020C80F8DA
:1008100035C04FF0000CC0F854C0D0F800C0DCF870
:10082000004024F48024CCF80040CCF804308368E5
:10083000402B0B4608BF1346CCF8083008BF0A46C9
:10084000CCF80C20C16D3F2202FA01F1CEF808105D
:10085000DCF8001041F01601CCF80010DCF81410A0
:1008600041F08001CCF81410006C28B1DCF80000D5
:1008700040F00800CCF80000DCF8000040F0010077
:10088000CCF80000002010BD002180F834100220B8
:1008900010BD00002DE9F04F41F6004243F600493B
:1008A0004FF0080C00270024C4F20202C4F2010930
:1008B000904200F13E4208BF4FF0070CA9F57E7A46
:1008C00002F1FF724FEAB223072B4FF0000338BF4B
:1008D0004FEAB22C012202FA04FB1BEA010F4BD0B3
:1008E000032205684FF00F089A409543056007F012
:1008F0001C0508FA05FE6FF0030505EA54050544DA
:100900002E6A26EA0E064FEA940E2E6207F00C05B8
:10091000866808FA05F80CFA05F59643866046687D
:1009200026EA0B064660C66826EA0202C2605AF84A
:100930002E2002EA0802AA421ED15AF82E506FEA6F
:100940000B0225EA08054AF82E50D9F80060164037
:10095000C9F80060D9F804601640C9F80460D9F8F5
:1009600008601640C9F8086043F60C46C4F2010658
:100970003546366832402A60013404370233102C81
:1009800008BFBDE8F08FA5E72DE9F04F82B041F632
:10099000004343F6004B08224FF0010A00264FF0B7
:1009A000000CC4F20203C4F2010B984200F13E4372
:1009B00008BF072203F1FF734FEAB327072F4FF059
:1009C000000738BF4FEAB322009200BF0A680AFA54
:1009D0000CF812EA080F00F09A80D1F804E04EF00B
:1009E0001002122A12D106F01C020F2303FA02F49D
:1009F0006FF0030303EA5C0505442B6AA3430C690B
:100A000004FA02F21A432A62D1F804E003230468CC
:100A10000EF00302BEF1120F03FA07F302FA07F217
:100A200024EA03046FEA030942EA0402026014D8CC
:100A30000AFA0EF212F0061F0FD08268CB6802EAA3
:100A40000902BB401A438260CEF30012436802FAE7
:100A50000CF223EA08031A434260C2688B6802EA78
:100A60000902BB401A43C2605FEACE024FD50022A2
:100A700006F00C050F24019243F64402AC40C4F288
:100A800002021346126842F480421A601A6802F4A5
:100A9000804201922CF00302019B5A444FF6084316
:100AA000CFF6FF739E46D358A343009C04FA05F586
:100AB0002B4342F80E30DBF800204D6842EA080371
:100AC000EC0358BF22EA0803CBF80030AC03DBF894
:100AD000042042EA080358BF22EA0803CBF8043096
:100AE000EC02DBF8082042EA080358BF22EA0803B8
:100AF00043F60C42CBF80830AD02C4F201021446B2
:100B0000126842EA080358BF22EA080323600CF186
:100B1000010C02370436BCF1100F04BF02B0BDE86F
:100B2000F08F53E740F2480044F6D351C2F201007F
:100B3000C1F262010068A0FB01014FF0FF3000EB41
:100B400091120021B1EB126F18BF70474EF21003E3
:100B50004EF60C5CCEF20003CEF2000C5A60F0228E
:100B60008CF81720996007211960DCF80010C1F398
:100B70000221CA1E81F0070138BF0022042928BFC4
:100B800004218840012121EA0000904000018CF8F6
:100B90001700704790F8B813012901D1022150E0E5
:100BA0000121FF2380F8B813D0F800C0DCF808203A
:100BB00022F00102CCF808204FF62062CFF6FF7237
:100BC0000CEB02012032C1F8E83AC1F8E83CF7D159
:100BD00040F63F524FF0FF330021CCF81838CCF8E4
:100BE0001018CCF81418CCF81C181021C0F203020D
:100BF000CCF810100133934203D8DCF81010C9066A
:100C0000F8D44FF484614FF0FF33CCF8101000BFDC
:100C10000133934203D8DCF810108906F8D4DCF8CD
:100C2000041841F00201CCF8041844F23411C2F265
:100C300001010A680B689B1A042BFBD3002180F882
:100C4000B81308467047B0B5D0F81852044695F866
:100C5000180280B12046812103F053FD687A0228F2
:100C600018BFB0BD05F50372204601211F23BDE862
:100C7000B04003F01EBDD5F814020028EAD0687A0F
:100C80000028E7D12046012103F03BFDE2E710B543
:100C9000D0F81842627A022A05D1812103F031FD91
:100CA0000020607210BD49B2B1F1FF3FFADC012AA9
:100CB00008BF10BD0121BDE8104000F0BDB810B55F
:100CC0000446D0F81802017ACA1E022A05D220462C
:100CD0000021BDE8104000F0AFB8022910D190F813
:100CE000191200F21B22204602F014FBB0F1FF3F64
:100CF000C8BF10BD20460121BDE8104000F09CB8DF
:100D000010BDB0B5D0F818520446287A012834D066
:100D1000E8BBD5E98401C5E98C01D4F82002B0F81C
:100D20002C021F2810D145F25531D5F80C02C4F21F
:100D30004231884208D195F81912012904D895F852
:100D40001A020138102823D395F85D024FF400529F
:100D500005EBC0010130C1F84022052281F83C2298
:100D600002216972C1B2043918BF014685F85D12CB
:100D70002046BDE8B040FFF766BF95F8191205F2AE
:100D80001B22204602F0C6FAB0F1FF3F2ADDB0BDBB
:100D900005F21B22204602F0BDFA297AB0F1FF3F8E
:100DA0001EDD481E0328F2D3688908B3D4F8181250
:100DB000002281F8382204220A72D1F81422D1F8D4
:100DC0003432824238BF10461A1A83B2C1F8342234
:100DD00005F10C0220468121BDE8B04003F0F1BCD2
:100DE0000529C5D120460121BDE8B04000F024B856
:100DF00020460021BDE8B04000F01EB8B0B5D0F8E4
:100E00001852044600202881A5F85C02D4F81C0280
:100E10000168002088472046012103F0A9FB2046F5
:100E2000812103F0A5FB05F50372204601211F2354
:100E3000BDE8B04003F03DBCB0B5D0F81852044650
:100E400045F255300D23C5F2423085F83812C5F809
:100E50002C02002005F50B7281212872204603F038
:100E6000B0FC05F50372204601211F23BDE8B04008
:100E700003F01FBC10B543F65824C2F20104D4F8A5
:100E800014022179426820469047D4F82002FFF7E7
:100E900081FE012084F8FC01D4F814022179426813
:100EA00020469047D4F82002FFF774FED4F8204281
:100EB0000CB3032084F8B9032046FFF76BFE2068CB
:100EC000B0F1A04F14D143F63400C4F2020001681F
:100ED00021F08001016000204FF4F051C4F20200C3
:100EE000FFF7D8FC4EF288100821CEF20000016016
:100EF000002084F8B90310BD2DE9F04F87B043F608
:100F00005828C2F20108D8F8140210B10020C8F81D
:100F1000140240F20C0043F63C5B4FF00109002440
:100F200040F2000A0227042602ADC2F2010088F84E
:100F3000FC91C2F2010BC4F2020A2946C8F8100261
:100F4000032088F80040CBF8EC83C8F820B28BF877
:100F5000B9034FF0A040CBE90B94CBE90374CBE984
:100F60000547CBE90744CBF82440CBE900064FF412
:100F70000070CDE9034402905046FFF705FD0A20BA
:100F80002946CDE905404FF4E050CDE903740290C5
:100F90005046FFF7F9FC43F634004FF6FF02C4F267
:100FA0000200016841F0800101600194016941F48F
:100FB00080410161006900F48040019001984EF683
:100FC0000C50CEF200000168114040F20062C0F205
:100FD000FA52114340F63F520160C0F2030200682A
:100FE000C0F30220C11E80F0070038BF0021042892
:100FF00038BF06464FF0FF30B04029EA0000884075
:101000004EF243410001CEF2000108704EF208108A
:101010000821CEF200000160DBF80000816821F0B9
:1010200001018160DBF81830DBF81010012B2ED1A4
:10103000DBF83430876B4FF6BF76CFF6BD7627F4FA
:101040008037012B8763C76807EA0607C760C76850
:1010500027F44017C76002BFC36843F48013C3601E
:101060004FF0FF33013393422FD80769B7F1FF3FA9
:10107000F8DC036943F0010303614FF0FF3300BF65
:101080000133934221D80769FF07F9D11DE0C368F6
:1010900043F04003C3604FF0FF3300BF013393427E
:1010A00010D80769B7F1FF3FF8DC036943F001038B
:1010B00003614FF0FF3300BF0133934202D8076949
:1010C000FF07F9D14FF480338363012907D1816889
:1010D00041F006018160816841F020018160C168B2
:1010E00044F2341AC2F2010A21F0C041C160C16861
:1010F00041F08041C160DAF8003000BFDAF80070DA
:10110000FF1A332FFAD3002301260025002400BF45
:101110000BEB05071C35FC8787F838400134B5F523
:10112000D27F87F83960FB64C7E9103387F83B301A
:10113000EED10023412600250BEB0507A6F1410463
:101140001C3587F8F84187F8F931C7F80C32C7E940
:10115000803387F8FB31FC8740F826300136B5F53F
:10116000D27FE9D1DBF82CE04FF40024BEF1000F70
:1011700008BF4FF40014DBE9065CDBF80470DBE920
:101180000339866B3443012D84634FF00004C0F8AB
:10119000004ED0F80048C0F8004806D1D0F800480A
:1011A000002B18BF44F0010403E0D0F8003843F0EE
:1011B00003044FF48463C0F8004803614FF0FF3329
:1011C0000133934202D80469A406F9D410230361C1
:1011D0004FF0FF330133934202D80469E406F9D497
:1011E0000022002F4FF0FF33C0F81028C0F8142859
:1011F000C0F81838C0F81C2820D000F510654FF052
:101200009043FF243E4600BF2968013E03EAE17196
:1012100029602A61AC6005F12005F5D100F5306246
:101220004FF090450023FF241168013F05EAE1716A
:1012300011601361946002F12002F5D1D0F810180A
:10124000B9F1010F21F48071C0F8101818D140F2E3
:1012500000110246C0F28001C0F83018D0F83018F2
:1012600041F4803141F00301C0F83018D0F8301853
:10127000002142F8181F6FF0804142F8041C0EE074
:1012800000210246B9F1000F42F8181F6FF08041AB
:1012900042F8041C03D1116841F01001116043F6BB
:1012A00000031168BCF1000FC8F23C0341EA0301DE
:1012B00011601EBF116841F008011160BEF1010FFD
:1012C00005D1116841F0804141F004011160012114
:1012D0008BF8B913D0F8041841F00201C0F80418D3
:1012E000DAF80020DAF80010891A0429FAD38021EC
:1012F0004162416A41F480018162416A826A01EB84
:10130000124141F40001C0F8041140F20810C2F289
:101310000100C8F81C0240F26400C2F20100C8F8E3
:101320001402D8F8200290F8B813012918D001212E
:1013300080F8B8130268D2F8041821F00201C2F84C
:101340000418DAF8003000BFDAF80010C91A0429CE
:10135000FAD3916841F001019160002180F8B8133F
:1013600007B0BDE8F08F00002DE9F04F87B043F6DD
:101370003C5BC2F2010BDBF800E0DEF81400C007B2
:1013800040F03C87DEF81400DEF81810014200F04F
:101390003587DEF81400DEF818100840800742BFD9
:1013A000DEF8140000F00200CEF81400DEF814009D
:1013B000DEF81810CDF810E008407146000340F147
:1013C0006483DEF81808DEF81C184FF0000C0840A3
:1013D000BCEB104F07D0000C0BF504764FF43068CF
:1013E0004FF0000A0CE071464FE300206146C9F857
:1013F0000400022089F8FC01D9F81402426860E177
:101400000446C00700F03583DBF8000008EB00015C
:101410008968D0F8140800EA0107F80777D00EEBC6
:10142000080001218160DBF81010012909D156E97B
:10143000041200696FF3DF40081A3060501846F854
:101440000C0CDBF8EC535FEA0A600CD0D5F8140200
:101450008269AAB395F8FC01032831D15FFA8AF1B9
:101460002846904728E0D5F8F401032828D1D5E98B
:10147000431081420DD9091A56F80C2CC5F80C11ED
:10148000814238BF084683B20021284603F011F993
:1014900012E0D5F81402016929B195F8FC0103287E
:1014A00001D1284688470420002100220023C5F8E6
:1014B000F401284603F085F9DDF810E04FF0000C48
:1014C000DBF80C0250EA0A0021D1DBF810000128F9
:1014D0001DD1DBF80000C0F810CBD0F8101B41F490
:1014E0000021C0F8101BD0F8101B41F01801C0F803
:1014F000101BD0F8101B41F0C041C0F8101B0BF5B9
:101500006F71C0F8141B4FF08021C0F8001B380722
:1015100040F1A98205979BF8BC53DBF8EC73CDF83A
:1015200008A0A2465C464FF0010987F808529BF8D4
:10153000BD3387F809329BF8BEC39BF8BFB34CEAB2
:101540000B2EA7F80AE294F8C01394F8C10341EAFD
:10155000002205F01F00A7F80C220228B4F8C243AD
:10156000C7E97D94A7F80E42B94607F50277CDF892
:101570000CA031D0012801973BD0002852D1DDF8D2
:1015800008A0092B00F21381DFE813F00A007C00A9
:1015900011018D001101A700DB001101F20008010B
:1015A00099F8FC0100F0FE00022840F000810220C2
:1015B0004A4600210223C9F8F401C9E90600D9F816
:1015C000040200284FF0030008BF012042F80C0F6E
:1015D000484603F0F6F8F2E005F060004FF0000C2A
:1015E000202827D1D9F81402394682684846904706
:1015F0001DE099F8FC01059F032838D1DDF808A00B
:1016000011F0FE0F40F01A82D9F814020199826895
:1016100048469047B9F80E024FF0000C002840F001
:10162000178250E005F08001484603F06AF8DDF8C3
:1016300008A0C4E0002B00F0C6800197059F012B95
:1016400000F0CE80DDF808A0032B40F0018299F86D
:10165000FC01032840F0CA80BEF1000F2DD141F0FB
:101660008000802829D0484603F04BF825E0484602
:10167000802103F046F84846002103F042F8DDF8E7
:1016800008A0E3E199F8FC0100F0FE00022840F018
:101690008E80059FBEF1010F4FF0000C40F0D88105
:1016A000C9F804C209E0059FBEF1010F4FF0000C1C
:1016B00040F0CE810120C9F80402D9F81402019942
:1016C0008268484690470420002100220023C9F880
:1016D000F401484603F075F8B8E142EA040000045A
:1016E00065D199F8FC01059F032800F0A7810CF053
:1016F0007F0489F8FE41D9F8200290F8B813012937
:101700000FD00168D1F8002822F4FE62C1F8002849
:10171000D1F8002842EA0412C1F80028002180F81C
:10172000B8130420002100220023C9F8F401484620
:1017300003F047F8002C14BF0220012089F8FC01B7
:1017400084E1ABF10100062831D8DFE810F0070092
:10175000E300F100300030001E012A01D9F8101218
:1017600099F810000A680DF11A019047024626E127
:10177000012C1CD199F8FC01059F0021032800F0E1
:101780003281022840F05A8102204A46C9F8F40109
:101790000120C9E9060042F8081F2CE143F2386035
:1017A000BCF1020FC2F2010080F800C028D3484605
:1017B000802102F0A6FF4846002102F0A2FF4FF070
:1017C000000C059F44E199F8FC01059F032832D0E5
:1017D000DDF808A0022840F0318148060ED137E13B
:1017E00099F8FC01DDF808A003284CD0022840F04D
:1017F000258141F08000802800F02A81484623E1BD
:1018000099F8FC01059F032800F0F980022840F0B8
:101810001581BCF1000F3FF456AF032089F8FC019D
:10182000C9F804C0D9F81402002800F00781026842
:1018300048466146FEE001F07F0011F0800109EBAF
:101840000013C0EBC00003F1140208BF03F582725D
:10185000D9F8203200294FF0000103EB800000F19D
:101860003A0308BF00F5FD7318780223002818BF5B
:10187000012010600220C9E90600C9F8F4014846B9
:1018800002F09FFFFBE6BEF1000F40F0E18048064A
:101890003FF419AFD9F82002C1EBC10201F07F0378
:1018A0000D064FEAD1114FF0000500EB8207C3EBA4
:1018B000C30200EB820202F1380258BF07F5FC7246
:1018C00051701370957090F8B873012F1AD00127DA
:1018D00000294FEA431180F8B87307680CBF07F579
:1018E000306307F510635F5827F400175F50D27814
:1018F00002F0FE02022A02BFCA5842F08052CA50C9
:1019000080F8B853D9F81402019982684846904784
:10191000059FD8E699F81010D9F8140200290CBFD9
:10192000816AC16A0DF11A0088470246022045E02B
:10193000BCF1050F3FF63BAFDFE80CF0211B150FA4
:101940000903D9F8101299F810008A690BE7D9F841
:10195000101299F810004A6905E7D9F8101299F8A1
:1019600010000A69FFE6D9F8101299F81000CA6849
:10197000F9E6D9F8101299F810008A68F3E6D9F858
:10198000101299F810004A68EDE699F81000002846
:101990007FF40DAFD9F81402416B0DF11A0088479E
:1019A000E4E699F8100000287FF401AFD9F814029A
:1019B000016B0DF11A008847024607205070BDF8F0
:1019C0001A00059F4FF0000C002841D0B9F80E32E4
:1019D000F3B3984238BF03460220ADF81A30C9E984
:1019E0000633002173E6012009F10402C9E906006B
:1019F0000220C9F8F4014846002101236AE6BCF13F
:101A0000000F3FF4F2ACD9F8040060453FF45BAE40
:101A1000D9F814124A68C1B24846904743F2386078
:101A2000C2F201000178C9F80410D9F8140228B1F3
:101A300002684846904700283FF445AE484680215A
:101A400002F05FFE4846002102F05BFE4FF0000C02
:101A5000DDF810E0082143F63C5BC2F2010B0EEB0F
:101A600008008160039CF80642BF0EEB08001021BD
:101A7000816008F120081C3660080AF1010ABCEBFD
:101A8000540F7FF4BDACDBF8001048698A69104040
:101A9000400340F16B81D1F81808D1F81C281040A0
:101AA00080B2002800F062810EF5106300254FF02F
:101AB000000A02933EE00EF14406039B05F5106018
:101AC000D6F800E005904FEA0A30019603F58057FA
:101AD00002E000BFD1F800C043F63C53ABEB040674
:101AE000C2F20103664588BF66461D7C75B90323B3
:101AF00013FA86F50023B3EB950F07D0AC087546B3
:101B000055F8043B013CC351FAD114683444059D97
:101B1000F31CB6441460AD69ADB2B5EB930F03D9B5
:101B2000D9F800B0A345D5D80198029BC0F800E0D1
:101B3000FDE000BF8046C00700F00E81DBF800002A
:101B4000D0F81018D0F8342800EB4A10D0F8080963
:101B500022FA0AF2D201D2B2114301EA00095FEA85
:101B6000C97000F0A4800122DEF8341802FA0AF0ED
:101B700021EA0000CEF8340803EB4A108260DBF85B
:101B80001000012807D1CAEBCA000BEB8000D0E996
:101B9000101211444164DBF8EC435FEA0A6010D094
:101BA000D4F814024269002A5AD094F8FC010328A0
:101BB00056D15FFA8AF120469047029BDDF810E08B
:101BC0004EE0D4F8F401022844D1D4E90710814250
:101BD00015D9CAEBCA02081A00210BEB820283B2A4
:101BE000526CE061204602F0ECFD2046002100220C
:101BF000002302F05EFD029BDDF810E02AE0A169FF
:101C0000814211D3B1FBF0F202FB101060B9D4F89D
:101C1000F801814208D2204600210022002302F070
:101C2000D0FDC4F8F851E0E7D4F81402C16829B136
:101C300094F8FC01032801D12046884705200021A3
:101C400000220023C4F8F401204602F032FDDDF842
:101C500010E0029B94F80002012808BF84F80052AB
:101C6000DBF84C0050EA0A0021D1DBF81000012813
:101C70001DD1DBF80000C0F8105BD0F8101B41F458
:101C80000021C0F8101BD0F8101B41F01801C0F85B
:101C9000101BD0F8101B41F0C041C0F8101B0BF511
:101CA0006F71C0F8141B4FF08021C0F8001B5FEA71
:101CB000097042BF03EB4A10082181605FEAC960E6
:101CC00042BF03EB4A10102181605FEA496042BFC6
:101CD00003EB4A10402181605FEA897042BF03EB49
:101CE0004A10022181605FEA096035D5CAEBCA005B
:101CF0000BEB800E5846714651F840CF0A46894694
:101D000052F8104F59F80CBFABEB0406664588BF7C
:101D100066460068039000EB4A15F01CD5F8187968
:101D2000BFB2B7EB900F88BFA3453FF6C4AE43F6F2
:101D30003C5BDDF810E0002E4FF00005C2F2010B15
:101D40000AD10399012000FA0AF00A46D1F83418A2
:101D500021EA0000C2F834084FEA58000AF1010AEB
:101D6000B5EB580F7FF4E6AEDBF8001048698A69DE
:101D70001040B0F1FF3F0FDCDEF8040820F0010056
:101D8000CEF80408DBF8EC0390F8FD2180F8FC2184
:101D9000486900F00040486148698A6910400005C0
:101DA00021D5DEF80808C00719D0DBF8EC030423BE
:101DB00090F8FC2180F8FC3180F8FD21D1F8000E6C
:101DC00040F00100C1F8000EDBF8200038B14EF6FB
:101DD0001050CEF20000026842F00602026048692C
:101DE00000F40060486148698A691040C0046CD5FD
:101DF000DEF8040840F63F534FF0FF32C0F2030311
:101E000020F00100CEF804084FF4846008610EF55C
:101E1000006000BF01329A4202D80F69BF06F9D4B0
:101E2000DBF804205AB14FF608670EF53063FF2641
:101E3000CFF6FF77DE519E602033013AFAD14FF0A2
:101E4000FF328261C26942F00112C261DBF83020C8
:101E500042B1D0F8842042F00B02C0F8842000F197
:101E6000440205E0426942F00B02426100F11002B7
:101E7000136843F00B031360026822F4FE620260F1
:101E800000229BF81000C1F8102BD1F8102B01286C
:101E900042F40022C1F8102BD1F8102B42F01802A6
:101EA000C1F8102BD1F8102B42F0C042C1F8102B12
:101EB00007D10BF56F70C1F8140B4FF08020C1F8FB
:101EC000000B486900F48050486148698A691040F5
:101ED000800440F1F880D1F8000940F2FF7290438D
:101EE000C1F80009D1F8080800F00600042802BF74
:101EF000D1F8000940F00300C1F80009D1F8040846
:101F000040F48070C1F80408C86820F47050C860BC
:101F1000D1F8080810F0060F2BD0D1F8080800F00F
:101F2000060002280BD0D1F8080800F006000628A9
:101F300005D0D1F8080800F00600042819D1402087
:101F400045F2403243F2FF43CBF814000320CFF6B2
:101F50002772C0F20C03CBF80C0040F24800C2F22A
:101F60000100006802449A420ED8C86840F47050DC
:101F700080E04FF400700022CBF81400CBF80C2066
:101F8000C86840F4105076E041F6406244F23F23C6
:101F9000CFF61B72C0F20F0302449A4203D8C868FE
:101FA00040F4605066E0A0F5740244F67F73A2F539
:101FB0001052C0F212039A4203D8C86840F450503D
:101FC00058E0A0F183724DF21F63A2F5E742C0F220
:101FD00013039A4203D8C86840F440504AE04BF2D9
:101FE00060624EF25F33CFF6E562C0F21603024440
:101FF0009A4203D8C86840F430503BE04DF20032BA
:1020000047F23F73CFF6CE62C0F21B0302449A42FE
:1020100003D8C86840F420502CE045F6C03249F29D
:10202000BF13CFF6B362C0F2210302449A4203D831
:10203000C86840F410501DE0A0F1B77247F21F537A
:10204000A2F55852C0F238039A4203D8C86840F447
:1020500000500FE045F2E04249F6DF43CFF6596207
:10206000C0F241030244C8689A428CBF40F4C05099
:1020700040F4E0500122C860002140234025DBF8F5
:10208000EC4322742046002202F0A8FA2046802168
:1020900000224023C4F8105102F0A0FA012084F875
:1020A000FC012562D4F8180228B1D4F81402217971
:1020B000426820469047DBF80010486900F4005061
:1020C0004861DDF810E048698A691040C0064DD5C6
:1020D000886920F010008861DEF82020C2F34343B5
:1020E00002F00F00062B26D0022B3BD147F6F073EF
:1020F000134037D0C0EBC000032200260BEB80005A
:1021000002EB13171B09D0F8044200F5017CB6EB73
:10211000970F09D0BE084FF4805527465EF805207A
:10212000013E47F8042BF9D1E218CCF80020D0F892
:1021300010221A4414E000234FF480570BEB830560
:102140005EF807600133022BC5F8BC63F6D1C0EB23
:10215000C0000BEB8000D0F81032C2F30A121A4410
:10216000C0F81022886940F01000886148698A69C7
:102170001040000710D5DBF8EC0390F8FC21032A8F
:1021800006D1D0F81422D26912B19047DBF80010C2
:10219000486900F00800486148698A691040C00237
:1021A00042BF486900F48010486148698A6910405C
:1021B000800242BF486900F40010486148698A699A
:1021C0001040400042BF486900F0804048614869C3
:1021D0008A691040400711D54C6860070BD5DBF8C1
:1021E000EC03012180F8FC11D0F814220179526827
:1021F0009047DBF8001048682043486007B0BDE80E
:10220000F08F00002DE9F04FADF52B7D40F2801AE4
:102210004FF45051C2F2010A5046FEF761F840F205
:102220002C1550463E22C2F20105294602F04AFD15
:1022300006460AF5FE7005F14201042202F042FD55
:102240003E3540EA06040AF500700422294602F0F1
:1022500039FD04430AF580502946042202F032FD7C
:1022600040F228010AF5F05504432022C2F2010190
:10227000284602F027FD44EA000143F64100C2F27D
:1022800001000078012840F09E84CDE9041541F654
:10229000086045F255014CF2FF384FF00F0E4FF039
:1022A000000940F6FF7B2AF8001044F24211CFF6F5
:1022B0007F5841F60460C4F643314AF8001000BF6D
:1022C0009AF80D00DAF82010B1FBF0F4A0B2022861
:1022D00073D340F28011C9EBC9004FF0000AC2F27B
:1022E000010101EB402000F2032500BF28685FFADE
:1022F0008AFCA3B2A9884FF6FF72022B20EA0B00DA
:1023000040EA8C0000F10300286032D001EA0206A6
:1023100040F2FF31032BCFF60071AE8000EA0100DE
:102320000CF1010140EA8131296030D018F1407789
:102330004FEA8C006EF11F023940471D042B02EA60
:10234000060241EA076142EA17262960AE802BD0D7
:1023500001EA08010630043C0AF1010A296006EA94
:102360000E0141EA0010A880A0B206350128BDD8B0
:1023700023E01140A98040F2FF31CFF60071084000
:102380004FF20001C0F2FF010843286015E018F188
:10239000407000EA010040F07F4028606EF11F00AD
:1023A000304040F00F0007E001EA08004FF6F071FE
:1023B000286006EA0E000843A88040F2801A09F15E
:1023C0000109B9F1020FC2F2010A7FF479AF4FF4AB
:1023D0000D7005F0A3F843F6542B064606AD1E21FA
:1023E000C2F2010BCBF8000043F63020C0F22F0000
:1023F0000E902846FDF774FF43F65028C2F20108FC
:10240000D8F8000047683846FDF7DAFE024628464D
:102410003946FDF71AFF2846FDF7D2FE46F22E2177
:102420000DF13809C6F66961CDF864922950284447
:102430000021017199A803F0F7F800280FDB43F29F
:102440008051C2F2010151F820200AB1002313701B
:102450000EB10022327041F82060002000E00B2015
:1024600043F64204A595C2F201042070A5A803F02A
:10247000DBF8002836DB43F28051C2F2010151F84B
:1024800020708FB3397889B303979997A59F99AA3C
:1024900001E000BF013738785C2818BF2F28F9D039
:1024A00000209B903978202951D2802000218DF87E
:1024B0008F0299A802F08CFF0546002D00F0B08134
:1024C000042D99A840F0EA819DF88F1211F0A00F19
:1024D00000F05D82062543F65028C2F201080DF196
:1024E00038092FE00B25D9E10C25D7E178700025BC
:1024F000384600213D7002F00BFD02281ED199AC38
:10250000002021463A18103092F8F631002B14BF03
:10251000D2F8FA21002241F8042B4028F2D10026FB
:1025200054F8265035B13846294602F0F1FC02280D
:1025300001D282E103200136042EF1D3042840F0B9
:102540006881012543F64204C2F20104A6E143F288
:102550000A0E039802F1200CC0F6010EC068013784
:1025600089B300224BB2B3F1FF3F01DDCBB208E0EB
:1025700043F2C223C0F6010303EB41016FF0FF03F6
:10258000CB5A202B1DD35C2B4FF0000118BF2F2BF3
:102590001DD07F2B0BD8764616F8011B09B18B4254
:1025A000FAD106253F2A00F2798119B176E13F2A56
:1025B00000F22D8120F81230013217F8011B00299A
:1025C000D0D1042103E00421002200E001373B7850
:1025D0005C2B18BF2F2BF9D0002A00F0168100EBDE
:1025E0004203524233F8026C2E2E18BF202E03D124
:1025F000023B0132F6D108E1002652421E8000BFA4
:1026000030F816300136202BFAD02E2B41F003057E
:1026100008BF2946831E012E18BF2946751E00BF1C
:102620003AB133F81260013A2E2EF9D102F1010EBF
:1026300001E04FF0000E4FF02032CDF808C0AEF1AF
:10264000010808234FF00009CCF80720CCF800203F
:10265000CCF804204FF0000C30F815602C46013502
:10266000202E03D02E2E04D1A0451AD041F0030114
:10267000F2E7002E68D09C4560D2A0455ED0802E47
:1026800036D300240022019343F2C223C0F6010393
:1026900033F81430B3421CD001340132802CF3D310
:1026A00018E00122754643F6420441F003060B2B65
:1026B000C2F2010400F0A580002A08BF314675452A
:1026C00000F2A1804FEA89090B234FF0080C7546F0
:1026D000C2E72246803241F00201D6B2120606D588
:1026E00047F2AC5306F07F02C0F600039E5C019BEC
:1026F00056B142F65772C0F6010200BF12F8014B04
:102700000CB1A642FAD14CB141F003015F2699AA5F
:1027100062440CF1010C82F820609DE7412EF6D353
:102720005A2E02D849F00209F1E7A6F1610292B2ED
:10273000192A9CBF203E49F00109E8E7A8EB0402F2
:10274000B2FA82F25209AEE743F642040E46C2F2F2
:1027500001049DF8840243F65028C2F20108E528DE
:1027600004BF05218DF8841299A8082B08BF4FEAF1
:10277000890909F0030246F00201032A09F00C025C
:1027800008BF0E460C2A08BF0E46B10707D4102119
:1027900001EA091209F0040142EA41010E438DF8F1
:1027A0008F6202F0FDFB05469DF88F02002D40F080
:1027B000FD8241070DF1380934D49DF86A02C00644
:1027C00040F1FD829D98039B6FF35F20191891F8EB
:1027D0004E0091F84F2040EA02201A78032A06D1D1
:1027E00034310A7D497D42EA012140EA01409B9053
:1027F00043F20A0EDDF808C039789998C0F6010E48
:10280000ACE60B23A5E70E46A3E7002101800625D1
:1028100044E043F642040128C2F201043DD810E02E
:102820009DF88F0240B20028F1DB9DF86A0210F09B
:10283000110F00F0D382072530E043F64204C2F2C4
:10284000010497F83F0097F8401040EA0120B0F5E6
:10285000007F22D197F84A0097F84B1040EA0120F8
:1028600000B9B86DF86197F84430591EBB70012962
:1028700013D897F84120002A7A810ED0511E1142B8
:102880000BD1BC4697F845709CF8461047EA0121E9
:102890003F07ACF8081000F0FD820D2500260F96CA
:1028A000DBF800008022257000F134010598FDF767
:1028B000CCFC002E00F04C813078002800F04881DC
:1028C000F088BDF840103546814218BF002540F021
:1028D0003F819DF84C0041060CD43078002800F070
:1028E0003781F088BDF84010814240F031810026E8
:1028F0000F962EE1000611D50FA8169A0123012686
:1029000000F12801002001F09FFB002840F0218108
:102910009DF84C0000F07F008DF84C001799284678
:1029200003F02EFD0646002840F013811898C17A66
:1029300041F02001C17211990F9A0B0A8176C3767A
:102940001278032A03D10A0E090C427501754BF265
:10295000C0321299C4F6A962C0F816200022428241
:102960000A0E0177C2770A0C090A827741770120A3
:10297000E870284604F030FB002800F09C800646F2
:102980009DF84C0000F0BF008DF84C00E1E09999F3
:102990004FF00009CA68029132F8191009F10109D3
:1029A0000029F9D10022A6AF811891F82010B9545E
:1029B00001320C2AF8D19DF8A322D10700F018812A
:1029C00041F2210A402100F1200C01264FF0030EB4
:1029D0000DF5297B4FF00008C0F2010A8DF88F1227
:1029E0000299CC68002100BF7A5C431801310B29A1
:1029F00083F82020F8D1052E354615D92288354692
:102A000092B100BF1023294602F00105520845EAA1
:102A10004105090448BF85EA0A05013B2946F3D16F
:102A200034F8022F002AEDD1072400BF29466EF3A7
:102A30001F11392988BF07310BF80410013C2909FF
:102A4000B8EB151F0D46F1D17E21002C0BF80410B8
:102A50004FF0000108D000BF1CF80120202A03D04D
:102A60000131A142F8D300BF072C00EB010301F1B3
:102A700001019ABF1BF8042001342022082983F8A1
:102A80002020F1D3644602F08BFA002840F0A080A9
:102A9000013699A8A4464FF0030E642EA0D340F24D
:102AA000801A43F6542BC2F2010AC2F2010B40F025
:102AB000728107250FE5287803283FD1287901285E
:102AC0003CD105F138004FF4FD71FDF709FC45F2EA
:102AD000522026460024C4F2611045F8340F4AF60D
:102AE0005520A5F8FE0147F27220C6F24110C5F844
:102AF000E40155E9090155F8142C0B0E85F8E8118D
:102B000085F8EC01013285F8EB310B0C090A85F8E8
:102B1000EA3185F8E911010E012385F8EF11010C66
:102B2000000A85F8EE1185F8ED010020294645F8E8
:102B3000042C01F089FA05F8304C34469DF84C001D
:102B400000F0BF008DF84C000F9E002E7FF4C5AE44
:102B5000092699A82670CDF8649202F065FD002838
:102B60000CDB43F28051C2F2010151F820200AB17E
:102B700000231370002241F8202000E00B22DBF834
:102B80000000227004F0A2FC207808B1FF211AE0B6
:102B9000D8F800406068FDF713FB092804D241F61D
:102BA000386041F63C6105E01928EFD841F67860BD
:102BB00041F67C6150446269514492020A604FF4CC
:102BC00000310160049948B20DF52B7DBDE8F08F0E
:102BD00040F2801A43F6542B05460428C2F2010A3B
:102BE000C2F2010B40F0ED809DF8A3228DF88F22F8
:102BF00090074FF0010609D54EF64F4109F10B0041
:102C0000C4F6C461A0FB010106EB9106999F99A847
:102C1000002102F0DDFB40F2801A43F6542BDDF870
:102C20000880054600280DF13809C2F2010AC2F2F7
:102C3000010B16D100249F99384603F0A1FB78B907
:102C4000A0980078E52800D018B90134B44201D129
:102C50000DE0002499A8012102F076FA0028EAD0BC
:102C60000546042D08BF0725002D40F0AC80B6F1C5
:102C700001096AD09D9899ACA0EB4911204602F059
:102C8000A7FB40F2801A43F6542B05460028C2F2F7
:102C9000010AC2F2010B7FF41EAC4FF0000B2020A2
:102CA0005FFA8BF2215C013053082B2843EAC212F1
:102CB00002EB010BF4D147F22C6A4FF6FF76C0F617
:102CC000000A9F99404603F05BFB002840F03581E5
:102CD000A09800220F23D8F80C100D27002542835E
:102CE000A0F80B305FFA89F380F80DB07B430D3B01
:102CF0001AF80240B5421ABF31F8135001334FF6AB
:102D0000FF752F0A0132002D05550444677008BF76
:102D100035460D2AECD1B54202D149F0400106E01A
:102D200031F813100029494608BF49F040010170ED
:102D30000120002188F8030099A802F005FA002874
:102D400040F0FB80B9F10109BBD19F99404603F0E7
:102D500017FB40F2801A43F6542B05460028C2F2B6
:102D6000010AC2F2010B7FF4B6ABA0982021FDF757
:102D7000B7FA99A8A09A00212030435C535401313E
:102D80000B29FAD19DF88F02A09900F01800087362
:102D9000012088F8030043F6502843F642040DF161
:102DA0003809C2F20108C2F2010417E0042D0DF146
:102DB00038097FF482AB400799A83FF585AB05251C
:102DC0006CE50DF1380943F6502843F64204002D16
:102DD000C2F20108C2F201047FF460ADA098039F23
:102DE0003978827EC37E42EA0326032905D1017D1C
:102DF000427D41EA022146EA01464BF2C0312022DF
:102E0000C4F6A961C0F80E1000214183C2723A785D
:102E1000032A08BF8182C1610120002EF87066D0AC
:102E2000012E01D1022539E5DDF864A2DAF8180097
:102E3000B04229D903983546006B0290504611E004
:102E4000DAE90510821E914208D20131CAF8141045
:102E50009AF8041041F001018AF80410874237D231
:102E600099983D46294602F078FB074601306FD01D
:102E700077B3012F08D050462946002203F09CFA70
:102E80000028DDD0054600E0022540F2801AC2F29B
:102E9000010A03E59CF847709CF8486047EA06265B
:102EA0000EB9DCF854609CF842709CF84340CDF8B1
:102EB0000CC047EA042747B1434303EB11143C44D9
:102EC000A64202D3361B964244D20D25FFF73ABBE9
:102ED000039F0299384603F053FA054640F2801AE0
:102EE000701E002DC2F2010A38617FF4D7AC039E38
:102EF000A098316BCDE917103278817EC37E41EA0C
:102F00000321032A05D1027D437D42EA032241EADF
:102F10000241119100254821C0690F961290F08856
:102F20001695ADF84C1014954FF40071ADF84000B3
:102F30000FA82830FDF7D4F9B2E440F2801A43F626
:102F4000542B0546C2F2010AC2F2010BFFF7C3BAC5
:102F500001259AE74FF6F67CB6FBF2F2C1464FF038
:102F600000084FF6F676C0F6FF7C624538BF4FF09A
:102F70000308B24240F6F67638BF4FF00208B2427C
:102F800038BF4FF00108B8F1000F18D06619039C44
:102F90002F440232B8F1030FE662C4E90857A26178
:102FA0000FD1039F97F85E3097F85F70194341EA9D
:102FB0000721C9B9039B196E996291000FE00D2595
:102FC00017E089B1F918039BB8F1020F99620FBF9E
:102FD000510002EB420102F0010202EB510101F249
:102FE000FF11B0EB512F07D240F2801A0D25C2F22B
:102FF000010AC846FFF773BA03994FF0FF30B8F1E2
:10300000030FC1E904004FF08000087132D1039929
:1030100091F8640091F8651040EA0120012829D157
:103020000398691C03F0ACF920BB039900200871D8
:1030300091F8320291F8331240EA01204AF6552104
:10304000884217D1039845F25221C4F26111406BB6
:1030500088420FD1039847F27221C6F24111D0F88D
:103060001802884206D1039AD2F81C02D2F8201224
:10307000C2E90410039F43F28C5040F2801A43F6D9
:103080004204C2F20100C2F2010AC2F2010487F84E
:103090000080C8460DF1380901880131018043F2F2
:1030A0008E50C2F20100F860F980FFF7EDB9000020
:1030B00010B584B043F2146400210391CDE90111ED
:1030C000C2F20104217889073AD543F21061C2F2B5
:1030D00001010978A1BB43F21861FF22C2F201018C
:1030E000C0F21802096811400122C0F208029142A0
:1030F00026D140F218414FF08052C4F202010A601A
:103100008DF8040001A80622811D00F0C2FEB8B9A6
:1031100043F21C60C2F2010001E000BF00BFC168C1
:103120000629FBD144F22C129DF80E009DF80F10D9
:10313000C2F20102107044F22E10C2F201000180AE
:10314000207880071AD543F21060C2F2010000789F
:10315000A0B943F21860FF21C2F20100C0F21801C9
:10316000006808400121C0F20801884206D140F2FF
:1031700018404FF48051C4F20200016004B010BD49
:1031800010B582B043F214640021CDE90011C2F2FF
:103190000104217889073BD543F21061C2F2010195
:1031A0000978A9BB43F21861FF22C2F20101C0F203
:1031B0001802096811400122C0F20802914227D189
:1031C00040F218414FF08052C4F202010A608DF8BB
:1031D000000068460422011D00F05BFEC0B943F206
:1031E0001C60C2F2010000E000BFC1680429FBD1ED
:1031F00044F22C119DF80500C2F201010870BDF8DF
:10320000060044F22E11C2F2010100BA000C08803F
:10321000207880071AD543F21060C2F201000078CE
:10322000A0B943F21860FF21C2F20100C0F21801F8
:10323000006808400121C0F20801884206D140F22E
:1032400018404FF48051C4F20200016002B010BD7A
:10325000B0B582B043F214650446C2F20105287885
:10326000800702D44FF0FF3034E043F21060C2F226
:103270000100007810B16FF001002BE043F21860FC
:10328000FF21C2F20100C0F21801006808400121CC
:10329000C0F208018842E5D140F218404FF0805159
:1032A0000222C4F20200016005208DF8040001A88A
:1032B000811C00F0EEFD68B943F21C60C2F201000F
:1032C00001E000BF00BFC1680229FBD19DF80700E3
:1032D00020700020297889071AD543F21061C2F2C4
:1032E00001010978A1B943F21861FF22C2F201017C
:1032F000C0F21802096811400122C0F2080291428E
:1033000006D140F218414FF48052C4F202010A6023
:1033100002B0B0BD2DE9F04383B0044610781646E4
:103320000D46192813DDA0F11A0110292CD8DFE869
:1033300001F048094141094141414159417D414123
:103340009541D000D4F81802002545810BE20028F1
:1033500000F0FA80032800F0118112282AD1717838
:10336000D4F81802C90740F04581D4F81C1205EBC7
:10337000C502C96901EB82010A79531D32799A426B
:1033800040F2D2811A4637E12F2800F021815A28D5
:1033900010D1D4F8180208210FF27C424181133079
:1033A000002100BF5318DB794354013911F10803A0
:1033B000F8D12BE1D4F8180290F85D124FF40053C5
:1033C0002AE1D4F8180208210FF254424181133047
:1033D000002100BF5318DB794354013911F1080370
:1033E000F8D113E1D4F81862002001A90DF10A0206
:1033F00070613061F060D4F81C0243682846984739
:1034000000BB08200221F0730198B1820138010A43
:10341000F074B174010C000E717430740C21BDF89D
:103420000A007181F075000AB075EFE0D4E986609A
:10343000436806F5187106F25E2228469847002870
:1034400000F0F080D4F818024FF4685390F85D1241
:1034500000EBC102C2F8403202237AE1D4F81872BC
:10346000387AB846002800F0F1804FF4007608F171
:103470000C097E81B8F85E02D8E99913B1FBF0F22D
:10348000B3F5007F38BF1E46B6FBF0F0494683B265
:10349000D4F81C0207692846B847B0F1FF3F40F353
:1034A0004881B3B2204681214A4601F08AF9D8F812
:1034B0003402D8E99912921B3144A0EB0600C8E906
:1034C0009912C8F8340240F0A180032088F808005F
:1034D0009CE0D4F81872387A002800F0DB80B7F846
:1034E0005E02D7E9991607F10C08B6F5007FB1FB2B
:1034F000F0F228BF4FF40076B6FBF0F0414683B2FD
:10350000D4F81C02D0F814C02846E047B0F1FF3FC1
:1035100040F31481D7F83412D7E999028319901B2C
:10352000A1EB0601C7E99930C7F8341200F01F81FA
:10353000B0F5007F28BF4FF4007083B201214246EE
:10354000204601F0B6F861E0D4F81862D6F814020B
:10355000002800F0CB8096F85D024FF4005206EB95
:10356000C0010130C1F84022052281F83C22C1B2DD
:10357000043918BF014686F85D12F3E0D4F818420A
:10358000112104F10D00FCF7ABFE0C20E07470205B
:10359000207394F85C0294F85D12884211D004EB19
:1035A000C001013091F83C22A27391F841222276A9
:1035B000C2B2043A18BF024691F8400284F85C2275
:1035C0006076122060813079122898BF60811DE0FA
:1035D0007178D4F8180289071AD4D0E99812B0F893
:1035E00068321A448A427FF6AFAE90F85D124FF40B
:1035F000045311E08CA10722428100BF013A93B22B
:1036000010FA82F6CF5C002B3773F7D10025AAE0C1
:1036100090F85D124FF4105300EBC102C2F8403233
:10362000052396E00025082035827081B6F85E02F9
:10363000F074000AD6F860120139F173B074080A08
:10364000B073080C7073080E30738CE097F9180291
:10365000002838DAD4F81C028168284688470028F8
:103660007FF4F0AED6F8020000BAC7F86402F17930
:10367000327A42EA0121C7F868120A18D4F818828F
:10368000D8F860329A4240F2A78098F85D024FF471
:103690000452B2E097F91802B0F1FF3F13DDD4F8FD
:1036A0001C0281682846884700287FF4CBAED4F8F6
:1036B0001C02C16828468847002861D0D4F8180247
:1036C0004FF41C53C2E697F85D024FF4005207EB2B
:1036D000C0010130C1F84022052281F83C22C1B26C
:1036E000043918BF014687F85D123BE0D4F81C028C
:1036F00081682846884700283FD0D4F818024FF444
:10370000685390F85D1200EBC1020131C2F84032FB
:10371000022382F83C32CAB2043A18BF0A4680F843
:103720005D22052030721DE0002A42817FF466AFE1
:103730006CE7D4F818024FF4885303E0D4F8180269
:103740004FF4407390F85D1200EBC102C2F84032B2
:103750000423013182F83C32CAB2043A18BF0A4647
:1037600080F85D22FF2568B203B0BDE8F0832046F3
:1037700000210025FDF760FBF5E700257581F2E7E4
:10378000D6F8020001BAC7F86412F079327A42EA38
:103790000022C7F868225318D4F81802D0F86062E3
:1037A000B3423FF622AFB7F85E325A435943C7E9F6
:1037B0009912D7F8141291427FF4FEAD0120B2F5B0
:1037C000007F4FF00101387228BF4FF4007293B2AE
:1037D000204607F10C02B4E602223A72B7F85E22E4
:1037E00051435043C7E99901D7F8140288423FF486
:1037F0003CAE98F85D024FF4005208EBC001C1F8EE
:1038000040220522013081F83C22C1B2043918BFA0
:10381000014688F85D12A5E70006000000000000E0
:103820000000000000000000000000030080830092
:103830002DE9F04786B043F214650C46C2F201054B
:103840002978890702D44FF0FF3130E0C7B2142F36
:1038500025D143F60004C4F20004606820F00200A1
:10386000606043F6DC40C2F20100FCF70FFE6068C6
:1038700020F00100606043F67C40C2F20100FCF7DA
:1038800005FE43F21C601C21C2F20100FCF728FD7A
:1038900043F210600021C2F20100017007E043F220
:1038A0001061C2F20101097829B16FF001010846E7
:1038B00006B0BDE8F087132F22D86FF00601002272
:1038C0000023DFE807F0100B0E0A0A1D1D1D1D1D49
:1038D0001D1D1D1D1D1D20426066E8E704230122F9
:1038E00001E000230222C0F30221042900F28680B5
:1038F000DFE801F08E03878A8D0043F0010387E043
:103900006FF00301D3E740F2480043F6300147F27D
:103910005D62C2F20100C4F20201C0F6000200685A
:1039200051F8281CC1F38221515C002220FA01F1D8
:10393000002000BF0746072A45D8013207F10800DA
:1039400021FA02F39C42F5D343E040F2480043F6EB
:10395000300147F25D62C2F20100C4F20201C0F61A
:103960000002006851F8281CC1F38221515CC84054
:1039700043F60001C4F200010968C1F3C20101313C
:1039800020FA01F193E743F21C60C2F201000483C4
:103990003FE143F21860FF21C2F20100C0F21801BA
:1039A000006808400121C0F2080188427FF44BAF53
:1039B00040F21840002C0CBF4FF480514FF0805162
:1039C000C4F2020018E0082A3FF43DAF501C21FA6F
:1039D00000F3A3423FF637AF43F60000C4F2000005
:1039E000016821F040010160016821F0380139438C
:1039F0000160016841F0400101600AE16FF00701D8
:103A000055E743F0020303E043F0030300E0103303
:103A100000F47C31B1F5004F04D0B1F5803F3DD1C9
:103A200003F50063802143F6000943F63008022ABB
:103A300001EAD021C4F20009C4F2020843EA010AF3
:103A40002FD0012A3FD1C0F3C140012849D002281C
:103A50006AD0032840F08C8000200190D8F8001034
:103A600041F00201C8F80010D8F8001001F002017E
:103A7000019101990521059102210491CDE90210DE
:103A80004FF4805001A9019009F5E630FCF77CFF66
:103A90000120C0F2080000F5801672E06FF0080106
:103AA00005E7800211D40520022601A90590002017
:103AB0000496CDE902604FF48050019009F5E6309C
:103AC000FCF762FF5DE000265BE009F5E6304FF4AD
:103AD0008051FCF7DFFE02264AF4007AC0F220068D
:103AE0004FE000200190D8F8001041F00201C8F822
:103AF0000010D8F8001001F0020101910199022193
:103B0000CDE90301012001A902904FF480500190FA
:103B100009F5E630FCF738FF01264AF4407A4FF009
:103B2000200CC0F208062EE000200190D8F800100A
:103B300041F00201C8F80010D8F8001001F00201AD
:103B4000019101990521059102210491CDE902100D
:103B50004FF4805001A9019009F5E630FCF714FFFD
:103B600001204FF0240CC0F2080000F500260AE006
:103B700009F5E6304FF48051FCF78CFE4AF4407AA8
:103B800001264FF0200C40F2480047F25D6200230E
:103B9000C2F20100C0F60002006858F8281CC1F308
:103BA0008221515C20FA01F2002100BF0846072B58
:103BB00007D8013300F1080122FA03F7BC42F5D31C
:103BC00005E0082B3FF43FAE591C22FA01F7A7424B
:103BD0003FF639AE43F2186140EA0A00C2F2010131
:103BE0000E60D9F8001021F04001C9F80010C9F8A2
:103BF00004C0C9F80000B007286840F0040108BFFD
:103C000020F004012960D9F8000040F04000C9F814
:103C1000000000214BE643F60000C4F2000081687A
:103C200011F0680F15D04A064AD50168090529D454
:103C300043F21C6290F80CC0C2F201021368D16812
:103C4000994235D253689BB3591C516083F800C028
:103C50002EE0C90739D04168490636D543F21C61C8
:103C6000C2F201010A68CB6893422ED202681205A3
:103C70002CD490F80CC04B68B3B35A1C4A6083F83C
:103C800000C031E043F21C62B0F80CC0C2F2010285
:103C90001368D16899420BD253684BB1591C5160DB
:103CA00083F800C051684B1C53604FEA1C220A7015
:103CB00043F21C61C2F20101CA680132CA60816824
:103CC000890642BF0168016070477047B0F80CC0B8
:103CD0004B684BB15A1C4A6083F800C04A68531CB9
:103CE0004B604FEA1C231370CA680B6801329A427A
:103CF000CA6006D143F210600021C2F201000170D7
:103D000070470A699A4228BF704780B5D0F800C052
:103D1000D1F808E05FEA0C530BD4BEF1000F0FBFDF
:103D20000A7E0EF101028A609EF8002002730A6981
:103D300010E0BEF1000F0BD00EF101038B60734653
:103D400013F802CB8B609EF801304CEA032300E0AD
:103D50000B8B8381501C086180BD43F67C40C2F20E
:103D600001000068426843F21C60C2F20100016871
:103D70000AB101B1704743F210620023C160C2F280
:103D8000010213707047F0B581B00C4601466FF028
:103D90000400002965D0002C63D043F21460C2F205
:103DA0000100007840075AD543F21060C2F20100CA
:103DB000027812B16FF0010053E043F21862C2F2D0
:103DC00001021278013A012A49D8012343F21C6703
:103DD00043F600060022037043F67C40C2F201075E
:103DE000C4F20006C2F20100C7E90042C7E90212AC
:103DF0003A61C0E90322316801F40061C0E90511AC
:103E0000FCF748FC58BB43F67C4006F10C0507F173
:103E100014022346C2F201002946FCF7E5FCF0B982
:103E200070684FF4806140F00100706043F6DC4040
:103E3000C2F2010001610021C160316801F400613A
:103E4000C0E90511FCF726FC48B943F6DC40B96827
:103E50002A462346C2F20100FCF7C6FC18B14FF017
:103E6000FF3001B0F0BD706840F0020070600020CB
:103E7000F7E743F6DC40C2F201000068426843F213
:103E80001C60C2F2010001680AB101B17047016112
:103E90007047F0B581B0144602466FF00400002A66
:103EA00060D000295ED0002C5CD043F21460C2F2D6
:103EB00001000078400753D543F21060C2F20100C0
:103EC000037813B16FF001004CE043F21C6701234B
:103ED00043F60006037043F67C40C2F2010700235C
:103EE000C4F20006C7E90041C2F201004FF480614C
:103EF000C7E902233B61C0E90331316801F4006185
:103F0000C0E90511FCF7C6FB50BB43F67C4006F147
:103F10000C057A682346C2F201002946FCF764FCCE
:103F2000F0B970684FF4806140F00100706043F6B2
:103F3000DC40C2F2010001610021C160316801F47E
:103F40000061C0E90511FCF7A5FB48B943F6DC4068
:103F5000B9682A462346C2F20100FCF745FC18B1B5
:103F60004FF0FF3001B0F0BD706840F002007060AB
:103F70000020F7E780B943F650204FF6FE73C2F2F7
:103F80000100C0F27F030068406903EA40001D3071
:103F900008604FF4007010800020704700207047C8
:103FA000002070470020704743F63C00C2F2010039
:103FB000007800F001004042704770B5012838D009
:103FC00020BB0C461D2A23D343F64100C2F2010058
:103FD000007801281ED14CF200605E02CFF6FF701F
:103FE00000EB422542F6DD703246C0F6010029465C
:103FF00003F01AF843F6502021463246C2F201007F
:104000000068D0F834312846984712E0012070BD8E
:104010001B2A04D359022046FCF762F909E040F25A
:104020008010C2F2010000EB42215A022046FCF748
:104030000CF9002070BD80B5FFF7BFFF002818BF46
:104040000120400080BD0000F0B581B0012800F0E3
:10405000918038B943F64420C2F20100007818B1CB
:10406000FF2088E0012086E01E4614460D461D2AEA
:1040700015D344F23210C2F201000188F1B143F6C7
:104080004820C2F201000068C21700EBD2501D2286
:1040900002EB6020A04211D140F27C1711E00F2CFE
:1040A00018D1E86BE8B3296CC9B1E86F43F6482131
:1040B000C2F201010028086016D132E040F27C17FC
:1040C0007102C2F201073A682846FCF777F93860B6
:1040D00000202AE0A4F110000D2822D22EE043F6A1
:1040E0004821C2F20101086043F65021C2F20101E9
:1040F00009684969B0EB812FB2D8C11740F2FF12AD
:1041000000EBD1519143401A44F23211C2F2010145
:104110000880000405D044F230100121C2F20100F1
:10412000017040F28010C2F20100710200EB4420E5
:104130008AB2294600F0C6FD01281FD043F6482068
:10414000C2F201000068012814DB44F23011C2F20F
:104150000101097801EB50201C30A0420AD143F63E
:1041600043000121C2F20100017043F63C00C2F29B
:1041700001000170002040B201B0F0BD02A040F289
:10418000CD1100F097FE00BF2E2E2F5372632F75B6
:104190007362645F73746F726167652E6300000001
:1041A00080B5FFF751FF002818BF0120400080BDF7
:1041B000B0B543F214650C46C2F2010529788907AF
:1041C00002D44FF0FF302FE043F21061C2F2010140
:1041D000097811B16FF0010026E043F21861FF2267
:1041E000C2F20101C0F21802096811400122C0F2B6
:1041F00008029142E5D140F218414FF08052C4F2DA
:1042000002010A602146FFF7BEFD68B943F21C6156
:10421000C2F20101C868A04201D1002004E00020E0
:1042200000BFCA68A242FBD1297889071BD543F297
:104230001061C2F201010978A9B943F21861FF22A5
:10424000C2F20101C0F21802096811400122C0F255
:104250000802914218BFB0BD40F218414FF480529D
:10426000C4F202010A60B0BD80B582B00DF1070052
:10427000FEF7EEFF18B99DF80700800716D4062058
:1042800001218DF807000DF10700FFF791FF70B9CC
:1042900000208DF807000DF10700FEF7D9FF30B9B7
:1042A0009DF80700C0F34000013800E0002002B094
:1042B00080BD44F23410C2F2010001680131016096
:1042C00070474EF608504FF0000CCEF20000D0F8C8
:1042D000801041F47001C0F8801043F60001C4F270
:1042E00002010A6842F001020A60C1F808C04FF6F4
:1042F000FF720B68CFF6F6621A400A6043F21002B2
:10430000C2F200424A600A6822F480220A60C1F8C0
:104310000CC04FF0006101607047000080B504A040
:1043200000F068F843F23C60C2F2010080BD00BFBB
:104330004D534320436F6E6669670000122008806A
:1043400040F24C00C2F201007047000080B504A0AA
:1043500000F050F843F23C60C2F2010080BD00BFA3
:104360004D534320496E74657266616365000000B9
:104370000420088040F26000C2F201007047000093
:1043800080B504A000F036F843F23C60C2F20100B0
:1043900080BD00BF53544D6963726F656C65637473
:1043A000726F6E696373000080B504A000F022F89C
:1043B00043F23C60C2F2010080BD00BF53544D3354
:1043C00032204D6173732053746F72616765000012
:1043D00080B504A000F00EF843F23C60C2F2010088
:1043E00080BD00BF3030303030303030303031417F
:1043F0000000000080B568B302786AB100F1010CDA
:10440000002200BF1CF8013B0132002BFAD1D2B2CE
:10441000022303EB420200E0022243F23C6E03233C
:104420000A80C2F2010E8EF801308EF80020027868
:1044300082B1013002234FF0000C00BFD9B2023329
:104440000EF8012041F001010EF801C010F8012B17
:10445000002AF3D180BD000010B5D0F8204201F051
:104460007F0C08064FEAD111CCEBCC0204EB8202A0
:1044700002F1380358BF02F5FC73597083F800C08D
:1044800094F8B803012801D110216AE0012040F618
:104490003F53002984F8B803C0F20303D4F800E0C6
:1044A0000EEB4C1031D0D0F8001900F5106221F459
:1044B0000041C0F800194FF00061C0F800194FF03A
:1044C0008041C0F800194FF0FF3100BF013199421F
:1044D00044D890684000F9D44FF484604FF0FF3125
:1044E000CEF810000131994203D8DEF810008006A2
:1044F000F8D40120002100FA0CF0CFF6FF7161EA38
:104500000000DEF81C18084026E0D0F8001B00F57B
:10451000306221F40041C0F8001B4FF00061C0F888
:10452000001B4FF08041C0F8001B4FF0FF3100BF6F
:104530000131994212D89068C006F9D4DEF8040817
:1045400040F48060CEF804084FF48030DEF81C1888
:1045500000FA0CF021EA0000CEF81C08002184F8D3
:10456000B81340F20020C0F20120C840C0B210BD14
:10457000D0F820C29CF8B823012A01D1102126E0EE
:1045800001220B068CF8B82340F63F53DCF80020DC
:10459000C0F203030BD410204FF0FF31106100BFB5
:1045A0000131994210D81069C006F9D40CE02020DE
:1045B00061F38C104FF0FF31106100BF013199425F
:1045C00002D810698006F9D400218CF8B81340F2A3
:1045D0000020C0F20120C840C0B2704770B501F0A1
:1045E0007F06D0F820C20D064FEAD11EC6EBC604E6
:1045F0000CEB840000F1380458BF00F5FC74002077
:10460000A36084F801E02670E270B0EBD11F18BF00
:10461000E680022A04BF002020719CF8B80301281C
:1046200001D110203DE00120BEF1000F8CF8B8034D
:1046300000FA06F1DCF8004019D0D4F81C0889B261
:1046400008437101C4F81C0804F5106460580004A4
:1046500024D46FF3DF23085943EA8653184340EA12
:10466000824040F0805040F40040085116E0D4F8F9
:104670001C0840EA014004F53061C4F81C087001D0
:104680000E5836040AD446586FF3DF23334343EA07
:10469000824242F0805242F40042425000208CF8A4
:1046A000B80340F20021C0F2012121FA00F0C0B2AB
:1046B00070BD80B501F07F0CD0F820E20021CCEB7A
:1046C000CC000EEB8000C0E98331C0F8042280F8F2
:1046D000F91180F8F8C100F5FC71DEF81030012BFB
:1046E00008BFC0F80822DAB2DEF80000BCF1000F03
:1046F00003D0BDE8804000F0E9B9BDE8804000F09B
:1047000067B980B5D0F820E2C1EBC10201F07F0C9F
:1047100008060EEB8203CCEBCC020EEB820202F118
:10472000380258BF03F5FC72CB090121537082F89F
:1047300000C091709EF8B803012808BF80BD8EF8B4
:10474000B813002BDEF8001001EB4C1007BF00F58A
:104750003063D0F8000B00F51063D0F80009002892
:1047600003DB186820F0804018601868BCF1000F67
:1047700040F40010186020D100229EF81000C1F80B
:10478000102BD1F8102B012842F40022C1F8102B75
:10479000D1F8102B42F01802C1F8102BD1F8102BD1
:1047A00042F0C042C1F8102B07D10EF56F70C1F86E
:1047B000140B4FF08020C1F8000B00208EF8B803D6
:1047C00080BD10B501F07F0CD0F820020024CCEBA6
:1047D000CC0100EB810E714601F838CFC1E90534F8
:1047E0000123CA604B700369012B08BFCEF8482033
:1047F000DAB20068BCF1000F03D0BDE8104000F051
:1048000065B9BDE8104000F0E3B880B5FCF757FA91
:10481000002080BD80B5FCF774FA002080BDB0B5E3
:1048200001210446FFF718FE20468121FFF714FE00
:10483000D4F8180200250028057203D002F046FEC5
:10484000C4F818520020B0BD0A21018040F2DC00FB
:10485000C2F2010070472021018040F29C00C2F2A8
:10486000010070472021018040F2BC00C2F201002B
:1048700070472021018040F2E800C2F20100704739
:1048800010B50446007C50B120460121022240238D
:10489000FFF7A4FE20468121022240230BE02046A0
:1048A000012102224FF40073FFF798FE2046812178
:1048B00002224FF40073FFF791FE4FF41B7002F0D9
:1048C0002DFE0028C4F8180204D02046FCF796FA02
:1048D000002010BD012010BD70B50446D0F818624C
:1048E00008780D4610F0600117D020296DD1697845
:1048F000FF2927D0FE2927D1698829BB000623D5A7
:10490000E888012820D1D4F81C02806980473060F3
:1049100001200025002132460AE0687801281DD0D8
:104920000B282BD00A2850D10120321D0025002150
:10493000C4E906000220C4F8F40120460123FFF771
:1049400040FF43E06988E1B120468021FFF7D9FEAE
:1049500020460021FFF7D5FE022537E029792046C1
:10496000FFF706FE29792046FFF776FDA988207C0F
:10497000090616D4D8B12046012115E0A878706048
:1049800023E00006E0D4E8880028DDD14FF48070F1
:1049900006F5037201211F2330812046FFF789FEAF
:1049A00013E038B1204681210222402307E020464F
:1049B000012101E02046812102224FF40073FFF71C
:1049C0000DFE29792046FCF762F90025284670BDC6
:1049D000B0B54B78012B27D191F800C0D1F814E085
:1049E00000EB4C14BEF1000F04F51063D4F810492D
:1049F00048D06FF312041C611C696FF3DC441C6126
:104A00004FF6FF748D68CEF2070404F10054AE45F2
:104A100084BF4D61AE4604EA0E041D6945F40025CD
:104A20001D611D692C4339E00B784FF6FF74CEF2FF
:104A3000070400EB4310D0F8103B6FF31203C0F8EB
:104A4000103BD0F8103B6FF3DC43C0F8103B00F58F
:104A500030604D698B6805B14B610569012A45F4E9
:104A60000025056104F1005503EA0503056943EAE1
:104A70000503036104BFC9684161016841F0044155
:104A80000160B0BD6FF3DC444FF0000E1C611D6986
:104A900045F400251D611C696FF312041C61012A95
:104AA0001C6844F004441C6002BF08695861B0BD32
:104AB000BEF1000F08BFB0BD0121D0F8342801FAC3
:104AC0000CF11143C0F83418B0BD0000B0B54B78FC
:104AD000012B32D191F800C0D1F814E000EB4C1456
:104AE000BEF1000F04F51063D4F810494FD06FF3F6
:104AF00012041C611C696FF3DC441C618C680EEBB2
:104B00000405013DB5FBF4F40025C1F6F87505EA8E
:104B1000C4441D692C4375461C616FF3DF451C6955
:104B20002C431C61CC78012C3CD11C6924F0C0447E
:104B30001C611C6944F0005433E00B7800EB431314
:104B4000D3F8105B6FF31205C3F8105BD3F8105B5A
:104B50006FF3DC45C3F8105B03F530634C69D1F8A3
:104B600008C0002C52D004EB0C050024013DC1F616
:104B7000F874B5FBFCF504EAC54E1C69ADB244EA15
:104B80000E041C6105FB0CF46FF3DF4446E06FF389
:104B9000DC441C611C6944F400241C611C696FF333
:104BA00012041C61012A03D10C695C61CC7805E018
:104BB000CC78BEF1000F18BF012C46D1012C4CD18E
:104BC000D0F80848E4054FF0805458BF4FF0005427
:104BD0001D68002A44EA05041C601C6844F0044473
:104BE0001C6012D10322002312FA8EF2B3EB920F53
:104BF00008BFB0BDC96892084FEA0C3300F5805079
:104C000051F8045B013A1D50FAD1B0BD1D696FF334
:104C1000DF4C4FF4002445EA0C051D611D69012A93
:104C200045EA04051D6104BFCA685A61C9780129B3
:104C300013D1D0F80808C0054FF0805058BF4FF08E
:104C4000005019680843186007E00121D0F83428A3
:104C500001FA0CF11143C0F83418186840F0044010
:104C60001860B0BDB0B582B004460020019043F694
:104C70005020C2F201000068C56915F0C00F07D1CD
:104C800042F67470C0F6010002F07EFC45F040056B
:104C9000280648BFFFF7E8FA680610D55020012122
:104CA00001258DF8040001A8FFF782FA38B901A8A0
:104CB00002218DF805408DF80450FFF779FA02B013
:104CC000B0BD00002DE9F04182B0064644F232103A
:104CD00014460D46C2F20100008850B143F6482147
:104CE000A6F56852C2F201010968091A8A4208BF92
:104CF000044643F650274FF46852C2F20107386861
:104D0000416902EB8121B1423CD943F64101C2F233
:104D100001010978002945D1D0F83011002943D08C
:104D2000D0F82C0110B18047002877D1A6F568563D
:104D30003DA02246314602F077F93868C06910F488
:104D4000E05F4BD0B7218DF80510410536D4010541
:104D500031D4C00442D543F64008C2F2010898F8A5
:104D60000000C0BBC520ADF80600FFF77DFA0DF1CD
:104D700006000221FFF71CFA68B334A03DA102F03F
:104D800053F921E040F280110120C2F2010101F546
:104D90005052964243D88E4241D33046294622464D
:104DA000FBF753FA00203AE042F6D200C0F60100C9
:104DB00002F03AF932E0FFF757FA28B90DF1050091
:104DC0000121FFF7F5F948B142F63520C0F60100A0
:104DD00002F0DAFB22E0012088F8000040F61448D7
:104DE000F004C4F2020805D1D8F8000080F40050A5
:104DF000C8F80000386829462246D0F830313046DD
:104E0000984701464FF00050B1F1FF3FC8F8040049
:104E100001DD19B9C6E720A002F006F9FF2040B273
:104E200002B0BDE8F08100BF0A2077725F61646460
:104E300072202D3E20307825303578202020636E7A
:104E400074202D3E20307825303378002573203AA9
:104E50006661696C656420647572696E6720636F52
:104E60006D6D616E6420657865637574696F6E0A37
:104E7000000000007370695F77726974655F657820
:104E800074656E6465645F616464726573735F7298
:104E900065676973746572000A2050726F6772618A
:104EA0006D44617461206572726F72202D3E202501
:104EB000640000000A46014610A002F0B5F843F66F
:104EC00043000121C2F20100017043F64420C2F206
:104ED0000100017040F6144044F23411C4F20200A3
:104EE000C2F20101026882F4804202600A6800BFD7
:104EF0000B689B1A652BFBD3F4E700BF0A0D204516
:104F000052524F52202D3E20257320256400000070
:104F100010B504464FF0FF3020630020E0702046BB
:104F200001F02EFA08B1042010BD94F8320294F872
:104F3000331240EA01204AF6552188421CBF032063
:104F400010BD94F83400E838032826D8022824D06D
:104F500042F60E7C04F16A000021C0F6010C00BF8D
:104F60001CF80130425C022902D001319A42F7D08C
:104F70009A4210D042F6E23204F186000021C0F6D7
:104F8000010200BF535C445C042902D001319C4201
:104F9000F8D09C4201D1002010BD022010BD0000BD
:104FA0002DE9F04F85B006680021044600F010FAA4
:104FB00010B105B0BDE8F08F4FF0FF3704F12005C8
:104FC0004FF0FF0B4FF00D084FF0FF09E76200BFF5
:104FD000A169304601F0D4F90028EAD1D4F81CA028
:104FE0009AF80000002800F0AB809AF80B20E52822
:104FF00002F03F01A17137D0120727D40F2927D023
:105000005FEA0B6010D10020002100BFC9B21AF87E
:10501000002001304B080B2843EAC1111144F5D19F
:10502000C8B2814500F08E8094F82B00C0071BD1D8
:10503000002000BF295C1AF800200A2802D00130A5
:105040008A42F7D08A420FD17CE000BF0F290BD1F2
:1050500094F82B1049060AD441060FD45FFA8BF15D
:10506000884202D110E000BFE7624FF0FF0B2046FC
:10507000002100F069F80028AAD09AE721699AF87F
:105080000D9000F0BF0BE1629AF80D008145ECD164
:105090009AF81A009AF81B1040EA01200028E4D17F
:1050A000CDE902964FF00009F06804909AF80000EC
:1050B000019000F03F0000FB08F0A0F10D08012076
:1050C00047F22C610028C0F6000111F809101AF807
:1050D00001205144497842EA012611D0B8F13F0F2E
:1050E00021D8304600F0C4F90746049830F818007B
:1050F00000F0BEF9874216D108F10108304604E0FD
:105100004FF6FF7086420ED1002009F10109B9F176
:105110000D0FD5D350B1019810F0400006D004987F
:1051200030F8180010B14FF0FF0B01E0ABF1010BAC
:10513000039EDDF808904FF0FF374FF00D0896E71B
:10514000042036E7002034E72DE9F04F81B0044613
:10515000006900F12007B7F5001F02D30020A0610D
:105160000EE0A06960B13D46D4F800B06FF35F2552
:1051700055B10BEB050027613430E061002000E001
:10518000042001B0BDE8F08F01300E46A0616169D6
:1051900091B14FF6FF70BBF80A20C0F21F00104417
:1051A00000F5C00010EA572FE3D1584600F0D5F9BA
:1051B000022807D20220E4E7BBF80800B0EB571F33
:1051C000CCD9D6E78246013000F00081DBF8180028
:1051D00082450FD2AAF102060238C4F814A0864212
:1051E0002FBF0020DBF82C00BBF80A1006FB0100E3
:1051F000A061BEE7002EB1D06669D4F800903EB140
:105200004846314600F0A9F902280DD2022090E06C
:10521000D9F81080B8F1000F0FD0D9F818008045E8
:1052200028BF4FF001080AE08246013030D0D9F89B
:105230001800B046824502D277E04FF00108D9F855
:105240001400002845D0B045B24626D1D9F8180040
:105250000AF10106D046864228BF02262068314660
:1052600000F07BF9824601305FD0BAF1000F11D017
:10527000BAF1010F59D0D9F81000C24641460228B0
:105280000BD3D9F81810884228BF5046804604E056
:1052900000204EE0002EC2461FD14646CDF800A0A9
:1052A000D9F818000136864228BF022602D3B8F189
:1052B000020F0ED32068314600F04FF982460130CC
:1052C00033D0BAF1000F06D0BAF1010F2DD0464508
:1052D000E6D101202DE0DDF800A0484631464FF030
:1052E000FF3201F069F8BAF1000F05D020B951463C
:1052F0004846324601F060F830B14FF0010A01280B
:1053000008BF4FF0FF3A10E0C9F81060B246D9E983
:105310000501023988429CBF0138C9F8140099F888
:10532000040040F0010089F804000AF1010003289C
:105330000DD24FF6F871C0F2FF0101EAC00040F251
:105340000171C0F2020121FA00F0C0B219E758461B
:1053500001F042FED0BBDBF81800AAF102060238C9
:10536000864206D2DBF82C00BBF80A9006FB090047
:1053700002E0BBF80A9000200BF134080090CBF853
:1053800030004FF400714046FAF7AAFFB9F1000F60
:1053900011D04FF0000900984146012300EB0902AB
:1053A0000020FEF751FE50B9BBF80A0009F10109CF
:1053B0008145F0D305E000204FF0000901E0BBF883
:1053C0000A00814502D1DBF8180005E70120D8E684
:1053D000F0B581B004461F20CFF6E070014202D044
:1053E000022001B0F0BD266821610D46A16869B1B7
:1053F0007089B5EB402F23D2B0698A1E02388242F1
:1054000032D2F06A738902FB03000BE03078032884
:1054100002D3B16A0029EBD13089B0EB551FDFD937
:10542000B06A00210028C4E90510D9D000EB55204E
:105430006FF35F2571193431C4E906010020D0E70C
:1054400047023046ED1B08E00229C9D3B06981420A
:10545000C6D2BD42D1D32068ED1B00F07EF80146D4
:105460000130F1D10120BCE70020C4E90510B7E705
:105470000021B1EB104F18BF704710B543F2140272
:1054800043F2D0011FFA80FCC0F60102C0F6010110
:10549000BCF5805F38BF0A46B2F800E011E000BFFB
:1054A000538804325EFA83F4190AA44512D3DBB29E
:1054B0000029194618BF002132F811E008BF02EB9D
:1054C0004302BEF1000F01D0F445E9D280B2BDE83D
:1054D000104070470829F9D8DFE801F0050A1012DA
:1054E0001416181A1C00ACEB0E0032F81000EDE791
:1054F000A0EB0E0101F00101401AE7E71038E5E7E3
:105500002038E3E73038E1E71A38DFE70830DDE735
:105510005038DBE7A0F5E350D8E7000040F2000286
:10552000C2F2010291421CBF4FF0FF30704740F6BB
:105530000061CEF20001D1F88020D2071CBF0968BB
:105540005FEAC17100D170474FF060410A68002ADC
:10555000FCD04FF0604108707047F0B581B002296F
:1055600031D3054680690C4688422CD92878032817
:105570002CD0022844D0012825D1686A04EB5407B6
:1055800000EB5721284600F0FBFE00283FD17E1C8F
:105590006FF35F27E81990F83470686A00EB5621C2
:1055A000284600F0EDFE90BB6FF35F26E20705EBA7
:1055B000060090F8340047EA002108466FF31F30D8
:1055C00018BF080900E0012001B0F0BD686A00EBD7
:1055D000D411284600F0D4FEC8B904F07F0005EBD2
:1055E000800191F8340091F8352091F8363091F827
:1055F000371043EA012142EA012161F31B20E3E76E
:10560000686A00EB1421284600F0BAFE10B14FF092
:10561000FF30D9E7E0B205EB400090F8341090F885
:10562000350041EA0020CFE780B50268D2B10023FF
:10563000D15C0133202901D33A29F9D13A290ED17D
:105640004FF0FF3E022B0FD192F800C0ACF13001B9
:10565000092909D8BCF1300F06D8D11801604FF0E4
:10566000000E01E04FF0FF3E704680BD2DE9F04195
:10567000ADF5007D68464FF48071FF22FAF729FEF0
:1056800043F65025C2F2010528684069800223D004
:1056900042F6DD78002440AE6F46C0F6010800BF38
:1056A000404621464FF4807201F0BEFC2868314626
:1056B0004FF48072D0F8343120469847304639464E
:1056C0004FF48072FAF783FD38B9286804F58064D6
:1056D0004069B4EB802FE3D300200DF5007DBDE8D9
:1056E000F081000088B043F6000B4EF60C5A40F2F1
:1056F00000364FF6FF05C4F2020BCEF2000AC0F2EC
:10570000FA56DBF8000440F40070CBF80004DBF834
:10571000000440F48060CBF80004DBF8000440F49F
:105720008070CBF80004DAF8000028403043CAF853
:105730000000FBF7F7F9DAF8000006F5806147F2A0
:105740000008C4F2000828400843CAF80000DAF84C
:10575000000000208AF80C00DAF800108AF80D002A
:10576000DAF800108AF80E00DAF800108AF8130050
:10577000DAF800108AF81400DAF800108AF8160037
:10578000DAF800108AF817000290DBF8401041F0B8
:105790008051CBF84010DBF8401001F080510291AD
:1057A00002990290D8F8000040F48040C8F8000048
:1057B000D8F8000000F4804002900298DBF808005E
:1057C00000F00C00042802D1DBF800001DE0DBF83B
:1057D000080000F00C00082803D1DBF804004002A8
:1057E000F2D4DBF8000040F48030CBF8000044F243
:1057F0003410C2F201000168DBF80020920304D4E7
:105800000268521A642AF7D92AE0DBF8080000F08F
:105810000C00082824D0602044F234160021C4F281
:105820004720C2F201060160316800BFDBF80020AA
:10583000920104D53268521A022AF7D910E045F2D3
:105840000841C0F24071CBF80410012101603068BA
:10585000DBF8001089010BD43168091A0329F7D34A
:1058600042F65E7040F22511C0F60100FFF722FB00
:10587000DBF8000400F00F00042808D805208BF89E
:105880000004DBF8000400F00F0005282AD1DBF843
:10589000080040F4E050CBF80800DBF8080040F4C2
:1058A0006040CBF80800DBF8080020F0F000CBF8EF
:1058B0000800DBF80000800114D5DBF808000221A5
:1058C00061F3010041F28831CBF80800306800BF75
:1058D000DBF8082002F00C02082A0BD03268121AFA
:1058E0008A42F5D942F65E7040F23311C0F60100EB
:1058F000FFF7E0FADBF8000400F00E00062808D3FA
:1059000005208BF80004DBF8000400F00F000528E8
:10591000E8D1DBF80800052161F38C200421CBF8E5
:105920000800DBF8080061F34F30CBF80800DBF823
:10593000080000F00C0142F20040C0F2F400082917
:1059400006D0042926D141F20020C0F27A0021E0DD
:10595000DBF80410DBF8043001F03F02DBF8041040
:105960005B02C1F3881105D4A1FB00010023FAF703
:105970003BFC06E041F20020C0F27A004843B0FB55
:10598000F2F0DBF804100222C1F3014102EB410105
:10599000B0FBF1F0DBF808100FF650124FF0FF34B7
:1059A000C1F30311515CC84040F24801C2F2010149
:1059B000086044F6D351C1F26201A0FB010104EB7F
:1059C0009115FBF7AFF84EF210090027CEF200094F
:1059D000B7EB156F09D1F020C9F804508AF8170009
:1059E0000720C9F80870C9F80000D9F8000040F095
:1059F0000400C9F80000DAF80000C0F30220C11E5C
:105A000080F0070038BF0021042828BF042004FAD2
:105A100000F0012424EA0000884000018AF8170001
:105A20000120FAF793FC0020FAF790FC02200225EF
:105A3000FAF78CFC0320FAF789FC029702A9DBF83D
:105A4000300040F00100CBF83000DBF8300000F00F
:105A5000010002900298CDE90475CDE9024708F5EE
:105A6000C8300190FAF790FF0FF6900001F0DCFAD1
:105A70000FF690008B2101F0D7FA30683168091ACF
:105A8000B1F5FA7FFAD943F2885543F2146440F233
:105A90001008C2F20105C2F20104C4F2020828682B
:105AA00020F001002860286820F0020028602068AB
:105AB000C10740F09D8143F2106000271C21C2F213
:105AC0000100077043F21C60C2F20100FAF708FC03
:105AD00007970DF1080A4FF00509022408F57C75B7
