:020000040800F2
:10000000F0C400109D01000853250008DB1500080E
:10001000512500083D0E000895470008000000002B
:10002000000000000000000000000000AD290008F2
:100030006D1100080000000019260008B52A00080C
:10004000B7010008B7010008B7010008B7010008B0
:10005000B7010008B7010008ED120008B701000859
:10006000B7010008B7010008B7010008B701000890
:10007000B7010008B7010008B7010008B701000880
:10008000B7010008B7010008B7010008B701000870
:10009000B7010008B7010008B7010008B701000860
:1000A000B7010008B7010008B7010008B701000850
:1000B000B7010008B7010008B7010008B701000840
:1000C000B7010008B7010008B7010008B701000830
:1000D000B7010008B7010008B7010008B701000820
:1000E000B7010008B7010008E9250008B7010008BA
:1000F000B7010008B7010008B70100084D1000085B
:10010000B7010008B7010008B7010008B7010008EF
:10011000B7010008B7010008E12B0008B70100088B
:1001200071100008B1100008D9100008B7010008CC
:10013000B7010008B7010008B7010008B7010008BF
:10014000B7010008B7010008B7010008DD25000865
:10015000B7010008B7010008B7010008B70100089F
:10016000B7010008B7010008B7010008B70100088F
:10017000B7010008B7010008B7010008B70100087F
:10018000B7010008B7010008DFF80CD000F0FCFC54
:100190000048004781720008F0C4001006488047FC
:1001A00006480047FEE7FEE7FEE7FEE7FEE7FEE75C
:1001B000FEE7FEE7FEE7FEE7CD2A0008890100081A
:1001C0002DE9F04F82B001904FF000744FF00078AD
:1001D0004FF000054FF0000952F804CB52F804EB41
:1001E0000868CB6DC0FB0C45D1F88000CEF1000E45
:1001F000C3FB0E45D1F8DC30C0FB0C89C3FB0E8974
:1002000052F804CB52F804EB48688B6DC0FB0C45E8
:10021000D1F88400CEF1000EC3FB0E45D1F8D830E2
:10022000C0FB0C89C3FB0E8952F804CB52F804EBD7
:1002300088684B6DC0FB0C45D1F88800CEF1000EEC
:10024000C3FB0E45D1F8D430C0FB0C89C3FB0E892B
:1002500052F804CB52F804EBC8680B6DC0FB0C4598
:10026000D1F88C00CEF1000EC3FB0E45D1F8D03092
:10027000C0FB0C89C3FB0E8952F804CB52F804EB87
:100280000869CB6CC0FB0C45D1F89000CEF1000E94
:10029000C3FB0E45D1F8CC30C0FB0C89C3FB0E89E3
:1002A00052F804CB52F804EB48698B6CC0FB0C4548
:1002B000D1F89400CEF1000EC3FB0E45D1F8C83042
:1002C000C0FB0C89C3FB0E8952F804CB52F804EB37
:1002D00088694B6CC0FB0C45D1F89800CEF1000E3C
:1002E000C3FB0E45D1F8C430C0FB0C89C3FB0E899B
:1002F00052F804CB52F804EBC8690B6CC0FB0C45F8
:10030000D1F89C00CEF1000EC3FB0E45D1F8C030F1
:10031000C0FB0C89C3FB0E8901984FF4FE4E4EF0D2
:10032000FF0E4FEA946444EA85144FEAE47CBCEB88
:10033000E43F18BF8CEA0E044FEA986848EA89182F
:100340004FEAE87CBCEBE83F18BF8CEA0E0804805B
:10035000A0F8028002F5707201F580514FF0007430
:100360004FF000784FF000054FF0000952F804CB31
:100370000868D1F88030C0FB0C45C3FB0C8952F8EB
:1003800004CB4868D1F88430C0FB0C45C3FB0C8912
:1003900052F804CB8868D1F88830C0FB0C45C3FB09
:1003A0000C8952F804CBC868D1F88C30C0FB0C45DE
:1003B000C3FB0C8952F804CB0869D1F89030C0FB1C
:1003C0000C45C3FB0C8952F804CB4869D1F8943032
:1003D000C0FB0C45C3FB0C8952F804CB8869D1F8EB
:1003E0009830C0FB0C45C3FB0C8952F804CBC8699C
:1003F000D1F89C30C0FB0C45C3FB0C8901984FF42D
:10040000FE4E4EF0FF0E4FEA946444EA85144FEA24
:10041000E47CBCEBE43F18BF8CEA0E044FEA98681A
:1004200048EA89184FEAE87CBCEBE83F18BF8CEA41
:100430000E08A0F84040A0F84280A2F57872A1F51D
:1004400070614FF00F0C00F10400CDF800C0019076
:100450004FF000744FF000784FF000764FF0007AC4
:100460004FF000054FF000094FF000074FF0000B70
:1004700052F804CB52F804EB0868CB6DC0FB0C4576
:10048000C0FB0E67CEF1000EC3FB0C67C3FB0E452D
:10049000D1F8DC30D1F88000C3FB0E89C3FB0CAB74
:1004A000CEF1000EC0FB0C89C0FB0EAB52F804CBA2
:1004B00052F804EB48688B6DC0FB0C45C0FB0E671F
:1004C000CEF1000EC3FB0C67C3FB0E45D1F8D8304C
:1004D000D1F88400C3FB0E89C3FB0CABCEF1000E38
:1004E000C0FB0C89C0FB0EAB52F804CB52F804EBF6
:1004F00088684B6DC0FB0C45C0FB0E67CEF1000E4B
:10050000C3FB0C67C3FB0E45D1F8D430D1F888008B
:10051000C3FB0E89C3FB0CABCEF1000EC0FB0C89F4
:10052000C0FB0EAB52F804CB52F804EBC8680B6D5D
:10053000C0FB0C45C0FB0E67CEF1000EC3FB0C6781
:10054000C3FB0E45D1F8D030D1F88C00C3FB0E8927
:10055000C3FB0CABCEF1000EC0FB0C89C0FB0EAB95
:1005600052F804CB52F804EB0869CB6CC0FB0C4585
:10057000C0FB0E67CEF1000EC3FB0C67C3FB0E453C
:10058000D1F8CC30D1F89000C3FB0E89C3FB0CAB83
:10059000CEF1000EC0FB0C89C0FB0EAB52F804CBB1
:1005A00052F804EB48698B6CC0FB0C45C0FB0E672E
:1005B000CEF1000EC3FB0C67C3FB0E45D1F8C8306B
:1005C000D1F89400C3FB0E89C3FB0CABCEF1000E37
:1005D000C0FB0C89C0FB0EAB52F804CB52F804EB05
:1005E00088694B6CC0FB0C45C0FB0E67CEF1000E5A
:1005F000C3FB0C67C3FB0E45D1F8C430D1F898009B
:10060000C3FB0E89C3FB0CABCEF1000EC0FB0C8903
:10061000C0FB0EAB52F804CB52F804EBC8690B6C6C
:10062000C0FB0C45C0FB0E67CEF1000EC3FB0C6790
:10063000C3FB0E45D1F8C030D1F89C00C3FB0E8936
:10064000C3FB0CABCEF1000EC0FB0C89C0FB0EABA4
:1006500001F5807101984FF4FE4E4EF0FF0E4FEA07
:10066000946444EA85144FEAE47CBCEBE43F18BF91
:100670008CEA0E044FEA986848EA89184FEAE87C49
:10068000BCEBE83F18BF8CEA0E084FEA966646EAD4
:1006900087164FEAE67CBCEBE63F18BF8CEA0E06F5
:1006A0004FEA9A6A4AEA8B1A4FEAEA7CBCEBEA3FC5
:1006B00018BF8CEA0E0ADDF800C000EBCC0E2EF855
:1006C000026B2EF802AB20F8024B20F8028BBCF133
:1006D000010C7FF4BAAE02B0BDE8F08F2DE9F04F07
:1006E00082B001904FF000744FF0000552F804CB37
:1006F00052F804EB0868CB6DCEF1000EC0FB0C4540
:10070000C3FB0E4552F804CB52F804EB48688B6DDE
:10071000CEF1000EC0FB0C45C3FB0E4552F804CBD6
:1007200052F804EB88684B6DCEF1000EC0FB0C450F
:10073000C3FB0E4552F804CB52F804EBC8680B6DAE
:10074000CEF1000EC0FB0C45C3FB0E4552F804CBA6
:1007500052F804EB0869CB6CCEF1000EC0FB0C45DF
:10076000C3FB0E4552F804CB52F804EB48698B6C7E
:10077000CEF1000EC0FB0C45C3FB0E4552F804CB76
:1007800052F804EB88694B6CCEF1000EC0FB0C45AF
:10079000C3FB0E4552F804CB52F804EBC8690B6C4E
:1007A000CEF1000EC0FB0C45C3FB0E4501984FF483
:1007B000FE4E4EF0FF0E4FEA946444EA85144FEA71
:1007C000E47CBCEBE43F18BF8CEA0E04048002F525
:1007D000707201F580514FF000744FF0000552F82F
:1007E00004CB0868C0FB0C4552F804CB4868C0FB3A
:1007F0000C4552F804CB8868C0FB0C4552F804CB7A
:10080000C868C0FB0C4552F804CB0869C0FB0C4516
:1008100052F804CB4869C0FB0C4552F804CB8869F8
:10082000C0FB0C4552F804CBC869C0FB0C450198CD
:100830004FF4FE4E4EF0FF0E4FEA946444EA8514E6
:100840004FEAE47CBCEBE43F18BF8CEA0E0404845E
:10085000A2F57872A1F570614FF00F0C00F1020063
:10086000CDF800C001904FF000744FF000764FF0CB
:1008700000054FF0000752F804CB52F804EB08686B
:10088000CB6DC0FB0C45C0FB0E67CEF1000EC3FB69
:100890000E45C3FB0C6752F804CB52F804EB4868D2
:1008A0008B6DC0FB0C45C0FB0E67CEF1000EC3FB89
:1008B0000E45C3FB0C6752F804CB52F804EB886872
:1008C0004B6DC0FB0C45C0FB0E67CEF1000EC3FBA9
:1008D0000E45C3FB0C6752F804CB52F804EBC86812
:1008E0000B6DC0FB0C45C0FB0E67CEF1000EC3FBC9
:1008F0000E45C3FB0C6752F804CB52F804EB0869B1
:10090000CB6CC0FB0C45C0FB0E67CEF1000EC3FBE9
:100910000E45C3FB0C6752F804CB52F804EB486950
:100920008B6CC0FB0C45C0FB0E67CEF1000EC3FB09
:100930000E45C3FB0C6752F804CB52F804EB8869F0
:100940004B6CC0FB0C45C0FB0E67CEF1000EC3FB29
:100950000E45C3FB0C6752F804CB52F804EBC86990
:100960000B6CC0FB0C45C0FB0E67CEF1000EC3FB49
:100970000E45C3FB0C6701F5807101984FF4FE4EE4
:100980004EF0FF0E4FEA946444EA85144FEAE47C8B
:10099000BCEBE43F18BF8CEA0E044FEA966646EAC9
:1009A00087164FEAE67CBCEBE63F18BF8CEA0E06E2
:1009B000DDF800C000EB8C0E2EF8026B20F8024B25
:1009C000BCF1010C7FF44CAF02B0BDE8F08F000029
:1009D00081FB0020704701464FF0000081EAE17082
:1009E000A0EBE17070472DE9F0410024061B25467D
:1009F00071F1000605DA01240027D0EB070067EB50
:100A00000101161E73F1000605DA0027D2EB07027A
:100A1000012567EB030300F085F886460E4617466E
:100A20009C46AC4204D00025D0EB050E65EB0106D8
:100A300024B10020D2EB000760EB030C7046314676
:100A40003A466346BDE8F0810649074A08685043C4
:100A500043F23902104408604008704701490860B9
:100A600070470000B40200206D4EC64110B5431A15
:100A7000934209D28318881803E010F8011D03F887
:100A8000011D521EF9D210BD40EA01039B0703D09D
:100A900009E008C9121F08C0042AFAD203E011F8BD
:100AA000013B00F8013B521EF9D210BDD2B201E069
:100AB00000F8012B491EFBD270470022F6E710B563
:100AC00013460A4604461946FFF7F0FF204610BDBC
:100AD000421C10F8011B0029FBD1801A704730B569
:100AE00004460020034600E05B1C934203D2E05C16
:100AF000CD5C401BF8D030BD30B50B460146002020
:100B00002022012409E021FA02F59D4205D303FACF
:100B100002F5491B04FA02F52844151EA2F1010250
:100B2000F1DC30BD2DE9F05F0546002092469B4682
:100B300088460646814640241BE0284641464746F3
:100B4000224600F042F853465A46C01A914110D34B
:100B500011461846224600F029F82D1A67EB0108C5
:100B60004F4622460120002100F020F817EB000933
:100B70004E41201EA4F10104DFDC484631462A46DE
:100B80004346BDE8F09F0000064C074D06E0E068D4
:100B900040F0010394E8070098471034AC42F6D3C4
:100BA000FFF7F6FA14EF000854EF0008202A04DBE0
:100BB000203A00FA02F1002070479140C2F1200370
:100BC00020FA03F3194390407047202A04DB203AAF
:100BD00021FA02F00021704721FA02F3D040C2F15D
:100BE0002002914008431946704770B58C1810F8E0
:100BF000015B15F0070301D110F8013B2A1106D162
:100C000010F8012B03E010F8016B01F8016B5B1E7B
:100C1000F9D12B0705D40023521E0DD401F8013B56
:100C2000FAE710F8013BCB1A921C03E013F8015BC2
:100C300001F8015B521EF9D5A142D8D3002070BD46
:100C40002DE9F843714D0C460027E8793E46411CDA
:100C5000E971032803D9012001F03CFEEE71002C5C
:100C600014BF6B4C6B4C296DE86D01F013FC296DC2
:100C7000091A2965E96D0844E865296DE964A865E4
:100C8000687998B1D5E90910401A009004D500F5AB
:100C9000803000F5945000904BF6F471884205DAEC
:100CA0006E7140F66831686E09F019FE5A4A009676
:100CB000234602F10C01A86C01F0A4F906460120BC
:100CC00001F0FCFD554A107830430ED1E96C286DD7
:100CD000091AA86B8388994207D1A96D8978117088
:100CE0008079002804BF881E50704D49A86C01F01F
:100CF000FBFB4B484168012911D1016900290ADB3E
:100D000034F8112024F8212034F8112004EB810359
:100D1000491E5A80F4D50169490001611FB9016972
:100D2000204601F0CBFCA86B296D8088DFF8F480A9
:100D3000401E4FF4905988424CDD286D2A6DC0F555
:100D4000905084B208EB04014046FFF78FFE686ABA
:100D5000C0F5945202F58032944205DC296D20449E
:100D600008EB01036A6D10E0286D696D4044FFF7E0
:100D70007DFE686A296DC0F5945000F5803001440D
:100D8000294A201A01EB080384B2686227480168E7
:100D900041F0006101602648016821F00101016015
:100DA000016811F0010FFBD122490B60091F0A6095
:100DB000091F0C60016841F010010160016841F0F9
:100DC00001010160696A1848C5F850900844C5F8E7
:100DD0005C806865002E18BF16F1020F13D0A86B57
:100DE0008188E86DA0F101000844E8652A6DA2EB56
:100DF000010101F1010129650F49884224BFC5F8AD
:100E00005C80C5F850903846BDE8F88300000020AB
:100E10002E2D01202E4D0120500000200C0000201E
:100E20002473012040150120C00200200864024004
:100E3000586402406464024040270120FEE70B46EC
:100E400011F0800F01F07F0210B502EB820100EB80
:100E5000C10114BF01F58E7101F55D710A70DA09E7
:100E60004A7003F04BF9002010BD10B50A4611F08E
:100E7000800F01F07F0314BF03EB830102EB8201BB
:100E800000EBC10114BF01F58E7101F55D714FF0EA
:100E9000000C81F802C00B70D2094A7003F017F9F8
:100EA000002010BD70B50C4611F0800F01F07F0CD2
:100EB0000CEB8C0100EBC10114BF01F58E7101F543
:100EC0005D7181F800C0E4094C708A60CB7018BF76
:100ED000A1F806C0022B04BF00220A7103F0CAF871
:100EE000002070BD01F07F0C0CEB8C0110B500EB05
:100EF000C101C1F88833C1F880230023C1F88C33C5
:100F000081F8753381F874C3C37801F55D71012BE5
:100F100008BF0A611CF0FF0F03D003F026F9002080
:100F200010BD03F029F8FAE70069002261F30A1204
:100F3000016811430160704710B50A4611F0800F37
:100F400001F07F0314BF03EB830102EB820100EB8E
:100F5000C10114BF01F58E7101F55D714FF0010CF7
:100F600081F802C00B70D2094A7003F0E5F8002046
:100F700010BD11F07F0C10B50CEB8C0100EBC10122
:100F80004FF0010481F81D4181F81CC1C1F82821EE
:100F9000C1F82C2101F58E714FF00002C1E9053234
:100FA00003D003F0E2F8002010BD02F0E5FFFAE7FD
:100FB00010B5044603F0FAF94FF0010C84F812C1A1
:100FC000002084F81401617840230246002913D9D7
:100FD00002EB820104EBC10181F81DC181F81C21E3
:100FE000A1F8222181F81F01C1E94930C1F830017F
:100FF0006178521C9142EBD8002211F0FF0F13D000
:1010000002EB820104EBC10181F8750381F87423BE
:10101000A1F87A2381F87703C1E9DF30C1F88803AA
:101020006178521C9142EBD8204602F07FFF2046A7
:1010300002F002FE0021204603F024FA204602F0CE
:101040008BFE2046BDE8104003F03DB90648C1685C
:1010500041F00061C1600548C168002904BF01700A
:10106000704701F0C9BC000000600240BC000020D5
:101070000B48016841F0200101600A494FF080707F
:10108000C1F8800208494A89886A1044074A886280
:101090009042A4BF00208862002001F00FBC000035
:1010A0000864024004E000E000000020801201001B
:1010B0000648016841F400610160054A01204106CB
:1010C000C2F880120349C8707047000008640240EB
:1010D00004E000E0000000200448016841F4001131
:1010E00001600349C005C1F88002704708640240EE
:1010F00004E000E010B402681B4BD1F80CC01A40A9
:101100000B6843EA0C03D1E905C44CEA040C43EA3A
:101110000C03D1F81CC043EA0C03D1F820C043EA09
:101120000C03D1F824C043EA0C03D1F828C043EAE9
:101130000C03D1F834C043EA0C03D1F838C043EAB9
:101140000C031A4302604269D1E90B3C22F007020A
:1011500043EA0C031A4342610A6942604A688260AA
:101160008968C16010BC70473F801CF07047000068
:101170002DE9FF4F87B080460F4600200490544968
:1011800003F0030001EB8019103951F8200005909D
:101190001F20B0EBA30FCCBF9E101F26F01C1F28F2
:1011A000A8BF1F200028D8BF002000210091D9F837
:1011B000041001410191D9F8081001410291D9F8B8
:1011C0000C1041FA00F003907042069058F804ABFE
:1011D0002AF000400428BCBF69465DF820100ADBF5
:1011E000102819DA59F82000002EAEBF40FA06F197
:1011F000069900FA01F1049808430490BAF1000F2F
:10120000B8BF494247F8041B0998401E0990DDD138
:1012100004980BB0BDE8F08F40280ADA2D4901EBA5
:101220008000059950F8400CFFF7D2FB0146F01EF4
:101230003FE044040025B4F1006FBCBF2401042545
:10124000B4F1005FBCBFA400AD1CB4F1804FBCBFC3
:1012500064006D1C20488442B4BFDFF880B0DFF822
:1012600080B02146DBF80000FFF7B2FBDBF804108A
:1012700008442146FFF7ACFBDBF808100844214680
:10128000FFF7A6FBDBF80C1008442146FFF7A0FB94
:10129000DBF810100844134951F82510FFF798FBAC
:1012A000C0000599FFF794FB01460F4850F8250050
:1012B000301A0028A8BF01419DDA40426FF0004279
:1012C000C2408A42B4BF6FF00041814093E7000002
:1012D00070E6000870E700089A79825A30E8000842
:1012E00044E8000878E8000858E8000810B5C8206D
:1012F00002F08EFC022000F013F8012000F010F83C
:10130000034901200870BDE8104000F003B8000058
:10131000080000200149086070470000143C0140AB
:101320000149086070470000143C01408379214A5C
:101330000168002B34D0136823EA01011160111DEC
:101340000A6803689A430A60017901F1804101F556
:101350009E310A6803681A430A60174A11680368D5
:1013600099431160131D1968D0F800C021EA0C01DF
:1013700019604179102908D001F1804101F59E31B1
:101380000A6800681043086070471168D0F800C010
:1013900041EA0C0111601968006808431860704741
:1013A000007900F1804000F59E30026822EA0101D8
:1013B00001607047003C0140083C01402DE9F047C6
:1013C0001E000D4604463DD0C6F11F074FF0010038
:1013D0004FF0000900FA07F012F0010FA0F1010828
:1013E000CA4665D02068C11740FA07F28A4218BF82
:1013F00088EA0100B0402060FFF7EDFA40EA0909F1
:1014000054F8800F4042C11740FA07F28A4218BFD1
:1014100088EA0100B0402060FFF7DDFA40EA0909E0
:101420002868C11740FA07F280348A4218BF88EA58
:101430000100B0400AF1020A45F8040BBAF1120F9C
:10144000D0DB63E012F0010F2FD0D4F88090D4F8F5
:101450008081D4F88072D4F88063D4F88054D4F8B2
:101460008015C9F10009D4F880C6D4F88037D4F8C3
:101470008028C8F10008C4F880907F42C4F88081B9
:101480007642C4F880726D42C4F880634942C4F861
:101490008054C4F88015CCF10001C4F8801659427C
:1014A0005042C4F88017C4F880080020BDE8F087D7
:1014B0002068C11740FA07F28A4218BF88EA010083
:1014C000B0402060FFF787FA40EA090954F8800F1E
:1014D000C11740FA07F28A4218BF88EA0100B040FB
:1014E0002060FFF778FA40EA09092868C11740FA36
:1014F00007F280348A4218BF88EA0100B0400AF13E
:10150000020A45F8040BBAF1120FD1DB4846BDE8D8
:10151000F0872DE9F0010022012603270B6806FA67
:1015200002FC03EA0C0363453BD10568530007FA4C
:1015300003F4A54305600D79D0F800809D4045EA8D
:10154000080505600D79012D18BF022D1AD1856897
:1015500025EA040585604D79D0F8088005FA03F581
:1015600045EA08058560456825EA0C0CC0F804C00A
:10157000D0F804C08D7905FA02F5ADB24CEA050C3D
:10158000C0F804C0D0F80CC02CEA040CC0F80CC0A1
:1015900091F807C00CFA03F3D0F80CC043EA0C032F
:1015A000C36002F10102102AB8D3BDE8F001704710
:1015B0004B07DB0E9A40C90800EB8100016A4FF02F
:1015C0000F0C0CFA03F399430162016A11430162A3
:1015D00070474183704701837047FEE72DE9FF4F55
:1015E000BFB000204C9E0446379030680F4600285C
:1015F00040F3E180429942988969406900291CBF03
:101600007169A142C8BF0020D6E90312A242C8BF37
:1016100000213D46419A369102EB8402CDE9382003
:10162000DDF8FCC00022B06913460CF14401072824
:10163000B4BFC0F1070000203B904FF00800E8461F
:1016400023DAD1F80090DDF8ECC049FA0CFCACEBE1
:10165000030351F8049CDDF8ECC09A1A49FA0CFC1B
:10166000ACEB030308EB800CA1F10801CCF82420BB
:1016700048F8203055F82090DDF8ECC049FA0CFC11
:1016800045F820C0401EDCD512E0D1F800C0ACEB1C
:10169000030351F804CC9A1AACEB030308EB800C5B
:1016A000A1F10801CCF8242048F82030401EECD5E8
:1016B000099840100990009840100090404604F0AE
:1016C000A7FCE84609A804F0A3FC39993698DFF88E
:1016D00018A44FF0000B08F12008084300F0D18156
:1016E00012A92846369A03F057F83998D94600EBE4
:1016F000C001FE4800EB01103690D8F824105AF8CB
:10170000042958F8040939901046FFF761F9014699
:1017100039988010421A08443A9245F8040B3698DA
:1017200050F829103A98FFF753F912A951F82910E7
:101730000844800039903699C9F111003C9051F865
:1017400020103A98FFF744F901463C9812AA52F843
:101750002000084481003A91DDE9381001EBC911FD
:101760000860389A3C983A9902EBC01001603998A9
:10177000FFF731F940EA0B0B3A98FFF72CF909F122
:10178000010940EA0B0BB9F1090FB6DBA5F1240101
:1017900022463B9B3898FFF711FE379940EA0B0031
:1017A000084337903F98641C48303F903068243796
:1017B000A0423FF71FAF7068A04240F3FE80D6E919
:1017C00003A0A042C8BF4FF0000AB84641980021CC
:1017D00000EB84003C90B0693F9D399107281DDAE9
:1017E000C0F1070039900020399955F8202042FABD
:1017F00001F145F8201005EB8001399A4B6843FA56
:1018000002F24A60D8F80020399942FA01F1801CAE
:1018100048F8041B1228E7DBA8F12408694628468B
:1018200004F0A6FCE94606A9281D04F0A1FC09F174
:10183000300105F1080004F09BFC524612A9404615
:1018400002F0AAFFAA484FF0000A55463B9012A8A2
:1018500050F825004FEA800B5846FFF7BCF840EAE5
:101860000A0036903C9800EBC51912A800EB850AD7
:10187000C9F800B0DAF80C004FEA800B5846FFF7C1
:10188000AAF80146369801433691684600EB850078
:10189000C9F880B13D90C1683B9850F82500FFF72A
:1018A00097F8DAF8181000EB81003890FFF793F8FA
:1018B000369940EA010B3898C9F80003C5F10501D3
:1018C0003B985DF8211000EB85003A90C068FFF767
:1018D0007FF8DAF8241000EB81003890FFF77BF8EE
:1018E00040EA0B0036903898C9F880043A98C5F160
:1018F00002015DF821108069FFF76AF883463D9880
:10190000416A3B9850F82500FFF762F8DAF830108A
:10191000584400EB810B5846FFF75DF801463698B6
:1019200008433690C9F800B63A985DF82510406A29
:10193000FFF74EF883463A98C5F10B015DF8211088
:10194000C068FFF745F8DAF83C10584400EB810B0B
:101950005846FFF740F8014636986D1C41EA000AE8
:10196000C9F880B7032DFFF672AF0620694651F81B
:101970002020401C921048F8042B0928F7DB0C208B
:1019800051F82020401C921048F8042B1228F7DB55
:10199000A8F124012246399B3C98FFF70FFD3799A7
:1019A00040EA0A00084337903F98641C48303F9053
:1019B000706824378442FFF602AF0094B068844216
:1019C000B8BF0DF1900B42DAD6E90320A042C8BFA0
:1019D000002224A9384602F0DFFEE00702904FF013
:1019E000000804F00100454601905BF8350041997C
:1019F000800001EB052948EA000849F82400FEF7B9
:101A0000EAFF379940EA010A0BEBC50002994068EA
:101A1000800080EAE1710198084409EB840148EAFA
:101A20000008C1F88000FEF7D6FF40EA0A003790B0
:101A3000002047F825006D1C092DD6DB2437B8F1AE
:101A4000000F18BF0094641CB068A042BCDC202CBE
:101A5000B8BF00210BDA0020419A02EBC012401CF3
:101A600042F824101228F7DB641C202CF3DB379893
:101A7000002808BF202160D0002110F0004F57D06F
:101A80005BE01C484FF000093690D8F824105AF853
:101A9000042958F8040939901046FEF799FF0346C7
:101AA0002A683998514280103D91191A18443A9188
:101AB00045F8040B501840423C90369850F8041BEF
:101AC00036903C98FEF784FF3A9901EB80003990FC
:101AD000369850F8041B36903C98FEF779FF3D99F4
:101AE00001EB80003A9007E0B8E80008FC270010FE
:101AF0001C290010BCE80008DDE9381001EBC91111
:101B0000C9F11102086038993A9801EBC2110860D6
:101B10003998FEF760FF40EA0B0B3A98FEF75BFF3F
:101B200009F1010940EA0B0BB9F1090FADDB2DE614
:101B30004000491C10F0004FFAD0481EF061009898
:101B400043B0BDE8F08F00002DE9F04F8346874891
:101B500083B0002444608460984691468A46C460FD
:101B60000461446104700121084600F0C9FD0121AF
:101B7000022000F0C5FD0121042000F0C1FD01217B
:101B8000082000F0BDFD0121480500F0B9FD01214C
:101B9000480500F0CDFD0121C80300F0C9FD012773
:101BA0008DF804708DF80640022510268DF805503A
:101BB00000968DF8074069466D48FFF7AAFC8DF83E
:101BC00005508DF804508DF806704FF41070694F71
:101BD00000908DF8074069463846FFF79AFC0422CA
:101BE00006213846FFF7E4FC042209213846FFF7B6
:101BF000DFFC8DF805504FF4A4508DF804505E4F73
:101C000000908DF806408DF8074069463846FFF78A
:101C100080FC062207213846FFF7CAFC06220A216B
:101C20003846FFF7C5FC06220C213846FFF7C0FCFA
:101C30008DF805508DF80450504D8DF806400096F3
:101C40008DF8074069462846FFF763FC0622042109
:101C50002846FFF7ADFC4A48068044F6FF70029420
:101C600000BF0299491C02918842F9DC4548068070
:101C70000121480500F068FD00214FF4001000F03C
:101C800063FD4149414A424BB1FBF2F018801B1DF4
:101C900048F2330018803F48B1FBF0F00428B8BF89
:101CA00004203D4B1880B1FBF2F0191D401C088048
:101CB0003A4940F2014008800121022002F006FE6C
:101CC000AF21042002F002FE8121052002F0FEFD7A
:101CD0000421062002F0FAFD1821202002F0F6FD72
:101CE0001821212002F0F2FD9E21022002F0EEFDDB
:101CF00000210A2002F0EAFD04210E2002F0E6FD98
:101D00000021272002F0E2FD0F211F2002F0DEFD5E
:101D10000A211A2002F0DAFD0A211B2002F0D6FD6A
:101D20001F4A14801F48016881F0806101601E49CC
:101D30000B6823F400030B601C4B4FEA0A7141EA65
:101D40008B111960016841F080610160016811F038
:101D5000006FFBD0164949EA082040F40070088063
:101D60004FF46060108003B0BDE8F08FBC0000202D
:101D7000000C024000040240000802400000024043
:101D80001A0C0240180C024080DE800240420F0014
:101D900004540040400D03001C5400400054004017
:101DA0001C3C0040003802400838024084380240A1
:101DB000203C00402DE9F04188B004460025012177
:101DC0008DF81C50080300F0CBFC0121084600F000
:101DD00097FC0121102000F093FC0121102000F05D
:101DE0008FFC0121102000F08BFC434F052211468F
:101DF0003846FFF7DDFB052206213846FFF7D8FB02
:101E0000052207213846FFF7D3FB02268DF8046030
:101E10008DF8065020208DF8076000908DF8056041
:101E200069463846FFF775FB8020009069463846C2
:101E3000FFF76FFB4020009069463846FFF769FBCB
:101E4000DFF8B880404600F0ACFCADF8105030022E
:101E5000ADF812000720ADF81800ADF808500827BB
:101E60004FF48270ADF80C50ADF81470ADF80A0064
:101E7000ADF80E50ADF8165002A9404600F0CEFC69
:101E80000121404600F084FC009701278DF8047082
:101E9000DFF86C808DF806508DF805606946404685
:101EA000FFF737FB08214046FFF795FB8DF80450FC
:101EB0008DF806508DF8056000978DF8075069463B
:101EC0004046FFF726FB694640460096FFF721FB98
:101ED0006078217822790843E17811430843A1789A
:101EE000012208438DF81C00202107A800F042F8C9
:101EF00008B0BDE8F0810000000002400030014061
:101F0000001002402DE9F041184C4FF4805507466F
:101F10002560174E0221304600F075FC50B920684C
:101F2000411E216000D2FEE70221304600F06BFC2A
:101F30000028F4D03946304600F06EFC25600121BF
:101F4000304600F060FC50B92168481E206000D285
:101F5000FEE70121304600F056FC0028F4D0304660
:101F600000F058FCC0B2BDE8F0810000D4000020B1
:101F7000003001402DE9F041144605460F46012A84
:101F800088BF41F0400708210B4E3046FFF721FB88
:101F90003846FFF7B7FF44B12878FFF7B3FF601E5C
:101FA0000404240C05F10105F6D13046BDE8F041EA
:101FB0000821FFF710BB000000100240002808BFF6
:101FC00070470022D0F8C8C7D0F8C43703FB0CF321
:101FD000D0F8BCC703FB0CF3002BCCBF0023704729
:101FE00010B421F81230D0F8C4C7D0F8C847521C3A
:101FF0000CFB04FCD0F8BC470CFB04FC9445F0DC63
:1020000010BC7047002804BF6FF0040070472DE932
:10201000F04F0D4683B01F461646044609680BF084
:10202000DFFD5FEA000842BF6FF0050003B0BDE8C6
:10203000F08F286800EB0801204629600CF01CF89E
:10204000002808DA39462046FFF7B8FF03B06FF0E2
:102050000600BDE8F08F29680144296008EB000103
:1020600032680091511A3160D4F8B81721B1D4F810
:10207000B00700287DD075E0D4F8B017002971D1E1
:102080000121C4F8B017D5F800E0DFF804A4AEEBE6
:102090000801D6F80090A1EB000C72460020A9F1CF
:1020A000010BBBF1000F09DD115CFF2903D11118F1
:1020B0004B78FB2B16D0401C5845F5DB4FF0FF301A
:1020C000111800281DDA4FF0FF30C4F8B4070028BB
:1020D00039DA39462046FFF771FF03B06FF002008E
:1020E000BDE8F08F9AF800301BB191F80280984556
:1020F000E6D09AF80130002B1CBF89789942DFD0D6
:10210000D9E70A789CF800309A4216D14A789CF8B0
:1021100001309A4211D18A789CF8023002F0FC0218
:1021200003F0FC039A4208D19CF8020010F0020F61
:1021300018BF491EA1EB0E00C7E7A9EB0000CA1C9F
:10214000A0F10309AAE70099D4F8C8270844D4F8F5
:10215000C4175143D4F8C0275043C00090FBF1F09E
:10216000C4F8B807204609F002FFD4F8B4170844B1
:1021700000E001E0C4F8CC070C98E0B13068C4F886
:10218000CC07D4F8D81709B9002808DC394620460E
:10219000FFF714FF03B06FF00500BDE8F08FC4F83F
:1021A000DC07D5F80090484428603068D4F8CC1794
:1021B000401A306037E0D4F8CC273068824208DD1E
:1021C00039462046FFF7FAFE03B04FF0FF30BDE876
:1021D000F08FD4F8D817D4F8DC07884273DB20449A
:1021E000401A0A4600F11C0104F11C00FEF73EFCF7
:1021F000D4F8D80704F11C03D4F8CC272968184474
:10220000FEF734FCD4F8D817D4F8CC0704F11C0935
:102210000144C4F8DC172968084428603068D4F801
:10222000CC17401A306000200290D4F8DC0700265A
:102230004FEAC008D4F8C407002840F32481D4F83A
:10224000BC0700250028C8BF04EBC60B7EDDCDE926
:102250000065434602AA49462046DDF808A00BF077
:10226000BBFDCAEBC001DDF808A00BEB85025144B1
:10227000D2F8E0278144531AA8EB01080028A8BF30
:1022800098453EDACCB1D4F8C827D4F8C41700205A
:102290005143D4F8BC2751430029C8BF00210CDDAD
:1022A00027F81010D4F8C837D4F8C427401C5A4374
:1022B000D4F8BC375A438242F2DC03B06FF0070017
:1022C000BDE8F08FFFE704F11C0318442968FEF70E
:1022D000CDFBD4F8DC17D4F8CC070144C4F8DC17E4
:1022E0002968084428603068D4F8CC17401A306058
:1022F00039462046FFF762FE03B06FF00100BDE8EB
:10230000F08FCDE9006502AA4946204609F03CFE5F
:10231000002821DACCB1D4F8C827D4F8C41700209B
:102320005143D4F8BC2751430029C8BF00210CDD1C
:1023300027F81010D4F8C837D4F8C427401C5A43E3
:10234000D4F8BC375A438242F2DC00E011E003B01B
:102350006FF00800BDE8F08F81440299CAEBC0001D
:102360000844A8EB0008D4F8BC076D1C8542FFF6B2
:102370006EAF314620460AF055FA00281FDACCB17C
:10238000D4F8C827D4F8C41700205143D4F8BC2788
:1023900051430029C8BF00210CDD27F81010D4F8E4
:1023A000C837D4F8C427401C5A43D4F8BC375A4322
:1023B0008242F2DC03B06FF00900BDE8F08FD4F880
:1023C000BC07002500282BDD2A46314620460AF0AE
:1023D00047FF00281FDACCB1D4F8C827D4F8C417B7
:1023E00000205143D4F8BC2751430029C8BF002125
:1023F0000CDD27F81010D4F8C837D4F8C427401CD7
:102400005A43D4F8BC375A438242F2DC03B06FF02F
:102410000A00BDE8F08FD4F8BC076D1C8542D3DB01
:10242000D4F8BC17D4F8C8074843704307EB400101
:1024300020460BF057FB00281FDACCB1D4F8C82790
:10244000D4F8C41700205143D4F8BC2751430029C5
:10245000C8BF00210CDD27F81010D4F8C837D4F815
:10246000C427401C5A43D4F8BC375A438242F2DC9A
:1024700003B06FF00B00BDE8F08FD4F8C407761CF2
:102480008642FFF6DCAE03B00020BDE8F08F00000E
:102490000C00002030B4034600204C1E002CC8BFA6
:1024A000DFF840C009DD195CFF2903D119184A780B
:1024B000FB2A06D0401CA042F5DB30BC4FF0FF30B9
:1024C00070479CF8002022B18D78954204BF30BC43
:1024D00070479CF80120002A1CBF89789142E9D1FD
:1024E00030BC70470C00002018B1D0F8D027032A68
:1024F00007D00020086048608860C86008614861B3
:1025000020E0D0F8B8270A60D0F8BC274A60D0F89D
:10251000C0278A601022CA6090F8D4270A4B02EBC9
:10252000420203EB4202D0F8D03702EB4302D0F86C
:10253000BC3732F9022C5A430A61D0F8D0274A61DD
:1025400090F8D407886170473201001009F0B0BCE0
:10255000FEE7704710B4C27801784FF00F0C0124E9
:102560001AB3184A126801F1E02102F4E062C2F5E0
:10257000E062C2F30722C2F104032CFA02FC4278A3
:102580009A40837803EA0C031A43120181F800246D
:10259000007800F01F0104FA01F14009800000F109
:1025A000E020C0F8001110BC704701F01F0004FAD1
:1025B00000F04909890001F1E021C1F8800110BC57
:1025C000704700000CED00E0034940F0FD7040F062
:1025D00080600860704700000CED00E0014800F0EA
:1025E000E3BC0000306D0120094810B5807A48B185
:1025F0000848016821F00601016000F067FA04480C
:1026000001F055FFBDE810404FF48020FEF788BE72
:10261000306D012010ED00E070470000204A10B539
:10262000D2F8B83023F00103C2F8B830D2F8B8308D
:1026300013F0010FFAD11B4C00232370DFF868C0A0
:102640004FF40042CCF80021DFF860C040228CF843
:102650000024174AB2F800C04CF0020CA2F800C0E7
:1026600060605FEA000C63610846A16008BF10BDAE
:102670006169E04710F1020F1CBF10F1090F10BD96
:102680000C48016801F2A11101600B480168A1F238
:10269000A11101606169D4E90120BDE81040104733
:1026A00000600240BC00002004E000E02FE000E0F9
:1026B000043C0040540000207400002070B50E4A15
:1026C000D3680E4D4FF4004453B130BFD368002B94
:1026D000FBD1C5F88041D0601161107830B908E0B5
:1026E000C5F88041D0601161107810B1C5F8004183
:1026F00070BD00F081F9F9E7BC00002004E000E0C3
:10270000044A0029116814BF084321EA0000106040
:102710007047000030380240044A0029116814BF95
:10272000084321EA0000106070470000343802407E
:10273000044A0029116814BF084321EA0000106010
:102740007047000040380240044A0029116814BF55
:10275000084321EA00001060704700002038024062
:10276000044A0029116814BF084321EA00001060E0
:102770007047000044380240044A0029116814BF21
:10278000084321EA0000106070470000243802402E
:102790000029018814BF41F0400121F0400101806F
:1027A000704710B5A0F18041B1F5983115D0A0F176
:1027B0008041B1F560511BD0A0F18041B1F570515D
:1027C00018BF10BD0121C803FFF7BEFFBDE81040D0
:1027D00000214FF40040FFF7B7BF01210803FFF7C6
:1027E000CBFFBDE8104000214FF48050FFF7C4BF7D
:1027F00001218803FFF7A8FFBDE8104000214FF436
:102800008040FFF7A1BF0246002012890A4218BF8C
:1028100001207047808970478181704710B4028819
:102820000B88B1F802C0CC8843EA0C03B1F804C0AD
:1028300002F441524CEA040C43EA0C03B1F808C01C
:1028400043EA0C03B1F80AC043EA0C03B1F80CC028
:1028500043EA0C03B1F80EC043EA0C031A430280AA
:10286000828B22F400628283098A018210BC704745
:1028700010B504460E4882B0012150F82400FFF73D
:102880003FFF0C48002130F81400009001208DF823
:1028900004008DF806108DF8070002208DF8050061
:1028A0000548694650F82400FEF733FE02B010BD1B
:1028B000A0E3000898E30008AC0000200349044AA4
:1028C00031F8101052F820004183704798E3000857
:1028D000AC0000200349044A31F8101052F82000DF
:1028E0000183704798E30008AC000020044951F8C8
:1028F00020104A69034B33F810005040486170477C
:10290000AC00002098E3000870B5044621480E464C
:1029100086B050F824000121FFF7F2FE0121880360
:10292000FFF71EFF00251C488DF814508DF8175036
:1029300030F814000490194804A950F82400FEF758
:10294000E8FD012E1CBF06B070BD1548015D401E9C
:10295000005D00F02CF8134830F8140000908DF85A
:10296000045008208DF8050001258DF806506846B2
:10297000FEF7DCFC0C48005D8DF808000F208DF898
:1029800009008DF80A008DF80B5002A8FFF7E2FD50
:1029900006B070BD94E3000890E30008A800002092
:1029A0008DE3000892E300088EE3000870478A0771
:1029B00021F0030101F1804101F59831120F0F233D
:1029C000D1F808C893402CEA0303C1F80838D1F8BD
:1029D000083890401843C1F80808704710B500F156
:1029E0001904E1B2202001F071FFE1B2BDE810400E
:1029F000212001F06BBF000010490F4841F8B80FCB
:102A00000F4802694A600F4A8A60C268CA6004229D
:102A10004A610A6842F001020A600021C16041690E
:102A200081F001014161012101704268002A08BF63
:102A30007047416980681047502C030000600240D5
:102A4000BC0000200C3C00400C48D0F8B81021F02D
:102A50000101C0F8B810D0F8B81011F0010FFAD188
:102A6000074900200870074A138823F002031380E7
:102A7000054BD213C3F880214860704700600240C4
:102A8000BC000020043C004004E000E00748D0F80F
:102A9000B81021F00101C0F8B810D0F8B81011F04A
:102AA000010FFAD10249002008707047006002400F
:102AB000BC00002004488168C36811F57A7243F1B4
:102AC00000018260C1607047900000203B4882B0E6
:102AD000016841F4700101603948016841F0010169
:102AE000016038494FF0000CC1F800C0026822F4C0
:102AF000102222F080720260031D334A1A600268BD
:102B000022F4802202600A1DC2F800C0CDF800C085
:102B1000CDF804C0026842F480320260026802F418
:102B200000320192009A521C0092019A1AB9009A3E
:102B3000B2F5C06FF2D1026812F4003F08BFCDF8C1
:102B400004C034D001220192204AD2F800C04CF0D7
:102B5000805CC2F800C01E4AD2F800C04CF4404C61
:102B6000C2F800C00A680A600A6842F400420A60BB
:102B70000A6842F4A0520A60164A1A60026842F0DB
:102B800080720260026812F0007FFBD0124A40F2AD
:102B900005601060086820F003000860086840F0D5
:102BA00002000860086800F00C000828FAD10B4900
:102BB0004FF00060086002B07047000088ED00E050
:102BC00000380240083802401030002440380240EB
:102BD0000070004008544007003C024008ED00E04F
:102BE00010B5084C0121204600F01CF8002808BF51
:102BF00010BD0121204600F009F8034901200871A9
:102C000010BD00000010004000000020C9430182F8
:102C100070470029018814BF41F0010121F0010132
:102C200001807047038A002280890B4200EA01007C
:102C30001CBF0028012210467047002A828914BF59
:102C4000114322EA010181817047000010B402881B
:102C50001C4BDFF874C0984218BF604511D0B0F12A
:102C6000804F1CBFA0F18044B4F5806409D0A0F16E
:102C70008044B4F500641CBFA0F18044B4F5406406
:102C800003D14C8822F070022243A0F18044B4F5B5
:102C900080541CBFA0F18044B4F5A05403D00C892B
:102CA00022F44072224302804A68C2620A88028586
:102CB000984212BF6045897A01864FF001018182F6
:102CC00010BC704700000140000401404FF0FF318C
:102CD000416000210180018141808172704710B5FF
:102CE000D0F8E42552689047002010BD10B5134677
:102CF00000240A462146FEF7F5F8204610BD10B51F
:102D0000134600240A462146FEF733F9204610BD3B
:102D100010B5C0F894230323C0F8902380F8113134
:102D2000134600240A462146FEF7DCF8204610BD73
:102D300070B504460025052084F811012B462A466B
:102D400029462046FEF7CEF8204601F07FF92846B6
:102D500070BD10B5C0F83C210223C0F8382180F8BE
:102D60001131134600240A462146FEF702F9204697
:102D700010BD70B504460025042084F811012B46CF
:102D80002A4629462046FEF7F4F8204601F05EF96F
:102D9000284670BD70B5054659B1D5F8E4054269BD
:102DA000002A4AD095F81201032804BF284690470C
:102DB00043E095F81101002605F58E74022832D102
:102DC000E169A06881420FD9081AE061E87801281A
:102DD00003D1D4E902100844E060A08BE16882B21C
:102DE0002846FFF78CFF1EE0216AB1FBF0F200FBE2
:102DF00012125AB9814209D3606A814206D2002276
:102E000011462846FFF77BFF66620CE0D5F8E40523
:102E1000C16829B195F81201032804BF28468847E4
:102E20002846FFF785FF95F81601012805D10448CB
:102E300000682969486085F81661002070BD0000AF
:102E40003401002010B5044659B1D4F8E405826974
:102E5000002A2FD094F81201032804BF204690477F
:102E600028E094F8110104F55D71032822D18A68E5
:102E7000C869904211D9801AC861E078012802D14E
:102E8000C8681044C860C869904228BF104682B222
:102E9000C9682046FFF72AFF0CE0D4F8E405016971
:102EA00029B194F81201032804BF20468847204620
:102EB000FFF75FFF002010BD10B50446D0F8E8050D
:102EC00040698047012084F81501002010BD10B52D
:102ED0000446D0F8E80580698047D4F8E40500216D
:102EE000426820469047002084F8150110BD30B498
:102EF0000025002804BF30BC7047034604784FF01B
:102F0000000C3CB113F8014F0CF1010C0CF0FF0C5C
:102F1000002CF7D1022303EB4C0313804B556A1CA2
:102F200003238B540378AA1C002B12BF002330BC50
:102F3000704710F801CB01F802C0521CD2B28B547A
:102F4000521C90F800C0D2B2BCF1000FF1D130BCDD
:102F500070472DE9F0411D46174688460446069EF7
:102F600000F014FEC4F8EC75C4F8E865414620464C
:102F7000C4F8E455FEF71CF8D4F8E805006880476B
:102F80002046BDE8F04100F0EBBD10B5D0F8E415E7
:102F9000096A8847002010BD10B5D0F8E415496AC9
:102FA0008847002010BD00002DE9F04F83B0804617
:102FB000002601F0CAF9002800F06F82404601F0B7
:102FC000CCF95FEA000904BF03B0BDE8F08F19F443
:102FD000002F58D00024404601F0CAF905001CBF5C
:102FE0004FF0080BDFF8D4A44BD015F0010F45D0FB
:102FF000E1B2404601F0C2F9074610F0010F28D0B7
:1030000008EB84000127416D8F6098F803100129B7
:103010000CD1406D016904EB840208EBC200C1F3DE
:103020001201D0F87C23511AC0F88C13DAF8000092
:10303000E1B202684046904798F80300012808BFB3
:10304000002C06D198F81101052804BF404600F075
:10305000FDFF17F0020F04D008EB84000227406D3B
:10306000876017F0080F09D0DAF800008168404641
:10307000884708EB8400406DC0F808B0641C6D08F8
:10308000B3D146F0010619F4802F78D000274046CE
:1030900001F068F95FEA000B72D01BF0010F70D0ED
:1030A000D8F81000FAB20369D0F834C008EB8201F6
:1030B0002CFA02FC89690CF0010C43EACC138968F4
:1030C00001EA030414F0010F1DD00124426B04FA3D
:1030D00007F122EA0101416308EB870080698460FF
:1030E000F648F9B2006842684046904798F80300F5
:1030F000012808BF002F06D198F81101042804BF49
:10310000404600F0A3FF14F0080F04D008EB87003E
:1031100008248069846014F0100F04D008EB870045
:1031200010248069846014F0400F04D008EB8700FD
:1031300040248069846014F0020F04D008EB8700FB
:1031400002248069846014F0800F3FD007EB870170
:1031500008EBC10000F58E74CDF80880D4E90501B4
:10316000401AA168884288BF0846C01C4FEA900AEE
:1031700008EB8700009001908069806919E02CE0DD
:1031800029E023E0451AA068A84238BF0546E81C9C
:103190004FEA900AABB2FAB2E168029801F099F9ED
:1031A000E0682844E060A0692844A0610198806933
:1031B000806980B2504584BFD4E90501884201D9B5
:1031C0000028DFD100998020896988607F1C5FEA30
:1031D0005B0B7FF462AF46F0010619F0020F03D0DB
:1031E000D8F80C100220486119F0004F1BD098F855
:1031F0000A0030B1D8F80C01D8F80C1120F0030007
:103200000860D8F81000416821F001014160AB4826
:103210000068816940468847D8F80C104FF000409C
:10322000486146F0010619F4006F35D000208DF892
:10323000000098F812018DF80000A048006841696C
:1032400040468847D8F810008068D8F80C204FF422
:103250000061516198F80A10002918BF10F0010FA1
:1032600018D098F81501012804BF9DF80000032824
:1032700010D1D8F80C01016841F001010160D8F8C3
:103280000C01016841F0030101608D48016841F0C3
:103290000601016046F0010619F0080F0AD08748C0
:1032A0000068C16840468847D8F80C10082048617B
:1032B00046F0010619F0100F3ED0D8F80C008169D5
:1032C00021F010018161D8F80C00056A05F00F00AB
:1032D00000EB800108EBC10000F55D74C5F34340CD
:1032E000072821D2DFE800F020200420202015004C
:1032F00047F6F070054217D0C5F30A152A46404636
:10330000E16801F043F8E0682844E060A0692844DF
:1033100009E00822404608F2CC5101F037F8A069D4
:10332000C5F30A110844A061D8F80C00816941F086
:103330001001816146F0010619F4805F4BD0D8F886
:1033400010004FF000044FF00105416821F0010129
:1033500041602146404600F0BFFF98F80110002070
:10336000002988BFFF220AD908EB80018B699A6087
:10337000496D8A6098F80110401C8142F4D8D8F851
:1033800010004FF0FF3181612046D8F8101065F32E
:103390000F0065F31F40C861D8F8101044F00B000F
:1033A0004861D8F8101044F00B000861D8F81000FC
:1033B000016821F4FE610160404600F047FED8F844
:1033C0000C104FF4805048613C4800680169404649
:1033D000884746F0010619F4005F1ED0404600F011
:1033E000ADFDD8F80C00C468404600F099FF0328F2
:1033F00057D0012088F802004020A8F8040024F4E7
:10340000705000F5A050D8F80C10C860D8F80C1017
:103410004FF40050486146F0010619F4801F0BD0AC
:1034200026480068C16940468847D8F80C104FF418
:103430008010486146F0010619F4001F0BD01F48A8
:103440000068016A40468847D8F80C104FF4001015
:10345000486146F0010619F0804F0BD0174800680C
:10346000416A40468847D8F80C104FF080404861C8
:1034700046F0010619F0040F0FD0D8F80C0044688C
:1034800014F0040F04D00D480068816A4046884754
:10349000D8F80C00446046F0010603B03046BDE8A1
:1034A000F08F002088F802004FF4007124F470506F
:1034B000A8F8041000F51050A5E700003001002026
:1034C00010ED00E090F8CC250A7090F8CD254A70F8
:1034D00090F8CE2590F8CF3502EB03224A8090F881
:1034E000D02590F8D13502EB03228A8090F8D225BE
:1034F00090F8D33502EB032292B2CA800121C0F8C2
:10350000402180F81111704710B500230446402275
:103510001946FDF7C7FC0023402280212046FDF715
:10352000C1FC012084F81201D4F8E815A07849689C
:103530008847002010BD10B50446D0F8E8050069A2
:103540008047032084F81201002010BD10B5D0F888
:10355000E415C969002918BF8847002010BD10B5BF
:103560000446D0F8E405026820469047D4F8E80500
:1035700080688047002010BD10B582B004466946BF
:10358000FFF7A0FF9DF8002012F01F010BD00129CA
:103590000ED0022911D002F080012046FDF7CCFCAC
:1035A00002B0002010BD6946204600F00BF8F7E796
:1035B0006946204600F00AFAF2E76946204600F024
:1035C00079F9EDE7F8B50D46497800260A2980F02B
:1035D000ED80DFE801F0FDF8EBF7EB7205EBDB9235
:1035E00004466888010A04297DD2DFE801F09202CE
:1035F0001420D4F8EC15A0780A6869469047014673
:10360000E888402819BF94F8120101280820ADF875
:10361000000047D042E0D4F8E415A0788A6A6946F1
:103620009047014602204870C4F8F01536E0C0B259
:1036300006286ED2DFE800F0030B131B232BD4F80F
:10364000EC15A0784A6869469047014626E0D4F810
:10365000EC15A0788A686946904701461EE0D4F8C8
:10366000EC15A078CA6869469047014616E0D4F880
:10367000EC15A0780A696946904701460EE0D4F837
:10368000EC15A0784A6969469047014606E0D4F8EF
:10369000EC15A0788A69694690470146BDF800009C
:1036A000002841D0EA88002A3ED080B2824288BFFA
:1036B0000246ADF80020204687E00446A88800288E
:1036C00004BFE888002824D1A87800F07F0594F88A
:1036D000120103281DD084F8145129462046FDF715
:1036E00023FC204600E014E0FFF743FB002D0CBF55
:1036F0000120022084F8120116E0A978694D0446E1
:103700000129297005D894F8120102280ED0032847
:103710001DD080212046FDF70FFC00212046FDF73B
:103720000BFC204600F092FC3046F8BD59B184F8FD
:103730001011032084F812012046FFF710FF2046E5
:10374000FFF717FBF0E72046FFF713FBECE789B123
:1037500094F810018842F6D001462046FFF7BFFAE0
:10376000297884F810112046FFF7F9FE2046FFF76C
:1037700000FBD9E7022084F8120184F810112046DA
:10378000FFF7ADFA2046FFF7F4FACDE7E988012903
:103790000CD190F81211022904BF0122424914D021
:1037A000032904BF012200F588710ED00446802150
:1037B000FDF7C2FB00212046FDF7BEFB204600F0CE
:1037C00045FCB1E717E054E002E0FFF7C2FAABE7CF
:1037D00090F81211022918BF0329E7D131494FF09F
:1037E0000102CA60D0F81821002A1CBF0322CA6057
:1037F00002222E49E9E7044668882946012810D0AC
:10380000022804BFA98811F0FF0F8DD120694068FC
:103810004FEA1121062923D2DFE801F0220F131706
:103820001B1F0120C4F81801D4F8E4058268204663
:1038300090472046FFF79DFA76E720F070001030A1
:103840000EE020F0700020300AE020F070003030F0
:1038500006E020F07000403002E020F070005030B0
:1038600013490860012084F816012046FFF781FA09
:103870005AE7044690F812012946022818BF032887
:103880007FF447AF488801287FF44EAF0020C4F88A
:103890001801D4F8E4058268204690472046FFF7D7
:1038A00068FA41E7F4000020FC000020000100203D
:1038B0003401002070B50D46044668780026097969
:1038C000002843D0012822D0032850D194F81201B7
:1038D000022802D0032808D03EE0002918BF802922
:1038E00045D02046FDF728FB41E0688828B900292B
:1038F0001EBF80292046FDF71FFBD4F8E4052946AA
:103900008268204690472046FFF733FA2FE094F86C
:103910001201022802D0032805D01DE0002918BF9B
:103920008029DED123E0688808BB002918BF8029E0
:1039300008D02046FDF799FAD4F8E40529468268B4
:10394000204690472046FFF714FA10E094F8120141
:1039500002280ED0032811D080212046FDF7ECFA72
:1039600000212046FDF7E8FA204600F06FFB3046C4
:1039700070BD002918BF8029B3D1F8E7114A11F0B2
:10398000800F4FF000034FF0010C09D001F07F00D1
:1039900000EB800004EBC00090F81E0150B106E07F
:1039A00001EB810004EBC00090F8760310B1C2F87F
:1039B00004C000E053604FF0020203492046FFF7C5
:1039C000C8F9D4E7F4000020F800002070B50446E0
:1039D00090F8120100260D4603280ED128790128FF
:1039E0000BD8D4F8E405826820469047E888002880
:1039F00004BF2046FFF7BDF90AE080212046FDF70D
:103A00009BFA00212046FDF797FA204600F01EFBA6
:103A1000304670BD10B590F8121180F813110421D2
:103A200080F81211D0F8E805C0688047002010BD6A
:103A300010B5002806D00A46054906A0FFF757FA38
:103A4000034810BD0A46024902A0FFF750FAF7E703
:103A5000267D0120524E44495320436F6E666967AC
:103A6000000000007047704712200880004870472F
:103A7000A0020020704770477047704770470000F1
:103A800010B5002806D00A46054906A0FFF72FFA10
:103A9000034810BD0A46024902A0FFF728FAF7E7DB
:103AA000267D0120524E44495320496E746572664A
:103AB0006163650004200880004870479C02002074
:103AC00010B50A46024903A0FFF711FA004810BDDD
:103AD000267D012053544D6963726F656C65637474
:103AE000726F6E696373000010B5002806D00A4635
:103AF000054906A0FFF7FBF9034810BD0A46024935
:103B000002A0FFF7F4F9F7E7267D012053544D3367
:103B100032463420524E44495300000010B500286C
:103B200006D00A46054906A0FFF7E1F9034810BD93
:103B30000A46024906A0FFF7DAF9F7E7267D0120D9
:103B4000303030303030303031323343000000001C
:103B5000303030303030303031323342000000000D
:103B600008B54FF4C060FEF72FFD43208DF800002C
:103B700000208DF8010006208DF8020001208DF84C
:103B800003006846FEF7E6FC08BD000030B50121E1
:103B900083B00846FEF7B4FD4FF4C05003240090F4
:103BA0008DF8054002208DF8040000208DF80600F5
:103BB000164D8DF8070069462846FDF7AAFC0A2233
:103BC0000B212846FDF7F4FC0A220C212846FDF7BC
:103BD000EFFC2915009101218DF806108DF80710D2
:103BE0008DF8054069462846FDF793FC0A221146E8
:103BF0002846FDF7DDFC01218803FEF7B1FD012118
:103C00008020FEF789FD03B030BD000000000240B7
:103C10004FF47A7141430020C1EB0111C900401CEF
:103C20008842FCD970470021C0EB0010C000491C3D
:103C30008142FCD9704700002DE9F8430446002773
:103C4000017A444EC068B846012938D0C16841F0B5
:103C50004001C1600025CDF800800320FFF7E3FF9D
:103C6000E068006900906D1CB54218D8009810F00B
:103C7000004FF2D00099002041F00101009100991D
:103C8000E2681161E1680A690092401CB04203D801
:103C9000009A12F0010FF6D10320FFF7C4FF617AFA
:103CA0004FF45020002918BF4FF4E810E1688863F2
:103CB0001420FFF7ADFFE078012847D13EE0816B8B
:103CC000627A21F48031002A18BF41F480118163A7
:103CD000E068C16821F0400121F49401C160002531
:103CE000CDF800800320FFF79EFFE0680069009098
:103CF0006D1CB54218D8009810F0004FF2D0009912
:103D0000002041F0010100910099E2681161E16831
:103D10000A690092401CB04203D8009A12F0010FC9
:103D2000F6D10320FFF77FFFE07801280ED1E1688C
:103D300008F10A0040F020008860BCE7E068816874
:103D400021F01E010A3141F0200181603846BDE8B2
:103D5000F8830000400D03002DE9F84304460026D7
:103D6000D4F80C2135462846294616602269136886
:103D700023F4C0531360E27A012A2BD122694FF059
:103D8000030C13686CF301031360E2688023536231
:103D9000402262F31F4163F30F01E368996201EB74
:103DA000114161F30F00E16862F31F40C1F80401A3
:103DB00000EB104161F30F00E16862F31F40C1F8AE
:103DC000080100EB104161F30F00E16865F31F404B
:103DD000C1F80C01102100200095009A42F0200249
:103DE0000092009A61F38A1200920099E2681161D0
:103DF0004C4FE1680A690092401CB84203D8009A0F
:103E000012F0200FF6D10320FFF70DFF00200095E0
:103E1000009941F0100100910099E2681161E16898
:103E20000A690092401CB84203D8009A12F0100FA1
:103E3000F6D10320FFF7F7FE20690561206945618F
:103E400020694FF0FF38C0F818802069C56161789B
:103E50000020FF274FF0904C002911D904EB80027D
:103E60009369196811F0004F14BF61462946196023
:103E700091690D6191698F606178401C8142EDD834
:103E8000002011F0FF0F11D004EB8002536D196870
:103E900011F0004F14BF614629461960516D0D6144
:103EA000516D8F606178401C8142EDD820690169B5
:103EB00041F480710161E07801280CD103206FF397
:103EC0008A0000F5807040F4803021696FF359401A
:103ED00000F500000863E0688561E1686FF08040EC
:103EE0004861E168C1F80480E1684861E1680E4812
:103EF0008861E078002808BF102545F4872040F449
:103F00000020E16840F0080040F4401040F0040058
:103F10008A6940F080408243104388613046BDE8A2
:103F2000F8830000400D030000080080C0680022F4
:103F3000816821F0010181601046704701694FF0EE
:103F4000000C896883691A68C1F34101002918BF10
:103F5000012907D0022904BF6FF30A02D21C03D043
:103F6000032901D16FF30A021A600069416841F424
:103F7000807141606046704770B44B7800254A6993
:103F8000012B17D00B7800EB830CDCF854301C6845
:103F90001B69002A42D08A684A6162F3060323F44F
:103FA000C01202F50022DCF854301A61C278012AEE
:103FB00042D13BE083691E68D3F810C0002A04BFD9
:103FC0002CF07F0222F4C01209D08C68A24286BF76
:103FD0004C6164F3060C62F3060C2CF4C01202F57B
:103FE00000221A61C278012A08D191F800C00A693A
:103FF00000EB8C0CDCF818C0CCF8142046F004421E
:104000001A60C278FAB94A69EAB1097800690122EE
:1040100002FA01F1426B1143416314E00A7A62F340
:10402000060323F4C01202F50022BCE70B780A69EC
:1040300000EB83035B6D5A61097844F0044200EBA6
:104040008100406D0260284670BC7047426D08498F
:104050001161C178012918BF704700F2CC51426D3F
:104060005161406D01684FF0802101607047000090
:10407000180008C070B491F800C000244E780125E3
:1040800000EB8C0205FA0CFC2346012E07BF926957
:104090006CF30F03526D6CF31F43D2F800C01CF495
:1040A000004F0DD10D8965F30A0CCD78897965F340
:1040B000934C61F3995C4CF4004141F080511160E4
:1040C0000069C1691943C161204670BC704791F80D
:1040D00001C00A78002300EB8200BCF1010F0CBF85
:1040E0008069406D0268C97822F40012032914BF68
:1040F000022942F0805202601846704730B44D7871
:1041000003460978012403EB81024FF0000C04FA06
:1041100001F16046012D07BF926961F30F00526DF6
:1041200061F31F40C2F800C01969CA6922EA0000A1
:10413000C86130BC604670474B780978002200EBBC
:104140008100012B06D0406D016841F4001101602F
:10415000104670478169086810F0004F18BF40F0A2
:10416000804040F400100860F2E770B491F801C09C
:104170000B7800254A6900EB8303BCF1010F19D0CD
:10418000D3F854C0DCF80030DCF81040002A74D0BA
:104190008E683244521EB2FBF6F262F3DC44C4F382
:1041A000C942724362F31204CCF81040C278012A6B
:1041B00074D16AE09C69D4F800C0236982B18E682A
:1041C00062F312033244521EB2FBF6F262F3DC4396
:1041D000CA78012A04BF23F0C04202F1005305E06F
:1041E0006FF312036FF3DC4303F500232361C278FE
:1041F000012A19D0CA78012A1DD04A694AB10A7821
:10420000012393400269546B23435363CA78012A04
:1042100011D00B784CF0044200EB83039B691A60C9
:10422000CA78012A44D110E00B780A6900EB8303B5
:104230009B695A61EAE70269926812F4807F0CBFB9
:104240004CF0005C4CF0805CE3E791F800C0CA6879
:10425000898A8BB2C17859BB00EB8C000021DB1C32
:10426000D0F8D0009B0823D052F804CBC0F800C08F
:10427000491C8B42F8D81BE0FFE78A6862F31204FE
:104280006FF3DC4404F500248EE791F800C00A695E
:1042900000EB8C0CDCF854C0CCF81420CA78012A4E
:1042A00009D0097843F0044200EB8100406D0260C0
:1042B000284670BC70474A79002A14BF43F0005367
:1042C00043F08053EDE7C0680022816841F00101AE
:1042D000816010467047000038B5002422460094E3
:1042E000009B43F020030093009B61F38A1300932B
:1042F0000099C3681961094BC168D1F810C0CDF8A5
:1043000000C0521C9A4204D8DDF800C01CF0200FF7
:10431000F3D10320FFF787FC204638BD400D030092
:104320000146002009698968C1F34101002904BFE1
:1043300003207047012906D0022904BF01207047DD
:10434000032918BF704702207047C068406910F009
:10435000010F0CBF012000207047C06841698069CF
:104360000840704700698169C069084080B27047A1
:1043700000698169C0690840000C704700EB810149
:10438000496D896800694069084070478446D01CBF
:104390000023DCF8D020800806D0D2F800C05B1CD7
:1043A00041F804CB9842F8D80846704730B4002250
:1043B000C2704FF0010C402580F802C0144613462D
:1043C0008580012901D069B115E080F80BC0082172
:1043D000017004214FF0A04241709115C18002216B
:1043E000017208E0C3720C21017006214170244A59
:1043F0004FF4A061C18002F50061C0E90321437858
:104400000021002B0FD902EB411303F5106500EBDF
:10441000810C03F53063CCF81850CCF85430437855
:10442000491C8B42EFD802F5806141614031C0F8F0
:10443000CC1003780021002B0BD902EB411300EBC9
:10444000810C03F5A063CCF890300378491C8B42B3
:10445000F3D8002113F0FF0F0BD002EB013300EB78
:10446000810C03F58053CCF8D0300378491C8B4283
:10447000F3D802F56061C0F80C11204630BC7047DB
:104480000000044010B5C2680024D068012920F063
:10449000C04008BF40F0005003D0002908BF40F0E2
:1044A0008040D0603220FFF7B3FB204610BD817AF8
:1044B000002908BF70470169896811F0010F08BF22
:1044C0007047D0F80C11D0F80C0121F00301016005
:1044D000704710B40446002094F803C0BCF1000FEC
:1044E0001CBF10BC70474FF0000C04EB8202DB1CB9
:1044F000D2F8D0209B0804BF10BC704751F8044B81
:1045000014600CF1010C6345F8D810BC7047000032
:104510002DE9FF4F89B00024DDE917731546169E7B
:10452000974AC868A44617F0010FA34601D0012E90
:104530004BD0DFF85082B0F5C87F15DA021188FB46
:1045400002824FEA6208A8EBE2720092524202EB4A
:10455000820202EB20120192C0F3810200F00300FC
:10456000CDE90220002273E0B0F5FA7F16DAA0F55B
:10457000C870821088FB02824FEA6208A8EBE272E0
:104580000092524202EB820202EBA00200F0030012
:10459000CDF80CB0CDE90120012259E0A0F5FA7068
:1045A00082FB0042A2EBE2720092A2EB8202104474
:1045B000CDF80CB0CDE9010B886918B101980290D3
:1045C000009801900124022242E000F0010C40100A
:1045D000B4281FDA6C4A82FB00824FEAE208A8EB9B
:1045E000E2720092524202EBC202DFF8A08100EBBD
:1045F000820088FB0092A2EBE272019288FB0082AB
:10460000A2EBE272A2EB820200EB4200CDE9020BC8
:1046100003221DE0F4280DDAB438C0F30112009231
:10462000C0F3810200F00300CDF80CB0CDE9012009
:1046300004220DE0F43882FB0082A2EBE2720092C9
:10464000A2EB82021044CDF80CB0CDE9010B05229B
:1046500048694FF0000802281AD0DFF8349102EBC5
:10466000420209EB8202002002EB88020DF1100ADF
:1046700012F800804AF82080401C0428F8DB17F06C
:10468000010FE94619D0012E08BF002008D014E020
:104690008869002814BF4FF002084FF00108DCE7DA
:1046A00003EB800259F8206056605AF82060401CE5
:1046B00056610428F4DBC3F800C0CC6348690228C3
:1046C0001CBF00273C461AD05AF8240000260028B8
:1046D0000BDD59F82410099808F06AFDE8555AF8DE
:1046E0002400761C7F1CB042F3DC641C032CEBDD41
:1046F00085F816B085F815B00DB0BDE8F08F886963
:10470000002808BF00264FF0000409D0009909983E
:1047100008F04EFD2855641C062CF7DB0326012407
:1047200000275AF8240000281EDD59F824100998A3
:1047300008F03EFD06EB460101EB050888F817007E
:1047400059F82410099808F033FD88F8180059F832
:104750002410099808F02CFD88F819005AF8240054
:10476000761C7F1CB842E0DC641C032CD8DD85F885
:104770003DB085F83CB085F83BB00DB0BDE8F08F9A
:104780005655555567666666398EE338ABAAAA2A30
:1047900024E90008FEE700002DE9F05F0546064623
:1047A00049480C46022A23D002EBC20100EB01105B
:1047B00000F1480500F18C0704F144084FF00909A5
:1047C00056F804BB55F8040B57F804A95946FCF7F2
:1047D000FFF844F8040B59465046FCF7F9F8A9F1E4
:1047E000010948F80409B9F1000FE9DCBDE8F09FC0
:1047F00000F59076A968D0F83801FCF7E9F807468B
:10480000A9693068FCF7E4F8384420606968F06909
:10481000FCF7DEF80746E9697068FCF7D9F8384418
:1048200060602968306AFCF7D3F80746296AB068E7
:10483000FCF7CEF83844A0602968706AFCF7C8F825
:104840000746296AF068FCF7C3F83844E0606968F5
:10485000B06AFCF7BDF80746E9693069FCF7B8F8BB
:1048600038442061A968F06AFCF7B2F80746A969E4
:104870007069FCF7ADF8384460616969B069FCF7AC
:10488000A7F8A0612969F069FCF7A2F8E061E9687E
:10489000306AFCF79DF82062E968706AFCF798F8C6
:1048A00060622969B06AFCF793F8A0626969F06AEE
:1048B000FCF78EF8E062002060642064E063A0638F
:1048C00060632063BDE8F09FFC27001030B4154BF7
:1048D0001A8812F0020FFBD1134C228842F4807226
:1048E0002280124AB2F800C01CF0010FFAD0104D1D
:1048F0004FF0940CA5F800C0B2F800C01CF0020FF5
:10490000FAD01B882880108810F0800FFBD02980F7
:10491000108810F0040FFBD0208840F40070208035
:1049200030BC7047185400400054004014540040FC
:10493000105400400FB4054B10B503A9044A029867
:1049400000F018F810BC5DF814FB0000055D0008CD
:104950007800002002E008C8121F08C1002AFAD11E
:1049600070477047002001E001C1121F002AFBD1EF
:10497000704700002DE9FF4F8BB09A460F46054661
:10498000002606E025280BD052460D9990476D1C55
:10499000761C28780028F5D10FB03046BDE8F08F9E
:1049A0000024A0460122604900E0044315F8013FBD
:1049B000203B02FA03F00842F7D128782E2817D1BD
:1049C00015F8010F44F004042A280ED06FF02F02CE
:1049D0002878A0F1300109290AD808EB880102EBF8
:1049E000410100EB01086D1CF2E757F8048B6D1CC8
:1049F000287869283ED006DC0028CDD063280BD06B
:104A0000642804D136E0732810D075284BD0524664
:104A10000D999047761C85E017F8040B8DF800007F
:104A200000208DF80100E946012003E057F8049BBF
:104A30004FF0FF3061074FF0000401D40AE0641C1E
:104A400044450DDA8442FADB19F804100029F6D146
:104A500006E0641C8442FCDB19F804100029F8D13C
:104A6000264404E019F8010B52460D999047641E44
:104A7000F8D257E001CF4FF00A0B002802DA40428B
:104A80002D2102E0210504D52B218DF824100121D0
:104A900003E0E10705D02021F7E70DF12009089197
:104AA0000CE00021F9E701CF4FF00A0BF9E7594676
:104AB000FCF722F801F1300209F8012D0028F6D1A7
:104AC000ADEB090000F1200B600701D44FF00108A5
:104AD000D84502DDA8EB0B0000E000208046002452
:104AE00006E009A85246005D0D999047641C761CAB
:104AF00008988442F5DB04E0302052460D99904737
:104B0000761CB8F10001A8F10108F5DC05E019F800
:104B1000010B52460D999047761CBBF10001ABF199
:104B2000010BF4DC6D1C34E70928010010B51000FE
:104B300018BF10BD094CA06B4069FBF7C9FF82B2DA
:104B4000A06B01234169606E06F082FA002804BF61
:104B5000606E04F067FE002010BD00000000002021
:104B600010B504464068804722462068BDE81040E2
:104B7000014903F0EDBC0000614B00082DE9F84F3E
:104B80003D480024016841F48001016000683C490F
:104B900000F4800000903948042500F59076C0E9C3
:104BA00000410462C461446284624463C562802738
:104BB00084634FF480684FF40079C0E90267C0E96C
:104BC000059801462F48FCF795FA2F49C02081F837
:104BD0000004DFF8B8B0A805CBF80001A6F1E400A6
:104BE000A0F5467AC0E9004A0462A903C461C0E99D
:104BF00009414463C5628463C0E90267C0E905985E
:104C000001462348FCF776FA2249B02081F80004D7
:104C1000E805CBF80001A6F1A800E903C0E9004AC5
:104C20000462C461C0E909414463C5628463C0E9A8
:104C30000267C0E9059801461748FCF75BFA174977
:104C4000A02081F800042806CBF80001A6F16C0032
:104C5000E903C0E9004A0462C461C0E90941446350
:104C6000C5628463C0E90267C0E90598BDE8F84FF2
:104C700001460B48FCF73EBA303802401C76012052
:104C8000C00200201064024038E000E004E000E0D0
:104C90002864024039E000E0406402403AE000E06D
:104CA000586402402DE9F05FDFF88C80074600254C
:104CB000A8F5886A00EB07108B46A9460AEB00149A
:104CC00005EB450658F826305BB108EB8600017A03
:104CD000B94206D1426804F110005946984748F895
:104CE0002690681CC5B2042DEAD300210425B942E0
:104CF0000DD001EB01100AEB0010827A022A06D1D6
:104D0000C07BE27B904202D1E573BDE8F09F481C76
:104D1000C1B20429EBD3E07B042828BFBDE8F09F93
:104D2000064E56F8200006F045FEE07B46F820903F
:104D3000E573BDE8F09F0000B8820120687E012085
:104D40002DE9F0418046324E00EB081006EB0014CE
:104D5000A07A002808BFBDE8F081002501270128BE
:104D60000FD002282BD0032818BFBDE8F08120689F
:104D700020B1401E206018BFBDE8F081A572BDE8DB
:104D8000F081FBF761FE80B2002101EB011206EB1E
:104D90000212937A022B04BF12898242F1D001F1F0
:104DA0000101C9B20429F0D320810220A072E5726A
:104DB000277365734046BDE8F04100F0DDBA207B03
:104DC000401E10F0FF00207318BFBDE8F081607B2B
:104DD000401CC0B26073042818BF207304D0404642
:104DE000BDE8F04100F0C8BAE17A481C022808D2B8
:104DF000084A02EB8101496819B1E07227736573B3
:104E0000EDE700214046FFF74DFFA572BDE8F081B8
:104E1000787E01204C01002070B50C00054616BFBD
:104E2000084609A002F042F80246294609A0FFF709
:104E300081FD002C1ABF2068002870BD0B49C86195
:104E40004FF00100887170BD3C6E6F7420666F7505
:104E50006E643E0020206E6578745F73745F686FC7
:104E600073742025733A2025730A00000000002087
:104E700008B54FF0000CCDF800C000F001F808BDF7
:104E80002DE9F84F994692460E0005461EBF002DAB
:104E90002878002806D02846FBF71AFE8046B0F591
:104EA000807F03D36FF00F00BDE8F88F31462846AE
:104EB00001F068FF78BB0024884FA34604EB041080
:104EC00007EB0010817A032907D100F110014FF49C
:104ED0008072284602F0B8F9B0B1601CC4B2042C4C
:104EE000ECD37F480068002804BF6FF00500BDE8E0
:104EF000F88F00247B4E009504EB041007EB0010A4
:104F0000817A02291BD109E02EB104EB041007EBD2
:104F10000010406830600020BDE8F88F00F11001FB
:104F20004FF48072009802F08FF940B900EB400115
:104F300056F82110A9B1401CC0B20428F6D3601C59
:104F4000C4B2042CD8D34FF0000C674B0420644645
:104F500004EB041107EB0115AA7AC2B1032A0AD0A7
:104F600011E000EB400046F820A006EB8000C0F8FE
:104F700004900472ADE0A97B5A78511AC9B2614518
:104F800084BF8C462046611CCCB2042CE0D3042C98
:104F900031D00027384600EB400156F82110C9B344
:104FA000401CC0B20428F6D387B301203C72A8721B
:104FB0005878A873C7E900A91E46B8F1FF0F28BFAB
:104FC0004FF0FF08424605F110000099FBF74EFD37
:104FD00005EB0800DFF8149180F810B04FF00008DE
:104FE00059F82800E0B108F1010000F0FF08B8F11D
:104FF000040FF5D342E0042808D200EB001107EBC0
:105000000115A97A032908BF0446C2D04FF0FF302A
:10501000BDE8F88FFFE700EB400006EB8007C3E731
:10502000B8F1040F2AD22E2006F0AEFC5FEA000A87
:1050300008BFDA461AD0FBF707FD82B2B2F5806FDF
:1050400038BF6FF0070003D32949504606F044FBF0
:1050500010F1080FEFD020B1504606F0ABFCDA4655
:1050600004E000222349504606F0A1FC49F828A09C
:10507000BAF1000F02D086F8008017E031780020E6
:10508000491C01F0FF08B8F1040F28BF4FF00008D9
:1050900059F828100029EED1401CC0B208F10101D6
:1050A00001F0FF080428EED34FF0040885F80F80C4
:1050B000B8F1040F07D385F80AB04FF0FF30C7F8F6
:1050C00000B0BDE8F88F7078401C70702046FFF784
:1050D00037FE6FF00400BDE8F88F0000787E0120F5
:1050E0004C010020B882012048010020687E012088
:1050F000BCE300081551000808B503A002F008F849
:1051000003490090086008BD382E382E382E38002C
:105110004C0100202DE9F04F108989B098461646C1
:105120001028C0F01C8100230C2203A9304602F095
:10513000B1FD0C2840F01381BDF80C0002F042F8DC
:10514000DFF828A2002505EB05110AEB0114A17A6E
:10515000022904BF2189814240F0FB80BDF8100084
:1051600002F030F88146BDF8120002F02BF8074635
:105170009DF80E0010F0800F00F0F180B9F1010FE2
:1051800040F0ED80E27A7A49D8F8000051F8221018
:10519000884240F0E48004F110094FF00C0B4FF608
:1051A000FF785946481C1FFA80FB304602F03BFF4F
:1051B000040020D4C020A0431DD0002C13DD59468C
:1051C000304602F030FF002815DB99F80010C0B21D
:1051D000814210D10BF10100641E1FFA80FB09F11E
:1051E0000109002CEBDC5946304609F1010902F0B7
:1051F0001AFF002801DA444603E0D2D10BF1010086
:1052000084B244457BD02346042206A9304602F0EE
:1052100041FD042801BFBDF81A00B0F5807FBDF83C
:105220001800B0F5807F6AD104F1040084B29DF8C3
:105230000F004FF0000B10F00F0F08BF4FF0C00928
:105240004DD147E0214604F1010084B2304602F01E
:10525000EAFE00280DDB39EA00010DD03189204437
:10526000884206DA84B22146304602F0DCFE00288D
:1052700001DA444603E0E5D104F1010084B244457B
:105280006DD023460A226946304602F003FD0A2803
:1052900065D104F10A0084B2BDF80200B0F5807F48
:1052A00001BFBDF80000B0F5807FBDF80800B0F583
:1052B000806F25D0BDF8080001F084FF2044B0F5D0
:1052C000803F4CD2BDF8080001F07CFF204484B23E
:1052D000781E87B2002F1CBF3089A042B2D830465A
:1052E00002F03AFD00212846FFF7DCFC05EB051033
:1052F0000AEB001080F80AB009B0BDE8F08F2EE08C
:105300002346042207A9304602F0C4FC042826D113
:1053100005EB05110AEB011407986060304602F0B6
:105320001BFD019801F04CFF0321A172114920607F
:10533000884288BF2160211D2846FFF7B3FC206802
:10534000002802BFA07A032884F80AB009B0BDE89B
:10535000F08F05F10101CDB2042DFFF4F4AE30461B
:1053600002F0FAFC09B0BDE8F08F0000787E012061
:105370004C010020803A09002DE9F04F404A00EB33
:10538000001102EB01163F49F27A85B0002451F872
:10539000221051B306F11000FBF79AFB123081B2D4
:1053A0000022104602F0C0FA5FEA000908BF4FF081
:1053B000FF3460D0009401940294308901F002FF20
:1053C000ADF8000001208DF802004FF4807AADF8AE
:1053D00004A00C226946484602F090FD06F10F0435
:1053E0000C27641CA04600250AE00021FFF75AFCA8
:1053F000B47205B00020BDE8F08F681CC5B2641C13
:1054000021782E2918BF0029F7D1A4EB08001FFA34
:1054100080FB2A463946484602F01CFD781C83B2C0
:105420005A464146484602F0CBFD7819401C87B2E7
:1054300020780028D5D100223946484602F00AFDDE
:10544000781C83B2ADF80CA0ADF80EA0042203A91D
:10545000484602F0B5FDF27A0A49F07B01EB820280
:105460000949352351F82000494606F0BBFA0446A5
:10547000484602F071FC05B02046BDE8F08F000000
:10548000787E01204C010020687E012010B50024A8
:105490002046FFF755FC601CC4B2042CF8D310BDA5
:1054A0002DE9F74F05464FF00A0E0020F3467346EC
:1054B000F2468146804607463B4900EB400601EB39
:1054C000C6020A2B117D0AD0D1B16DB1D5F800C04A
:1054D0005468A44508D103B040B2BDE8F08F00295C
:1054E00008BF43B2F1D10BE0012912D0022907D342
:1054F000052905D2518AB94224BF4FFA80FB0F46D5
:10550000401CC0B20A28D7D3019810F0020F2FD147
:1055100012E0254951F8361039B1B2F812C0CC4525
:1055200024BF4FFA80FAE146EAE7548A444524BF93
:105530004FFA80FEA046E3E70A2BB8BFDCB201D0E9
:1055400004DA1DE0019810F0010F11D0BBF10A0F31
:10555000B8BF0BF0FF0410DBBEF10A0FB8BF0EF0AE
:10556000FF040ADBBAF10A0FB8BF0AF0FF0404DB3C
:1055700003B04FF0FF30BDE8F08F204600F016F882
:1055800035B1094804EB440200EBC20029684160D0
:10559000054804EB440200EBC2000021418203B045
:1055A00060B2BDE8F08F0000687D012070B50B4E41
:1055B00000EB4004002556F8340018B102F0CCFB93
:1055C00046F8345006EBC4000549057545828560F0
:1055D00045600A68C2608988018270BD687D0120CB
:1055E000B6E300082DE9F04186B00D0080460AD0F0
:1055F000D8F804402D4F2088B0F5807F04BF207973
:10560000062806D00BE02AA0FFF794F906B0BDE803
:10561000F0816079042804BF608808280DD0388D97
:1056200000F101003885F88B00F10100F883404655
:1056300002F092FB06B0BDE8F081788B401C7883C5
:10564000D4F80E000490A169686818B1814208BFBF
:10565000012600D00026002E14BF0123022304F1EE
:10566000080204A9284600F05FFAE088B0F5807FC0
:105670000BD0B0F5007F02D0B88D401CB8854046F5
:1056800002F06AFB06B0BDE8F081002EF7D00223DD
:1056900004AA04F10801281D8DE80F0005F1250377
:1056A0000A461946284600F08BF9E8E73CEB012052
:1056B0006E6574696620213D204E554C4C000000FB
:1056C00070B505460E4684B014462946106800F0B1
:1056D0008BFE002818BF3D4B4AD1206800F0F00136
:1056E000E02930D0A9686B6800EA010219408A42BB
:1056F0001EBF80B2A0F57E41B1F1A90108D0E868D3
:10570000002811BF05F10C046FF0030004B070BD58
:105710002F4B30481A7802EB420100EBC10191F89F
:1057200014C0BCF1020F2ED3D4F800C049688C45D8
:1057300029D12948C18D491CC1853146284600F030
:105740004DF804B070BD01208DF8040000208DF8E4
:1057500005005E208DF80600607801AB00F07F0048
:105760008DF80700A0788DF80800E0788DF8090022
:105770004FF40060009005F125023146284600F004
:1057800091FA04B070BD002101EB410200EBC202AE
:1057900092F814C0BCF1020F0CD3D4F800C05268C8
:1057A000944507D1CAB21A703146284600F016F85F
:1057B00004B070BD491C49B20A29E5DB32462146D6
:1057C000284600F055F804B070BD0000B0E30008B2
:1057D00038010020687D01203CEB01202DE9F041DB
:1057E00005460E461F4802EB420100EBC10484B09F
:1057F000207D022828D1608ADFF86C802B1D0327CA
:105800004FF0010CB0F58E7F0CD9211DCDE9003889
:10581000CDE9021C21332846144A194600F0D0F87D
:1058200090B910E0B0F5877F0ED3211DCDE9003887
:10583000CDE9021C05F12503284604F10C021946A6
:1058400000F0BEF800B927754FF40060009004F135
:105850000C0305F125023146284600F023FA04B076
:10586000BDE8F081687D0120B6E30008B0E30008E0
:105870002DE9F04F85B00746253004908A46086828
:1058800015464FF0FF34394600F0AEFDF0B9DAF8B6
:10589000000000F0F001E0291CBFBAF1000F002861
:1058A00014D03A464FF001015046FFF7F9FDDFF8FA
:1058B000FC905FEA000B0ED525B1B9F82400401C1E
:1058C000A9F8240005B05846BDE8F08F05B06FF088
:1058D0000F00BDE8F08F36480BEB4B0800EBC80615
:1058E0000121307D002806BF3175B760002D14D12D
:1058F00007F1040C304BCDF800C00391CDE9013A1B
:1059000007F1250338462B4A194600F059F804469A
:10591000002D04BF05B0BDE8F08FDFF894A0307D06
:1059200002280ED3254806F10C03294680F800B062
:105930004FF4006000903846049A00F0B3F9044632
:1059400030E0012804BF00212C462BD1207B012808
:1059500003D12468002CF9D171B1218900220220E1
:1059600001F0E2FF040016D0294602F003F940B12D
:10597000204602F0F1F90EE02C46284602F0B6FA75
:105980004CB15AF83800002818BF02F0E5F94AF87F
:105990003840002406E0B9F824004FF0FF34401CE2
:1059A000A9F8240005B02046BDE8F08F3CEB0120AB
:1059B000687D0120B0E30008B6E30008380100204C
:1059C0002DE9FF4F81B04FF0000BDDE90F769A46CD
:1059D0005A461C210220DDF8388001F0A5FFDFF8CF
:1059E0008490050033D06C68119801F0EBFBE080E7
:1059F000DAF80000A060BAF80400A0813868C4F8A2
:105A00001200B888E082D8F80000C4F80E003068B0
:105A1000A0614FF4807020800820608006202071F3
:105A20000420607140F606000090DDE9010229467D
:105A3000039B00F037F9B9F81800401CA9F81800CA
:105A4000284602F089F905B05846BDE8F08FB9F84C
:105A50002400401CA9F8240005B04FF0FF30BDE839
:105A6000F08F00003CEB012010B584B00123DFF87B
:105A700020C0CDE90213041DCDE9004C00F125033F
:105A8000024A1946FFF79CFF04B010BDB0E30008BE
:105A9000B6E300082DE9F043002404261F4DDFF88B
:105AA000809085B002274FF0010804EB440005EB1D
:105AB000C0010A7D002A1CBF1046052A26D0488A4C
:105AC00000F1010080B24882B0F5967F0ED2012A23
:105AD0000AD0032A08BF0E7518D0042A08BF0F7514
